{
  "contractName": "AaveToken",
  "abi": [
    {
      "inputs": [],
      "stateMutability": "nonpayable",
      "type": "constructor"
    },
    {
      "anonymous": false,
      "inputs": [
        {
          "indexed": true,
          "internalType": "address",
          "name": "owner",
          "type": "address"
        },
        {
          "indexed": true,
          "internalType": "address",
          "name": "spender",
          "type": "address"
        },
        {
          "indexed": false,
          "internalType": "uint256",
          "name": "value",
          "type": "uint256"
        }
      ],
      "name": "Approval",
      "type": "event"
    },
    {
      "anonymous": false,
      "inputs": [
        {
          "indexed": false,
          "internalType": "address",
          "name": "owner",
          "type": "address"
        },
        {
          "indexed": false,
          "internalType": "uint128",
          "name": "oldValue",
          "type": "uint128"
        },
        {
          "indexed": false,
          "internalType": "uint128",
          "name": "newValue",
          "type": "uint128"
        }
      ],
      "name": "SnapshotDone",
      "type": "event"
    },
    {
      "anonymous": false,
      "inputs": [
        {
          "indexed": true,
          "internalType": "address",
          "name": "from",
          "type": "address"
        },
        {
          "indexed": true,
          "internalType": "address",
          "name": "to",
          "type": "address"
        },
        {
          "indexed": false,
          "internalType": "uint256",
          "name": "value",
          "type": "uint256"
        }
      ],
      "name": "Transfer",
      "type": "event"
    },
    {
      "inputs": [],
      "name": "DOMAIN_SEPARATOR",
      "outputs": [
        {
          "internalType": "bytes32",
          "name": "",
          "type": "bytes32"
        }
      ],
      "stateMutability": "view",
      "type": "function"
    },
    {
      "inputs": [],
      "name": "EIP712_REVISION",
      "outputs": [
        {
          "internalType": "bytes",
          "name": "",
          "type": "bytes"
        }
      ],
      "stateMutability": "view",
      "type": "function"
    },
    {
      "inputs": [],
      "name": "PERMIT_TYPEHASH",
      "outputs": [
        {
          "internalType": "bytes32",
          "name": "",
          "type": "bytes32"
        }
      ],
      "stateMutability": "view",
      "type": "function"
    },
    {
      "inputs": [],
      "name": "REVISION",
      "outputs": [
        {
          "internalType": "uint256",
          "name": "",
          "type": "uint256"
        }
      ],
      "stateMutability": "view",
      "type": "function"
    },
    {
      "inputs": [],
      "name": "_aaveGovernance",
      "outputs": [
        {
          "internalType": "contract ITransferHook",
          "name": "",
          "type": "address"
        }
      ],
      "stateMutability": "view",
      "type": "function"
    },
    {
      "inputs": [
        {
          "internalType": "address",
          "name": "",
          "type": "address"
        }
      ],
      "name": "_countsSnapshots",
      "outputs": [
        {
          "internalType": "uint256",
          "name": "",
          "type": "uint256"
        }
      ],
      "stateMutability": "view",
      "type": "function"
    },
    {
      "inputs": [
        {
          "internalType": "address",
          "name": "",
          "type": "address"
        }
      ],
      "name": "_nonces",
      "outputs": [
        {
          "internalType": "uint256",
          "name": "",
          "type": "uint256"
        }
      ],
      "stateMutability": "view",
      "type": "function"
    },
    {
      "inputs": [
        {
          "internalType": "address",
          "name": "",
          "type": "address"
        },
        {
          "internalType": "uint256",
          "name": "",
          "type": "uint256"
        }
      ],
      "name": "_snapshots",
      "outputs": [
        {
          "internalType": "uint128",
          "name": "blockNumber",
          "type": "uint128"
        },
        {
          "internalType": "uint128",
          "name": "value",
          "type": "uint128"
        }
      ],
      "stateMutability": "view",
      "type": "function"
    },
    {
      "inputs": [
        {
          "internalType": "address",
          "name": "owner",
          "type": "address"
        },
        {
          "internalType": "address",
          "name": "spender",
          "type": "address"
        }
      ],
      "name": "allowance",
      "outputs": [
        {
          "internalType": "uint256",
          "name": "",
          "type": "uint256"
        }
      ],
      "stateMutability": "view",
      "type": "function"
    },
    {
      "inputs": [
        {
          "internalType": "address",
          "name": "spender",
          "type": "address"
        },
        {
          "internalType": "uint256",
          "name": "amount",
          "type": "uint256"
        }
      ],
      "name": "approve",
      "outputs": [
        {
          "internalType": "bool",
          "name": "",
          "type": "bool"
        }
      ],
      "stateMutability": "nonpayable",
      "type": "function"
    },
    {
      "inputs": [
        {
          "internalType": "address",
          "name": "account",
          "type": "address"
        }
      ],
      "name": "balanceOf",
      "outputs": [
        {
          "internalType": "uint256",
          "name": "",
          "type": "uint256"
        }
      ],
      "stateMutability": "view",
      "type": "function"
    },
    {
      "inputs": [],
      "name": "decimals",
      "outputs": [
        {
          "internalType": "uint8",
          "name": "",
          "type": "uint8"
        }
      ],
      "stateMutability": "view",
      "type": "function"
    },
    {
      "inputs": [
        {
          "internalType": "address",
          "name": "spender",
          "type": "address"
        },
        {
          "internalType": "uint256",
          "name": "subtractedValue",
          "type": "uint256"
        }
      ],
      "name": "decreaseAllowance",
      "outputs": [
        {
          "internalType": "bool",
          "name": "",
          "type": "bool"
        }
      ],
      "stateMutability": "nonpayable",
      "type": "function"
    },
    {
      "inputs": [
        {
          "internalType": "address",
          "name": "spender",
          "type": "address"
        },
        {
          "internalType": "uint256",
          "name": "addedValue",
          "type": "uint256"
        }
      ],
      "name": "increaseAllowance",
      "outputs": [
        {
          "internalType": "bool",
          "name": "",
          "type": "bool"
        }
      ],
      "stateMutability": "nonpayable",
      "type": "function"
    },
    {
      "inputs": [],
      "name": "name",
      "outputs": [
        {
          "internalType": "string",
          "name": "",
          "type": "string"
        }
      ],
      "stateMutability": "view",
      "type": "function"
    },
    {
      "inputs": [],
      "name": "symbol",
      "outputs": [
        {
          "internalType": "string",
          "name": "",
          "type": "string"
        }
      ],
      "stateMutability": "view",
      "type": "function"
    },
    {
      "inputs": [],
      "name": "totalSupply",
      "outputs": [
        {
          "internalType": "uint256",
          "name": "",
          "type": "uint256"
        }
      ],
      "stateMutability": "view",
      "type": "function"
    },
    {
      "inputs": [
        {
          "internalType": "address",
          "name": "recipient",
          "type": "address"
        },
        {
          "internalType": "uint256",
          "name": "amount",
          "type": "uint256"
        }
      ],
      "name": "transfer",
      "outputs": [
        {
          "internalType": "bool",
          "name": "",
          "type": "bool"
        }
      ],
      "stateMutability": "nonpayable",
      "type": "function"
    },
    {
      "inputs": [
        {
          "internalType": "address",
          "name": "sender",
          "type": "address"
        },
        {
          "internalType": "address",
          "name": "recipient",
          "type": "address"
        },
        {
          "internalType": "uint256",
          "name": "amount",
          "type": "uint256"
        }
      ],
      "name": "transferFrom",
      "outputs": [
        {
          "internalType": "bool",
          "name": "",
          "type": "bool"
        }
      ],
      "stateMutability": "nonpayable",
      "type": "function"
    },
    {
      "inputs": [
        {
          "internalType": "address",
          "name": "migrator",
          "type": "address"
        },
        {
          "internalType": "address",
          "name": "distributor",
          "type": "address"
        },
        {
          "internalType": "contract ITransferHook",
          "name": "aaveGovernance",
          "type": "address"
        }
      ],
      "name": "initialize",
      "outputs": [],
      "stateMutability": "nonpayable",
      "type": "function"
    },
    {
      "inputs": [
        {
          "internalType": "address",
          "name": "owner",
          "type": "address"
        },
        {
          "internalType": "address",
          "name": "spender",
          "type": "address"
        },
        {
          "internalType": "uint256",
          "name": "value",
          "type": "uint256"
        },
        {
          "internalType": "uint256",
          "name": "deadline",
          "type": "uint256"
        },
        {
          "internalType": "uint8",
          "name": "v",
          "type": "uint8"
        },
        {
          "internalType": "bytes32",
          "name": "r",
          "type": "bytes32"
        },
        {
          "internalType": "bytes32",
          "name": "s",
          "type": "bytes32"
        }
      ],
      "name": "permit",
      "outputs": [],
      "stateMutability": "nonpayable",
      "type": "function"
    }
  ],
  "bytecode": "0x608060405260006006553480156200001657600080fd5b50604080518082018252600a81526920b0bb32902a37b5b2b760b11b6020808301918252835180850190945260048452634141564560e01b908401528151919291620000659160039162000091565b5080516200007b90600490602084019062000091565b50506005805460ff19166012179055506200013d565b828054600181600116156101000203166002900490600052602060002090601f016020900481019282620000c9576000855562000114565b82601f10620000e457805160ff191683800117855562000114565b8280016001018555821562000114579182015b8281111562000114578251825591602001919060010190620000f7565b506200012292915062000126565b5090565b5b8082111562000122576000815560010162000127565b611541806200014d6000396000f3fe608060405234801561001057600080fd5b50600436106101375760003560e01c806378160376116100b8578063b9844d8d1161007c578063b9844d8d146103b2578063c0c53b8b146103d8578063c3863ada14610412578063d505accf14610436578063dd62ed3e14610487578063dde43cba146104b557610137565b806378160376146103245780638779588c1461032c57806395d89b4114610352578063a457c2d71461035a578063a9059cbb1461038657610137565b806330adf81f116100ff57806330adf81f146102a4578063313ce567146102ac5780633644e515146102ca57806339509351146102d257806370a08231146102fe57610137565b806306fdde031461013c578063095ea7b3146101b957806318160ddd146101f957806323b872dd146102135780632acbf82314610249575b600080fd5b6101446104bd565b6040805160208082528351818301528351919283929083019185019080838360005b8381101561017e578181015183820152602001610166565b50505050905090810190601f1680156101ab5780820380516001836020036101000a031916815260200191505b509250505060405180910390f35b6101e5600480360360408110156101cf57600080fd5b506001600160a01b038135169060200135610553565b604080519115158252519081900360200190f35b610201610570565b60408051918252519081900360200190f35b6101e56004803603606081101561022957600080fd5b506001600160a01b03813581169160208101359091169060400135610576565b6102756004803603604081101561025f57600080fd5b506001600160a01b0381351690602001356105fd565b60405180836001600160801b03168152602001826001600160801b031681526020019250505060405180910390f35b61020161062e565b6102b4610652565b6040805160ff9092168252519081900360200190f35b61020161065b565b6101e5600480360360408110156102e857600080fd5b506001600160a01b038135169060200135610661565b6102016004803603602081101561031457600080fd5b50356001600160a01b03166106af565b6101446106ca565b6102016004803603602081101561034257600080fd5b50356001600160a01b03166106e7565b6101446106f9565b6101e56004803603604081101561037057600080fd5b506001600160a01b03813516906020013561075a565b6101e56004803603604081101561039c57600080fd5b506001600160a01b0381351690602001356107c2565b610201600480360360208110156103c857600080fd5b50356001600160a01b03166107d6565b610410600480360360608110156103ee57600080fd5b506001600160a01b0381358116916020810135821691604090910135166107e8565b005b61041a6109b1565b604080516001600160a01b039092168252519081900360200190f35b610410600480360360e081101561044c57600080fd5b506001600160a01b03813581169160208101359091169060408101359060608101359060ff6080820135169060a08101359060c001356109c0565b6102016004803603604081101561049d57600080fd5b506001600160a01b0381358116916020013516610c07565b610201610c32565b60038054604080516020601f60026000196101006001881615020190951694909404938401819004810282018101909252828152606093909290918301828280156105495780601f1061051e57610100808354040283529160200191610549565b820191906000526020600020905b81548152906001019060200180831161052c57829003601f168201915b5050505050905090565b6000610567610560610c37565b8484610c3b565b50600192915050565b60025490565b6000610583848484610d27565b6105f38461058f610c37565b6105ee85604051806060016040528060288152602001611448602891396001600160a01b038a166000908152600160205260408120906105cd610c37565b6001600160a01b031681526020810191909152604001600020549190610e82565b610c3b565b5060019392505050565b603a6020908152600092835260408084209091529082529020546001600160801b0380821691600160801b90041682565b7f6e71edae12b1b97f4d1f60370fef10105fa2faae0126114a169c64845d6126c981565b60055460ff1690565b603d5481565b600061056761066e610c37565b846105ee856001600061067f610c37565b6001600160a01b03908116825260208083019390935260409182016000908120918c168152925290205490610f19565b6001600160a01b031660009081526020819052604090205490565b604051806040016040528060018152602001603160f81b81525081565b603b6020526000908152604090205481565b60048054604080516020601f60026000196101006001881615020190951694909404938401819004810282018101909252828152606093909290918301828280156105495780601f1061051e57610100808354040283529160200191610549565b6000610567610767610c37565b846105ee856040518060600160405280602581526020016114e76025913960016000610791610c37565b6001600160a01b03908116825260208083019390935260409182016000908120918d16815292529020549190610e82565b60006105676107cf610c37565b8484610d27565b60396020526000908152604090205481565b60006107f2610f7a565b905060065481116108345760405162461bcd60e51b815260040180806020018281038252602e815260200180611470602e913960400191505060405180910390fd5b6006819055604080518082018252600a8082526920b0bb32902a37b5b2b760b11b60209283018190528351808501855260018152603160f81b9084015283517f8b73c3c69bb8fe3d512ecc4cf759cc79239f7b179b0ffacaa9a75d522b39400f818501527fc79ca22c0992a4cca3636d52362fc61ce7d8001b81a7b225d701c42fb0636f32818601527fc89efdaa54c0f20c7adf612882df0950f5a951637e0307cdcb4c672f298b8bc6606082015246608082018190523060a0808401919091528651808403909101815260c0830180885281519190960120603d5561010082019095529282905260e09092019182526109309160039161133b565b50604080518082019091526004808252634141564560e01b602090920191825261095a918161133b565b506109656012610f7f565b603c80546001600160a01b0319166001600160a01b038516179055610995856a0ac0db698068112d000000610f95565b6109aa846a027b46536c66c8e3000000610f95565b5050505050565b603c546001600160a01b031681565b6001600160a01b038716610a0b576040805162461bcd60e51b815260206004820152600d60248201526c24a72b20a624a22fa7aba722a960991b604482015290519081900360640190fd5b83421115610a55576040805162461bcd60e51b815260206004820152601260248201527124a72b20a624a22fa2ac2824a920aa24a7a760711b604482015290519081900360640190fd5b6001600160a01b03808816600081815260396020908152604080832054603d5482517f6e71edae12b1b97f4d1f60370fef10105fa2faae0126114a169c64845d6126c98186015280840196909652958c166060860152608085018b905260a0850181905260c08086018b90528251808703909101815260e08601835280519084012061190160f01b6101008701526101028601969096526101228086019690965281518086039096018652610142850180835286519684019690962093909552610162840180825283905260ff88166101828501526101a284018790526101c284018690525191926001926101e28083019392601f198301929081900390910190855afa158015610b6a573d6000803e3d6000fd5b505050602060405103516001600160a01b0316896001600160a01b031614610bcd576040805162461bcd60e51b8152602060048201526011602482015270494e56414c49445f5349474e415455524560781b604482015290519081900360640190fd5b610bd8826001610f19565b6001600160a01b038a16600090815260396020526040902055610bfc898989610c3b565b505050505050505050565b6001600160a01b03918216600090815260016020908152604080832093909416825291909152205490565b600181565b3390565b6001600160a01b038316610c805760405162461bcd60e51b81526004018080602001828103825260248152602001806114c36024913960400191505060405180910390fd5b6001600160a01b038216610cc55760405162461bcd60e51b81526004018080602001828103825260228152602001806114006022913960400191505060405180910390fd5b6001600160a01b03808416600081815260016020908152604080832094871680845294825291829020859055815185815291517f8c5be1e5ebec7d5bd14f71427d1e84f3dd0314c0f7b2291e5b200ac8c7c3b9259281900390910190a3505050565b6001600160a01b038316610d6c5760405162461bcd60e51b815260040180806020018281038252602581526020018061149e6025913960400191505060405180910390fd5b6001600160a01b038216610db15760405162461bcd60e51b81526004018080602001828103825260238152602001806113dd6023913960400191505060405180910390fd5b610dbc838383611085565b610df981604051806060016040528060268152602001611422602691396001600160a01b0386166000908152602081905260409020549190610e82565b6001600160a01b038085166000908152602081905260408082209390935590841681522054610e289082610f19565b6001600160a01b038084166000818152602081815260409182902094909455805185815290519193928716927fddf252ad1be2c89b69c2b068fc378daa952ba7f163c4a11628f55a4df523b3ef92918290030190a3505050565b60008184841115610f115760405162461bcd60e51b81526004018080602001828103825283818151815260200191508051906020019080838360005b83811015610ed6578181015183820152602001610ebe565b50505050905090810190601f168015610f035780820380516001836020036101000a031916815260200191505b509250505060405180910390fd5b505050900390565b600082820183811015610f73576040805162461bcd60e51b815260206004820152601b60248201527f536166654d6174683a206164646974696f6e206f766572666c6f770000000000604482015290519081900360640190fd5b9392505050565b600190565b6005805460ff191660ff92909216919091179055565b6001600160a01b038216610ff0576040805162461bcd60e51b815260206004820152601f60248201527f45524332303a206d696e7420746f20746865207a65726f206164647265737300604482015290519081900360640190fd5b610ffc60008383611085565b6002546110099082610f19565b6002556001600160a01b03821660009081526020819052604090205461102f9082610f19565b6001600160a01b0383166000818152602081815260408083209490945583518581529351929391927fddf252ad1be2c89b69c2b068fc378daa952ba7f163c4a11628f55a4df523b3ef9281900390910190a35050565b816001600160a01b0316836001600160a01b031614156110a457611198565b6001600160a01b038316156110d65760006110be846106af565b90506110d484826110cf818661119d565b6111df565b505b6001600160a01b038216156111035760006110f0836106af565b905061110183826110cf8186610f19565b505b603c546001600160a01b0316801561119657806001600160a01b0316634a3931498585856040518463ffffffff1660e01b815260040180846001600160a01b03168152602001836001600160a01b031681526020018281526020019350505050600060405180830381600087803b15801561117d57600080fd5b505af1158015611191573d6000803e3d6000fd5b505050505b505b505050565b6000610f7383836040518060400160405280601e81526020017f536166654d6174683a207375627472616374696f6e206f766572666c6f770000815250610e82565b6001600160a01b0383166000908152603b6020908152604080832054603a9092529091204391908115801590611233575060001982016000908152602082905260409020546001600160801b038481169116145b15611268576000198201600090815260208290526040902080546001600160801b03808716600160801b0291161790556112e1565b6040805180820182526001600160801b038086168252868116602080840191825260008781528682528581209451855493518516600160801b029085166fffffffffffffffffffffffffffffffff1990941693909317909316919091179092556001600160a01b0389168152603b909152206001830190555b604080516001600160a01b03881681526001600160801b03808816602083015286168183015290517f2cd3c83ddac2953ee75f53265d9ea4463eaf05030e5459a1b7e63819b7ce88f79181900360600190a1505050505050565b828054600181600116156101000203166002900490600052602060002090601f01602090048101928261137157600085556113b7565b82601f1061138a57805160ff19168380011785556113b7565b828001600101855582156113b7579182015b828111156113b757825182559160200191906001019061139c565b506113c39291506113c7565b5090565b5b808211156113c357600081556001016113c856fe45524332303a207472616e7366657220746f20746865207a65726f206164647265737345524332303a20617070726f766520746f20746865207a65726f206164647265737345524332303a207472616e7366657220616d6f756e7420657863656564732062616c616e636545524332303a207472616e7366657220616d6f756e74206578636565647320616c6c6f77616e6365436f6e747261637420696e7374616e63652068617320616c7265616479206265656e20696e697469616c697a656445524332303a207472616e736665722066726f6d20746865207a65726f206164647265737345524332303a20617070726f76652066726f6d20746865207a65726f206164647265737345524332303a2064656372656173656420616c6c6f77616e63652062656c6f77207a65726fa26469706673582212208a683e89a7645300fb6ee83c117cee892b9f79cc466b58bf63a5f5a318c2f4e364736f6c63430007050033",
  "immutableReferences": {},
  "source": "// SPDX-License-Identifier: agpl-3.0\npragma solidity 0.7.5;\n\nimport {ERC20} from '../open-zeppelin/ERC20.sol';\nimport {ITransferHook} from '../interfaces/ITransferHook.sol';\nimport {VersionedInitializable} from '../utils/VersionedInitializable.sol';\nimport {SafeMath} from '../open-zeppelin/SafeMath.sol';\n\n/**\n * @notice implementation of the AAVE token contract\n * @author Aave\n */\ncontract AaveToken is ERC20, VersionedInitializable {\n  using SafeMath for uint256;\n\n  /// @dev snapshot of a value on a specific block, used for balances\n  struct Snapshot {\n    uint128 blockNumber;\n    uint128 value;\n  }\n\n  string internal constant NAME = 'Aave Token';\n  string internal constant SYMBOL = 'AAVE';\n  uint8 internal constant DECIMALS = 18;\n\n  /// @dev the amount being distributed for the LEND -> AAVE migration\n  uint256 internal constant MIGRATION_AMOUNT = 13000000 ether;\n\n  /// @dev the amount being distributed for the PSI and PEI\n  uint256 internal constant DISTRIBUTION_AMOUNT = 3000000 ether;\n\n  uint256 public constant REVISION = 1;\n\n  /// @dev owner => next valid nonce to submit with permit()\n  mapping(address => uint256) public _nonces;\n\n  mapping(address => mapping(uint256 => Snapshot)) public _snapshots;\n\n  mapping(address => uint256) public _countsSnapshots;\n\n  /// @dev reference to the Aave governance contract to call (if initialized) on _beforeTokenTransfer\n  /// !!! IMPORTANT The Aave governance is considered a trustable contract, being its responsibility\n  /// to control all potential reentrancies by calling back the AaveToken\n  ITransferHook public _aaveGovernance;\n\n  bytes32 public DOMAIN_SEPARATOR;\n  bytes public constant EIP712_REVISION = bytes('1');\n  bytes32 internal constant EIP712_DOMAIN = keccak256(\n    'EIP712Domain(string name,string version,uint256 chainId,address verifyingContract)'\n  );\n  bytes32 public constant PERMIT_TYPEHASH = keccak256(\n    'Permit(address owner,address spender,uint256 value,uint256 nonce,uint256 deadline)'\n  );\n\n  event SnapshotDone(address owner, uint128 oldValue, uint128 newValue);\n\n  constructor() public ERC20(NAME, SYMBOL) {}\n\n  /**\n   * @dev initializes the contract upon assignment to the InitializableAdminUpgradeabilityProxy\n   * @param migrator the address of the LEND -> AAVE migration contract\n   * @param distributor the address of the AAVE distribution contract\n   */\n  function initialize(\n    address migrator,\n    address distributor,\n    ITransferHook aaveGovernance\n  ) external initializer {\n    uint256 chainId;\n\n    //solium-disable-next-line\n    assembly {\n      chainId := chainid()\n    }\n\n    DOMAIN_SEPARATOR = keccak256(\n      abi.encode(\n        EIP712_DOMAIN,\n        keccak256(bytes(NAME)),\n        keccak256(EIP712_REVISION),\n        chainId,\n        address(this)\n      )\n    );\n    _name = NAME;\n    _symbol = SYMBOL;\n    _setupDecimals(DECIMALS);\n    _aaveGovernance = aaveGovernance;\n    _mint(migrator, MIGRATION_AMOUNT);\n    _mint(distributor, DISTRIBUTION_AMOUNT);\n  }\n\n  /**\n   * @dev implements the permit function as for https://github.com/ethereum/EIPs/blob/8a34d644aacf0f9f8f00815307fd7dd5da07655f/EIPS/eip-2612.md\n   * @param owner the owner of the funds\n   * @param spender the spender\n   * @param value the amount\n   * @param deadline the deadline timestamp, type(uint256).max for no deadline\n   * @param v signature param\n   * @param s signature param\n   * @param r signature param\n   */\n\n  function permit(\n    address owner,\n    address spender,\n    uint256 value,\n    uint256 deadline,\n    uint8 v,\n    bytes32 r,\n    bytes32 s\n  ) external {\n    require(owner != address(0), 'INVALID_OWNER');\n    //solium-disable-next-line\n    require(block.timestamp <= deadline, 'INVALID_EXPIRATION');\n    uint256 currentValidNonce = _nonces[owner];\n    bytes32 digest = keccak256(\n      abi.encodePacked(\n        '\\x19\\x01',\n        DOMAIN_SEPARATOR,\n        keccak256(abi.encode(PERMIT_TYPEHASH, owner, spender, value, currentValidNonce, deadline))\n      )\n    );\n\n    require(owner == ecrecover(digest, v, r, s), 'INVALID_SIGNATURE');\n    _nonces[owner] = currentValidNonce.add(1);\n    _approve(owner, spender, value);\n  }\n\n  /**\n   * @dev returns the revision of the implementation contract\n   */\n  function getRevision() internal override pure returns (uint256) {\n    return REVISION;\n  }\n\n  /**\n   * @dev Writes a snapshot for an owner of tokens\n   * @param owner The owner of the tokens\n   * @param oldValue The value before the operation that is gonna be executed after the snapshot\n   * @param newValue The value after the operation\n   */\n  function _writeSnapshot(\n    address owner,\n    uint128 oldValue,\n    uint128 newValue\n  ) internal {\n    uint128 currentBlock = uint128(block.number);\n\n    uint256 ownerCountOfSnapshots = _countsSnapshots[owner];\n    mapping(uint256 => Snapshot) storage snapshotsOwner = _snapshots[owner];\n\n    // Doing multiple operations in the same block\n    if (\n      ownerCountOfSnapshots != 0 &&\n      snapshotsOwner[ownerCountOfSnapshots - 1].blockNumber == currentBlock\n    ) {\n      snapshotsOwner[ownerCountOfSnapshots - 1].value = newValue;\n    } else {\n      snapshotsOwner[ownerCountOfSnapshots] = Snapshot(currentBlock, newValue);\n      _countsSnapshots[owner] = ownerCountOfSnapshots + 1;\n    }\n\n    emit SnapshotDone(owner, oldValue, newValue);\n  }\n\n  /**\n   * @dev Writes a snapshot before any operation involving transfer of value: _transfer, _mint and _burn\n   * - On _transfer, it writes snapshots for both \"from\" and \"to\"\n   * - On _mint, only for _to\n   * - On _burn, only for _from\n   * @param from the from address\n   * @param to the to address\n   * @param amount the amount to transfer\n   */\n  function _beforeTokenTransfer(\n    address from,\n    address to,\n    uint256 amount\n  ) internal override {\n    if (from == to) {\n      return;\n    }\n\n    if (from != address(0)) {\n      uint256 fromBalance = balanceOf(from);\n      _writeSnapshot(from, uint128(fromBalance), uint128(fromBalance.sub(amount)));\n    }\n    if (to != address(0)) {\n      uint256 toBalance = balanceOf(to);\n      _writeSnapshot(to, uint128(toBalance), uint128(toBalance.add(amount)));\n    }\n\n    // caching the aave governance address to avoid multiple state loads\n    ITransferHook aaveGovernance = _aaveGovernance;\n    if (aaveGovernance != ITransferHook(0)) {\n      aaveGovernance.onTransfer(from, to, amount);\n    }\n  }\n}\n",
  "sourcePath": "/Users/nemitariajienka/Desktop/projects/populous/Populous-DeFi-governance/contracts/dependencies/aave-token-v2/contracts/token/AaveToken.sol",
  "compiler": {
    "name": "solc",
    "version": "0.7.5+commit.eb77ed08.Emscripten.clang"
  },
  "schemaVersion": "3.3.3",
  "updatedAt": "2021-04-28T09:16:05.291Z",
  "devdoc": {
    "author": "Aave",
    "kind": "dev",
    "methods": {
      "allowance(address,address)": {
        "details": "See {IERC20-allowance}."
      },
      "approve(address,uint256)": {
        "details": "See {IERC20-approve}. Requirements: - `spender` cannot be the zero address."
      },
      "balanceOf(address)": {
        "details": "See {IERC20-balanceOf}."
      },
      "decimals()": {
        "details": "Returns the number of decimals used to get its user representation. For example, if `decimals` equals `2`, a balance of `505` tokens should be displayed to a user as `5,05` (`505 / 10 ** 2`). Tokens usually opt for a value of 18, imitating the relationship between Ether and Wei. This is the value {ERC20} uses, unless {_setupDecimals} is called. NOTE: This information is only used for _display_ purposes: it in no way affects any of the arithmetic of the contract, including {IERC20-balanceOf} and {IERC20-transfer}."
      },
      "decreaseAllowance(address,uint256)": {
        "details": "Atomically decreases the allowance granted to `spender` by the caller. This is an alternative to {approve} that can be used as a mitigation for problems described in {IERC20-approve}. Emits an {Approval} event indicating the updated allowance. Requirements: - `spender` cannot be the zero address. - `spender` must have allowance for the caller of at least `subtractedValue`."
      },
      "increaseAllowance(address,uint256)": {
        "details": "Atomically increases the allowance granted to `spender` by the caller. This is an alternative to {approve} that can be used as a mitigation for problems described in {IERC20-approve}. Emits an {Approval} event indicating the updated allowance. Requirements: - `spender` cannot be the zero address."
      },
      "initialize(address,address,address)": {
        "details": "initializes the contract upon assignment to the InitializableAdminUpgradeabilityProxy",
        "params": {
          "distributor": "the address of the AAVE distribution contract",
          "migrator": "the address of the LEND -> AAVE migration contract"
        }
      },
      "name()": {
        "details": "Returns the name of the token."
      },
      "permit(address,address,uint256,uint256,uint8,bytes32,bytes32)": {
        "details": "implements the permit function as for https://github.com/ethereum/EIPs/blob/8a34d644aacf0f9f8f00815307fd7dd5da07655f/EIPS/eip-2612.md",
        "params": {
          "deadline": "the deadline timestamp, type(uint256).max for no deadline",
          "owner": "the owner of the funds",
          "r": "signature param",
          "s": "signature param",
          "spender": "the spender",
          "v": "signature param",
          "value": "the amount"
        }
      },
      "symbol()": {
        "details": "Returns the symbol of the token, usually a shorter version of the name."
      },
      "totalSupply()": {
        "details": "See {IERC20-totalSupply}."
      },
      "transfer(address,uint256)": {
        "details": "See {IERC20-transfer}. Requirements: - `recipient` cannot be the zero address. - the caller must have a balance of at least `amount`."
      },
      "transferFrom(address,address,uint256)": {
        "details": "See {IERC20-transferFrom}. Emits an {Approval} event indicating the updated allowance. This is not required by the EIP. See the note at the beginning of {ERC20}; Requirements: - `sender` and `recipient` cannot be the zero address. - `sender` must have a balance of at least `amount`. - the caller must have allowance for ``sender``'s tokens of at least `amount`."
      }
    },
    "stateVariables": {
      "DISTRIBUTION_AMOUNT": {
        "details": "the amount being distributed for the PSI and PEI"
      },
      "MIGRATION_AMOUNT": {
        "details": "the amount being distributed for the LEND -> AAVE migration"
      },
      "_aaveGovernance": {
        "details": "reference to the Aave governance contract to call (if initialized) on _beforeTokenTransfer !!! IMPORTANT The Aave governance is considered a trustable contract, being its responsibility to control all potential reentrancies by calling back the AaveToken"
      },
      "_nonces": {
        "details": "owner => next valid nonce to submit with permit()"
      }
    },
    "version": 1
  },
  "userdoc": {
    "kind": "user",
    "methods": {},
    "notice": "implementation of the AAVE token contract",
    "version": 1
  }
}