{
  "contractName": "Executor",
  "abi": [
    {
      "inputs": [
        {
          "internalType": "address",
          "name": "admin",
          "type": "address"
        },
        {
          "internalType": "uint256",
          "name": "delay",
          "type": "uint256"
        },
        {
          "internalType": "uint256",
          "name": "gracePeriod",
          "type": "uint256"
        },
        {
          "internalType": "uint256",
          "name": "minimumDelay",
          "type": "uint256"
        },
        {
          "internalType": "uint256",
          "name": "maximumDelay",
          "type": "uint256"
        },
        {
          "internalType": "uint256",
          "name": "propositionThreshold",
          "type": "uint256"
        },
        {
          "internalType": "uint256",
          "name": "voteDuration",
          "type": "uint256"
        },
        {
          "internalType": "uint256",
          "name": "voteDifferential",
          "type": "uint256"
        },
        {
          "internalType": "uint256",
          "name": "minimumQuorum",
          "type": "uint256"
        }
      ],
      "stateMutability": "nonpayable",
      "type": "constructor"
    },
    {
      "anonymous": false,
      "inputs": [
        {
          "indexed": false,
          "internalType": "bytes32",
          "name": "actionHash",
          "type": "bytes32"
        },
        {
          "indexed": true,
          "internalType": "address",
          "name": "target",
          "type": "address"
        },
        {
          "indexed": false,
          "internalType": "uint256",
          "name": "value",
          "type": "uint256"
        },
        {
          "indexed": false,
          "internalType": "string",
          "name": "signature",
          "type": "string"
        },
        {
          "indexed": false,
          "internalType": "bytes",
          "name": "data",
          "type": "bytes"
        },
        {
          "indexed": false,
          "internalType": "uint256",
          "name": "executionTime",
          "type": "uint256"
        },
        {
          "indexed": false,
          "internalType": "bool",
          "name": "withDelegatecall",
          "type": "bool"
        }
      ],
      "name": "CancelledAction",
      "type": "event"
    },
    {
      "anonymous": false,
      "inputs": [
        {
          "indexed": false,
          "internalType": "bytes32",
          "name": "actionHash",
          "type": "bytes32"
        },
        {
          "indexed": true,
          "internalType": "address",
          "name": "target",
          "type": "address"
        },
        {
          "indexed": false,
          "internalType": "uint256",
          "name": "value",
          "type": "uint256"
        },
        {
          "indexed": false,
          "internalType": "string",
          "name": "signature",
          "type": "string"
        },
        {
          "indexed": false,
          "internalType": "bytes",
          "name": "data",
          "type": "bytes"
        },
        {
          "indexed": false,
          "internalType": "uint256",
          "name": "executionTime",
          "type": "uint256"
        },
        {
          "indexed": false,
          "internalType": "bool",
          "name": "withDelegatecall",
          "type": "bool"
        },
        {
          "indexed": false,
          "internalType": "bytes",
          "name": "resultData",
          "type": "bytes"
        }
      ],
      "name": "ExecutedAction",
      "type": "event"
    },
    {
      "anonymous": false,
      "inputs": [
        {
          "indexed": false,
          "internalType": "address",
          "name": "newAdmin",
          "type": "address"
        }
      ],
      "name": "NewAdmin",
      "type": "event"
    },
    {
      "anonymous": false,
      "inputs": [
        {
          "indexed": false,
          "internalType": "uint256",
          "name": "delay",
          "type": "uint256"
        }
      ],
      "name": "NewDelay",
      "type": "event"
    },
    {
      "anonymous": false,
      "inputs": [
        {
          "indexed": false,
          "internalType": "address",
          "name": "newPendingAdmin",
          "type": "address"
        }
      ],
      "name": "NewPendingAdmin",
      "type": "event"
    },
    {
      "anonymous": false,
      "inputs": [
        {
          "indexed": false,
          "internalType": "bytes32",
          "name": "actionHash",
          "type": "bytes32"
        },
        {
          "indexed": true,
          "internalType": "address",
          "name": "target",
          "type": "address"
        },
        {
          "indexed": false,
          "internalType": "uint256",
          "name": "value",
          "type": "uint256"
        },
        {
          "indexed": false,
          "internalType": "string",
          "name": "signature",
          "type": "string"
        },
        {
          "indexed": false,
          "internalType": "bytes",
          "name": "data",
          "type": "bytes"
        },
        {
          "indexed": false,
          "internalType": "uint256",
          "name": "executionTime",
          "type": "uint256"
        },
        {
          "indexed": false,
          "internalType": "bool",
          "name": "withDelegatecall",
          "type": "bool"
        }
      ],
      "name": "QueuedAction",
      "type": "event"
    },
    {
      "inputs": [],
      "name": "GRACE_PERIOD",
      "outputs": [
        {
          "internalType": "uint256",
          "name": "",
          "type": "uint256"
        }
      ],
      "stateMutability": "view",
      "type": "function"
    },
    {
      "inputs": [],
      "name": "MAXIMUM_DELAY",
      "outputs": [
        {
          "internalType": "uint256",
          "name": "",
          "type": "uint256"
        }
      ],
      "stateMutability": "view",
      "type": "function"
    },
    {
      "inputs": [],
      "name": "MINIMUM_DELAY",
      "outputs": [
        {
          "internalType": "uint256",
          "name": "",
          "type": "uint256"
        }
      ],
      "stateMutability": "view",
      "type": "function"
    },
    {
      "inputs": [],
      "name": "MINIMUM_QUORUM",
      "outputs": [
        {
          "internalType": "uint256",
          "name": "",
          "type": "uint256"
        }
      ],
      "stateMutability": "view",
      "type": "function"
    },
    {
      "inputs": [],
      "name": "ONE_HUNDRED_WITH_PRECISION",
      "outputs": [
        {
          "internalType": "uint256",
          "name": "",
          "type": "uint256"
        }
      ],
      "stateMutability": "view",
      "type": "function"
    },
    {
      "inputs": [],
      "name": "PROPOSITION_THRESHOLD",
      "outputs": [
        {
          "internalType": "uint256",
          "name": "",
          "type": "uint256"
        }
      ],
      "stateMutability": "view",
      "type": "function"
    },
    {
      "inputs": [],
      "name": "VOTE_DIFFERENTIAL",
      "outputs": [
        {
          "internalType": "uint256",
          "name": "",
          "type": "uint256"
        }
      ],
      "stateMutability": "view",
      "type": "function"
    },
    {
      "inputs": [],
      "name": "VOTING_DURATION",
      "outputs": [
        {
          "internalType": "uint256",
          "name": "",
          "type": "uint256"
        }
      ],
      "stateMutability": "view",
      "type": "function"
    },
    {
      "inputs": [],
      "name": "acceptAdmin",
      "outputs": [],
      "stateMutability": "nonpayable",
      "type": "function"
    },
    {
      "inputs": [
        {
          "internalType": "address",
          "name": "target",
          "type": "address"
        },
        {
          "internalType": "uint256",
          "name": "value",
          "type": "uint256"
        },
        {
          "internalType": "string",
          "name": "signature",
          "type": "string"
        },
        {
          "internalType": "bytes",
          "name": "data",
          "type": "bytes"
        },
        {
          "internalType": "uint256",
          "name": "executionTime",
          "type": "uint256"
        },
        {
          "internalType": "bool",
          "name": "withDelegatecall",
          "type": "bool"
        }
      ],
      "name": "cancelTransaction",
      "outputs": [
        {
          "internalType": "bytes32",
          "name": "",
          "type": "bytes32"
        }
      ],
      "stateMutability": "nonpayable",
      "type": "function"
    },
    {
      "inputs": [
        {
          "internalType": "address",
          "name": "target",
          "type": "address"
        },
        {
          "internalType": "uint256",
          "name": "value",
          "type": "uint256"
        },
        {
          "internalType": "string",
          "name": "signature",
          "type": "string"
        },
        {
          "internalType": "bytes",
          "name": "data",
          "type": "bytes"
        },
        {
          "internalType": "uint256",
          "name": "executionTime",
          "type": "uint256"
        },
        {
          "internalType": "bool",
          "name": "withDelegatecall",
          "type": "bool"
        }
      ],
      "name": "executeTransaction",
      "outputs": [
        {
          "internalType": "bytes",
          "name": "",
          "type": "bytes"
        }
      ],
      "stateMutability": "payable",
      "type": "function"
    },
    {
      "inputs": [],
      "name": "getAdmin",
      "outputs": [
        {
          "internalType": "address",
          "name": "",
          "type": "address"
        }
      ],
      "stateMutability": "view",
      "type": "function"
    },
    {
      "inputs": [],
      "name": "getDelay",
      "outputs": [
        {
          "internalType": "uint256",
          "name": "",
          "type": "uint256"
        }
      ],
      "stateMutability": "view",
      "type": "function"
    },
    {
      "inputs": [
        {
          "internalType": "contract IPopulousGovernanceV2",
          "name": "governance",
          "type": "address"
        }
      ],
      "name": "getMinimumPropositionPowerNeeded",
      "outputs": [
        {
          "internalType": "uint256",
          "name": "",
          "type": "uint256"
        }
      ],
      "stateMutability": "view",
      "type": "function"
    },
    {
      "inputs": [
        {
          "internalType": "uint256",
          "name": "votingSupply",
          "type": "uint256"
        }
      ],
      "name": "getMinimumVotingPowerNeeded",
      "outputs": [
        {
          "internalType": "uint256",
          "name": "",
          "type": "uint256"
        }
      ],
      "stateMutability": "view",
      "type": "function"
    },
    {
      "inputs": [],
      "name": "getPendingAdmin",
      "outputs": [
        {
          "internalType": "address",
          "name": "",
          "type": "address"
        }
      ],
      "stateMutability": "view",
      "type": "function"
    },
    {
      "inputs": [
        {
          "internalType": "bytes32",
          "name": "actionHash",
          "type": "bytes32"
        }
      ],
      "name": "isActionQueued",
      "outputs": [
        {
          "internalType": "bool",
          "name": "",
          "type": "bool"
        }
      ],
      "stateMutability": "view",
      "type": "function"
    },
    {
      "inputs": [
        {
          "internalType": "contract IPopulousGovernanceV2",
          "name": "governance",
          "type": "address"
        },
        {
          "internalType": "uint256",
          "name": "proposalId",
          "type": "uint256"
        }
      ],
      "name": "isProposalOverGracePeriod",
      "outputs": [
        {
          "internalType": "bool",
          "name": "",
          "type": "bool"
        }
      ],
      "stateMutability": "view",
      "type": "function"
    },
    {
      "inputs": [
        {
          "internalType": "contract IPopulousGovernanceV2",
          "name": "governance",
          "type": "address"
        },
        {
          "internalType": "uint256",
          "name": "proposalId",
          "type": "uint256"
        }
      ],
      "name": "isProposalPassed",
      "outputs": [
        {
          "internalType": "bool",
          "name": "",
          "type": "bool"
        }
      ],
      "stateMutability": "view",
      "type": "function"
    },
    {
      "inputs": [
        {
          "internalType": "contract IPopulousGovernanceV2",
          "name": "governance",
          "type": "address"
        },
        {
          "internalType": "address",
          "name": "user",
          "type": "address"
        }
      ],
      "name": "isPropositionPowerEnough",
      "outputs": [
        {
          "internalType": "bool",
          "name": "",
          "type": "bool"
        }
      ],
      "stateMutability": "view",
      "type": "function"
    },
    {
      "inputs": [
        {
          "internalType": "contract IPopulousGovernanceV2",
          "name": "governance",
          "type": "address"
        },
        {
          "internalType": "uint256",
          "name": "proposalId",
          "type": "uint256"
        }
      ],
      "name": "isQuorumValid",
      "outputs": [
        {
          "internalType": "bool",
          "name": "",
          "type": "bool"
        }
      ],
      "stateMutability": "view",
      "type": "function"
    },
    {
      "inputs": [
        {
          "internalType": "contract IPopulousGovernanceV2",
          "name": "governance",
          "type": "address"
        },
        {
          "internalType": "uint256",
          "name": "proposalId",
          "type": "uint256"
        }
      ],
      "name": "isVoteDifferentialValid",
      "outputs": [
        {
          "internalType": "bool",
          "name": "",
          "type": "bool"
        }
      ],
      "stateMutability": "view",
      "type": "function"
    },
    {
      "inputs": [
        {
          "internalType": "address",
          "name": "target",
          "type": "address"
        },
        {
          "internalType": "uint256",
          "name": "value",
          "type": "uint256"
        },
        {
          "internalType": "string",
          "name": "signature",
          "type": "string"
        },
        {
          "internalType": "bytes",
          "name": "data",
          "type": "bytes"
        },
        {
          "internalType": "uint256",
          "name": "executionTime",
          "type": "uint256"
        },
        {
          "internalType": "bool",
          "name": "withDelegatecall",
          "type": "bool"
        }
      ],
      "name": "queueTransaction",
      "outputs": [
        {
          "internalType": "bytes32",
          "name": "",
          "type": "bytes32"
        }
      ],
      "stateMutability": "nonpayable",
      "type": "function"
    },
    {
      "inputs": [
        {
          "internalType": "uint256",
          "name": "delay",
          "type": "uint256"
        }
      ],
      "name": "setDelay",
      "outputs": [],
      "stateMutability": "nonpayable",
      "type": "function"
    },
    {
      "inputs": [
        {
          "internalType": "address",
          "name": "newPendingAdmin",
          "type": "address"
        }
      ],
      "name": "setPendingAdmin",
      "outputs": [],
      "stateMutability": "nonpayable",
      "type": "function"
    },
    {
      "inputs": [
        {
          "internalType": "contract IPopulousGovernanceV2",
          "name": "governance",
          "type": "address"
        },
        {
          "internalType": "address",
          "name": "user",
          "type": "address"
        }
      ],
      "name": "validateCreatorOfProposal",
      "outputs": [
        {
          "internalType": "bool",
          "name": "",
          "type": "bool"
        }
      ],
      "stateMutability": "view",
      "type": "function"
    },
    {
      "inputs": [
        {
          "internalType": "contract IPopulousGovernanceV2",
          "name": "governance",
          "type": "address"
        },
        {
          "internalType": "address",
          "name": "user",
          "type": "address"
        }
      ],
      "name": "validateProposalCancellation",
      "outputs": [
        {
          "internalType": "bool",
          "name": "",
          "type": "bool"
        }
      ],
      "stateMutability": "view",
      "type": "function"
    },
    {
      "stateMutability": "payable",
      "type": "receive"
    }
  ],
  "bytecode": "0x6101606040523480156200001257600080fd5b506040516200208238038062002082833981016040819052620000359162000159565b838383838c8c8c8c8c818410156200006a5760405162461bcd60e51b81526004016200006190620001ed565b60405180910390fd5b808411156200008d5760405162461bcd60e51b8152600401620000619062000224565b6002849055600080546001600160a01b0319166001600160a01b038716179055608083905260a082905260c08190526040517f948b1f6a42ee138b7e34058ba85a37f716d55ff25ff05a763f15bed6a04c8d2c90620000ee9086906200025b565b60405180910390a17f71614071b88dee5e0b2ae578a9dd7b2ebbe9ae832ba419dc0242cd065a290b6c85604051620001279190620001d9565b60405180910390a150505060e09590955250610100929092526101205261014052506200026498505050505050505050565b60008060008060008060008060006101208a8c03121562000178578485fd5b89516001600160a01b03811681146200018f578586fd5b8099505060208a0151975060408a0151965060608a0151955060808a0151945060a08a0151935060c08a0151925060e08a015191506101008a015190509295985092959850929598565b6001600160a01b0391909116815260200190565b6020808252601a908201527f44454c41595f53484f525445525f5448414e5f4d494e494d554d000000000000604082015260600190565b60208082526019908201527f44454c41595f4c4f4e4745525f5448414e5f4d4158494d554d00000000000000604082015260600190565b90815260200190565b60805160a05160c05160e051610100516101205161014051611da7620002db60003980610cc05280610ee05250806107855280610bc3525080610be7525080610d9f5280610fcd525080610803528061122e525080610ce452806111ee5250806108dc5280610e3e5280610f9d5250611da76000f3fe6080604052600436106101a05760003560e01c8063a438d208116100ec578063cebc9a821161008a578063e50f840011610064578063e50f840014610445578063f670a5f914610465578063fd58afd414610485578063fe8982e11461049a576101a7565b8063cebc9a82146103fb578063d046815614610410578063e177246e14610425576101a7565b8063b1b43ae5116100c6578063b1b43ae514610391578063b1fc8796146103a6578063bd953e90146103c6578063c1a287e2146103e6576101a7565b8063a438d20814610347578063ace432091461035c578063b159beac1461037c576101a7565b80634dd18bf5116101595780637d645fab116101335780637d645fab146102dd5780638902ab65146102f25780638d8fe2e3146103125780639125fb5814610332576101a7565b80634dd18bf51461027b5780636e9960c31461029b5780637aa50080146102bd576101a7565b80630332f025146101ac57806306fbb3ab146101e25780630e18b681146102025780631d73fd6d146102195780631dc40b511461023b57806347293e651461025b576101a7565b366101a757005b600080fd5b3480156101b857600080fd5b506101cc6101c73660046116d5565b6104ba565b6040516101d991906119da565b60405180910390f35b3480156101ee57600080fd5b506101cc6101fd36600461170d565b6104cf565b34801561020e57600080fd5b506102176104ec565b005b34801561022557600080fd5b5061022e610576565b6040516101d991906119e5565b34801561024757600080fd5b5061022e610256366004611623565b61057c565b34801561026757600080fd5b506101cc6102763660046116d5565b610648565b34801561028757600080fd5b506102176102963660046115eb565b61065c565b3480156102a757600080fd5b506102b06106d1565b6040516101d99190611972565b3480156102c957600080fd5b506101cc6102d836600461170d565b6106e0565b3480156102e957600080fd5b5061022e610801565b610305610300366004611623565b610825565b6040516101d99190611a6e565b34801561031e57600080fd5b5061022e61032d366004611623565b610ad8565b34801561033e57600080fd5b5061022e610bc1565b34801561035357600080fd5b5061022e610be5565b34801561036857600080fd5b506101cc61037736600461170d565b610c09565b34801561038857600080fd5b5061022e610cbe565b34801561039d57600080fd5b5061022e610ce2565b3480156103b257600080fd5b506101cc6103c13660046116bd565b610d06565b3480156103d257600080fd5b5061022e6103e13660046115eb565b610d1e565b3480156103f257600080fd5b5061022e610e3c565b34801561040757600080fd5b5061022e610e60565b34801561041c57600080fd5b506102b0610e66565b34801561043157600080fd5b506102176104403660046116bd565b610e75565b34801561045157600080fd5b5061022e6104603660046116bd565b610ed2565b34801561047157600080fd5b506101cc61048036600461170d565b610f04565b34801561049157600080fd5b5061022e610fcb565b3480156104a657600080fd5b506101cc6104b53660046116d5565b610fef565b60006104c68383610fef565b90505b92915050565b60006104db8383610c09565b80156104c657506104c683836106e0565b6001546001600160a01b0316331461051f5760405162461bcd60e51b815260040161051690611a81565b60405180910390fd5b60008054336001600160a01b031991821681179092556001805490911690556040517f71614071b88dee5e0b2ae578a9dd7b2ebbe9ae832ba419dc0242cd065a290b6c9161056c91611972565b60405180910390a1565b61271081565b600080546001600160a01b031633146105a75760405162461bcd60e51b815260040161051690611b4d565b60008787878787876040516020016105c496959493929190611986565b60408051601f19818403018152828252805160209182012060008181526003909252919020805460ff1916905591506001600160a01b038916907f87c481aa909c37502caa37394ab791c26b68fa4fa5ae56de104de36444ae9069906106359084908b908b908b908b908b906119ee565b60405180910390a2979650505050505050565b60006106548383610fef565b159392505050565b33301461067b5760405162461bcd60e51b815260040161051690611c6a565b600180546001600160a01b0319166001600160a01b0383161790556040517f69d78e38a01985fbb1462961809b4b2d65531bc93b2b94037f3334b82ca4a756906106c6908390611972565b60405180910390a150565b6000546001600160a01b031690565b60006106ea611311565b604051633656de2160e01b81526001600160a01b03851690633656de21906107169086906004016119e5565b60006040518083038186803b15801561072e57600080fd5b505afa158015610742573d6000803e3d6000fd5b505050506040513d6000823e601f3d908101601f1916820160405261076a9190810190611738565b6101808101516101608201519192500180156107f6576107ce7f00000000000000000000000000000000000000000000000000000000000000006107c8836107c26127108761018001516110f790919063ffffffff16565b90611150565b90611192565b6107ec826107c26127108661016001516110f790919063ffffffff16565b11925050506104c9565b6000925050506104c9565b7f000000000000000000000000000000000000000000000000000000000000000081565b6000546060906001600160a01b031633146108525760405162461bcd60e51b815260040161051690611b4d565b600087878787878760405160200161086f96959493929190611986565b60408051601f1981840301815291815281516020928301206000818152600390935291205490915060ff166108b65760405162461bcd60e51b815260040161051690611ba3565b834210156108d65760405162461bcd60e51b815260040161051690611ab0565b610900847f0000000000000000000000000000000000000000000000000000000000000000611192565b42111561091f5760405162461bcd60e51b815260040161051690611b74565b6000818152600360205260409020805460ff191690558551606090610945575084610971565b86805190602001208660405160200161095f929190611925565b60405160208183030381529060405290505b6000606085156109fe578934101561099b5760405162461bcd60e51b815260040161051690611c3c565b8a6001600160a01b0316836040516109b39190611956565b600060405180830381855af49150503d80600081146109ee576040519150601f19603f3d011682016040523d82523d6000602084013e6109f3565b606091505b509092509050610a60565b8a6001600160a01b03168a84604051610a179190611956565b60006040518083038185875af1925050503d8060008114610a54576040519150601f19603f3d011682016040523d82523d6000602084013e610a59565b606091505b5090925090505b81610a7d5760405162461bcd60e51b815260040161051690611bce565b8a6001600160a01b03167f97825080b472fa91fe888b62ec128814d60dec546a2dafb955e50923f4a1b7e7858c8c8c8c8c88604051610ac29796959493929190611a0d565b60405180910390a29a9950505050505050505050565b600080546001600160a01b03163314610b035760405162461bcd60e51b815260040161051690611b4d565b600254610b11904290611192565b831015610b305760405162461bcd60e51b815260040161051690611adf565b6000878787878787604051602001610b4d96959493929190611986565b60408051601f19818403018152828252805160209182012060008181526003909252919020805460ff1916600117905591506001600160a01b038916907f2191aed4c4733c76e08a9e7e1da0b8d87fa98753f22df49231ddc66e0f05f022906106359084908b908b908b908b908b906119ee565b7f000000000000000000000000000000000000000000000000000000000000000081565b7f000000000000000000000000000000000000000000000000000000000000000081565b6000610c13611311565b604051633656de2160e01b81526001600160a01b03851690633656de2190610c3f9086906004016119e5565b60006040518083038186803b158015610c5757600080fd5b505afa158015610c6b573d6000803e3d6000fd5b505050506040513d6000823e601f3d908101601f19168201604052610c939190810190611738565b61018081015161016082015191925001610cac81610ed2565b82610160015110159250505092915050565b7f000000000000000000000000000000000000000000000000000000000000000081565b7f000000000000000000000000000000000000000000000000000000000000000081565b60008181526003602052604090205460ff165b919050565b600080826001600160a01b03166306be3e8e6040518163ffffffff1660e01b815260040160206040518083038186803b158015610d5a57600080fd5b505afa158015610d6e573d6000803e3d6000fd5b505050506040513d601f19601f82011682018060405250810190610d929190611607565b9050610e356127106107c27f0000000000000000000000000000000000000000000000000000000000000000846001600160a01b0316633bb879ae6040518163ffffffff1660e01b815260040160206040518083038186803b158015610df757600080fd5b505afa158015610e0b573d6000803e3d6000fd5b505050506040513d601f19601f82011682018060405250810190610e2f91906118e1565b906110f7565b9392505050565b7f000000000000000000000000000000000000000000000000000000000000000081565b60025490565b6001546001600160a01b031690565b333014610e945760405162461bcd60e51b815260040161051690611c6a565b610e9d816111ec565b60028190556040517f948b1f6a42ee138b7e34058ba85a37f716d55ff25ff05a763f15bed6a04c8d2c906106c69083906119e5565b60006104c96127106107c2847f00000000000000000000000000000000000000000000000000000000000000006110f7565b6000610f0e611311565b604051633656de2160e01b81526001600160a01b03851690633656de2190610f3a9086906004016119e5565b60006040518083038186803b158015610f5257600080fd5b505afa158015610f66573d6000803e3d6000fd5b505050506040513d6000823e601f3d908101601f19168201604052610f8e9190810190611738565b610140810151909150610fc1907f0000000000000000000000000000000000000000000000000000000000000000611192565b4211949350505050565b7f000000000000000000000000000000000000000000000000000000000000000081565b600080836001600160a01b03166306be3e8e6040518163ffffffff1660e01b815260040160206040518083038186803b15801561102b57600080fd5b505afa15801561103f573d6000803e3d6000fd5b505050506040513d601f19601f820116820180604052508101906110639190611607565b905061106e84610d1e565b6040516001628d668b60e01b031981526001600160a01b0383169063ff7299759061109d908790600401611972565b60206040518083038186803b1580156110b557600080fd5b505afa1580156110c9573d6000803e3d6000fd5b505050506040513d601f19601f820116820180604052508101906110ed91906118e1565b1015949350505050565b600082611106575060006104c9565b8282028284828161111357fe5b04146104c65760405162461bcd60e51b8152600401808060200182810382526021815260200180611d516021913960400191505060405180910390fd5b60006104c683836040518060400160405280601a81526020017f536166654d6174683a206469766973696f6e206279207a65726f00000000000081525061126f565b6000828201838110156104c6576040805162461bcd60e51b815260206004820152601b60248201527f536166654d6174683a206164646974696f6e206f766572666c6f770000000000604482015290519081900360640190fd5b7f000000000000000000000000000000000000000000000000000000000000000081101561122c5760405162461bcd60e51b815260040161051690611b16565b7f000000000000000000000000000000000000000000000000000000000000000081111561126c5760405162461bcd60e51b815260040161051690611c05565b50565b600081836112fb5760405162461bcd60e51b81526004018080602001828103825283818151815260200191508051906020019080838360005b838110156112c05781810151838201526020016112a8565b50505050905090810190601f1680156112ed5780820380516001836020036101000a031916815260200191505b509250505060405180910390fd5b50600083858161130757fe5b0495945050505050565b6040518061022001604052806000815260200160006001600160a01b0316815260200160006001600160a01b031681526020016060815260200160608152602001606081526020016060815260200160608152602001600081526020016000815260200160008152602001600081526020016000815260200160001515815260200160001515815260200160006001600160a01b03168152602001600080191681525090565b8051610d1981611d2d565b600082601f8301126113d2578081fd5b81516113e56113e082611cbd565b611c99565b81815291506020808301908481018184028601820187101561140657600080fd5b60005b8481101561142e57815161141c81611d2d565b84529282019290820190600101611409565b505050505092915050565b600082601f830112611449578081fd5b81516114576113e082611cbd565b81815291506020808301908481018184028601820187101561147857600080fd5b60005b8481101561142e57815161148e81611d42565b8452928201929082019060010161147b565b600082601f8301126114b0578081fd5b81516114be6113e082611cbd565b818152915060208083019084810160005b8481101561142e578151870188603f8201126114ea57600080fd5b838101516114fa6113e082611cdb565b81815260408b8184860101111561151057600080fd5b61151f83888401838701611cfd565b508652505092820192908201906001016114cf565b600082601f830112611544578081fd5b81516115526113e082611cbd565b81815291506020808301908481018184028601820187101561157357600080fd5b60005b8481101561142e57815184529282019290820190600101611576565b8051610d1981611d42565b600082601f8301126115ad578081fd5b81356115bb6113e082611cdb565b91508082528360208285010111156115d257600080fd5b8060208401602084013760009082016020015292915050565b6000602082840312156115fc578081fd5b81356104c681611d2d565b600060208284031215611618578081fd5b81516104c681611d2d565b60008060008060008060c0878903121561163b578182fd5b863561164681611d2d565b955060208701359450604087013567ffffffffffffffff80821115611669578384fd5b6116758a838b0161159d565b9550606089013591508082111561168a578384fd5b5061169789828a0161159d565b9350506080870135915060a08701356116af81611d42565b809150509295509295509295565b6000602082840312156116ce578081fd5b5035919050565b600080604083850312156116e7578182fd5b82356116f281611d2d565b9150602083013561170281611d2d565b809150509250929050565b6000806040838503121561171f578182fd5b823561172a81611d2d565b946020939093013593505050565b600060208284031215611749578081fd5b815167ffffffffffffffff80821115611760578283fd5b8184019150610220808387031215611776578384fd5b61177f81611c99565b905082518152611791602084016113b7565b60208201526117a2604084016113b7565b60408201526060830151828111156117b8578485fd5b6117c4878286016113c2565b6060830152506080830151828111156117db578485fd5b6117e787828601611534565b60808301525060a0830151828111156117fe578485fd5b61180a878286016114a0565b60a08301525060c083015182811115611821578485fd5b61182d878286016114a0565b60c08301525060e083015182811115611844578485fd5b61185087828601611439565b60e083015250610100838101519082015261012080840151908201526101408084015190820152610160808401519082015261018080840151908201526101a0915061189d828401611592565b828201526101c091506118b1828401611592565b828201526101e091506118c58284016113b7565b9181019190915261020091820151918101919091529392505050565b6000602082840312156118f2578081fd5b5051919050565b60008151808452611911816020860160208601611cfd565b601f01601f19169290920160200192915050565b6001600160e01b0319831681528151600090611948816004850160208701611cfd565b919091016004019392505050565b60008251611968818460208701611cfd565b9190910192915050565b6001600160a01b0391909116815260200190565b600060018060a01b038816825286602083015260c060408301526119ad60c08301876118f9565b82810360608401526119bf81876118f9565b6080840195909552505090151560a090910152949350505050565b901515815260200190565b90815260200190565b600087825286602083015260c060408301526119ad60c08301876118f9565b600088825287602083015260e06040830152611a2c60e08301886118f9565b8281036060840152611a3e81886118f9565b905085608084015284151560a084015282810360c0840152611a6081856118f9565b9a9950505050505050505050565b6000602082526104c660208301846118f9565b60208082526015908201527427a7262cafa12cafa822a72224a723afa0a226a4a760591b604082015260600190565b602080825260159082015274151253515313d0d2d7d393d517d192539254d21151605a1b604082015260600190565b6020808252601d908201527f455845435554494f4e5f54494d455f554e444552455354494d41544544000000604082015260600190565b6020808252601a908201527f44454c41595f53484f525445525f5448414e5f4d494e494d554d000000000000604082015260600190565b6020808252600d908201526c27a7262cafa12cafa0a226a4a760991b604082015260600190565b60208082526015908201527411d49050d157d411549253d117d192539254d21151605a1b604082015260600190565b6020808252601190820152701050d51253d397d393d517d45551555151607a1b604082015260600190565b60208082526017908201527f4641494c45445f414354494f4e5f455845435554494f4e000000000000000000604082015260600190565b60208082526019908201527f44454c41595f4c4f4e4745525f5448414e5f4d4158494d554d00000000000000604082015260600190565b6020808252601490820152734e4f545f454e4f5547485f4d53475f56414c554560601b604082015260600190565b6020808252601590820152744f4e4c595f42595f544849535f54494d454c4f434b60581b604082015260600190565b60405181810167ffffffffffffffff81118282101715611cb557fe5b604052919050565b600067ffffffffffffffff821115611cd157fe5b5060209081020190565b600067ffffffffffffffff821115611cef57fe5b50601f01601f191660200190565b60005b83811015611d18578181015183820152602001611d00565b83811115611d27576000848401525b50505050565b6001600160a01b038116811461126c57600080fd5b801515811461126c57600080fdfe536166654d6174683a206d756c7469706c69636174696f6e206f766572666c6f77a2646970667358221220cc394f455cf7ecf7a29353210307058106601d98956802271fb7308b155cd3e564736f6c63430007050033",
  "immutableReferences": {
    "1832": [
      {
        "length": 32,
        "start": 2268
      },
      {
        "length": 32,
        "start": 3646
      },
      {
        "length": 32,
        "start": 3997
      }
    ],
    "1835": [
      {
        "length": 32,
        "start": 3300
      },
      {
        "length": 32,
        "start": 4590
      }
    ],
    "1838": [
      {
        "length": 32,
        "start": 2051
      },
      {
        "length": 32,
        "start": 4654
      }
    ],
    "6198": [
      {
        "length": 32,
        "start": 3487
      },
      {
        "length": 32,
        "start": 4045
      }
    ],
    "6201": [
      {
        "length": 32,
        "start": 3047
      }
    ],
    "6204": [
      {
        "length": 32,
        "start": 1925
      },
      {
        "length": 32,
        "start": 3011
      }
    ],
    "6207": [
      {
        "length": 32,
        "start": 3264
      },
      {
        "length": 32,
        "start": 3808
      }
    ]
  },
  "source": "// SPDX-License-Identifier: agpl-3.0\npragma solidity 0.7.5;\npragma abicoder v2;\n\nimport {ExecutorWithTimelock} from './ExecutorWithTimelock.sol';\nimport {ProposalValidator} from './ProposalValidator.sol';\n\n/**\n * @title Time Locked, Validator, Executor Contract\n * @dev Contract\n * - Validate Proposal creations/ cancellation\n * - Validate Vote Quorum and Vote success on proposal\n * - Queue, Execute, Cancel, successful proposals' transactions.\n * @author Populous\n **/\ncontract Executor is ExecutorWithTimelock, ProposalValidator {\n  constructor(\n    address admin,\n    uint256 delay,\n    uint256 gracePeriod,\n    uint256 minimumDelay,\n    uint256 maximumDelay,\n    uint256 propositionThreshold,\n    uint256 voteDuration,\n    uint256 voteDifferential,\n    uint256 minimumQuorum\n  )\n    ExecutorWithTimelock(admin, delay, gracePeriod, minimumDelay, maximumDelay)\n    ProposalValidator(propositionThreshold, voteDuration, voteDifferential, minimumQuorum)\n  {}\n}\n",
  "sourcePath": "/Users/nemitariajienka/Desktop/projects/populous/Populous-DeFi-governance/contracts/governance/Executor.sol",
  "compiler": {
    "name": "solc",
    "version": "0.7.5+commit.eb77ed08.Emscripten.clang"
  },
  "schemaVersion": "3.3.3",
  "updatedAt": "2021-06-04T16:39:26.399Z",
  "devdoc": {
    "author": "Populous*",
    "details": "Contract - Validate Proposal creations/ cancellation - Validate Vote Quorum and Vote success on proposal - Queue, Execute, Cancel, successful proposals' transactions.",
    "kind": "dev",
    "methods": {
      "acceptAdmin()": {
        "details": "Function enabling pending admin to become admin*"
      },
      "cancelTransaction(address,uint256,string,bytes,uint256,bool)": {
        "details": "Function, called by Governance, that cancels a transaction, returns action hash",
        "params": {
          "data": "function arguments of the transaction or callData if signature empty",
          "executionTime": "time at which to execute the transaction",
          "signature": "function signature of the transaction",
          "target": "smart contract target",
          "value": "wei value of the transaction",
          "withDelegatecall": "boolean, true = transaction delegatecalls the target, else calls the target"
        },
        "returns": {
          "_0": "the action Hash of the canceled tx*"
        }
      },
      "executeTransaction(address,uint256,string,bytes,uint256,bool)": {
        "details": "Function, called by Governance, that cancels a transaction, returns the callData executed",
        "params": {
          "data": "function arguments of the transaction or callData if signature empty",
          "executionTime": "time at which to execute the transaction",
          "signature": "function signature of the transaction",
          "target": "smart contract target",
          "value": "wei value of the transaction",
          "withDelegatecall": "boolean, true = transaction delegatecalls the target, else calls the target"
        },
        "returns": {
          "_0": "the callData executed as memory bytes*"
        }
      },
      "getAdmin()": {
        "details": "Getter of the current admin address (should be governance)",
        "returns": {
          "_0": "The address of the current admin*"
        }
      },
      "getDelay()": {
        "details": "Getter of the delay between queuing and execution",
        "returns": {
          "_0": "The delay in seconds*"
        }
      },
      "getMinimumPropositionPowerNeeded(address)": {
        "details": "Returns the minimum Proposition Power needed to create a proposition.",
        "params": {
          "governance": "Governance Contract"
        },
        "returns": {
          "_0": "minimum Proposition Power needed*"
        }
      },
      "getMinimumVotingPowerNeeded(uint256)": {
        "details": "Calculates the minimum amount of Voting Power needed for a proposal to Pass",
        "params": {
          "votingSupply": "Total number of oustanding voting tokens"
        },
        "returns": {
          "_0": "voting power needed for a proposal to pass*"
        }
      },
      "getPendingAdmin()": {
        "details": "Getter of the current pending admin address",
        "returns": {
          "_0": "The address of the pending admin*"
        }
      },
      "isActionQueued(bytes32)": {
        "details": "Returns whether an action (via actionHash) is queued",
        "params": {
          "actionHash": "hash of the action to be checked keccak256(abi.encode(target, value, signature, data, executionTime, withDelegatecall))"
        },
        "returns": {
          "_0": "true if underlying action of actionHash is queued*"
        }
      },
      "isProposalOverGracePeriod(address,uint256)": {
        "details": "Checks whether a proposal is over its grace period",
        "params": {
          "governance": "Governance contract",
          "proposalId": "Id of the proposal against which to test"
        },
        "returns": {
          "_0": "true of proposal is over grace period*"
        }
      },
      "isProposalPassed(address,uint256)": {
        "details": "Returns whether a proposal passed or not",
        "params": {
          "governance": "Governance Contract",
          "proposalId": "Id of the proposal to set"
        },
        "returns": {
          "_0": "true if proposal passed*"
        }
      },
      "isPropositionPowerEnough(address,address)": {
        "details": "Returns whether a user has enough Proposition Power to make a proposal.",
        "params": {
          "governance": "Governance Contract",
          "user": "Address of the user to be challenged."
        },
        "returns": {
          "_0": "true if user has enough power*"
        }
      },
      "isQuorumValid(address,uint256)": {
        "details": "Check whether a proposal has reached quorum, ie has enough FOR-voting-power Here quorum is not to understand as number of votes reached, but number of for-votes reached",
        "params": {
          "governance": "Governance Contract",
          "proposalId": "Id of the proposal to verify"
        },
        "returns": {
          "_0": "voting power needed for a proposal to pass*"
        }
      },
      "isVoteDifferentialValid(address,uint256)": {
        "details": "Check whether a proposal has enough extra FOR-votes than AGAINST-votes FOR VOTES - AGAINST VOTES > VOTE_DIFFERENTIAL * voting supply",
        "params": {
          "governance": "Governance Contract",
          "proposalId": "Id of the proposal to verify"
        },
        "returns": {
          "_0": "true if enough For-Votes*"
        }
      },
      "queueTransaction(address,uint256,string,bytes,uint256,bool)": {
        "details": "Function, called by Governance, that queue a transaction, returns action hash",
        "params": {
          "data": "function arguments of the transaction or callData if signature empty",
          "executionTime": "time at which to execute the transaction",
          "signature": "function signature of the transaction",
          "target": "smart contract target",
          "value": "wei value of the transaction",
          "withDelegatecall": "boolean, true = transaction delegatecalls the target, else calls the target"
        },
        "returns": {
          "_0": "the action Hash*"
        }
      },
      "setDelay(uint256)": {
        "details": "Set the delay",
        "params": {
          "delay": "delay between queue and execution of proposal*"
        }
      },
      "setPendingAdmin(address)": {
        "details": "Setting a new pending admin (that can then become admin) Can only be called by this executor (i.e via proposal)",
        "params": {
          "newPendingAdmin": "address of the new admin*"
        }
      },
      "validateCreatorOfProposal(address,address)": {
        "details": "Called to validate a proposal (e.g when creating new proposal in Governance)",
        "params": {
          "governance": "Governance Contract",
          "user": "Address of the proposal creator"
        },
        "returns": {
          "_0": "boolean, true if can be created*"
        }
      },
      "validateProposalCancellation(address,address)": {
        "details": "Called to validate the cancellation of a proposal Needs to creator to have lost proposition power threashold",
        "params": {
          "governance": "Governance Contract",
          "user": "Address of the proposal creator"
        },
        "returns": {
          "_0": "boolean, true if can be cancelled*"
        }
      }
    },
    "title": "Time Locked, Validator, Executor Contract",
    "version": 1
  },
  "userdoc": {
    "kind": "user",
    "methods": {},
    "version": 1
  }
}