{
  "contractName": "Executor",
  "abi": [
    {
      "inputs": [
        {
          "internalType": "address",
          "name": "admin",
          "type": "address"
        },
        {
          "internalType": "uint256",
          "name": "delay",
          "type": "uint256"
        },
        {
          "internalType": "uint256",
          "name": "gracePeriod",
          "type": "uint256"
        },
        {
          "internalType": "uint256",
          "name": "minimumDelay",
          "type": "uint256"
        },
        {
          "internalType": "uint256",
          "name": "maximumDelay",
          "type": "uint256"
        },
        {
          "internalType": "uint256",
          "name": "propositionThreshold",
          "type": "uint256"
        },
        {
          "internalType": "uint256",
          "name": "voteDuration",
          "type": "uint256"
        },
        {
          "internalType": "uint256",
          "name": "voteDifferential",
          "type": "uint256"
        },
        {
          "internalType": "uint256",
          "name": "minimumQuorum",
          "type": "uint256"
        }
      ],
      "stateMutability": "nonpayable",
      "type": "constructor"
    },
    {
      "anonymous": false,
      "inputs": [
        {
          "indexed": false,
          "internalType": "bytes32",
          "name": "actionHash",
          "type": "bytes32"
        },
        {
          "indexed": true,
          "internalType": "address",
          "name": "target",
          "type": "address"
        },
        {
          "indexed": false,
          "internalType": "uint256",
          "name": "value",
          "type": "uint256"
        },
        {
          "indexed": false,
          "internalType": "string",
          "name": "signature",
          "type": "string"
        },
        {
          "indexed": false,
          "internalType": "bytes",
          "name": "data",
          "type": "bytes"
        },
        {
          "indexed": false,
          "internalType": "uint256",
          "name": "executionTime",
          "type": "uint256"
        },
        {
          "indexed": false,
          "internalType": "bool",
          "name": "withDelegatecall",
          "type": "bool"
        }
      ],
      "name": "CancelledAction",
      "type": "event"
    },
    {
      "anonymous": false,
      "inputs": [
        {
          "indexed": false,
          "internalType": "bytes32",
          "name": "actionHash",
          "type": "bytes32"
        },
        {
          "indexed": true,
          "internalType": "address",
          "name": "target",
          "type": "address"
        },
        {
          "indexed": false,
          "internalType": "uint256",
          "name": "value",
          "type": "uint256"
        },
        {
          "indexed": false,
          "internalType": "string",
          "name": "signature",
          "type": "string"
        },
        {
          "indexed": false,
          "internalType": "bytes",
          "name": "data",
          "type": "bytes"
        },
        {
          "indexed": false,
          "internalType": "uint256",
          "name": "executionTime",
          "type": "uint256"
        },
        {
          "indexed": false,
          "internalType": "bool",
          "name": "withDelegatecall",
          "type": "bool"
        },
        {
          "indexed": false,
          "internalType": "bytes",
          "name": "resultData",
          "type": "bytes"
        }
      ],
      "name": "ExecutedAction",
      "type": "event"
    },
    {
      "anonymous": false,
      "inputs": [
        {
          "indexed": false,
          "internalType": "address",
          "name": "newAdmin",
          "type": "address"
        }
      ],
      "name": "NewAdmin",
      "type": "event"
    },
    {
      "anonymous": false,
      "inputs": [
        {
          "indexed": false,
          "internalType": "uint256",
          "name": "delay",
          "type": "uint256"
        }
      ],
      "name": "NewDelay",
      "type": "event"
    },
    {
      "anonymous": false,
      "inputs": [
        {
          "indexed": false,
          "internalType": "address",
          "name": "newPendingAdmin",
          "type": "address"
        }
      ],
      "name": "NewPendingAdmin",
      "type": "event"
    },
    {
      "anonymous": false,
      "inputs": [
        {
          "indexed": false,
          "internalType": "bytes32",
          "name": "actionHash",
          "type": "bytes32"
        },
        {
          "indexed": true,
          "internalType": "address",
          "name": "target",
          "type": "address"
        },
        {
          "indexed": false,
          "internalType": "uint256",
          "name": "value",
          "type": "uint256"
        },
        {
          "indexed": false,
          "internalType": "string",
          "name": "signature",
          "type": "string"
        },
        {
          "indexed": false,
          "internalType": "bytes",
          "name": "data",
          "type": "bytes"
        },
        {
          "indexed": false,
          "internalType": "uint256",
          "name": "executionTime",
          "type": "uint256"
        },
        {
          "indexed": false,
          "internalType": "bool",
          "name": "withDelegatecall",
          "type": "bool"
        }
      ],
      "name": "QueuedAction",
      "type": "event"
    },
    {
      "inputs": [],
      "name": "GRACE_PERIOD",
      "outputs": [
        {
          "internalType": "uint256",
          "name": "",
          "type": "uint256"
        }
      ],
      "stateMutability": "view",
      "type": "function"
    },
    {
      "inputs": [],
      "name": "MAXIMUM_DELAY",
      "outputs": [
        {
          "internalType": "uint256",
          "name": "",
          "type": "uint256"
        }
      ],
      "stateMutability": "view",
      "type": "function"
    },
    {
      "inputs": [],
      "name": "MINIMUM_DELAY",
      "outputs": [
        {
          "internalType": "uint256",
          "name": "",
          "type": "uint256"
        }
      ],
      "stateMutability": "view",
      "type": "function"
    },
    {
      "inputs": [],
      "name": "MINIMUM_QUORUM",
      "outputs": [
        {
          "internalType": "uint256",
          "name": "",
          "type": "uint256"
        }
      ],
      "stateMutability": "view",
      "type": "function"
    },
    {
      "inputs": [],
      "name": "ONE_HUNDRED_WITH_PRECISION",
      "outputs": [
        {
          "internalType": "uint256",
          "name": "",
          "type": "uint256"
        }
      ],
      "stateMutability": "view",
      "type": "function"
    },
    {
      "inputs": [],
      "name": "PROPOSITION_THRESHOLD",
      "outputs": [
        {
          "internalType": "uint256",
          "name": "",
          "type": "uint256"
        }
      ],
      "stateMutability": "view",
      "type": "function"
    },
    {
      "inputs": [],
      "name": "VOTE_DIFFERENTIAL",
      "outputs": [
        {
          "internalType": "uint256",
          "name": "",
          "type": "uint256"
        }
      ],
      "stateMutability": "view",
      "type": "function"
    },
    {
      "inputs": [],
      "name": "VOTING_DURATION",
      "outputs": [
        {
          "internalType": "uint256",
          "name": "",
          "type": "uint256"
        }
      ],
      "stateMutability": "view",
      "type": "function"
    },
    {
      "inputs": [],
      "name": "acceptAdmin",
      "outputs": [],
      "stateMutability": "nonpayable",
      "type": "function"
    },
    {
      "inputs": [
        {
          "internalType": "address",
          "name": "target",
          "type": "address"
        },
        {
          "internalType": "uint256",
          "name": "value",
          "type": "uint256"
        },
        {
          "internalType": "string",
          "name": "signature",
          "type": "string"
        },
        {
          "internalType": "bytes",
          "name": "data",
          "type": "bytes"
        },
        {
          "internalType": "uint256",
          "name": "executionTime",
          "type": "uint256"
        },
        {
          "internalType": "bool",
          "name": "withDelegatecall",
          "type": "bool"
        }
      ],
      "name": "cancelTransaction",
      "outputs": [
        {
          "internalType": "bytes32",
          "name": "",
          "type": "bytes32"
        }
      ],
      "stateMutability": "nonpayable",
      "type": "function"
    },
    {
      "inputs": [
        {
          "internalType": "address",
          "name": "target",
          "type": "address"
        },
        {
          "internalType": "uint256",
          "name": "value",
          "type": "uint256"
        },
        {
          "internalType": "string",
          "name": "signature",
          "type": "string"
        },
        {
          "internalType": "bytes",
          "name": "data",
          "type": "bytes"
        },
        {
          "internalType": "uint256",
          "name": "executionTime",
          "type": "uint256"
        },
        {
          "internalType": "bool",
          "name": "withDelegatecall",
          "type": "bool"
        }
      ],
      "name": "executeTransaction",
      "outputs": [
        {
          "internalType": "bytes",
          "name": "",
          "type": "bytes"
        }
      ],
      "stateMutability": "payable",
      "type": "function"
    },
    {
      "inputs": [],
      "name": "getAdmin",
      "outputs": [
        {
          "internalType": "address",
          "name": "",
          "type": "address"
        }
      ],
      "stateMutability": "view",
      "type": "function"
    },
    {
      "inputs": [],
      "name": "getDelay",
      "outputs": [
        {
          "internalType": "uint256",
          "name": "",
          "type": "uint256"
        }
      ],
      "stateMutability": "view",
      "type": "function"
    },
    {
      "inputs": [
        {
          "internalType": "contract IPopulousGovernanceV2",
          "name": "governance",
          "type": "address"
        }
      ],
      "name": "getMinimumPropositionPowerNeeded",
      "outputs": [
        {
          "internalType": "uint256",
          "name": "",
          "type": "uint256"
        }
      ],
      "stateMutability": "view",
      "type": "function"
    },
    {
      "inputs": [
        {
          "internalType": "uint256",
          "name": "votingSupply",
          "type": "uint256"
        }
      ],
      "name": "getMinimumVotingPowerNeeded",
      "outputs": [
        {
          "internalType": "uint256",
          "name": "",
          "type": "uint256"
        }
      ],
      "stateMutability": "view",
      "type": "function"
    },
    {
      "inputs": [],
      "name": "getPendingAdmin",
      "outputs": [
        {
          "internalType": "address",
          "name": "",
          "type": "address"
        }
      ],
      "stateMutability": "view",
      "type": "function"
    },
    {
      "inputs": [
        {
          "internalType": "bytes32",
          "name": "actionHash",
          "type": "bytes32"
        }
      ],
      "name": "isActionQueued",
      "outputs": [
        {
          "internalType": "bool",
          "name": "",
          "type": "bool"
        }
      ],
      "stateMutability": "view",
      "type": "function"
    },
    {
      "inputs": [
        {
          "internalType": "contract IPopulousGovernanceV2",
          "name": "governance",
          "type": "address"
        },
        {
          "internalType": "uint256",
          "name": "proposalId",
          "type": "uint256"
        }
      ],
      "name": "isProposalOverGracePeriod",
      "outputs": [
        {
          "internalType": "bool",
          "name": "",
          "type": "bool"
        }
      ],
      "stateMutability": "view",
      "type": "function"
    },
    {
      "inputs": [
        {
          "internalType": "contract IPopulousGovernanceV2",
          "name": "governance",
          "type": "address"
        },
        {
          "internalType": "uint256",
          "name": "proposalId",
          "type": "uint256"
        }
      ],
      "name": "isProposalPassed",
      "outputs": [
        {
          "internalType": "bool",
          "name": "",
          "type": "bool"
        }
      ],
      "stateMutability": "view",
      "type": "function"
    },
    {
      "inputs": [
        {
          "internalType": "contract IPopulousGovernanceV2",
          "name": "governance",
          "type": "address"
        },
        {
          "internalType": "address",
          "name": "user",
          "type": "address"
        }
      ],
      "name": "isPropositionPowerEnough",
      "outputs": [
        {
          "internalType": "bool",
          "name": "",
          "type": "bool"
        }
      ],
      "stateMutability": "view",
      "type": "function"
    },
    {
      "inputs": [
        {
          "internalType": "contract IPopulousGovernanceV2",
          "name": "governance",
          "type": "address"
        },
        {
          "internalType": "uint256",
          "name": "proposalId",
          "type": "uint256"
        }
      ],
      "name": "isQuorumValid",
      "outputs": [
        {
          "internalType": "bool",
          "name": "",
          "type": "bool"
        }
      ],
      "stateMutability": "view",
      "type": "function"
    },
    {
      "inputs": [
        {
          "internalType": "contract IPopulousGovernanceV2",
          "name": "governance",
          "type": "address"
        },
        {
          "internalType": "uint256",
          "name": "proposalId",
          "type": "uint256"
        }
      ],
      "name": "isVoteDifferentialValid",
      "outputs": [
        {
          "internalType": "bool",
          "name": "",
          "type": "bool"
        }
      ],
      "stateMutability": "view",
      "type": "function"
    },
    {
      "inputs": [
        {
          "internalType": "address",
          "name": "target",
          "type": "address"
        },
        {
          "internalType": "uint256",
          "name": "value",
          "type": "uint256"
        },
        {
          "internalType": "string",
          "name": "signature",
          "type": "string"
        },
        {
          "internalType": "bytes",
          "name": "data",
          "type": "bytes"
        },
        {
          "internalType": "uint256",
          "name": "executionTime",
          "type": "uint256"
        },
        {
          "internalType": "bool",
          "name": "withDelegatecall",
          "type": "bool"
        }
      ],
      "name": "queueTransaction",
      "outputs": [
        {
          "internalType": "bytes32",
          "name": "",
          "type": "bytes32"
        }
      ],
      "stateMutability": "nonpayable",
      "type": "function"
    },
    {
      "inputs": [
        {
          "internalType": "uint256",
          "name": "delay",
          "type": "uint256"
        }
      ],
      "name": "setDelay",
      "outputs": [],
      "stateMutability": "nonpayable",
      "type": "function"
    },
    {
      "inputs": [
        {
          "internalType": "address",
          "name": "newPendingAdmin",
          "type": "address"
        }
      ],
      "name": "setPendingAdmin",
      "outputs": [],
      "stateMutability": "nonpayable",
      "type": "function"
    },
    {
      "inputs": [
        {
          "internalType": "contract IPopulousGovernanceV2",
          "name": "governance",
          "type": "address"
        },
        {
          "internalType": "address",
          "name": "user",
          "type": "address"
        }
      ],
      "name": "validateCreatorOfProposal",
      "outputs": [
        {
          "internalType": "bool",
          "name": "",
          "type": "bool"
        }
      ],
      "stateMutability": "view",
      "type": "function"
    },
    {
      "inputs": [
        {
          "internalType": "contract IPopulousGovernanceV2",
          "name": "governance",
          "type": "address"
        },
        {
          "internalType": "address",
          "name": "user",
          "type": "address"
        }
      ],
      "name": "validateProposalCancellation",
      "outputs": [
        {
          "internalType": "bool",
          "name": "",
          "type": "bool"
        }
      ],
      "stateMutability": "view",
      "type": "function"
    },
    {
      "stateMutability": "payable",
      "type": "receive"
    }
  ],
  "bytecode": "0x6101606040523480156200001257600080fd5b506040516200214938038062002149833981016040819052620000359162000159565b838383838c8c8c8c8c818410156200006a5760405162461bcd60e51b81526004016200006190620001ed565b60405180910390fd5b808411156200008d5760405162461bcd60e51b8152600401620000619062000224565b6002849055600080546001600160a01b0319166001600160a01b038716179055608083905260a082905260c08190526040517f948b1f6a42ee138b7e34058ba85a37f716d55ff25ff05a763f15bed6a04c8d2c90620000ee9086906200025b565b60405180910390a17f71614071b88dee5e0b2ae578a9dd7b2ebbe9ae832ba419dc0242cd065a290b6c85604051620001279190620001d9565b60405180910390a150505060e09590955250610100929092526101205261014052506200026498505050505050505050565b60008060008060008060008060006101208a8c03121562000178578485fd5b89516001600160a01b03811681146200018f578586fd5b8099505060208a0151975060408a0151965060608a0151955060808a0151945060a08a0151935060c08a0151925060e08a015191506101008a015190509295985092959850929598565b6001600160a01b0391909116815260200190565b6020808252601a908201527f44454c41595f53484f525445525f5448414e5f4d494e494d554d000000000000604082015260600190565b60208082526019908201527f44454c41595f4c4f4e4745525f5448414e5f4d4158494d554d00000000000000604082015260600190565b90815260200190565b60805160a05160c05160e051610100516101205161014051611e6e620002db60003980610d875280610fa75250806107eb5280610c1e525080610c42525080610e66528061109452508061085e52806112f5525080610dab52806112b55250806109375280610f0552806110645250611e6e6000f3fe6080604052600436106101a05760003560e01c8063a438d208116100ec578063cebc9a821161008a578063e50f840011610064578063e50f840014610445578063f670a5f914610465578063fd58afd414610485578063fe8982e11461049a576101a7565b8063cebc9a82146103fb578063d046815614610410578063e177246e14610425576101a7565b8063b1b43ae5116100c6578063b1b43ae514610391578063b1fc8796146103a6578063bd953e90146103c6578063c1a287e2146103e6576101a7565b8063a438d20814610347578063ace432091461035c578063b159beac1461037c576101a7565b80634dd18bf5116101595780637d645fab116101335780637d645fab146102dd5780638902ab65146102f25780638d8fe2e3146103125780639125fb5814610332576101a7565b80634dd18bf51461027b5780636e9960c31461029b5780637aa50080146102bd576101a7565b80630332f025146101ac57806306fbb3ab146101e25780630e18b681146102025780631d73fd6d146102195780631dc40b511461023b57806347293e651461025b576101a7565b366101a757005b600080fd5b3480156101b857600080fd5b506101cc6101c736600461179c565b6104ba565b6040516101d99190611aa1565b60405180910390f35b3480156101ee57600080fd5b506101cc6101fd3660046117d4565b6104cf565b34801561020e57600080fd5b506102176104ec565b005b34801561022557600080fd5b5061022e610576565b6040516101d99190611aac565b34801561024757600080fd5b5061022e6102563660046116ea565b61057c565b34801561026757600080fd5b506101cc61027636600461179c565b610648565b34801561028757600080fd5b506102176102963660046116b2565b61065c565b3480156102a757600080fd5b506102b06106d1565b6040516101d99190611a39565b3480156102c957600080fd5b506101cc6102d83660046117d4565b6106e0565b3480156102e957600080fd5b5061022e61085c565b6103056103003660046116ea565b610880565b6040516101d99190611b35565b34801561031e57600080fd5b5061022e61032d3660046116ea565b610b33565b34801561033e57600080fd5b5061022e610c1c565b34801561035357600080fd5b5061022e610c40565b34801561036857600080fd5b506101cc6103773660046117d4565b610c64565b34801561038857600080fd5b5061022e610d85565b34801561039d57600080fd5b5061022e610da9565b3480156103b257600080fd5b506101cc6103c1366004611784565b610dcd565b3480156103d257600080fd5b5061022e6103e13660046116b2565b610de5565b3480156103f257600080fd5b5061022e610f03565b34801561040757600080fd5b5061022e610f27565b34801561041c57600080fd5b506102b0610f2d565b34801561043157600080fd5b50610217610440366004611784565b610f3c565b34801561045157600080fd5b5061022e610460366004611784565b610f99565b34801561047157600080fd5b506101cc6104803660046117d4565b610fcb565b34801561049157600080fd5b5061022e611092565b3480156104a657600080fd5b506101cc6104b536600461179c565b6110b6565b60006104c683836110b6565b90505b92915050565b60006104db8383610c64565b80156104c657506104c683836106e0565b6001546001600160a01b0316331461051f5760405162461bcd60e51b815260040161051690611b48565b60405180910390fd5b60008054336001600160a01b031991821681179092556001805490911690556040517f71614071b88dee5e0b2ae578a9dd7b2ebbe9ae832ba419dc0242cd065a290b6c9161056c91611a39565b60405180910390a1565b61271081565b600080546001600160a01b031633146105a75760405162461bcd60e51b815260040161051690611c14565b60008787878787876040516020016105c496959493929190611a4d565b60408051601f19818403018152828252805160209182012060008181526003909252919020805460ff1916905591506001600160a01b038916907f87c481aa909c37502caa37394ab791c26b68fa4fa5ae56de104de36444ae9069906106359084908b908b908b908b908b90611ab5565b60405180910390a2979650505050505050565b600061065483836110b6565b159392505050565b33301461067b5760405162461bcd60e51b815260040161051690611d31565b600180546001600160a01b0319166001600160a01b0383161790556040517f69d78e38a01985fbb1462961809b4b2d65531bc93b2b94037f3334b82ca4a756906106c6908390611a39565b60405180910390a150565b6000546001600160a01b031690565b60006106ea6113d8565b604051633656de2160e01b81526001600160a01b03851690633656de2190610716908690600401611aac565b60006040518083038186803b15801561072e57600080fd5b505afa158015610742573d6000803e3d6000fd5b505050506040513d6000823e601f3d908101601f1916820160405261076a91908101906117ff565b90506000816101e001516001600160a01b031663c909c59c6040518163ffffffff1660e01b815260040160206040518083038186803b1580156107ac57600080fd5b505afa1580156107c0573d6000803e3d6000fd5b505050506040513d601f19601f820116820180604052508101906107e491906119a8565b90506108347f000000000000000000000000000000000000000000000000000000000000000061082e836108286127108761018001516111be90919063ffffffff16565b90611217565b90611259565b610852826108286127108661016001516111be90919063ffffffff16565b1195945050505050565b7f000000000000000000000000000000000000000000000000000000000000000081565b6000546060906001600160a01b031633146108ad5760405162461bcd60e51b815260040161051690611c14565b60008787878787876040516020016108ca96959493929190611a4d565b60408051601f1981840301815291815281516020928301206000818152600390935291205490915060ff166109115760405162461bcd60e51b815260040161051690611c6a565b834210156109315760405162461bcd60e51b815260040161051690611b77565b61095b847f0000000000000000000000000000000000000000000000000000000000000000611259565b42111561097a5760405162461bcd60e51b815260040161051690611c3b565b6000818152600360205260409020805460ff1916905585516060906109a05750846109cc565b8680519060200120866040516020016109ba9291906119ec565b60405160208183030381529060405290505b600060608515610a5957893410156109f65760405162461bcd60e51b815260040161051690611d03565b8a6001600160a01b031683604051610a0e9190611a1d565b600060405180830381855af49150503d8060008114610a49576040519150601f19603f3d011682016040523d82523d6000602084013e610a4e565b606091505b509092509050610abb565b8a6001600160a01b03168a84604051610a729190611a1d565b60006040518083038185875af1925050503d8060008114610aaf576040519150601f19603f3d011682016040523d82523d6000602084013e610ab4565b606091505b5090925090505b81610ad85760405162461bcd60e51b815260040161051690611c95565b8a6001600160a01b03167f97825080b472fa91fe888b62ec128814d60dec546a2dafb955e50923f4a1b7e7858c8c8c8c8c88604051610b1d9796959493929190611ad4565b60405180910390a29a9950505050505050505050565b600080546001600160a01b03163314610b5e5760405162461bcd60e51b815260040161051690611c14565b600254610b6c904290611259565b831015610b8b5760405162461bcd60e51b815260040161051690611ba6565b6000878787878787604051602001610ba896959493929190611a4d565b60408051601f19818403018152828252805160209182012060008181526003909252919020805460ff1916600117905591506001600160a01b038916907f2191aed4c4733c76e08a9e7e1da0b8d87fa98753f22df49231ddc66e0f05f022906106359084908b908b908b908b908b90611ab5565b7f000000000000000000000000000000000000000000000000000000000000000081565b7f000000000000000000000000000000000000000000000000000000000000000081565b6000610c6e6113d8565b604051633656de2160e01b81526001600160a01b03851690633656de2190610c9a908690600401611aac565b60006040518083038186803b158015610cb257600080fd5b505afa158015610cc6573d6000803e3d6000fd5b505050506040513d6000823e601f3d908101601f19168201604052610cee91908101906117ff565b90506000816101e001516001600160a01b031663c909c59c6040518163ffffffff1660e01b815260040160206040518083038186803b158015610d3057600080fd5b505afa158015610d44573d6000803e3d6000fd5b505050506040513d601f19601f82011682018060405250810190610d6891906119a8565b9050610d7381610f99565b82610160015110159250505092915050565b7f000000000000000000000000000000000000000000000000000000000000000081565b7f000000000000000000000000000000000000000000000000000000000000000081565b60008181526003602052604090205460ff165b919050565b600080826001600160a01b03166306be3e8e6040518163ffffffff1660e01b815260040160206040518083038186803b158015610e2157600080fd5b505afa158015610e35573d6000803e3d6000fd5b505050506040513d601f19601f82011682018060405250810190610e5991906116ce565b9050610efc6127106108287f0000000000000000000000000000000000000000000000000000000000000000846001600160a01b0316633bb879ae6040518163ffffffff1660e01b815260040160206040518083038186803b158015610ebe57600080fd5b505afa158015610ed2573d6000803e3d6000fd5b505050506040513d601f19601f82011682018060405250810190610ef691906119a8565b906111be565b9392505050565b7f000000000000000000000000000000000000000000000000000000000000000081565b60025490565b6001546001600160a01b031690565b333014610f5b5760405162461bcd60e51b815260040161051690611d31565b610f64816112b3565b60028190556040517f948b1f6a42ee138b7e34058ba85a37f716d55ff25ff05a763f15bed6a04c8d2c906106c6908390611aac565b60006104c9612710610828847f00000000000000000000000000000000000000000000000000000000000000006111be565b6000610fd56113d8565b604051633656de2160e01b81526001600160a01b03851690633656de2190611001908690600401611aac565b60006040518083038186803b15801561101957600080fd5b505afa15801561102d573d6000803e3d6000fd5b505050506040513d6000823e601f3d908101601f1916820160405261105591908101906117ff565b610140810151909150611088907f0000000000000000000000000000000000000000000000000000000000000000611259565b4211949350505050565b7f000000000000000000000000000000000000000000000000000000000000000081565b600080836001600160a01b03166306be3e8e6040518163ffffffff1660e01b815260040160206040518083038186803b1580156110f257600080fd5b505afa158015611106573d6000803e3d6000fd5b505050506040513d601f19601f8201168201806040525081019061112a91906116ce565b905061113584610de5565b6040516001628d668b60e01b031981526001600160a01b0383169063ff72997590611164908790600401611a39565b60206040518083038186803b15801561117c57600080fd5b505afa158015611190573d6000803e3d6000fd5b505050506040513d601f19601f820116820180604052508101906111b491906119a8565b1015949350505050565b6000826111cd575060006104c9565b828202828482816111da57fe5b04146104c65760405162461bcd60e51b8152600401808060200182810382526021815260200180611e186021913960400191505060405180910390fd5b60006104c683836040518060400160405280601a81526020017f536166654d6174683a206469766973696f6e206279207a65726f000000000000815250611336565b6000828201838110156104c6576040805162461bcd60e51b815260206004820152601b60248201527f536166654d6174683a206164646974696f6e206f766572666c6f770000000000604482015290519081900360640190fd5b7f00000000000000000000000000000000000000000000000000000000000000008110156112f35760405162461bcd60e51b815260040161051690611bdd565b7f00000000000000000000000000000000000000000000000000000000000000008111156113335760405162461bcd60e51b815260040161051690611ccc565b50565b600081836113c25760405162461bcd60e51b81526004018080602001828103825283818151815260200191508051906020019080838360005b8381101561138757818101518382015260200161136f565b50505050905090810190601f1680156113b45780820380516001836020036101000a031916815260200191505b509250505060405180910390fd5b5060008385816113ce57fe5b0495945050505050565b6040518061022001604052806000815260200160006001600160a01b0316815260200160006001600160a01b031681526020016060815260200160608152602001606081526020016060815260200160608152602001600081526020016000815260200160008152602001600081526020016000815260200160001515815260200160001515815260200160006001600160a01b03168152602001600080191681525090565b8051610de081611df4565b600082601f830112611499578081fd5b81516114ac6114a782611d84565b611d60565b8181529150602080830190848101818402860182018710156114cd57600080fd5b60005b848110156114f55781516114e381611df4565b845292820192908201906001016114d0565b505050505092915050565b600082601f830112611510578081fd5b815161151e6114a782611d84565b81815291506020808301908481018184028601820187101561153f57600080fd5b60005b848110156114f557815161155581611e09565b84529282019290820190600101611542565b600082601f830112611577578081fd5b81516115856114a782611d84565b818152915060208083019084810160005b848110156114f5578151870188603f8201126115b157600080fd5b838101516115c16114a782611da2565b81815260408b818486010111156115d757600080fd5b6115e683888401838701611dc4565b50865250509282019290820190600101611596565b600082601f83011261160b578081fd5b81516116196114a782611d84565b81815291506020808301908481018184028601820187101561163a57600080fd5b60005b848110156114f55781518452928201929082019060010161163d565b8051610de081611e09565b600082601f830112611674578081fd5b81356116826114a782611da2565b915080825283602082850101111561169957600080fd5b8060208401602084013760009082016020015292915050565b6000602082840312156116c3578081fd5b81356104c681611df4565b6000602082840312156116df578081fd5b81516104c681611df4565b60008060008060008060c08789031215611702578182fd5b863561170d81611df4565b955060208701359450604087013567ffffffffffffffff80821115611730578384fd5b61173c8a838b01611664565b95506060890135915080821115611751578384fd5b5061175e89828a01611664565b9350506080870135915060a087013561177681611e09565b809150509295509295509295565b600060208284031215611795578081fd5b5035919050565b600080604083850312156117ae578182fd5b82356117b981611df4565b915060208301356117c981611df4565b809150509250929050565b600080604083850312156117e6578182fd5b82356117f181611df4565b946020939093013593505050565b600060208284031215611810578081fd5b815167ffffffffffffffff80821115611827578283fd5b818401915061022080838703121561183d578384fd5b61184681611d60565b9050825181526118586020840161147e565b60208201526118696040840161147e565b604082015260608301518281111561187f578485fd5b61188b87828601611489565b6060830152506080830151828111156118a2578485fd5b6118ae878286016115fb565b60808301525060a0830151828111156118c5578485fd5b6118d187828601611567565b60a08301525060c0830151828111156118e8578485fd5b6118f487828601611567565b60c08301525060e08301518281111561190b578485fd5b61191787828601611500565b60e083015250610100838101519082015261012080840151908201526101408084015190820152610160808401519082015261018080840151908201526101a09150611964828401611659565b828201526101c09150611978828401611659565b828201526101e0915061198c82840161147e565b9181019190915261020091820151918101919091529392505050565b6000602082840312156119b9578081fd5b5051919050565b600081518084526119d8816020860160208601611dc4565b601f01601f19169290920160200192915050565b6001600160e01b0319831681528151600090611a0f816004850160208701611dc4565b919091016004019392505050565b60008251611a2f818460208701611dc4565b9190910192915050565b6001600160a01b0391909116815260200190565b600060018060a01b038816825286602083015260c06040830152611a7460c08301876119c0565b8281036060840152611a8681876119c0565b6080840195909552505090151560a090910152949350505050565b901515815260200190565b90815260200190565b600087825286602083015260c06040830152611a7460c08301876119c0565b600088825287602083015260e06040830152611af360e08301886119c0565b8281036060840152611b0581886119c0565b905085608084015284151560a084015282810360c0840152611b2781856119c0565b9a9950505050505050505050565b6000602082526104c660208301846119c0565b60208082526015908201527427a7262cafa12cafa822a72224a723afa0a226a4a760591b604082015260600190565b602080825260159082015274151253515313d0d2d7d393d517d192539254d21151605a1b604082015260600190565b6020808252601d908201527f455845435554494f4e5f54494d455f554e444552455354494d41544544000000604082015260600190565b6020808252601a908201527f44454c41595f53484f525445525f5448414e5f4d494e494d554d000000000000604082015260600190565b6020808252600d908201526c27a7262cafa12cafa0a226a4a760991b604082015260600190565b60208082526015908201527411d49050d157d411549253d117d192539254d21151605a1b604082015260600190565b6020808252601190820152701050d51253d397d393d517d45551555151607a1b604082015260600190565b60208082526017908201527f4641494c45445f414354494f4e5f455845435554494f4e000000000000000000604082015260600190565b60208082526019908201527f44454c41595f4c4f4e4745525f5448414e5f4d4158494d554d00000000000000604082015260600190565b6020808252601490820152734e4f545f454e4f5547485f4d53475f56414c554560601b604082015260600190565b6020808252601590820152744f4e4c595f42595f544849535f54494d454c4f434b60581b604082015260600190565b60405181810167ffffffffffffffff81118282101715611d7c57fe5b604052919050565b600067ffffffffffffffff821115611d9857fe5b5060209081020190565b600067ffffffffffffffff821115611db657fe5b50601f01601f191660200190565b60005b83811015611ddf578181015183820152602001611dc7565b83811115611dee576000848401525b50505050565b6001600160a01b038116811461133357600080fd5b801515811461133357600080fdfe536166654d6174683a206d756c7469706c69636174696f6e206f766572666c6f77a2646970667358221220b26609af8de701b0f4a32461c98e7a6e669a7eb21702a6a951f73cb2e4ac33fd64736f6c63430007050033",
  "immutableReferences": {
    "5112": [
      {
        "length": 32,
        "start": 2359
      },
      {
        "length": 32,
        "start": 3845
      },
      {
        "length": 32,
        "start": 4196
      }
    ],
    "5115": [
      {
        "length": 32,
        "start": 3499
      },
      {
        "length": 32,
        "start": 4789
      }
    ],
    "5118": [
      {
        "length": 32,
        "start": 2142
      },
      {
        "length": 32,
        "start": 4853
      }
    ],
    "7579": [
      {
        "length": 32,
        "start": 3686
      },
      {
        "length": 32,
        "start": 4244
      }
    ],
    "7582": [
      {
        "length": 32,
        "start": 3138
      }
    ],
    "7585": [
      {
        "length": 32,
        "start": 2027
      },
      {
        "length": 32,
        "start": 3102
      }
    ],
    "7588": [
      {
        "length": 32,
        "start": 3463
      },
      {
        "length": 32,
        "start": 4007
      }
    ]
  },
  "source": "// SPDX-License-Identifier: agpl-3.0\npragma solidity 0.7.5;\npragma abicoder v2;\n\nimport {ExecutorWithTimelock} from './ExecutorWithTimelock.sol';\nimport {ProposalValidator} from './ProposalValidator.sol';\n\n/**\n * @title Time Locked, Validator, Executor Contract\n * @dev Contract\n * - Validate Proposal creations/ cancellation\n * - Validate Vote Quorum and Vote success on proposal\n * - Queue, Execute, Cancel, successful proposals' transactions.\n * @author Populous\n **/\ncontract Executor is ExecutorWithTimelock, ProposalValidator {\n  constructor(\n    address admin,\n    uint256 delay,\n    uint256 gracePeriod,\n    uint256 minimumDelay,\n    uint256 maximumDelay,\n    uint256 propositionThreshold,\n    uint256 voteDuration,\n    uint256 voteDifferential,\n    uint256 minimumQuorum\n  )\n    ExecutorWithTimelock(admin, delay, gracePeriod, minimumDelay, maximumDelay)\n    ProposalValidator(propositionThreshold, voteDuration, voteDifferential, minimumQuorum)\n  {}\n}\n",
  "sourcePath": "/Users/nemitariajienka/Desktop/projects/populous/Populous-DeFi-governance/contracts/governance/Executor.sol",
  "compiler": {
    "name": "solc",
    "version": "0.7.5+commit.eb77ed08.Emscripten.clang"
  },
  "schemaVersion": "3.3.3",
  "updatedAt": "2021-04-22T09:45:50.093Z",
  "devdoc": {
    "author": "Populous*",
    "details": "Contract - Validate Proposal creations/ cancellation - Validate Vote Quorum and Vote success on proposal - Queue, Execute, Cancel, successful proposals' transactions.",
    "kind": "dev",
    "methods": {
      "acceptAdmin()": {
        "details": "Function enabling pending admin to become admin*"
      },
      "cancelTransaction(address,uint256,string,bytes,uint256,bool)": {
        "details": "Function, called by Governance, that cancels a transaction, returns action hash",
        "params": {
          "data": "function arguments of the transaction or callData if signature empty",
          "executionTime": "time at which to execute the transaction",
          "signature": "function signature of the transaction",
          "target": "smart contract target",
          "value": "wei value of the transaction",
          "withDelegatecall": "boolean, true = transaction delegatecalls the target, else calls the target"
        },
        "returns": {
          "_0": "the action Hash of the canceled tx*"
        }
      },
      "executeTransaction(address,uint256,string,bytes,uint256,bool)": {
        "details": "Function, called by Governance, that cancels a transaction, returns the callData executed",
        "params": {
          "data": "function arguments of the transaction or callData if signature empty",
          "executionTime": "time at which to execute the transaction",
          "signature": "function signature of the transaction",
          "target": "smart contract target",
          "value": "wei value of the transaction",
          "withDelegatecall": "boolean, true = transaction delegatecalls the target, else calls the target"
        },
        "returns": {
          "_0": "the callData executed as memory bytes*"
        }
      },
      "getAdmin()": {
        "details": "Getter of the current admin address (should be governance)",
        "returns": {
          "_0": "The address of the current admin*"
        }
      },
      "getDelay()": {
        "details": "Getter of the delay between queuing and execution",
        "returns": {
          "_0": "The delay in seconds*"
        }
      },
      "getMinimumPropositionPowerNeeded(address)": {
        "details": "Returns the minimum Proposition Power needed to create a proposition.",
        "params": {
          "governance": "Governance Contract"
        },
        "returns": {
          "_0": "minimum Proposition Power needed*"
        }
      },
      "getMinimumVotingPowerNeeded(uint256)": {
        "details": "Calculates the minimum amount of Voting Power needed for a proposal to Pass",
        "params": {
          "votingSupply": "Total number of oustanding voting tokens"
        },
        "returns": {
          "_0": "voting power needed for a proposal to pass*"
        }
      },
      "getPendingAdmin()": {
        "details": "Getter of the current pending admin address",
        "returns": {
          "_0": "The address of the pending admin*"
        }
      },
      "isActionQueued(bytes32)": {
        "details": "Returns whether an action (via actionHash) is queued",
        "params": {
          "actionHash": "hash of the action to be checked keccak256(abi.encode(target, value, signature, data, executionTime, withDelegatecall))"
        },
        "returns": {
          "_0": "true if underlying action of actionHash is queued*"
        }
      },
      "isProposalOverGracePeriod(address,uint256)": {
        "details": "Checks whether a proposal is over its grace period",
        "params": {
          "governance": "Governance contract",
          "proposalId": "Id of the proposal against which to test"
        },
        "returns": {
          "_0": "true of proposal is over grace period*"
        }
      },
      "isProposalPassed(address,uint256)": {
        "details": "Returns whether a proposal passed or not",
        "params": {
          "governance": "Governance Contract",
          "proposalId": "Id of the proposal to set"
        },
        "returns": {
          "_0": "true if proposal passed*"
        }
      },
      "isPropositionPowerEnough(address,address)": {
        "details": "Returns whether a user has enough Proposition Power to make a proposal.",
        "params": {
          "governance": "Governance Contract",
          "user": "Address of the user to be challenged."
        },
        "returns": {
          "_0": "true if user has enough power*"
        }
      },
      "isQuorumValid(address,uint256)": {
        "details": "Check whether a proposal has reached quorum, ie has enough FOR-voting-power Here quorum is not to understand as number of votes reached, but number of for-votes reached",
        "params": {
          "governance": "Governance Contract",
          "proposalId": "Id of the proposal to verify"
        },
        "returns": {
          "_0": "voting power needed for a proposal to pass*"
        }
      },
      "isVoteDifferentialValid(address,uint256)": {
        "details": "Check whether a proposal has enough extra FOR-votes than AGAINST-votes FOR VOTES - AGAINST VOTES > VOTE_DIFFERENTIAL * voting supply",
        "params": {
          "governance": "Governance Contract",
          "proposalId": "Id of the proposal to verify"
        },
        "returns": {
          "_0": "true if enough For-Votes*"
        }
      },
      "queueTransaction(address,uint256,string,bytes,uint256,bool)": {
        "details": "Function, called by Governance, that queue a transaction, returns action hash",
        "params": {
          "data": "function arguments of the transaction or callData if signature empty",
          "executionTime": "time at which to execute the transaction",
          "signature": "function signature of the transaction",
          "target": "smart contract target",
          "value": "wei value of the transaction",
          "withDelegatecall": "boolean, true = transaction delegatecalls the target, else calls the target"
        },
        "returns": {
          "_0": "the action Hash*"
        }
      },
      "setDelay(uint256)": {
        "details": "Set the delay",
        "params": {
          "delay": "delay between queue and execution of proposal*"
        }
      },
      "setPendingAdmin(address)": {
        "details": "Setting a new pending admin (that can then become admin) Can only be called by this executor (i.e via proposal)",
        "params": {
          "newPendingAdmin": "address of the new admin*"
        }
      },
      "validateCreatorOfProposal(address,address)": {
        "details": "Called to validate a proposal (e.g when creating new proposal in Governance)",
        "params": {
          "governance": "Governance Contract",
          "user": "Address of the proposal creator"
        },
        "returns": {
          "_0": "boolean, true if can be created*"
        }
      },
      "validateProposalCancellation(address,address)": {
        "details": "Called to validate the cancellation of a proposal Needs to creator to have lost proposition power threashold",
        "params": {
          "governance": "Governance Contract",
          "user": "Address of the proposal creator"
        },
        "returns": {
          "_0": "boolean, true if can be cancelled*"
        }
      }
    },
    "title": "Time Locked, Validator, Executor Contract",
    "version": 1
  },
  "userdoc": {
    "kind": "user",
    "methods": {},
    "version": 1
  }
}