{
  "contractName": "GovernanceStrategy",
  "abi": [
    {
      "inputs": [
        {
          "internalType": "address",
          "name": "_governanceToken",
          "type": "address"
        }
      ],
      "stateMutability": "nonpayable",
      "type": "constructor"
    },
    {
      "anonymous": false,
      "inputs": [
        {
          "indexed": true,
          "internalType": "address",
          "name": "previousOwner",
          "type": "address"
        },
        {
          "indexed": true,
          "internalType": "address",
          "name": "newOwner",
          "type": "address"
        }
      ],
      "name": "OwnershipTransferred",
      "type": "event"
    },
    {
      "inputs": [],
      "name": "governanceToken",
      "outputs": [
        {
          "internalType": "contract PopulousGovernanceToken",
          "name": "",
          "type": "address"
        }
      ],
      "stateMutability": "view",
      "type": "function",
      "constant": true
    },
    {
      "inputs": [],
      "name": "owner",
      "outputs": [
        {
          "internalType": "address",
          "name": "",
          "type": "address"
        }
      ],
      "stateMutability": "view",
      "type": "function",
      "constant": true
    },
    {
      "inputs": [],
      "name": "renounceOwnership",
      "outputs": [],
      "stateMutability": "nonpayable",
      "type": "function"
    },
    {
      "inputs": [
        {
          "internalType": "address",
          "name": "newOwner",
          "type": "address"
        }
      ],
      "name": "transferOwnership",
      "outputs": [],
      "stateMutability": "nonpayable",
      "type": "function"
    },
    {
      "inputs": [
        {
          "internalType": "uint256",
          "name": "blockNumber",
          "type": "uint256"
        }
      ],
      "name": "getTotalPropositionSupplyAt",
      "outputs": [
        {
          "internalType": "uint256",
          "name": "",
          "type": "uint256"
        }
      ],
      "stateMutability": "view",
      "type": "function",
      "constant": true
    },
    {
      "inputs": [
        {
          "internalType": "uint256",
          "name": "blockNumber",
          "type": "uint256"
        }
      ],
      "name": "getTotalVotingSupplyAt",
      "outputs": [
        {
          "internalType": "uint256",
          "name": "",
          "type": "uint256"
        }
      ],
      "stateMutability": "view",
      "type": "function",
      "constant": true
    },
    {
      "inputs": [
        {
          "internalType": "address",
          "name": "user",
          "type": "address"
        },
        {
          "internalType": "uint256",
          "name": "blockNumber",
          "type": "uint256"
        }
      ],
      "name": "getPropositionPowerAt",
      "outputs": [
        {
          "internalType": "uint256",
          "name": "",
          "type": "uint256"
        }
      ],
      "stateMutability": "view",
      "type": "function",
      "constant": true
    },
    {
      "inputs": [
        {
          "internalType": "address",
          "name": "user",
          "type": "address"
        },
        {
          "internalType": "uint256",
          "name": "blockNumber",
          "type": "uint256"
        }
      ],
      "name": "getVotingPowerAt",
      "outputs": [
        {
          "internalType": "uint256",
          "name": "",
          "type": "uint256"
        }
      ],
      "stateMutability": "view",
      "type": "function",
      "constant": true
    }
  ],
  "bytecode": "0x608060405234801561001057600080fd5b5060405161071238038061071283398101604081905261002f916100db565b60006100396100d7565b600080546001600160a01b0319166001600160a01b0383169081178255604051929350917f8be0079c531659141344cd1fd0a4f28419497f9722a3daafe3b4186f6b6457e0908290a3506001600160a01b0381166100b25760405162461bcd60e51b81526004016100a990610109565b60405180910390fd5b600180546001600160a01b0319166001600160a01b0392909216919091179055610166565b3390565b6000602082840312156100ec578081fd5b81516001600160a01b0381168114610102578182fd5b9392505050565b60208082526034908201527f476f7665726e616e636553747261746567793a20496e76616c696420676f766560408201527f726e616e636520746f6b656e2061646472657373000000000000000000000000606082015260800190565b61059d806101756000396000f3fe608060405234801561001057600080fd5b50600436106100885760003560e01c8063eaeded5f1161005b578063eaeded5f146100e8578063f2fde38b146100fb578063f6b502031461010e578063f96dae0a1461012157610088565b8063715018a61461008d5780637a71f9d7146100975780638da5cb5b146100c0578063a1076e58146100d5575b600080fd5b610095610129565b005b6100aa6100a53660046104af565b6101dd565b6040516100b79190610538565b60405180910390f35b6100c86101f0565b6040516100b7919061050b565b6100aa6100e3366004610486565b6101ff565b6100aa6100f6366004610486565b610214565b61009561010936600461046c565b610222565b6100aa61011c3660046104af565b61032c565b6100c86103a9565b6101316103b8565b6000546001600160a01b03908116911614610193576040805162461bcd60e51b815260206004820181905260248201527f4f776e61626c653a2063616c6c6572206973206e6f7420746865206f776e6572604482015290519081900360640190fd5b600080546040516001600160a01b03909116907f8be0079c531659141344cd1fd0a4f28419497f9722a3daafe3b4186f6b6457e0908390a3600080546001600160a01b0319169055565b60006101e88261032c565b90505b919050565b6000546001600160a01b031690565b600061020d838360016103bc565b9392505050565b600061020d838360006103bc565b61022a6103b8565b6000546001600160a01b0390811691161461028c576040805162461bcd60e51b815260206004820181905260248201527f4f776e61626c653a2063616c6c6572206973206e6f7420746865206f776e6572604482015290519081900360640190fd5b6001600160a01b0381166102d15760405162461bcd60e51b81526004018080602001828103825260268152602001806105426026913960400191505060405180910390fd5b600080546040516001600160a01b03808516939216917f8be0079c531659141344cd1fd0a4f28419497f9722a3daafe3b4186f6b6457e091a3600080546001600160a01b0319166001600160a01b0392909216919091179055565b600154604080516318160ddd60e01b815290516000926001600160a01b0316916318160ddd916004808301926020929190829003018186803b15801561037157600080fd5b505afa158015610385573d6000803e3d6000fd5b505050506040513d601f19601f820116820180604052508101906101e891906104c7565b6001546001600160a01b031681565b3390565b60015460405163782d6fe160e01b81526000916001600160a01b03169063782d6fe1906103ef908790879060040161051f565b60206040518083038186803b15801561040757600080fd5b505afa15801561041b573d6000803e3d6000fd5b505050506040513d601f19601f8201168201806040525081019061043f91906104df565b6bffffffffffffffffffffffff16949350505050565b80356001600160a01b03811681146101eb57600080fd5b60006020828403121561047d578081fd5b61020d82610455565b60008060408385031215610498578081fd5b6104a183610455565b946020939093013593505050565b6000602082840312156104c0578081fd5b5035919050565b6000602082840312156104d8578081fd5b5051919050565b6000602082840312156104f0578081fd5b81516bffffffffffffffffffffffff8116811461020d578182fd5b6001600160a01b0391909116815260200190565b6001600160a01b03929092168252602082015260400190565b9081526020019056fe4f776e61626c653a206e6577206f776e657220697320746865207a65726f2061646472657373a2646970667358221220ec767b6fdfae8feb2fb2d0bf9e730d62523b221e155713915c964d90fda5032f64736f6c63430007050033",
  "immutableReferences": {},
  "source": "// SPDX-License-Identifier: agpl-3.0\npragma solidity 0.7.5;\npragma abicoder v2;\n\nimport {IGovernanceStrategy} from '../interfaces/IGovernanceStrategy.sol';\nimport {IERC20} from '../interfaces/IERC20.sol';\nimport {IGovernancePowerDelegationToken} from '../interfaces/IGovernancePowerDelegationToken.sol';\nimport {Ownable} from '../dependencies/open-zeppelin/Ownable.sol';\nimport {SafeMath} from '../dependencies/open-zeppelin/SafeMath.sol';\nimport {PopulousGovernanceToken} from './PopulousGovernanceToken.sol';\n\n/**\n * @title Governance Strategy contract\n * @dev Smart contract containing logic to measure users' relative power to propose and vote.\n * User Power = User Power from Populous Token + User Power from stkPopulous Token.\n * User Power from Token = Token Power + Token Power as Delegatee [- Token Power if user has delegated]\n * Two wrapper functions linked to Populous Tokens's GovernancePowerDelegationERC20.sol implementation\n * - getPropositionPowerAt: fetching a user Proposition Power at a specified block\n * - getVotingPowerAt: fetching a user Voting Power at a specified block\n * @author Populous\n **/\ncontract GovernanceStrategy is Ownable, IGovernanceStrategy {\n  using SafeMath for uint256;\n\n  PopulousGovernanceToken public governanceToken;\n\n  /**\n   * @dev Constructor, register tokens used for Voting and Proposition Powers.\n   * @param _governanceToken The address of the Populous Governance Token contract.\n   **/\n  constructor(address _governanceToken) {\n    require(_governanceToken != address(0), \"GovernanceStrategy: Invalid governance token address\");\n    governanceToken = PopulousGovernanceToken(_governanceToken);\n  }\n\n  /**\n   * @dev Returns the total supply of Proposition Tokens Available for Governance\n   * = Populous Available for governance      + stkPopulous available\n   * The supply of Populous staked in stkPopulous are not taken into account so:\n   * = (Supply of Populous - Populous in stkPopulous) + (Supply of stkPopulous)\n   * = Supply of Populous, Since the supply of stkPopulous is equal to the number of Populous staked\n   * @param blockNumber Blocknumber at which to evaluate\n   * @return total supply at blockNumber\n   **/\n  function getTotalPropositionSupplyAt(uint256 blockNumber) public view override returns (uint256) {\n    // return IERC20(PopulousGovernanceToken).totalSupplyAt(blockNumber);\n    return governanceToken.totalSupply();\n  }\n\n  /**\n   * @dev Returns the total supply of Outstanding Voting Tokens \n   * @param blockNumber Blocknumber at which to evaluate\n   * @return total supply at blockNumber\n   **/\n  function getTotalVotingSupplyAt(uint256 blockNumber) public view override returns (uint256) {\n    return getTotalPropositionSupplyAt(blockNumber);\n  }\n\n  /**\n   * @dev Returns the Proposition Power of a user at a specific block number.\n   * @param user Address of the user.\n   * @param blockNumber Blocknumber at which to fetch Proposition Power\n   * @return Power number\n   **/\n  function getPropositionPowerAt(address user, uint256 blockNumber)\n    public\n    view\n    override\n    returns (uint256)\n  {\n    return\n      _getPowerByTypeAt(user, blockNumber, IGovernancePowerDelegationToken.DelegationType.PROPOSITION_POWER);\n  }\n\n  /**\n   * @dev Returns the Vote Power of a user at a specific block number.\n   * @param user Address of the user.\n   * @param blockNumber Blocknumber at which to fetch Vote Power\n   * @return Vote number\n   **/\n  function getVotingPowerAt(address user, uint256 blockNumber)\n    public\n    view\n    override\n    returns (uint256)\n  {\n    return _getPowerByTypeAt(user, blockNumber, IGovernancePowerDelegationToken.DelegationType.VOTING_POWER);\n  }\n\n  function _getPowerByTypeAt(\n    address user,\n    uint256 blockNumber,\n    IGovernancePowerDelegationToken.DelegationType powerType\n  ) internal view returns (uint256) {\n    return governanceToken.getPriorVotes(user, blockNumber);    \n  }\n}\n",
  "sourcePath": "/Users/nemitariajienka/Desktop/projects/populous/Populous-DeFi-governance/contracts/governance/GovernanceStrategy.sol",
  "compiler": {
    "name": "solc",
    "version": "0.7.5+commit.eb77ed08.Emscripten.clang"
  },
  "schemaVersion": "3.3.3",
  "updatedAt": "2021-04-19T19:49:53.755Z",
  "networkType": "ethereum",
  "devdoc": {
    "author": "Populous*",
    "details": "Smart contract containing logic to measure users' relative power to propose and vote. User Power = User Power from Populous Token + User Power from stkPopulous Token. User Power from Token = Token Power + Token Power as Delegatee [- Token Power if user has delegated] Two wrapper functions linked to Populous Tokens's GovernancePowerDelegationERC20.sol implementation - getPropositionPowerAt: fetching a user Proposition Power at a specified block - getVotingPowerAt: fetching a user Voting Power at a specified block",
    "kind": "dev",
    "methods": {
      "constructor": {
        "details": "Constructor, register tokens used for Voting and Proposition Powers.",
        "params": {
          "_governanceToken": "The address of the Populous Governance Token contract.*"
        }
      },
      "getPropositionPowerAt(address,uint256)": {
        "details": "Returns the Proposition Power of a user at a specific block number.",
        "params": {
          "blockNumber": "Blocknumber at which to fetch Proposition Power",
          "user": "Address of the user."
        },
        "returns": {
          "_0": "Power number*"
        }
      },
      "getTotalPropositionSupplyAt(uint256)": {
        "details": "Returns the total supply of Proposition Tokens Available for Governance = Populous Available for governance      + stkPopulous available The supply of Populous staked in stkPopulous are not taken into account so: = (Supply of Populous - Populous in stkPopulous) + (Supply of stkPopulous) = Supply of Populous, Since the supply of stkPopulous is equal to the number of Populous staked",
        "params": {
          "blockNumber": "Blocknumber at which to evaluate"
        },
        "returns": {
          "_0": "total supply at blockNumber*"
        }
      },
      "getTotalVotingSupplyAt(uint256)": {
        "details": "Returns the total supply of Outstanding Voting Tokens ",
        "params": {
          "blockNumber": "Blocknumber at which to evaluate"
        },
        "returns": {
          "_0": "total supply at blockNumber*"
        }
      },
      "getVotingPowerAt(address,uint256)": {
        "details": "Returns the Vote Power of a user at a specific block number.",
        "params": {
          "blockNumber": "Blocknumber at which to fetch Vote Power",
          "user": "Address of the user."
        },
        "returns": {
          "_0": "Vote number*"
        }
      },
      "owner()": {
        "details": "Returns the address of the current owner."
      },
      "renounceOwnership()": {
        "details": "Leaves the contract without owner. It will not be possible to call `onlyOwner` functions anymore. Can only be called by the current owner. NOTE: Renouncing ownership will leave the contract without an owner, thereby removing any functionality that is only available to the owner."
      },
      "transferOwnership(address)": {
        "details": "Transfers ownership of the contract to a new account (`newOwner`). Can only be called by the current owner."
      }
    },
    "title": "Governance Strategy contract",
    "version": 1
  },
  "userdoc": {
    "kind": "user",
    "methods": {},
    "version": 1
  }
}