{
  "contractName": "GovernanceStrategy",
  "abi": [
    {
      "inputs": [
        {
          "internalType": "address",
          "name": "_populous",
          "type": "address"
        },
        {
          "internalType": "address",
          "name": "_stkPopulous",
          "type": "address"
        }
      ],
      "stateMutability": "nonpayable",
      "type": "constructor"
    },
    {
      "anonymous": false,
      "inputs": [
        {
          "indexed": true,
          "internalType": "address",
          "name": "previousOwner",
          "type": "address"
        },
        {
          "indexed": true,
          "internalType": "address",
          "name": "newOwner",
          "type": "address"
        }
      ],
      "name": "OwnershipTransferred",
      "type": "event"
    },
    {
      "inputs": [],
      "name": "Populous",
      "outputs": [
        {
          "internalType": "address",
          "name": "",
          "type": "address"
        }
      ],
      "stateMutability": "view",
      "type": "function"
    },
    {
      "inputs": [],
      "name": "owner",
      "outputs": [
        {
          "internalType": "address",
          "name": "",
          "type": "address"
        }
      ],
      "stateMutability": "view",
      "type": "function"
    },
    {
      "inputs": [],
      "name": "renounceOwnership",
      "outputs": [],
      "stateMutability": "nonpayable",
      "type": "function"
    },
    {
      "inputs": [],
      "name": "stkPopulous",
      "outputs": [
        {
          "internalType": "address",
          "name": "",
          "type": "address"
        }
      ],
      "stateMutability": "view",
      "type": "function"
    },
    {
      "inputs": [
        {
          "internalType": "address",
          "name": "newOwner",
          "type": "address"
        }
      ],
      "name": "transferOwnership",
      "outputs": [],
      "stateMutability": "nonpayable",
      "type": "function"
    },
    {
      "inputs": [
        {
          "internalType": "uint256",
          "name": "blockNumber",
          "type": "uint256"
        }
      ],
      "name": "getTotalPropositionSupplyAt",
      "outputs": [
        {
          "internalType": "uint256",
          "name": "",
          "type": "uint256"
        }
      ],
      "stateMutability": "view",
      "type": "function"
    },
    {
      "inputs": [
        {
          "internalType": "uint256",
          "name": "blockNumber",
          "type": "uint256"
        }
      ],
      "name": "getTotalVotingSupplyAt",
      "outputs": [
        {
          "internalType": "uint256",
          "name": "",
          "type": "uint256"
        }
      ],
      "stateMutability": "view",
      "type": "function"
    },
    {
      "inputs": [
        {
          "internalType": "address",
          "name": "user",
          "type": "address"
        },
        {
          "internalType": "uint256",
          "name": "blockNumber",
          "type": "uint256"
        }
      ],
      "name": "getPropositionPowerAt",
      "outputs": [
        {
          "internalType": "uint256",
          "name": "",
          "type": "uint256"
        }
      ],
      "stateMutability": "view",
      "type": "function"
    },
    {
      "inputs": [
        {
          "internalType": "address",
          "name": "user",
          "type": "address"
        },
        {
          "internalType": "uint256",
          "name": "blockNumber",
          "type": "uint256"
        }
      ],
      "name": "getVotingPowerAt",
      "outputs": [
        {
          "internalType": "uint256",
          "name": "",
          "type": "uint256"
        }
      ],
      "stateMutability": "view",
      "type": "function"
    }
  ],
  "bytecode": "0x60c060405234801561001057600080fd5b5060405161083138038061083183398101604081905261002f91610116565b60006100396100f6565b600080546001600160a01b0319166001600160a01b0383169081178255604051929350917f8be0079c531659141344cd1fd0a4f28419497f9722a3daafe3b4186f6b6457e0908290a3506001600160a01b0382166100b25760405162461bcd60e51b81526004016100a990610148565b60405180910390fd5b6001600160a01b0381166100d85760405162461bcd60e51b81526004016100a99061019a565b6001600160601b0319606092831b8116608052911b1660a0526101f7565b3390565b80516001600160a01b038116811461011157600080fd5b919050565b60008060408385031215610128578182fd5b610131836100fa565b915061013f602084016100fa565b90509250929050565b60208082526032908201527f476f7665726e616e636553747261746567793a20496e76616c696420706f70756040820152716c6f757320746f6b656e206164647265737360701b606082015260800190565b60208082526035908201527f476f7665726e616e636553747261746567793a20496e76616c69642073746b5060408201527f6f70756c6f757320746f6b656e20616464726573730000000000000000000000606082015260800190565b60805160601c60a05160601c61060761022a60003980610238528061044452508061020552806103a152506106076000f3fe608060405234801561001057600080fd5b50600436106100935760003560e01c80639b87312d116100665780639b87312d146100e8578063a1076e58146100f0578063eaeded5f14610103578063f2fde38b14610116578063f6b502031461012957610093565b8063715018a6146100985780637a71f9d7146100a25780638ab8d1c7146100cb5780638da5cb5b146100e0575b600080fd5b6100a061013c565b005b6100b56100b036600461052f565b6101f0565b6040516100c291906105a2565b60405180910390f35b6100d3610203565b6040516100c2919061055f565b6100d3610227565b6100d3610236565b6100b56100fe366004610506565b61025a565b6100b5610111366004610506565b61026f565b6100a06101243660046104ec565b61027d565b6100b561013736600461052f565b610387565b610144610426565b6000546001600160a01b039081169116146101a6576040805162461bcd60e51b815260206004820181905260248201527f4f776e61626c653a2063616c6c6572206973206e6f7420746865206f776e6572604482015290519081900360640190fd5b600080546040516001600160a01b03909116907f8be0079c531659141344cd1fd0a4f28419497f9722a3daafe3b4186f6b6457e0908390a3600080546001600160a01b0319169055565b60006101fb82610387565b90505b919050565b7f000000000000000000000000000000000000000000000000000000000000000081565b6000546001600160a01b031690565b7f000000000000000000000000000000000000000000000000000000000000000081565b60006102688383600161042a565b9392505050565b60006102688383600061042a565b610285610426565b6000546001600160a01b039081169116146102e7576040805162461bcd60e51b815260206004820181905260248201527f4f776e61626c653a2063616c6c6572206973206e6f7420746865206f776e6572604482015290519081900360640190fd5b6001600160a01b03811661032c5760405162461bcd60e51b81526004018080602001828103825260268152602001806105ac6026913960400191505060405180910390fd5b600080546040516001600160a01b03808516939216917f8be0079c531659141344cd1fd0a4f28419497f9722a3daafe3b4186f6b6457e091a3600080546001600160a01b0319166001600160a01b0392909216919091179055565b604051630981b24d60e41b81526000906001600160a01b037f0000000000000000000000000000000000000000000000000000000000000000169063981b24d0906103d69085906004016105a2565b60206040518083038186803b1580156103ee57600080fd5b505afa158015610402573d6000803e3d6000fd5b505050506040513d601f19601f820116820180604052508101906101fb9190610547565b3390565b60405163c2ffbb9160e01b81526000906001600160a01b037f0000000000000000000000000000000000000000000000000000000000000000169063c2ffbb919061047d90879087908790600401610573565b60206040518083038186803b15801561049557600080fd5b505afa1580156104a9573d6000803e3d6000fd5b505050506040513d601f19601f820116820180604052508101906104cd9190610547565b949350505050565b80356001600160a01b03811681146101fe57600080fd5b6000602082840312156104fd578081fd5b610268826104d5565b60008060408385031215610518578081fd5b610521836104d5565b946020939093013593505050565b600060208284031215610540578081fd5b5035919050565b600060208284031215610558578081fd5b5051919050565b6001600160a01b0391909116815260200190565b6001600160a01b038416815260208101839052606081016002831061059457fe5b826040830152949350505050565b9081526020019056fe4f776e61626c653a206e6577206f776e657220697320746865207a65726f2061646472657373a2646970667358221220ee43c91717bce9c1424278b70c2f4749d8305e5b78cbbc8f2499134780a9420264736f6c63430007050033",
  "immutableReferences": {
    "6044": [
      {
        "length": 32,
        "start": 517
      },
      {
        "length": 32,
        "start": 929
      }
    ],
    "6046": [
      {
        "length": 32,
        "start": 568
      },
      {
        "length": 32,
        "start": 1092
      }
    ]
  },
  "source": "// SPDX-License-Identifier: agpl-3.0\npragma solidity 0.7.5;\npragma abicoder v2;\n\nimport {IGovernanceStrategy} from '../interfaces/IGovernanceStrategy.sol';\nimport {IERC20} from '../interfaces/IERC20.sol';\nimport {IGovernancePowerDelegationToken} from '../interfaces/IGovernancePowerDelegationToken.sol';\nimport {Ownable} from '../dependencies/open-zeppelin/Ownable.sol';\nimport {SafeMath} from '../dependencies/open-zeppelin/SafeMath.sol';\n\n/**\n * @title Governance Strategy contract\n * @dev Smart contract containing logic to measure users' relative power to propose and vote.\n * User Power = User Power from Populous Token + User Power from stkPopulous Token.\n * User Power from Token = Token Power + Token Power as Delegatee [- Token Power if user has delegated]\n * Two wrapper functions linked to Populous Tokens's GovernancePowerDelegationERC20.sol implementation\n * - getPropositionPowerAt: fetching a user Proposition Power at a specified block\n * - getVotingPowerAt: fetching a user Voting Power at a specified block\n * @author Populous\n **/\ncontract GovernanceStrategy is Ownable, IGovernanceStrategy {\n  using SafeMath for uint256;\n\n  address public immutable Populous;\n  address public immutable stkPopulous;\n\n  /**\n   * @dev Constructor, register tokens used for Voting and Proposition Powers.\n   * @param _populous The address of the Populous Token contract.\n   * @param _stkPopulous The address of the stkPopulous Token Contract\n   **/\n  constructor(address _populous, address _stkPopulous) {\n    require(_populous != address(0), \"GovernanceStrategy: Invalid populous token address\");\n    require(_stkPopulous != address(0), \"GovernanceStrategy: Invalid stkPopulous token address\");\n    Populous = _populous;\n    stkPopulous = _stkPopulous;\n  }\n\n  /**\n   * @dev Returns the total supply of Proposition Tokens Available for Governance\n   * = Populous Available for governance      + stkPopulous available\n   * The supply of Populous staked in stkPopulous are not taken into account so:\n   * = (Supply of Populous - Populous in stkPopulous) + (Supply of stkPopulous)\n   * = Supply of Populous, Since the supply of stkPopulous is equal to the number of Populous staked\n   * @param blockNumber Blocknumber at which to evaluate\n   * @return total supply at blockNumber\n   **/\n  function getTotalPropositionSupplyAt(uint256 blockNumber) public view override returns (uint256) {\n    return IERC20(Populous).totalSupplyAt(blockNumber);\n  }\n\n  /**\n   * @dev Returns the total supply of Outstanding Voting Tokens \n   * @param blockNumber Blocknumber at which to evaluate\n   * @return total supply at blockNumber\n   **/\n  function getTotalVotingSupplyAt(uint256 blockNumber) public view override returns (uint256) {\n    return getTotalPropositionSupplyAt(blockNumber);\n  }\n\n  /**\n   * @dev Returns the Proposition Power of a user at a specific block number.\n   * @param user Address of the user.\n   * @param blockNumber Blocknumber at which to fetch Proposition Power\n   * @return Power number\n   **/\n  function getPropositionPowerAt(address user, uint256 blockNumber)\n    public\n    view\n    override\n    returns (uint256)\n  {\n    return\n      _getPowerByTypeAt(user, blockNumber, IGovernancePowerDelegationToken.DelegationType.PROPOSITION_POWER);\n  }\n\n  /**\n   * @dev Returns the Vote Power of a user at a specific block number.\n   * @param user Address of the user.\n   * @param blockNumber Blocknumber at which to fetch Vote Power\n   * @return Vote number\n   **/\n  function getVotingPowerAt(address user, uint256 blockNumber)\n    public\n    view\n    override\n    returns (uint256)\n  {\n    return _getPowerByTypeAt(user, blockNumber, IGovernancePowerDelegationToken.DelegationType.VOTING_POWER);\n  }\n\n  function _getPowerByTypeAt(\n    address user,\n    uint256 blockNumber,\n    IGovernancePowerDelegationToken.DelegationType powerType\n  ) internal view returns (uint256) {\n    return\n    IGovernancePowerDelegationToken(stkPopulous).getPowerAtBlock(user, blockNumber, powerType);\n      /* (IGovernancePowerDelegationToken(Populous).getPowerAtBlock(user, blockNumber, powerType).mul(pptWeight))\n      .add\n      (IGovernancePowerDelegationToken(STK_Populous).getPowerAtBlock(user, blockNumber, powerType).mul(pxtWeight)); */\n  }\n}\n",
  "sourcePath": "/Users/nemitariajienka/Desktop/projects/populous/Populous-DeFi-governance/contracts/governance/GovernanceStrategy.sol",
  "compiler": {
    "name": "solc",
    "version": "0.7.5+commit.eb77ed08.Emscripten.clang"
  },
  "schemaVersion": "3.3.3",
  "updatedAt": "2021-04-19T11:37:46.669Z",
  "devdoc": {
    "author": "Populous*",
    "details": "Smart contract containing logic to measure users' relative power to propose and vote. User Power = User Power from Populous Token + User Power from stkPopulous Token. User Power from Token = Token Power + Token Power as Delegatee [- Token Power if user has delegated] Two wrapper functions linked to Populous Tokens's GovernancePowerDelegationERC20.sol implementation - getPropositionPowerAt: fetching a user Proposition Power at a specified block - getVotingPowerAt: fetching a user Voting Power at a specified block",
    "kind": "dev",
    "methods": {
      "constructor": {
        "details": "Constructor, register tokens used for Voting and Proposition Powers.",
        "params": {
          "_populous": "The address of the Populous Token contract.",
          "_stkPopulous": "The address of the stkPopulous Token Contract*"
        }
      },
      "getPropositionPowerAt(address,uint256)": {
        "details": "Returns the Proposition Power of a user at a specific block number.",
        "params": {
          "blockNumber": "Blocknumber at which to fetch Proposition Power",
          "user": "Address of the user."
        },
        "returns": {
          "_0": "Power number*"
        }
      },
      "getTotalPropositionSupplyAt(uint256)": {
        "details": "Returns the total supply of Proposition Tokens Available for Governance = Populous Available for governance      + stkPopulous available The supply of Populous staked in stkPopulous are not taken into account so: = (Supply of Populous - Populous in stkPopulous) + (Supply of stkPopulous) = Supply of Populous, Since the supply of stkPopulous is equal to the number of Populous staked",
        "params": {
          "blockNumber": "Blocknumber at which to evaluate"
        },
        "returns": {
          "_0": "total supply at blockNumber*"
        }
      },
      "getTotalVotingSupplyAt(uint256)": {
        "details": "Returns the total supply of Outstanding Voting Tokens ",
        "params": {
          "blockNumber": "Blocknumber at which to evaluate"
        },
        "returns": {
          "_0": "total supply at blockNumber*"
        }
      },
      "getVotingPowerAt(address,uint256)": {
        "details": "Returns the Vote Power of a user at a specific block number.",
        "params": {
          "blockNumber": "Blocknumber at which to fetch Vote Power",
          "user": "Address of the user."
        },
        "returns": {
          "_0": "Vote number*"
        }
      },
      "owner()": {
        "details": "Returns the address of the current owner."
      },
      "renounceOwnership()": {
        "details": "Leaves the contract without owner. It will not be possible to call `onlyOwner` functions anymore. Can only be called by the current owner. NOTE: Renouncing ownership will leave the contract without an owner, thereby removing any functionality that is only available to the owner."
      },
      "transferOwnership(address)": {
        "details": "Transfers ownership of the contract to a new account (`newOwner`). Can only be called by the current owner."
      }
    },
    "title": "Governance Strategy contract",
    "version": 1
  },
  "userdoc": {
    "kind": "user",
    "methods": {},
    "version": 1
  }
}