{
  "contractName": "GovernanceStrategy",
  "abi": [
    {
      "inputs": [
        {
          "internalType": "address",
          "name": "_populous",
          "type": "address"
        },
        {
          "internalType": "address",
          "name": "_stkPopulous",
          "type": "address"
        }
      ],
      "stateMutability": "nonpayable",
      "type": "constructor"
    },
    {
      "inputs": [],
      "name": "Populous",
      "outputs": [
        {
          "internalType": "address",
          "name": "",
          "type": "address"
        }
      ],
      "stateMutability": "view",
      "type": "function",
      "constant": true
    },
    {
      "inputs": [],
      "name": "STK_Populous",
      "outputs": [
        {
          "internalType": "address",
          "name": "",
          "type": "address"
        }
      ],
      "stateMutability": "view",
      "type": "function",
      "constant": true
    },
    {
      "inputs": [
        {
          "internalType": "uint256",
          "name": "blockNumber",
          "type": "uint256"
        }
      ],
      "name": "getTotalPropositionSupplyAt",
      "outputs": [
        {
          "internalType": "uint256",
          "name": "",
          "type": "uint256"
        }
      ],
      "stateMutability": "view",
      "type": "function",
      "constant": true
    },
    {
      "inputs": [
        {
          "internalType": "uint256",
          "name": "blockNumber",
          "type": "uint256"
        }
      ],
      "name": "getTotalVotingSupplyAt",
      "outputs": [
        {
          "internalType": "uint256",
          "name": "",
          "type": "uint256"
        }
      ],
      "stateMutability": "view",
      "type": "function",
      "constant": true
    },
    {
      "inputs": [
        {
          "internalType": "address",
          "name": "user",
          "type": "address"
        },
        {
          "internalType": "uint256",
          "name": "blockNumber",
          "type": "uint256"
        }
      ],
      "name": "getPropositionPowerAt",
      "outputs": [
        {
          "internalType": "uint256",
          "name": "",
          "type": "uint256"
        }
      ],
      "stateMutability": "view",
      "type": "function",
      "constant": true
    },
    {
      "inputs": [
        {
          "internalType": "address",
          "name": "user",
          "type": "address"
        },
        {
          "internalType": "uint256",
          "name": "blockNumber",
          "type": "uint256"
        }
      ],
      "name": "getVotingPowerAt",
      "outputs": [
        {
          "internalType": "uint256",
          "name": "",
          "type": "uint256"
        }
      ],
      "stateMutability": "view",
      "type": "function",
      "constant": true
    }
  ],
  "bytecode": "0x60c060405234801561001057600080fd5b5060405161050738038061050783398101604081905261002f91610069565b6001600160601b0319606092831b8116608052911b1660a05261009b565b80516001600160a01b038116811461006457600080fd5b919050565b6000806040838503121561007b578182fd5b6100848361004d565b91506100926020840161004d565b90509250929050565b60805160601c60a05160601c6104356100d26000398060f9528061021b52508061011d528061017c52806102bb52506104356000f3fe608060405234801561001057600080fd5b50600436106100625760003560e01c80637a71f9d71461006757806381bbf65f146100905780638ab8d1c7146100a5578063a1076e58146100ad578063eaeded5f146100c0578063f6b50203146100d3575b600080fd5b61007a610075366004610383565b6100e6565b60405161008791906103f6565b60405180910390f35b6100986100f7565b60405161008791906103b3565b61009861011b565b61007a6100bb36600461034d565b61013f565b61007a6100ce36600461034d565b610154565b61007a6100e1366004610383565b610162565b60006100f182610162565b92915050565b7f000000000000000000000000000000000000000000000000000000000000000081565b7f000000000000000000000000000000000000000000000000000000000000000081565b600061014d83836001610201565b9392505050565b600061014d83836000610201565b604051630981b24d60e41b81526000906001600160a01b037f0000000000000000000000000000000000000000000000000000000000000000169063981b24d0906101b19085906004016103f6565b60206040518083038186803b1580156101c957600080fd5b505afa1580156101dd573d6000803e3d6000fd5b505050506040513d601f19601f820116820180604052508101906100f1919061039b565b60405163c2ffbb9160e01b81526000906001600160a01b037f0000000000000000000000000000000000000000000000000000000000000000169063c2ffbb9190610254908790879087906004016103c7565b60206040518083038186803b15801561026c57600080fd5b505afa158015610280573d6000803e3d6000fd5b505050506040513d601f19601f820116820180604052508101906102a4919061039b565b60405163c2ffbb9160e01b81526001600160a01b037f0000000000000000000000000000000000000000000000000000000000000000169063c2ffbb91906102f4908890889088906004016103c7565b60206040518083038186803b15801561030c57600080fd5b505afa158015610320573d6000803e3d6000fd5b505050506040513d601f19601f82011682018060405250810190610344919061039b565b01949350505050565b6000806040838503121561035f578182fd5b82356001600160a01b0381168114610375578283fd5b946020939093013593505050565b600060208284031215610394578081fd5b5035919050565b6000602082840312156103ac578081fd5b5051919050565b6001600160a01b0391909116815260200190565b6001600160a01b03841681526020810183905260608101600283106103e857fe5b826040830152949350505050565b9081526020019056fea2646970667358221220e3cd1334076992c1010d30ba20a628558cd1d3ee8db1754a49bebf0f59391ada64736f6c63430007050033",
  "immutableReferences": {
    "5781": [
      {
        "length": 32,
        "start": 285
      },
      {
        "length": 32,
        "start": 380
      },
      {
        "length": 32,
        "start": 699
      }
    ],
    "5783": [
      {
        "length": 32,
        "start": 249
      },
      {
        "length": 32,
        "start": 539
      }
    ]
  },
  "source": "// SPDX-License-Identifier: agpl-3.0\npragma solidity 0.7.5;\npragma abicoder v2;\n\nimport {IGovernanceStrategy} from '../interfaces/IGovernanceStrategy.sol';\nimport {IERC20} from '../interfaces/IERC20.sol';\nimport {IGovernancePowerDelegationToken} from '../interfaces/IGovernancePowerDelegationToken.sol';\n\n/**\n * @title Governance Strategy contract\n * @dev Smart contract containing logic to measure users' relative power to propose and vote.\n * User Power = User Power from Populous Token + User Power from stkPopulous Token.\n * User Power from Token = Token Power + Token Power as Delegatee [- Token Power if user has delegated]\n * Two wrapper functions linked to Populous Tokens's GovernancePowerDelegationERC20.sol implementation\n * - getPropositionPowerAt: fetching a user Proposition Power at a specified block\n * - getVotingPowerAt: fetching a user Voting Power at a specified block\n * @author Populous\n **/\ncontract GovernanceStrategy is IGovernanceStrategy {\n  address public immutable Populous;\n  address public immutable STK_Populous;\n\n  /**\n   * @dev Constructor, register tokens used for Voting and Proposition Powers.\n   * @param _populous The address of the Populous Token contract.\n   * @param _stkPopulous The address of the stkPopulous Token Contract\n   **/\n  constructor(address _populous, address _stkPopulous) {\n    Populous = _populous;\n    STK_Populous = _stkPopulous;\n  }\n\n  /**\n   * @dev Returns the total supply of Proposition Tokens Available for Governance\n   * = Populous Available for governance      + stkPopulous available\n   * The supply of Populous staked in stkPopulous are not taken into account so:\n   * = (Supply of Populous - Populous in stkPopulous) + (Supply of stkPopulous)\n   * = Supply of Populous, Since the supply of stkPopulous is equal to the number of Populous staked\n   * @param blockNumber Blocknumber at which to evaluate\n   * @return total supply at blockNumber\n   **/\n  function getTotalPropositionSupplyAt(uint256 blockNumber) public view override returns (uint256) {\n    return IERC20(Populous).totalSupplyAt(blockNumber);\n  }\n\n  /**\n   * @dev Returns the total supply of Outstanding Voting Tokens \n   * @param blockNumber Blocknumber at which to evaluate\n   * @return total supply at blockNumber\n   **/\n  function getTotalVotingSupplyAt(uint256 blockNumber) public view override returns (uint256) {\n    return getTotalPropositionSupplyAt(blockNumber);\n  }\n\n  /**\n   * @dev Returns the Proposition Power of a user at a specific block number.\n   * @param user Address of the user.\n   * @param blockNumber Blocknumber at which to fetch Proposition Power\n   * @return Power number\n   **/\n  function getPropositionPowerAt(address user, uint256 blockNumber)\n    public\n    view\n    override\n    returns (uint256)\n  {\n    return\n      _getPowerByTypeAt(user, blockNumber, IGovernancePowerDelegationToken.DelegationType.PROPOSITION_POWER);\n  }\n\n  /**\n   * @dev Returns the Vote Power of a user at a specific block number.\n   * @param user Address of the user.\n   * @param blockNumber Blocknumber at which to fetch Vote Power\n   * @return Vote number\n   **/\n  function getVotingPowerAt(address user, uint256 blockNumber)\n    public\n    view\n    override\n    returns (uint256)\n  {\n    return _getPowerByTypeAt(user, blockNumber, IGovernancePowerDelegationToken.DelegationType.VOTING_POWER);\n  }\n\n  function _getPowerByTypeAt(\n    address user,\n    uint256 blockNumber,\n    IGovernancePowerDelegationToken.DelegationType powerType\n  ) internal view returns (uint256) {\n    return\n      IGovernancePowerDelegationToken(Populous).getPowerAtBlock(user, blockNumber, powerType) +\n      IGovernancePowerDelegationToken(STK_Populous).getPowerAtBlock(user, blockNumber, powerType);\n  }\n}\n",
  "sourcePath": "/Users/nemitariajienka/Desktop/DeFi_backup/Populous-DeFi-governance/contracts/governance/GovernanceStrategy.sol",
  "compiler": {
    "name": "solc",
    "version": "0.7.5+commit.eb77ed08.Emscripten.clang"
  },
  "schemaVersion": "3.3.3",
  "updatedAt": "2021-01-05T13:58:47.999Z",
  "networkType": "ethereum",
  "devdoc": {
    "author": "Populous*",
    "details": "Smart contract containing logic to measure users' relative power to propose and vote. User Power = User Power from Populous Token + User Power from stkPopulous Token. User Power from Token = Token Power + Token Power as Delegatee [- Token Power if user has delegated] Two wrapper functions linked to Populous Tokens's GovernancePowerDelegationERC20.sol implementation - getPropositionPowerAt: fetching a user Proposition Power at a specified block - getVotingPowerAt: fetching a user Voting Power at a specified block",
    "kind": "dev",
    "methods": {
      "constructor": {
        "details": "Constructor, register tokens used for Voting and Proposition Powers.",
        "params": {
          "_populous": "The address of the Populous Token contract.",
          "_stkPopulous": "The address of the stkPopulous Token Contract*"
        }
      },
      "getPropositionPowerAt(address,uint256)": {
        "details": "Returns the Proposition Power of a user at a specific block number.",
        "params": {
          "blockNumber": "Blocknumber at which to fetch Proposition Power",
          "user": "Address of the user."
        },
        "returns": {
          "_0": "Power number*"
        }
      },
      "getTotalPropositionSupplyAt(uint256)": {
        "details": "Returns the total supply of Proposition Tokens Available for Governance = Populous Available for governance      + stkPopulous available The supply of Populous staked in stkPopulous are not taken into account so: = (Supply of Populous - Populous in stkPopulous) + (Supply of stkPopulous) = Supply of Populous, Since the supply of stkPopulous is equal to the number of Populous staked",
        "params": {
          "blockNumber": "Blocknumber at which to evaluate"
        },
        "returns": {
          "_0": "total supply at blockNumber*"
        }
      },
      "getTotalVotingSupplyAt(uint256)": {
        "details": "Returns the total supply of Outstanding Voting Tokens ",
        "params": {
          "blockNumber": "Blocknumber at which to evaluate"
        },
        "returns": {
          "_0": "total supply at blockNumber*"
        }
      },
      "getVotingPowerAt(address,uint256)": {
        "details": "Returns the Vote Power of a user at a specific block number.",
        "params": {
          "blockNumber": "Blocknumber at which to fetch Vote Power",
          "user": "Address of the user."
        },
        "returns": {
          "_0": "Vote number*"
        }
      }
    },
    "title": "Governance Strategy contract",
    "version": 1
  },
  "userdoc": {
    "kind": "user",
    "methods": {},
    "version": 1
  }
}