{
  "contractName": "GovernanceStrategy",
  "abi": [
    {
      "inputs": [
        {
          "internalType": "address",
          "name": "_populous",
          "type": "address"
        },
        {
          "internalType": "address",
          "name": "_stkPopulous",
          "type": "address"
        },
        {
          "internalType": "uint256",
          "name": "_pptWeight",
          "type": "uint256"
        },
        {
          "internalType": "uint256",
          "name": "_pxtWeight",
          "type": "uint256"
        }
      ],
      "stateMutability": "nonpayable",
      "type": "constructor"
    },
    {
      "anonymous": false,
      "inputs": [
        {
          "indexed": true,
          "internalType": "address",
          "name": "previousOwner",
          "type": "address"
        },
        {
          "indexed": true,
          "internalType": "address",
          "name": "newOwner",
          "type": "address"
        }
      ],
      "name": "OwnershipTransferred",
      "type": "event"
    },
    {
      "anonymous": false,
      "inputs": [
        {
          "indexed": true,
          "internalType": "address",
          "name": "_token",
          "type": "address"
        },
        {
          "indexed": true,
          "internalType": "uint256",
          "name": "_weight",
          "type": "uint256"
        }
      ],
      "name": "WeightSet",
      "type": "event"
    },
    {
      "inputs": [],
      "name": "Populous",
      "outputs": [
        {
          "internalType": "address",
          "name": "",
          "type": "address"
        }
      ],
      "stateMutability": "view",
      "type": "function",
      "constant": true
    },
    {
      "inputs": [],
      "name": "STK_Populous",
      "outputs": [
        {
          "internalType": "address",
          "name": "",
          "type": "address"
        }
      ],
      "stateMutability": "view",
      "type": "function",
      "constant": true
    },
    {
      "inputs": [],
      "name": "owner",
      "outputs": [
        {
          "internalType": "address",
          "name": "",
          "type": "address"
        }
      ],
      "stateMutability": "view",
      "type": "function",
      "constant": true
    },
    {
      "inputs": [],
      "name": "renounceOwnership",
      "outputs": [],
      "stateMutability": "nonpayable",
      "type": "function"
    },
    {
      "inputs": [
        {
          "internalType": "address",
          "name": "newOwner",
          "type": "address"
        }
      ],
      "name": "transferOwnership",
      "outputs": [],
      "stateMutability": "nonpayable",
      "type": "function"
    },
    {
      "inputs": [],
      "name": "getPPTWeight",
      "outputs": [
        {
          "internalType": "uint256",
          "name": "",
          "type": "uint256"
        }
      ],
      "stateMutability": "view",
      "type": "function",
      "constant": true
    },
    {
      "inputs": [],
      "name": "getPXTWeight",
      "outputs": [
        {
          "internalType": "uint256",
          "name": "",
          "type": "uint256"
        }
      ],
      "stateMutability": "view",
      "type": "function",
      "constant": true
    },
    {
      "inputs": [
        {
          "internalType": "uint256",
          "name": "_weight",
          "type": "uint256"
        }
      ],
      "name": "setPPTWeight",
      "outputs": [
        {
          "internalType": "bool",
          "name": "",
          "type": "bool"
        }
      ],
      "stateMutability": "nonpayable",
      "type": "function"
    },
    {
      "inputs": [
        {
          "internalType": "uint256",
          "name": "_weight",
          "type": "uint256"
        }
      ],
      "name": "setPXTWeight",
      "outputs": [
        {
          "internalType": "bool",
          "name": "",
          "type": "bool"
        }
      ],
      "stateMutability": "nonpayable",
      "type": "function"
    },
    {
      "inputs": [
        {
          "internalType": "uint256",
          "name": "blockNumber",
          "type": "uint256"
        }
      ],
      "name": "getTotalPropositionSupplyAt",
      "outputs": [
        {
          "internalType": "uint256",
          "name": "",
          "type": "uint256"
        }
      ],
      "stateMutability": "view",
      "type": "function",
      "constant": true
    },
    {
      "inputs": [
        {
          "internalType": "uint256",
          "name": "blockNumber",
          "type": "uint256"
        }
      ],
      "name": "getTotalVotingSupplyAt",
      "outputs": [
        {
          "internalType": "uint256",
          "name": "",
          "type": "uint256"
        }
      ],
      "stateMutability": "view",
      "type": "function",
      "constant": true
    },
    {
      "inputs": [
        {
          "internalType": "address",
          "name": "user",
          "type": "address"
        },
        {
          "internalType": "uint256",
          "name": "blockNumber",
          "type": "uint256"
        }
      ],
      "name": "getPropositionPowerAt",
      "outputs": [
        {
          "internalType": "uint256",
          "name": "",
          "type": "uint256"
        }
      ],
      "stateMutability": "view",
      "type": "function",
      "constant": true
    },
    {
      "inputs": [
        {
          "internalType": "address",
          "name": "user",
          "type": "address"
        },
        {
          "internalType": "uint256",
          "name": "blockNumber",
          "type": "uint256"
        }
      ],
      "name": "getVotingPowerAt",
      "outputs": [
        {
          "internalType": "uint256",
          "name": "",
          "type": "uint256"
        }
      ],
      "stateMutability": "view",
      "type": "function",
      "constant": true
    }
  ],
  "bytecode": "0x60c060405234801561001057600080fd5b50604051610b22380380610b2283398101604081905261002f916100cb565b60006100396100ab565b600080546001600160a01b0319166001600160a01b0383169081178255604051929350917f8be0079c531659141344cd1fd0a4f28419497f9722a3daafe3b4186f6b6457e0908290a3506001600160601b0319606094851b81166080529290931b90911660a05260015560025561010d565b3390565b80516001600160a01b03811681146100c657600080fd5b919050565b600080600080608085870312156100e0578384fd5b6100e9856100af565b93506100f7602086016100af565b6040860151606090960151949790965092505050565b60805160601c60a05160601c6109d361014f6000398061027252806106635250806102965280610375528061045e52806105cd528061070f52506109d36000f3fe608060405234801561001057600080fd5b50600436106100cf5760003560e01c8063a1cbb38c1161008c578063e581bd6811610066578063e581bd681461016f578063eaeded5f14610182578063f2fde38b14610195578063f6b50203146101a8576100cf565b8063a1cbb38c1461013f578063b5743a9b1461015f578063c63d893514610167576100cf565b8063715018a6146100d45780637a71f9d7146100de57806381bbf65f146101075780638ab8d1c71461011c5780638da5cb5b14610124578063a1076e581461012c575b600080fd5b6100dc6101bb565b005b6100f16100ec366004610878565b61025d565b6040516100fe919061092d565b60405180910390f35b61010f610270565b6040516100fe91906108a8565b61010f610294565b61010f6102b8565b6100f161013a36600461084f565b6102c7565b61015261014d366004610878565b6102de565b6040516100fe91906108eb565b6100f16103c4565b6100f16103ca565b61015261017d366004610878565b6103d0565b6100f161019036600461084f565b6104ad565b6100dc6101a3366004610835565b6104bb565b6100f16101b6366004610878565b6105b3565b6101c3610652565b6000546001600160a01b03908116911614610213576040805162461bcd60e51b8152602060048201819052602482015260008051602061097e833981519152604482015290519081900360640190fd5b600080546040516001600160a01b03909116907f8be0079c531659141344cd1fd0a4f28419497f9722a3daafe3b4186f6b6457e0908390a3600080546001600160a01b0319169055565b6000610268826105b3565b90505b919050565b7f000000000000000000000000000000000000000000000000000000000000000081565b7f000000000000000000000000000000000000000000000000000000000000000081565b6000546001600160a01b031690565b60006102d583836001610656565b90505b92915050565b60006102e8610652565b6000546001600160a01b03908116911614610338576040805162461bcd60e51b8152602060048201819052602482015260008051602061097e833981519152604482015290519081900360640190fd5b600082116103615760405162461bcd60e51b8152600401610358906108f6565b60405180910390fd5b600282905560405182906001600160a01b037f000000000000000000000000000000000000000000000000000000000000000016907f575839b376847794dfe4a5dec7346995f843243620c29b9386ed3cdc996d14e290600090a3506001919050565b60025490565b60015490565b60006103da610652565b6000546001600160a01b0390811691161461042a576040805162461bcd60e51b8152602060048201819052602482015260008051602061097e833981519152604482015290519081900360640190fd5b6000821161044a5760405162461bcd60e51b8152600401610358906108f6565b600182905560405182906001600160a01b037f000000000000000000000000000000000000000000000000000000000000000016907f575839b376847794dfe4a5dec7346995f843243620c29b9386ed3cdc996d14e290600090a3506001919050565b60006102d583836000610656565b6104c3610652565b6000546001600160a01b03908116911614610513576040805162461bcd60e51b8152602060048201819052602482015260008051602061097e833981519152604482015290519081900360640190fd5b6001600160a01b0381166105585760405162461bcd60e51b81526004018080602001828103825260268152602001806109376026913960400191505060405180910390fd5b600080546040516001600160a01b03808516939216917f8be0079c531659141344cd1fd0a4f28419497f9722a3daafe3b4186f6b6457e091a3600080546001600160a01b0319166001600160a01b0392909216919091179055565b604051630981b24d60e41b81526000906001600160a01b037f0000000000000000000000000000000000000000000000000000000000000000169063981b24d09061060290859060040161092d565b60206040518083038186803b15801561061a57600080fd5b505afa15801561062e573d6000803e3d6000fd5b505050506040513d601f19601f820116820180604052508101906102689190610890565b3390565b60006107636107076002547f00000000000000000000000000000000000000000000000000000000000000006001600160a01b031663c2ffbb918888886040518463ffffffff1660e01b81526004016106b1939291906108bc565b60206040518083038186803b1580156106c957600080fd5b505afa1580156106dd573d6000803e3d6000fd5b505050506040513d601f19601f820116820180604052508101906107019190610890565b9061076b565b61075d6001547f00000000000000000000000000000000000000000000000000000000000000006001600160a01b031663c2ffbb918989896040518463ffffffff1660e01b81526004016106b1939291906108bc565b906107c4565b949350505050565b60008261077a575060006102d8565b8282028284828161078757fe5b04146102d55760405162461bcd60e51b815260040180806020018281038252602181526020018061095d6021913960400191505060405180910390fd5b6000828201838110156102d5576040805162461bcd60e51b815260206004820152601b60248201527f536166654d6174683a206164646974696f6e206f766572666c6f770000000000604482015290519081900360640190fd5b80356001600160a01b038116811461026b57600080fd5b600060208284031215610846578081fd5b6102d58261081e565b60008060408385031215610861578081fd5b61086a8361081e565b946020939093013593505050565b600060208284031215610889578081fd5b5035919050565b6000602082840312156108a1578081fd5b5051919050565b6001600160a01b0391909116815260200190565b6001600160a01b03841681526020810183905260608101600283106108dd57fe5b826040830152949350505050565b901515815260200190565b6020808252601a908201527f7765696768742063616e6e6f742062652030206f72206c657373000000000000604082015260600190565b9081526020019056fe4f776e61626c653a206e6577206f776e657220697320746865207a65726f2061646472657373536166654d6174683a206d756c7469706c69636174696f6e206f766572666c6f774f776e61626c653a2063616c6c6572206973206e6f7420746865206f776e6572a2646970667358221220d083e210bfd69df785d45b807b73ca7f756c19bd319399bab0b7cb0d7dc69e7c64736f6c63430007050033",
  "immutableReferences": {
    "5786": [
      {
        "length": 32,
        "start": 662
      },
      {
        "length": 32,
        "start": 885
      },
      {
        "length": 32,
        "start": 1118
      },
      {
        "length": 32,
        "start": 1485
      },
      {
        "length": 32,
        "start": 1807
      }
    ],
    "5788": [
      {
        "length": 32,
        "start": 626
      },
      {
        "length": 32,
        "start": 1635
      }
    ]
  },
  "source": "// SPDX-License-Identifier: agpl-3.0\npragma solidity 0.7.5;\npragma abicoder v2;\n\nimport {IGovernanceStrategy} from '../interfaces/IGovernanceStrategy.sol';\nimport {IERC20} from '../interfaces/IERC20.sol';\nimport {IGovernancePowerDelegationToken} from '../interfaces/IGovernancePowerDelegationToken.sol';\nimport {Ownable} from '../dependencies/open-zeppelin/Ownable.sol';\nimport {SafeMath} from '../dependencies/open-zeppelin/SafeMath.sol';\n\n/**\n * @title Governance Strategy contract\n * @dev Smart contract containing logic to measure users' relative power to propose and vote.\n * User Power = User Power from Populous Token + User Power from stkPopulous Token.\n * User Power from Token = Token Power + Token Power as Delegatee [- Token Power if user has delegated]\n * Two wrapper functions linked to Populous Tokens's GovernancePowerDelegationERC20.sol implementation\n * - getPropositionPowerAt: fetching a user Proposition Power at a specified block\n * - getVotingPowerAt: fetching a user Voting Power at a specified block\n * @author Populous\n **/\ncontract GovernanceStrategy is Ownable, IGovernanceStrategy {\n  using SafeMath for uint256;\n\n  address public immutable Populous;\n  address public immutable STK_Populous;\n\n  uint256 private pptWeight;\n  uint256 private pxtWeight;\n\n  event WeightSet(address indexed _token, uint256 indexed _weight);\n\n  /**\n   * @dev Constructor, register tokens used for Voting and Proposition Powers.\n   * @param _populous The address of the Populous Token contract.\n   * @param _stkPopulous The address of the stkPopulous Token Contract\n   **/\n  constructor(address _populous, address _stkPopulous, uint256 _pptWeight, uint256 _pxtWeight) {\n    Populous = _populous;\n    STK_Populous = _stkPopulous;\n    pptWeight = _pptWeight;\n    pxtWeight = _pxtWeight;\n  }\n\n  /**\n   * @dev Returns the weight assigned to the PPT token for voting\n   * @return ppt assigned weight\n   **/\n  function getPPTWeight() public view returns (uint256) {\n    return pptWeight;\n  }\n\n  /**\n   * @dev Returns the weight assigned to the PXT token for voting\n   * @return pxt assigned weight\n   **/\n  function getPXTWeight() public view returns (uint256){\n    return pxtWeight;\n  }\n\n  /**\n   * @dev Assigns a weight to each PPT token for voting\n   * @param _weight weight to assign\n   * @return boolean true/false\n   **/\n  function setPPTWeight(uint256 _weight) external onlyOwner returns (bool) {\n    require(_weight > 0, \"weight cannot be 0 or less\");\n    pptWeight = _weight;\n    emit WeightSet(Populous, _weight);\n    return true;\n  }\n\n  /**\n   * @dev Assigns a weight to each PPT token for voting\n   * @param _weight weight to assign\n   * @return boolean true/false\n   **/\n  function setPXTWeight(uint256 _weight) external onlyOwner returns (bool) {\n    require(_weight > 0, \"weight cannot be 0 or less\");\n    pxtWeight = _weight;\n    emit WeightSet(Populous, _weight);\n    return true;\n  }\n\n  /**\n   * @dev Returns the total supply of Proposition Tokens Available for Governance\n   * = Populous Available for governance      + stkPopulous available\n   * The supply of Populous staked in stkPopulous are not taken into account so:\n   * = (Supply of Populous - Populous in stkPopulous) + (Supply of stkPopulous)\n   * = Supply of Populous, Since the supply of stkPopulous is equal to the number of Populous staked\n   * @param blockNumber Blocknumber at which to evaluate\n   * @return total supply at blockNumber\n   **/\n  function getTotalPropositionSupplyAt(uint256 blockNumber) public view override returns (uint256) {\n    return IERC20(Populous).totalSupplyAt(blockNumber);\n  }\n\n  /**\n   * @dev Returns the total supply of Outstanding Voting Tokens \n   * @param blockNumber Blocknumber at which to evaluate\n   * @return total supply at blockNumber\n   **/\n  function getTotalVotingSupplyAt(uint256 blockNumber) public view override returns (uint256) {\n    return getTotalPropositionSupplyAt(blockNumber);\n  }\n\n  /**\n   * @dev Returns the Proposition Power of a user at a specific block number.\n   * @param user Address of the user.\n   * @param blockNumber Blocknumber at which to fetch Proposition Power\n   * @return Power number\n   **/\n  function getPropositionPowerAt(address user, uint256 blockNumber)\n    public\n    view\n    override\n    returns (uint256)\n  {\n    return\n      _getPowerByTypeAt(user, blockNumber, IGovernancePowerDelegationToken.DelegationType.PROPOSITION_POWER);\n  }\n\n  /**\n   * @dev Returns the Vote Power of a user at a specific block number.\n   * @param user Address of the user.\n   * @param blockNumber Blocknumber at which to fetch Vote Power\n   * @return Vote number\n   **/\n  function getVotingPowerAt(address user, uint256 blockNumber)\n    public\n    view\n    override\n    returns (uint256)\n  {\n    return _getPowerByTypeAt(user, blockNumber, IGovernancePowerDelegationToken.DelegationType.VOTING_POWER);\n  }\n\n  function _getPowerByTypeAt(\n    address user,\n    uint256 blockNumber,\n    IGovernancePowerDelegationToken.DelegationType powerType\n  ) internal view returns (uint256) {\n    return\n      (IGovernancePowerDelegationToken(Populous).getPowerAtBlock(user, blockNumber, powerType).mul(pptWeight))\n      .add\n      (IGovernancePowerDelegationToken(STK_Populous).getPowerAtBlock(user, blockNumber, powerType).mul(pxtWeight));\n  }\n}\n",
  "sourcePath": "/Users/nemitariajienka/Desktop/DeFi_backup/Populous-DeFi-governance/contracts/governance/GovernanceStrategy.sol",
  "compiler": {
    "name": "solc",
    "version": "0.7.5+commit.eb77ed08.Emscripten.clang"
  },
  "schemaVersion": "3.3.3",
  "updatedAt": "2021-03-25T14:58:54.975Z",
  "networkType": "ethereum",
  "devdoc": {
    "author": "Populous*",
    "details": "Smart contract containing logic to measure users' relative power to propose and vote. User Power = User Power from Populous Token + User Power from stkPopulous Token. User Power from Token = Token Power + Token Power as Delegatee [- Token Power if user has delegated] Two wrapper functions linked to Populous Tokens's GovernancePowerDelegationERC20.sol implementation - getPropositionPowerAt: fetching a user Proposition Power at a specified block - getVotingPowerAt: fetching a user Voting Power at a specified block",
    "kind": "dev",
    "methods": {
      "constructor": {
        "details": "Constructor, register tokens used for Voting and Proposition Powers.",
        "params": {
          "_populous": "The address of the Populous Token contract.",
          "_stkPopulous": "The address of the stkPopulous Token Contract*"
        }
      },
      "getPPTWeight()": {
        "details": "Returns the weight assigned to the PPT token for voting",
        "returns": {
          "_0": "ppt assigned weight*"
        }
      },
      "getPXTWeight()": {
        "details": "Returns the weight assigned to the PXT token for voting",
        "returns": {
          "_0": "pxt assigned weight*"
        }
      },
      "getPropositionPowerAt(address,uint256)": {
        "details": "Returns the Proposition Power of a user at a specific block number.",
        "params": {
          "blockNumber": "Blocknumber at which to fetch Proposition Power",
          "user": "Address of the user."
        },
        "returns": {
          "_0": "Power number*"
        }
      },
      "getTotalPropositionSupplyAt(uint256)": {
        "details": "Returns the total supply of Proposition Tokens Available for Governance = Populous Available for governance      + stkPopulous available The supply of Populous staked in stkPopulous are not taken into account so: = (Supply of Populous - Populous in stkPopulous) + (Supply of stkPopulous) = Supply of Populous, Since the supply of stkPopulous is equal to the number of Populous staked",
        "params": {
          "blockNumber": "Blocknumber at which to evaluate"
        },
        "returns": {
          "_0": "total supply at blockNumber*"
        }
      },
      "getTotalVotingSupplyAt(uint256)": {
        "details": "Returns the total supply of Outstanding Voting Tokens ",
        "params": {
          "blockNumber": "Blocknumber at which to evaluate"
        },
        "returns": {
          "_0": "total supply at blockNumber*"
        }
      },
      "getVotingPowerAt(address,uint256)": {
        "details": "Returns the Vote Power of a user at a specific block number.",
        "params": {
          "blockNumber": "Blocknumber at which to fetch Vote Power",
          "user": "Address of the user."
        },
        "returns": {
          "_0": "Vote number*"
        }
      },
      "owner()": {
        "details": "Returns the address of the current owner."
      },
      "renounceOwnership()": {
        "details": "Leaves the contract without owner. It will not be possible to call `onlyOwner` functions anymore. Can only be called by the current owner. NOTE: Renouncing ownership will leave the contract without an owner, thereby removing any functionality that is only available to the owner."
      },
      "setPPTWeight(uint256)": {
        "details": "Assigns a weight to each PPT token for voting",
        "params": {
          "_weight": "weight to assign"
        },
        "returns": {
          "_0": "boolean true/false*"
        }
      },
      "setPXTWeight(uint256)": {
        "details": "Assigns a weight to each PPT token for voting",
        "params": {
          "_weight": "weight to assign"
        },
        "returns": {
          "_0": "boolean true/false*"
        }
      },
      "transferOwnership(address)": {
        "details": "Transfers ownership of the contract to a new account (`newOwner`). Can only be called by the current owner."
      }
    },
    "title": "Governance Strategy contract",
    "version": 1
  },
  "userdoc": {
    "kind": "user",
    "methods": {},
    "version": 1
  }
}