{
  "contractName": "GovernanceStrategy",
  "abi": [
    {
      "inputs": [
        {
          "internalType": "address",
          "name": "pxt_",
          "type": "address"
        },
        {
          "internalType": "address",
          "name": "ppt_",
          "type": "address"
        },
        {
          "internalType": "address",
          "name": "votingToken_",
          "type": "address"
        }
      ],
      "stateMutability": "nonpayable",
      "type": "constructor"
    },
    {
      "anonymous": false,
      "inputs": [
        {
          "indexed": true,
          "internalType": "address",
          "name": "previousOwner",
          "type": "address"
        },
        {
          "indexed": true,
          "internalType": "address",
          "name": "newOwner",
          "type": "address"
        }
      ],
      "name": "OwnershipTransferred",
      "type": "event"
    },
    {
      "inputs": [],
      "name": "PPT",
      "outputs": [
        {
          "internalType": "contract ERC20",
          "name": "",
          "type": "address"
        }
      ],
      "stateMutability": "view",
      "type": "function"
    },
    {
      "inputs": [],
      "name": "PXT",
      "outputs": [
        {
          "internalType": "contract ERC20",
          "name": "",
          "type": "address"
        }
      ],
      "stateMutability": "view",
      "type": "function"
    },
    {
      "inputs": [],
      "name": "owner",
      "outputs": [
        {
          "internalType": "address",
          "name": "",
          "type": "address"
        }
      ],
      "stateMutability": "view",
      "type": "function"
    },
    {
      "inputs": [],
      "name": "renounceOwnership",
      "outputs": [],
      "stateMutability": "nonpayable",
      "type": "function"
    },
    {
      "inputs": [
        {
          "internalType": "address",
          "name": "newOwner",
          "type": "address"
        }
      ],
      "name": "transferOwnership",
      "outputs": [],
      "stateMutability": "nonpayable",
      "type": "function"
    },
    {
      "inputs": [],
      "name": "votingToken",
      "outputs": [
        {
          "internalType": "contract ERC20",
          "name": "",
          "type": "address"
        }
      ],
      "stateMutability": "view",
      "type": "function"
    },
    {
      "inputs": [],
      "name": "getTotalPropositionSupply",
      "outputs": [
        {
          "internalType": "uint256",
          "name": "",
          "type": "uint256"
        }
      ],
      "stateMutability": "view",
      "type": "function"
    },
    {
      "inputs": [
        {
          "internalType": "address",
          "name": "user",
          "type": "address"
        }
      ],
      "name": "getPropositionPower",
      "outputs": [
        {
          "internalType": "uint256",
          "name": "",
          "type": "uint256"
        }
      ],
      "stateMutability": "view",
      "type": "function"
    },
    {
      "inputs": [
        {
          "internalType": "address",
          "name": "user",
          "type": "address"
        }
      ],
      "name": "getVotingPower",
      "outputs": [
        {
          "internalType": "uint256",
          "name": "",
          "type": "uint256"
        }
      ],
      "stateMutability": "view",
      "type": "function"
    }
  ],
  "bytecode": "0x608060405234801561001057600080fd5b506040516106fe3803806106fe83398101604081905261002f9161013f565b600061003961011f565b600080546001600160a01b0319166001600160a01b0383169081178255604051929350917f8be0079c531659141344cd1fd0a4f28419497f9722a3daafe3b4186f6b6457e0908290a3506001600160a01b038316158015906100a357506001600160a01b03821615155b80156100b757506001600160a01b03811615155b6100dc5760405162461bcd60e51b81526004016100d390610181565b60405180910390fd5b600380546001600160a01b03199081166001600160a01b0393841617909155600280548216938316939093179092556001805490921692169190911790556101d2565b3390565b80516001600160a01b038116811461013a57600080fd5b919050565b600080600060608486031215610153578283fd5b61015c84610123565b925061016a60208501610123565b915061017860408501610123565b90509250925092565b60208082526031908201527f476f7665726e616e636553747261746567793a20496e76616c6964205058542f60408201527050505420746f6b656e206164647265737360781b606082015260800190565b61051d806101e16000396000f3fe608060405234801561001057600080fd5b50600436106100935760003560e01c80638da5cb5b116100665780638da5cb5b146100dd578063b0340123146100e5578063bb4d4436146100ed578063f2fde38b14610100578063ff7299751461011357610093565b806338cb3dd1146100985780633bb879ae146100b6578063678b2012146100cb578063715018a6146100d3575b600080fd5b6100a0610126565b6040516100ad91906104a4565b60405180910390f35b6100be610135565b6040516100ad91906104b8565b6100a06101b7565b6100db6101c6565b005b6100a061027a565b6100a0610289565b6100be6100fb36600461045e565b610298565b6100db61010e36600461045e565b61031f565b6100be61012136600461045e565b610429565b6001546001600160a01b031681565b600154604080516318160ddd60e01b815290516000926001600160a01b0316916318160ddd916004808301926020929190829003018186803b15801561017a57600080fd5b505afa15801561018e573d6000803e3d6000fd5b505050506040513d601f19601f820116820180604052508101906101b2919061048c565b905090565b6002546001600160a01b031681565b6101ce61045a565b6000546001600160a01b03908116911614610230576040805162461bcd60e51b815260206004820181905260248201527f4f776e61626c653a2063616c6c6572206973206e6f7420746865206f776e6572604482015290519081900360640190fd5b600080546040516001600160a01b03909116907f8be0079c531659141344cd1fd0a4f28419497f9722a3daafe3b4186f6b6457e0908390a3600080546001600160a01b0319169055565b6000546001600160a01b031690565b6003546001600160a01b031681565b6003546040516370a0823160e01b81526000916001600160a01b0316906370a08231906102c99085906004016104a4565b60206040518083038186803b1580156102e157600080fd5b505afa1580156102f5573d6000803e3d6000fd5b505050506040513d601f19601f82011682018060405250810190610319919061048c565b92915050565b61032761045a565b6000546001600160a01b03908116911614610389576040805162461bcd60e51b815260206004820181905260248201527f4f776e61626c653a2063616c6c6572206973206e6f7420746865206f776e6572604482015290519081900360640190fd5b6001600160a01b0381166103ce5760405162461bcd60e51b81526004018080602001828103825260268152602001806104c26026913960400191505060405180910390fd5b600080546040516001600160a01b03808516939216917f8be0079c531659141344cd1fd0a4f28419497f9722a3daafe3b4186f6b6457e091a3600080546001600160a01b0319166001600160a01b0392909216919091179055565b6001546040516370a0823160e01b81526000916001600160a01b0316906370a08231906102c99085906004016104a4565b3390565b60006020828403121561046f578081fd5b81356001600160a01b0381168114610485578182fd5b9392505050565b60006020828403121561049d578081fd5b5051919050565b6001600160a01b0391909116815260200190565b9081526020019056fe4f776e61626c653a206e6577206f776e657220697320746865207a65726f2061646472657373a264697066735822122024964b6bb338f2385fee21b33213d5f4e8c163d7fc272bdb8f950b8f6d76347964736f6c63430007050033",
  "immutableReferences": {},
  "source": "// SPDX-License-Identifier: agpl-3.0\npragma solidity 0.7.5;\npragma abicoder v2;\n\nimport {IGovernanceStrategy} from '../interfaces/IGovernanceStrategy.sol';\nimport {IERC20} from '../interfaces/IERC20.sol';\nimport {IGovernancePowerDelegationToken} from '../interfaces/IGovernancePowerDelegationToken.sol';\nimport {Ownable} from '../dependencies/open-zeppelin/Ownable.sol';\nimport {SafeMath} from '../dependencies/open-zeppelin/SafeMath.sol';\nimport {ERC20} from '../ERC20.sol';\n\n/**\n * @title Governance Strategy contract\n * @dev Smart contract containing logic to measure users' relative power to propose and vote.\n * User Power = User Power from Populous Token + User Power from stkPopulous Token.\n * User Power from Token = Token Power + Token Power as Delegatee [- Token Power if user has delegated]\n * Two wrapper functions linked to Populous Tokens's GovernancePowerDelegationERC20.sol implementation\n * - getPropositionPowerAt: fetching a user Proposition Power at a specified block\n * - getVotingPowerAt: fetching a user Voting Power at a specified block\n * @author Populous\n **/\ncontract GovernanceStrategy is Ownable, IGovernanceStrategy {\n  using SafeMath for uint256;\n\n  // proposal creation token\n  // can be locked in exchange for voting token\n  ERC20 public PXT;\n  // can be locked in exchange for voting token\n  ERC20 public PPT; \n  // voting token\n  ERC20 public votingToken; \n\n  /**\n   * @dev Constructor, register tokens used for Voting and Proposition Powers.\n   * @param pxt_ The address of the Populous PXT Token contract.\n   **/\n  constructor(address pxt_, address ppt_, address votingToken_) {\n    require(\n      (pxt_ != address(0)) &&\n      (ppt_ != address(0)) &&\n      (votingToken_ != address(0)), \n      \"GovernanceStrategy: Invalid PXT/PPT token address\"\n    );\n\n    votingToken = ERC20(votingToken_);\n    PPT = ERC20(ppt_);\n    PXT = ERC20(pxt_);\n  }\n\n  /**\n   * @dev Returns the total supply of Proposition Tokens Available for Governance\n   * @return total supply at blockNumber\n   **/\n  function getTotalPropositionSupply() public view override returns (uint256) {\n    return PXT.totalSupply();\n  }\n\n  /**\n   * @dev Returns the Proposition Power of a user.\n   * @param user Address of the user.\n   * @return Power number\n   **/\n  function getPropositionPower(address user)\n    public\n    view\n    override\n    returns (uint256)\n  {\n    return PXT.balanceOf(user);\n  }\n\n  /**\n   * @dev Returns the Vote Power of a user.\n   * @param user Address of the user.\n   * @return Vote number\n   **/\n  function getVotingPower(address user)\n    public\n    view\n    override\n    returns (uint256)\n  {\n    return votingToken.balanceOf(user);\n  }\n}\n",
  "sourcePath": "/Users/nemitariajienka/Desktop/projects/populous/Populous-DeFi-governance/contracts/governance/GovernanceStrategy.sol",
  "compiler": {
    "name": "solc",
    "version": "0.7.5+commit.eb77ed08.Emscripten.clang"
  },
  "schemaVersion": "3.3.3",
  "updatedAt": "2021-04-28T09:16:05.321Z",
  "devdoc": {
    "author": "Populous*",
    "details": "Smart contract containing logic to measure users' relative power to propose and vote. User Power = User Power from Populous Token + User Power from stkPopulous Token. User Power from Token = Token Power + Token Power as Delegatee [- Token Power if user has delegated] Two wrapper functions linked to Populous Tokens's GovernancePowerDelegationERC20.sol implementation - getPropositionPowerAt: fetching a user Proposition Power at a specified block - getVotingPowerAt: fetching a user Voting Power at a specified block",
    "kind": "dev",
    "methods": {
      "constructor": {
        "details": "Constructor, register tokens used for Voting and Proposition Powers.",
        "params": {
          "pxt_": "The address of the Populous PXT Token contract.*"
        }
      },
      "getPropositionPower(address)": {
        "details": "Returns the Proposition Power of a user.",
        "params": {
          "user": "Address of the user."
        },
        "returns": {
          "_0": "Power number*"
        }
      },
      "getTotalPropositionSupply()": {
        "details": "Returns the total supply of Proposition Tokens Available for Governance",
        "returns": {
          "_0": "total supply at blockNumber*"
        }
      },
      "getVotingPower(address)": {
        "details": "Returns the Vote Power of a user.",
        "params": {
          "user": "Address of the user."
        },
        "returns": {
          "_0": "Vote number*"
        }
      },
      "owner()": {
        "details": "Returns the address of the current owner."
      },
      "renounceOwnership()": {
        "details": "Leaves the contract without owner. It will not be possible to call `onlyOwner` functions anymore. Can only be called by the current owner. NOTE: Renouncing ownership will leave the contract without an owner, thereby removing any functionality that is only available to the owner."
      },
      "transferOwnership(address)": {
        "details": "Transfers ownership of the contract to a new account (`newOwner`). Can only be called by the current owner."
      }
    },
    "title": "Governance Strategy contract",
    "version": 1
  },
  "userdoc": {
    "kind": "user",
    "methods": {},
    "version": 1
  }
}