{
  "contractName": "LendToAaveMigrator",
  "abi": [
    {
      "inputs": [
        {
          "internalType": "contract IERC20",
          "name": "aave",
          "type": "address"
        },
        {
          "internalType": "contract IERC20",
          "name": "lend",
          "type": "address"
        },
        {
          "internalType": "uint256",
          "name": "lendAaveRatio",
          "type": "uint256"
        }
      ],
      "stateMutability": "nonpayable",
      "type": "constructor"
    },
    {
      "anonymous": false,
      "inputs": [
        {
          "indexed": true,
          "internalType": "address",
          "name": "sender",
          "type": "address"
        },
        {
          "indexed": true,
          "internalType": "uint256",
          "name": "amount",
          "type": "uint256"
        }
      ],
      "name": "LendMigrated",
      "type": "event"
    },
    {
      "inputs": [],
      "name": "AAVE",
      "outputs": [
        {
          "internalType": "contract IERC20",
          "name": "",
          "type": "address"
        }
      ],
      "stateMutability": "view",
      "type": "function"
    },
    {
      "inputs": [],
      "name": "LEND",
      "outputs": [
        {
          "internalType": "contract IERC20",
          "name": "",
          "type": "address"
        }
      ],
      "stateMutability": "view",
      "type": "function"
    },
    {
      "inputs": [],
      "name": "LEND_AAVE_RATIO",
      "outputs": [
        {
          "internalType": "uint256",
          "name": "",
          "type": "uint256"
        }
      ],
      "stateMutability": "view",
      "type": "function"
    },
    {
      "inputs": [],
      "name": "REVISION",
      "outputs": [
        {
          "internalType": "uint256",
          "name": "",
          "type": "uint256"
        }
      ],
      "stateMutability": "view",
      "type": "function"
    },
    {
      "inputs": [],
      "name": "_totalLendMigrated",
      "outputs": [
        {
          "internalType": "uint256",
          "name": "",
          "type": "uint256"
        }
      ],
      "stateMutability": "view",
      "type": "function"
    },
    {
      "inputs": [],
      "name": "initialize",
      "outputs": [],
      "stateMutability": "nonpayable",
      "type": "function"
    },
    {
      "inputs": [],
      "name": "migrationStarted",
      "outputs": [
        {
          "internalType": "bool",
          "name": "",
          "type": "bool"
        }
      ],
      "stateMutability": "view",
      "type": "function"
    },
    {
      "inputs": [
        {
          "internalType": "uint256",
          "name": "amount",
          "type": "uint256"
        }
      ],
      "name": "migrateFromLEND",
      "outputs": [],
      "stateMutability": "nonpayable",
      "type": "function"
    }
  ],
  "bytecode": "0x60e06040526000805534801561001457600080fd5b506040516106433803806106438339818101604052606081101561003757600080fd5b50805160208201516040909201516001600160601b0319606092831b81166080529290911b90911660a05260c05260805160601c60a05160601c60c05161059d6100a66000398061027d52806103455250806101d352806103cd5250806101285280610251525061059d6000f3fe608060405234801561001057600080fd5b50600436106100885760003560e01c80638129fc1c1161005b5780638129fc1c14610106578063abb76be81461010e578063dde43cba14610116578063f301e7811461011e57610088565b806348ccda3c1461008d578063682356c0146100b1578063685cda02146100d05780637c6e94e3146100ea575b600080fd5b610095610126565b604080516001600160a01b039092168252519081900360200190f35b6100ce600480360360208110156100c757600080fd5b503561014a565b005b6100d8610343565b60408051918252519081900360200190f35b6100f2610367565b604080519115158252519081900360200190f35b6100ce61036f565b6100d86103c0565b6100d86103c6565b6100956103cb565b7f000000000000000000000000000000000000000000000000000000000000000081565b600054610196576040805162461bcd60e51b8152602060048201526015602482015274135251d490551253d397d393d517d4d51054951151605a1b604482015290519081900360640190fd5b6033546101a390826103ef565b603355604080516323b872dd60e01b81523360048201523060248201526044810183905290516001600160a01b037f000000000000000000000000000000000000000000000000000000000000000016916323b872dd9160648083019260209291908290030181600087803b15801561021b57600080fd5b505af115801561022f573d6000803e3d6000fd5b505050506040513d602081101561024557600080fd5b50506001600160a01b037f00000000000000000000000000000000000000000000000000000000000000001663a9059cbb336102a1847f0000000000000000000000000000000000000000000000000000000000000000610450565b6040518363ffffffff1660e01b815260040180836001600160a01b0316815260200182815260200192505050602060405180830381600087803b1580156102e757600080fd5b505af11580156102fb573d6000803e3d6000fd5b505050506040513d602081101561031157600080fd5b5050604051819033907f5c5c7a8e729fa9bfdd1ecad2e8f7f3db1d29acf43c1e6036f34fd68621d15c8190600090a350565b7f000000000000000000000000000000000000000000000000000000000000000081565b600054151590565b6000610379610492565b905060005481116103bb5760405162461bcd60e51b815260040180806020018281038252602e81526020018061053a602e913960400191505060405180910390fd5b600055565b60335481565b600181565b7f000000000000000000000000000000000000000000000000000000000000000081565b600082820183811015610449576040805162461bcd60e51b815260206004820152601b60248201527f536166654d6174683a206164646974696f6e206f766572666c6f770000000000604482015290519081900360640190fd5b9392505050565b600061044983836040518060400160405280601a81526020017f536166654d6174683a206469766973696f6e206279207a65726f000000000000815250610497565b600190565b600081836105235760405162461bcd60e51b81526004018080602001828103825283818151815260200191508051906020019080838360005b838110156104e85781810151838201526020016104d0565b50505050905090810190601f1680156105155780820380516001836020036101000a031916815260200191505b509250505060405180910390fd5b50600083858161052f57fe5b049594505050505056fe436f6e747261637420696e7374616e63652068617320616c7265616479206265656e20696e697469616c697a6564a2646970667358221220a617202ccb52e83a1f933bb01f86aed67f6358fa11853f42cce7f5548b70395e64736f6c63430007050033",
  "immutableReferences": {
    "3590": [
      {
        "length": 32,
        "start": 296
      },
      {
        "length": 32,
        "start": 593
      }
    ],
    "3592": [
      {
        "length": 32,
        "start": 467
      },
      {
        "length": 32,
        "start": 973
      }
    ],
    "3594": [
      {
        "length": 32,
        "start": 637
      },
      {
        "length": 32,
        "start": 837
      }
    ]
  },
  "source": "// SPDX-License-Identifier: agpl-3.0\npragma solidity 0.7.5;\n\nimport {IERC20} from \"../interfaces/IERC20.sol\";\nimport {SafeMath} from \"../open-zeppelin/SafeMath.sol\";\nimport {VersionedInitializable} from \"../utils/VersionedInitializable.sol\";\n\n\n/**\n* @title LendToAaveMigrator\n* @notice This contract implements the migration from LEND to AAVE token\n* @author Aave \n*/\ncontract LendToAaveMigrator is VersionedInitializable {\n    using SafeMath for uint256;\n\n    IERC20 public immutable AAVE;\n    IERC20 public immutable LEND;\n    uint256 public immutable LEND_AAVE_RATIO;\n    uint256 public constant REVISION = 1;\n    \n    uint256 public _totalLendMigrated;\n\n    /**\n    * @dev emitted on migration\n    * @param sender the caller of the migration\n    * @param amount the amount being migrated\n    */\n    event LendMigrated(address indexed sender, uint256 indexed amount);\n\n    /**\n    * @param aave the address of the AAVE token\n    * @param lend the address of the LEND token\n    * @param lendAaveRatio the exchange rate between LEND and AAVE \n     */\n    constructor(IERC20 aave, IERC20 lend, uint256 lendAaveRatio) public {\n        AAVE = aave;\n        LEND = lend;\n        LEND_AAVE_RATIO = lendAaveRatio;\n    }\n\n    /**\n    * @dev initializes the implementation\n    */\n    function initialize() public initializer {\n    }\n\n    /**\n    * @dev returns true if the migration started\n    */\n    function migrationStarted() external view returns(bool) {\n        return lastInitializedRevision != 0;\n    }\n\n\n    /**\n    * @dev executes the migration from LEND to AAVE. Users need to give allowance to this contract to transfer LEND before executing\n    * this transaction.\n    * @param amount the amount of LEND to be migrated\n    */\n    function migrateFromLEND(uint256 amount) external {\n        require(lastInitializedRevision != 0, \"MIGRATION_NOT_STARTED\");\n\n        _totalLendMigrated = _totalLendMigrated.add(amount);\n        LEND.transferFrom(msg.sender, address(this), amount);\n        AAVE.transfer(msg.sender, amount.div(LEND_AAVE_RATIO));\n        emit LendMigrated(msg.sender, amount);\n    }\n\n    /**\n    * @dev returns the implementation revision\n    * @return the implementation revision\n    */\n    function getRevision() internal pure override returns (uint256) {\n        return REVISION;\n    }\n\n}",
  "sourcePath": "/Users/nemitariajienka/Desktop/projects/populous/Populous-DeFi-governance/contracts/dependencies/aave-token-v2/contracts/token/LendToAaveMigrator.sol",
  "compiler": {
    "name": "solc",
    "version": "0.7.5+commit.eb77ed08.Emscripten.clang"
  },
  "schemaVersion": "3.3.3",
  "updatedAt": "2021-04-19T11:35:10.723Z",
  "devdoc": {
    "author": "Aave ",
    "events": {
      "LendMigrated(address,uint256)": {
        "details": "emitted on migration",
        "params": {
          "amount": "the amount being migrated",
          "sender": "the caller of the migration"
        }
      }
    },
    "kind": "dev",
    "methods": {
      "constructor": {
        "params": {
          "aave": "the address of the AAVE token",
          "lend": "the address of the LEND token",
          "lendAaveRatio": "the exchange rate between LEND and AAVE "
        }
      },
      "initialize()": {
        "details": "initializes the implementation"
      },
      "migrateFromLEND(uint256)": {
        "details": "executes the migration from LEND to AAVE. Users need to give allowance to this contract to transfer LEND before executing this transaction.",
        "params": {
          "amount": "the amount of LEND to be migrated"
        }
      },
      "migrationStarted()": {
        "details": "returns true if the migration started"
      }
    },
    "title": "LendToAaveMigrator",
    "version": 1
  },
  "userdoc": {
    "kind": "user",
    "methods": {},
    "notice": "This contract implements the migration from LEND to AAVE token",
    "version": 1
  }
}