{
  "contractName": "MockProposalTarget",
  "abi": [
    {
      "inputs": [
        {
          "internalType": "address",
          "name": "_admin",
          "type": "address"
        }
      ],
      "stateMutability": "nonpayable",
      "type": "constructor"
    },
    {
      "anonymous": false,
      "inputs": [
        {
          "indexed": false,
          "internalType": "uint256",
          "name": "num",
          "type": "uint256"
        }
      ],
      "name": "NewNumber",
      "type": "event"
    },
    {
      "inputs": [],
      "name": "admin",
      "outputs": [
        {
          "internalType": "address",
          "name": "",
          "type": "address"
        }
      ],
      "stateMutability": "view",
      "type": "function"
    },
    {
      "inputs": [],
      "name": "num",
      "outputs": [
        {
          "internalType": "uint256",
          "name": "",
          "type": "uint256"
        }
      ],
      "stateMutability": "view",
      "type": "function"
    },
    {
      "inputs": [
        {
          "internalType": "uint256",
          "name": "number",
          "type": "uint256"
        }
      ],
      "name": "setNum",
      "outputs": [],
      "stateMutability": "nonpayable",
      "type": "function"
    },
    {
      "inputs": [
        {
          "internalType": "uint256",
          "name": "number",
          "type": "uint256"
        }
      ],
      "name": "paySetNum",
      "outputs": [],
      "stateMutability": "payable",
      "type": "function"
    },
    {
      "inputs": [],
      "name": "getNum",
      "outputs": [
        {
          "internalType": "uint256",
          "name": "",
          "type": "uint256"
        }
      ],
      "stateMutability": "view",
      "type": "function"
    }
  ],
  "bytecode": "0x608060405234801561001057600080fd5b5060405161032a38038061032a8339818101604052602081101561003357600080fd5b50516001600160a01b038116610082576040805162461bcd60e51b815260206004820152600f60248201526e696e76616c6964206164647265737360881b604482015290519081900360640190fd5b600180546001600160a01b0319166001600160a01b0392909216919091179055610279806100b16000396000f3fe60806040526004361061004a5760003560e01c80634e70b1dc1461004f57806361deaeab1461007657806367e0badb14610095578063cd16ecbf146100aa578063f851a440146100d4575b600080fd5b34801561005b57600080fd5b50610064610105565b60408051918252519081900360200190f35b6100936004803603602081101561008c57600080fd5b503561010b565b005b3480156100a157600080fd5b5061006461022e565b3480156100b657600080fd5b50610093600480360360208110156100cd57600080fd5b503561015d565b3480156100e057600080fd5b506100e9610234565b604080516001600160a01b039092168252519081900360200190f35b60005481565b34670de0b6b3a76400001461015d576040805162461bcd60e51b81526020600482015260136024820152721a5b9d985b1a5908185b5bdd5b9d081c185a59606a1b604482015290519081900360640190fd5b600081116101a3576040805162461bcd60e51b815260206004820152600e60248201526d34b73b30b634b210373ab6b132b960911b604482015290519081900360640190fd5b6001546001600160a01b031633146101f3576040805162461bcd60e51b815260206004820152600e60248201526d34b73b30b634b21031b0b63632b960911b604482015290519081900360640190fd5b60008190556040805182815290517fd932f6a2eb240089fd3c3d5be9ad1a5ae5d828aefbddf87f93279481929d39d69181900360200190a150565b60005490565b6001546001600160a01b03168156fea26469706673582212205480a576cbf7b12af57cae16def9d876c7a656c26b4abc161d9a00c33edef10764736f6c63430007050033",
  "immutableReferences": {},
  "source": "//SPDX-License-Identifier: Unlicensed\npragma solidity 0.7.5;\n\ncontract MockProposalTarget {\n\n    uint public num;\n    address public admin;\n\n    event NewNumber(uint256 num);\n\n    constructor(address _admin) {\n        require(_admin != address(0), \"invalid address\");\n        admin = _admin;\n    }\n\n    function setNum(uint256 number) external {\n        require(number > 0, \"invalid number\");\n        require(msg.sender == admin, \"invalid caller\");\n        num = number;\n        emit NewNumber(num);\n    }\n\n    function paySetNum(uint256 number) external payable {\n        require(msg.value == 1 ether, \"invalid amount paid\");\n        require(number > 0, \"invalid number\");\n        require(msg.sender == admin, \"invalid caller\");\n        num = number;\n        emit NewNumber(num);\n    }\n\n    function getNum() public view returns (uint256) {\n        return num;\n    }\n\n}",
  "sourcePath": "/Users/nemitariajienka/Desktop/projects/populous/Populous-DeFi-governance/contracts/mocks/MockProposalTarget.sol",
  "compiler": {
    "name": "solc",
    "version": "0.7.5+commit.eb77ed08.Emscripten.clang"
  },
  "schemaVersion": "3.3.3",
  "updatedAt": "2021-06-04T11:53:15.679Z",
  "devdoc": {
    "kind": "dev",
    "methods": {},
    "version": 1
  },
  "userdoc": {
    "kind": "user",
    "methods": {},
    "version": 1
  }
}