{
  "contractName": "MockTransferHook",
  "abi": [
    {
      "anonymous": false,
      "inputs": [],
      "name": "MockHookEvent",
      "type": "event"
    },
    {
      "inputs": [
        {
          "internalType": "address",
          "name": "from",
          "type": "address"
        },
        {
          "internalType": "address",
          "name": "to",
          "type": "address"
        },
        {
          "internalType": "uint256",
          "name": "amount",
          "type": "uint256"
        }
      ],
      "name": "onTransfer",
      "outputs": [],
      "stateMutability": "nonpayable",
      "type": "function"
    }
  ],
  "bytecode": "0x6080604052348015600f57600080fd5b5060c68061001e6000396000f3fe6080604052348015600f57600080fd5b506004361060285760003560e01c80634a39314914602d575b600080fd5b606060048036036060811015604157600080fd5b506001600160a01b038135811691602081013590911690604001356062565b005b6040517f34250cbfa6d218c1d0a9b5950b60dac352f03d00642722e501cbc86d1ea8130190600090a150505056fea2646970667358221220f1d9adfa5a950081f661cac310836da25ff4ce78e43621da9e3a43874dee286a64736f6c63430007050033",
  "immutableReferences": {},
  "source": "// SPDX-License-Identifier: agpl-3.0\npragma solidity 0.7.5;\n\nimport {ITransferHook} from \"../interfaces/ITransferHook.sol\";\n\ncontract MockTransferHook is ITransferHook {\n    event MockHookEvent();\n\n    function onTransfer(address from, address to, uint256 amount) external override {\n        emit MockHookEvent();\n    }\n}",
  "sourcePath": "/Users/nemitariajienka/Desktop/projects/populous/Populous-DeFi-governance/contracts/dependencies/aave-token-v2/contracts/utils/MockTransferHook.sol",
  "compiler": {
    "name": "solc",
    "version": "0.7.5+commit.eb77ed08.Emscripten.clang"
  },
  "schemaVersion": "3.3.3",
  "updatedAt": "2021-04-19T15:24:25.494Z",
  "devdoc": {
    "kind": "dev",
    "methods": {},
    "version": 1
  },
  "userdoc": {
    "kind": "user",
    "methods": {},
    "version": 1
  }
}