{
  "contractName": "MockVotingToken",
  "abi": [
    {
      "inputs": [
        {
          "internalType": "address",
          "name": "_pxt",
          "type": "address"
        }
      ],
      "stateMutability": "nonpayable",
      "type": "constructor"
    },
    {
      "anonymous": false,
      "inputs": [
        {
          "indexed": true,
          "internalType": "address",
          "name": "owner",
          "type": "address"
        },
        {
          "indexed": true,
          "internalType": "address",
          "name": "spender",
          "type": "address"
        },
        {
          "indexed": false,
          "internalType": "uint256",
          "name": "value",
          "type": "uint256"
        }
      ],
      "name": "Approval",
      "type": "event"
    },
    {
      "anonymous": false,
      "inputs": [
        {
          "indexed": true,
          "internalType": "address",
          "name": "user",
          "type": "address"
        },
        {
          "indexed": false,
          "internalType": "uint256",
          "name": "amount",
          "type": "uint256"
        }
      ],
      "name": "Deposit",
      "type": "event"
    },
    {
      "anonymous": false,
      "inputs": [
        {
          "indexed": true,
          "internalType": "address",
          "name": "user",
          "type": "address"
        },
        {
          "indexed": false,
          "internalType": "uint256",
          "name": "amount",
          "type": "uint256"
        }
      ],
      "name": "Redeemed",
      "type": "event"
    },
    {
      "anonymous": false,
      "inputs": [
        {
          "indexed": true,
          "internalType": "address",
          "name": "from",
          "type": "address"
        },
        {
          "indexed": true,
          "internalType": "address",
          "name": "to",
          "type": "address"
        },
        {
          "indexed": false,
          "internalType": "uint256",
          "name": "value",
          "type": "uint256"
        }
      ],
      "name": "Transfer",
      "type": "event"
    },
    {
      "inputs": [
        {
          "internalType": "address",
          "name": "owner",
          "type": "address"
        },
        {
          "internalType": "address",
          "name": "spender",
          "type": "address"
        }
      ],
      "name": "allowance",
      "outputs": [
        {
          "internalType": "uint256",
          "name": "",
          "type": "uint256"
        }
      ],
      "stateMutability": "view",
      "type": "function"
    },
    {
      "inputs": [
        {
          "internalType": "address",
          "name": "spender",
          "type": "address"
        },
        {
          "internalType": "uint256",
          "name": "value",
          "type": "uint256"
        }
      ],
      "name": "approve",
      "outputs": [
        {
          "internalType": "bool",
          "name": "",
          "type": "bool"
        }
      ],
      "stateMutability": "nonpayable",
      "type": "function"
    },
    {
      "inputs": [
        {
          "internalType": "address",
          "name": "account",
          "type": "address"
        }
      ],
      "name": "balanceOf",
      "outputs": [
        {
          "internalType": "uint256",
          "name": "",
          "type": "uint256"
        }
      ],
      "stateMutability": "view",
      "type": "function"
    },
    {
      "inputs": [],
      "name": "decimals",
      "outputs": [
        {
          "internalType": "uint256",
          "name": "",
          "type": "uint256"
        }
      ],
      "stateMutability": "view",
      "type": "function"
    },
    {
      "inputs": [
        {
          "internalType": "address",
          "name": "spender",
          "type": "address"
        },
        {
          "internalType": "uint256",
          "name": "subtractedValue",
          "type": "uint256"
        }
      ],
      "name": "decreaseAllowance",
      "outputs": [
        {
          "internalType": "bool",
          "name": "",
          "type": "bool"
        }
      ],
      "stateMutability": "nonpayable",
      "type": "function"
    },
    {
      "inputs": [],
      "name": "governance",
      "outputs": [
        {
          "internalType": "contract IPopulousGovernanceV2",
          "name": "",
          "type": "address"
        }
      ],
      "stateMutability": "view",
      "type": "function"
    },
    {
      "inputs": [
        {
          "internalType": "address",
          "name": "spender",
          "type": "address"
        },
        {
          "internalType": "uint256",
          "name": "addedValue",
          "type": "uint256"
        }
      ],
      "name": "increaseAllowance",
      "outputs": [
        {
          "internalType": "bool",
          "name": "",
          "type": "bool"
        }
      ],
      "stateMutability": "nonpayable",
      "type": "function"
    },
    {
      "inputs": [],
      "name": "name",
      "outputs": [
        {
          "internalType": "string",
          "name": "",
          "type": "string"
        }
      ],
      "stateMutability": "view",
      "type": "function"
    },
    {
      "inputs": [],
      "name": "pxtToken",
      "outputs": [
        {
          "internalType": "contract ERC20",
          "name": "",
          "type": "address"
        }
      ],
      "stateMutability": "view",
      "type": "function"
    },
    {
      "inputs": [],
      "name": "symbol",
      "outputs": [
        {
          "internalType": "string",
          "name": "",
          "type": "string"
        }
      ],
      "stateMutability": "view",
      "type": "function"
    },
    {
      "inputs": [],
      "name": "totalSupply",
      "outputs": [
        {
          "internalType": "uint256",
          "name": "",
          "type": "uint256"
        }
      ],
      "stateMutability": "view",
      "type": "function"
    },
    {
      "inputs": [
        {
          "internalType": "address",
          "name": "recipient",
          "type": "address"
        },
        {
          "internalType": "uint256",
          "name": "amount",
          "type": "uint256"
        }
      ],
      "name": "transfer",
      "outputs": [
        {
          "internalType": "bool",
          "name": "",
          "type": "bool"
        }
      ],
      "stateMutability": "nonpayable",
      "type": "function"
    },
    {
      "inputs": [
        {
          "internalType": "address",
          "name": "sender",
          "type": "address"
        },
        {
          "internalType": "address",
          "name": "recipient",
          "type": "address"
        },
        {
          "internalType": "uint256",
          "name": "amount",
          "type": "uint256"
        }
      ],
      "name": "transferFrom",
      "outputs": [
        {
          "internalType": "bool",
          "name": "",
          "type": "bool"
        }
      ],
      "stateMutability": "nonpayable",
      "type": "function"
    },
    {
      "inputs": [
        {
          "internalType": "address",
          "name": "_governance",
          "type": "address"
        }
      ],
      "name": "setGov",
      "outputs": [],
      "stateMutability": "nonpayable",
      "type": "function"
    },
    {
      "inputs": [],
      "name": "getGov",
      "outputs": [
        {
          "internalType": "address",
          "name": "",
          "type": "address"
        }
      ],
      "stateMutability": "nonpayable",
      "type": "function"
    },
    {
      "inputs": [],
      "name": "getPXT",
      "outputs": [
        {
          "internalType": "address",
          "name": "",
          "type": "address"
        }
      ],
      "stateMutability": "nonpayable",
      "type": "function"
    },
    {
      "inputs": [],
      "name": "deposit",
      "outputs": [],
      "stateMutability": "nonpayable",
      "type": "function"
    },
    {
      "inputs": [],
      "name": "redeem",
      "outputs": [],
      "stateMutability": "nonpayable",
      "type": "function"
    },
    {
      "inputs": [
        {
          "internalType": "address",
          "name": "user",
          "type": "address"
        },
        {
          "internalType": "uint256",
          "name": "blockNumber",
          "type": "uint256"
        },
        {
          "internalType": "enum MockVotingToken.DelegationType",
          "name": "delegationType",
          "type": "uint8"
        }
      ],
      "name": "getPowerAtBlock",
      "outputs": [
        {
          "internalType": "uint256",
          "name": "",
          "type": "uint256"
        }
      ],
      "stateMutability": "view",
      "type": "function"
    }
  ],
  "bytecode": "0x600860055560c0604052600260808190526111d560f21b60a09081526200002a9160069190620000fa565b5060408051808201909152601a8082527f506f70756c6f757320476f7665726e616e636520546f6b656e7300000000000060209092019182526200007191600791620000fa565b503480156200007f57600080fd5b506040516200157e3803806200157e833981016040819052620000a291620001a6565b6001600160a01b038116620000d45760405162461bcd60e51b8152600401620000cb90620001d6565b60405180910390fd5b600380546001600160a01b0319166001600160a01b03929092169190911790556200021a565b828054600181600116156101000203166002900490600052602060002090601f0160209004810192826200013257600085556200017d565b82601f106200014d57805160ff19168380011785556200017d565b828001600101855582156200017d579182015b828111156200017d57825182559160200191906001019062000160565b506200018b9291506200018f565b5090565b5b808211156200018b576000815560010162000190565b600060208284031215620001b8578081fd5b81516001600160a01b0381168114620001cf578182fd5b9392505050565b60208082526024908201527f4d6f636b566f74696e67546f6b656e3a20496e76616c696420707874206164646040820152637265737360e01b606082015260800190565b611354806200022a6000396000f3fe608060405234801561001057600080fd5b50600436106101215760003560e01c80638f10b2e0116100ad578063be040fb011610071578063be040fb014610215578063c2ffbb911461021f578063cfad57a214610232578063d0e30db014610245578063dd62ed3e1461024d57610121565b80638f10b2e0146101d757806395d89b41146101df578063a2ab2dee146101e7578063a457c2d7146101ef578063a9059cbb1461020257610121565b806323b872dd116100f457806323b872dd1461018e578063313ce567146101a157806339509351146101a95780635aa6e675146101bc57806370a08231146101c457610121565b806306fdde0314610126578063095ea7b3146101445780630e3443761461016457806318160ddd14610179575b600080fd5b61012e610260565b60405161013b9190611033565b60405180910390f35b610157610152366004610eba565b6102ee565b60405161013b9190611028565b61016c610304565b60405161013b9190610fd7565b610181610313565b60405161013b919061124f565b61015761019c366004610e7f565b610319565b61018161036a565b6101576101b7366004610eba565b610370565b61016c6103a6565b6101816101d2366004610e33565b6103b5565b61016c6103d4565b61012e6103e3565b61016c61043e565b6101576101fd366004610eba565b61044d565b610157610210366004610eba565b610483565b61021d610490565b005b61018161022d366004610ee3565b610737565b61021d610240366004610e33565b61074a565b61021d610792565b61018161025b366004610e4d565b610950565b6007805460408051602060026001851615610100026000190190941693909304601f810184900484028201840190925281815292918301828280156102e65780601f106102bb576101008083540402835291602001916102e6565b820191906000526020600020905b8154815290600101906020018083116102c957829003601f168201915b505050505081565b60006102fb33848461097b565b50600192915050565b6003546001600160a01b031681565b60025490565b6000610326848484610a67565b6001600160a01b03841660009081526001602090815260408083203380855292529091205461036091869161035b9086610b9d565b61097b565b5060019392505050565b60055481565b3360008181526001602090815260408083206001600160a01b038716845290915281205490916102fb91859061035b9086610bfa565b6004546001600160a01b031681565b6001600160a01b0381166000908152602081905260409020545b919050565b6003546001600160a01b031690565b6006805460408051602060026001851615610100026000190190941693909304601f810184900484028201840190925281815292918301828280156102e65780601f106102bb576101008083540402835291602001916102e6565b6004546001600160a01b031690565b3360008181526001602090815260408083206001600160a01b038716845290915281205490916102fb91859061035b9086610b9d565b60006102fb338484610a67565b600061049b336103b5565b90506104a73382610c5b565b60005b60048054604080516398e527d360e01b815290516001600160a01b03909216926398e527d3928282019260209290829003018186803b1580156104ec57600080fd5b505afa158015610500573d6000803e3d6000fd5b505050506040513d601f19601f820116820180604052508101906105249190610fbf565b81101561068e5760048054604051639080936f60e01b81526000926001600160a01b0390921691639080936f9161055d9186910161124f565b60206040518083038186803b15801561057557600080fd5b505afa158015610589573d6000803e3d6000fd5b505050506040513d601f19601f820116820180604052508101906105ad9190610f3f565b60078111156105b857fe5b60048054604051634185ff8360e01b81529293506000926001600160a01b0390911691634185ff83916105ef918791339101611258565b604080518083038186803b15801561060657600080fd5b505afa15801561061a573d6000803e3d6000fd5b505050506040513d601f19601f8201168201806040525081019061063e9190610f5e565b602001516001600160f81b031611156106855780151580610660575080600214155b6106855760405162461bcd60e51b815260040161067c9061110a565b60405180910390fd5b506001016104aa565b5060035460405163a9059cbb60e01b81526001600160a01b039091169063a9059cbb906106c1903390859060040161100f565b602060405180830381600087803b1580156106db57600080fd5b505af11580156106ef573d6000803e3d6000fd5b505050506040513d601f19601f820116820180604052508101906107139190610f25565b15156001146107345760405162461bcd60e51b815260040161067c906110d5565b50565b6000610742846103b5565b949350505050565b6001600160a01b0381166107705760405162461bcd60e51b815260040161067c90611174565b600480546001600160a01b0319166001600160a01b0392909216919091179055565b6003546040516370a0823160e01b81526000916001600160a01b0316906370a08231906107c3903390600401610fd7565b60206040518083038186803b1580156107db57600080fd5b505afa1580156107ef573d6000803e3d6000fd5b505050506040513d601f19601f820116820180604052508101906108139190610fbf565b9050600081116108355760405162461bcd60e51b815260040161067c90611203565b61083e336103b5565b1561085b5760405162461bcd60e51b815260040161067c90611086565b6003546040516323b872dd60e01b81526001600160a01b03909116906323b872dd9061088f90339030908690600401610feb565b602060405180830381600087803b1580156108a957600080fd5b505af11580156108bd573d6000803e3d6000fd5b505050506040513d601f19601f820116820180604052508101906108e19190610f25565b15156001146109025760405162461bcd60e51b815260040161067c906111bf565b61090c3382610d28565b336001600160a01b03167fe1fffcc4923d04b559f4d29a8bfc6cda04eb5b0d3c460751c2402c5c5cc9109c82604051610945919061124f565b60405180910390a250565b6001600160a01b03918216600090815260016020908152604080832093909416825291909152205490565b6001600160a01b0383166109c05760405162461bcd60e51b81526004018080602001828103825260248152602001806112fb6024913960400191505060405180910390fd5b6001600160a01b038216610a055760405162461bcd60e51b81526004018080602001828103825260228152602001806112936022913960400191505060405180910390fd5b6001600160a01b03808416600081815260016020908152604080832094871680845294825291829020859055815185815291517f8c5be1e5ebec7d5bd14f71427d1e84f3dd0314c0f7b2291e5b200ac8c7c3b9259281900390910190a3505050565b6001600160a01b038316610aac5760405162461bcd60e51b81526004018080602001828103825260258152602001806112d66025913960400191505060405180910390fd5b6001600160a01b038216610af15760405162461bcd60e51b81526004018080602001828103825260238152602001806112706023913960400191505060405180910390fd5b6001600160a01b038316600090815260208190526040902054610b149082610b9d565b6001600160a01b038085166000908152602081905260408082209390935590841681522054610b439082610bfa565b6001600160a01b038084166000818152602081815260409182902094909455805185815290519193928716927fddf252ad1be2c89b69c2b068fc378daa952ba7f163c4a11628f55a4df523b3ef92918290030190a3505050565b600082821115610bf4576040805162461bcd60e51b815260206004820152601e60248201527f536166654d6174683a207375627472616374696f6e206f766572666c6f770000604482015290519081900360640190fd5b50900390565b600082820183811015610c54576040805162461bcd60e51b815260206004820152601b60248201527f536166654d6174683a206164646974696f6e206f766572666c6f770000000000604482015290519081900360640190fd5b9392505050565b6001600160a01b038216610ca05760405162461bcd60e51b81526004018080602001828103825260218152602001806112b56021913960400191505060405180910390fd5b600254610cad9082610b9d565b6002556001600160a01b038216600090815260208190526040902054610cd39082610b9d565b6001600160a01b038316600081815260208181526040808320949094558351858152935191937fddf252ad1be2c89b69c2b068fc378daa952ba7f163c4a11628f55a4df523b3ef929081900390910190a35050565b6001600160a01b038216610d83576040805162461bcd60e51b815260206004820152601f60248201527f45524332303a206d696e7420746f20746865207a65726f206164647265737300604482015290519081900360640190fd5b600254610d909082610bfa565b6002556001600160a01b038216600090815260208190526040902054610db69082610bfa565b6001600160a01b0383166000818152602081815260408083209490945583518581529351929391927fddf252ad1be2c89b69c2b068fc378daa952ba7f163c4a11628f55a4df523b3ef9281900390910190a35050565b80356001600160a01b03811681146103cf57600080fd5b805180151581146103cf57600080fd5b600060208284031215610e44578081fd5b610c5482610e0c565b60008060408385031215610e5f578081fd5b610e6883610e0c565b9150610e7660208401610e0c565b90509250929050565b600080600060608486031215610e93578081fd5b610e9c84610e0c565b9250610eaa60208501610e0c565b9150604084013590509250925092565b60008060408385031215610ecc578182fd5b610ed583610e0c565b946020939093013593505050565b600080600060608486031215610ef7578283fd5b610f0084610e0c565b925060208401359150604084013560028110610f1a578182fd5b809150509250925092565b600060208284031215610f36578081fd5b610c5482610e23565b600060208284031215610f50578081fd5b815160088110610c54578182fd5b600060408284031215610f6f578081fd5b6040516040810181811067ffffffffffffffff82111715610f8c57fe5b604052610f9883610e23565b815260208301516001600160f81b0381168114610fb3578283fd5b60208201529392505050565b600060208284031215610fd0578081fd5b5051919050565b6001600160a01b0391909116815260200190565b6001600160a01b039384168152919092166020820152604081019190915260600190565b6001600160a01b03929092168252602082015260400190565b901515815260200190565b6000602080835283518082850152825b8181101561105f57858101830151858201604001528201611043565b818111156110705783604083870101525b50601f01601f1916929092016040019392505050565b6020808252602f908201527f4d6f636b566f74696e67546f6b656e3a20566f74696e6720746f6b656e20626160408201526e06c616e6365206d757374206265203608c1b606082015260800190565b6020808252818101527f4d6f636b566f74696e67546f6b656e3a205472616e73666572206661696c6564604082015260600190565b60208082526044908201527f4d6f636b566f74696e67546f6b656e3a20557365722063616e6e6f742068617660408201527f6520766f7465206f6e2070656e64696e67206f72206163746976652070726f706060820152631bdcd85b60e21b608082015260a00190565b6020808252602b908201527f4d6f636b566f74696e67546f6b656e3a20496e76616c696420676f7665726e6160408201526a6e6365206164647265737360a81b606082015260800190565b60208082526024908201527f4d6f636b566f74696e67546f6b656e3a205472616e7366657246726f6d2066616040820152631a5b195960e21b606082015260800190565b6020808252602c908201527f4d6f636b566f74696e67546f6b656e3a205058542062616c616e6365206d757360408201526b0742062652061626f766520360a41b606082015260800190565b90815260200190565b9182526001600160a01b031660208201526040019056fe45524332303a207472616e7366657220746f20746865207a65726f206164647265737345524332303a20617070726f766520746f20746865207a65726f206164647265737345524332303a206275726e2066726f6d20746865207a65726f206164647265737345524332303a207472616e736665722066726f6d20746865207a65726f206164647265737345524332303a20617070726f76652066726f6d20746865207a65726f2061646472657373a2646970667358221220dcdee62352ce7790d3ea60450895510279734febde7fad4b6318c3efd4b0b03064736f6c63430007050033",
  "immutableReferences": {},
  "source": "pragma solidity 0.7.5;\npragma abicoder v2;\n\nimport \"./ERC20.sol\";\nimport \"./interfaces/IPopulousGovernanceV2.sol\";\n\n/**\n * @title ERC20Mintable\n * @dev ERC20 minting logic\n */\ncontract MockVotingToken is ERC20 {\n    enum DelegationType {VOTING_POWER, PROPOSITION_POWER}\n    enum ProposalState {Pending, Canceled, Active, Failed, Succeeded, Queued, Expired, Executed}\n\n    ERC20 public pxtToken;\n    IPopulousGovernanceV2 public governance;\n\n    uint256 public decimals = 8;\n    string public symbol = \"GT\";\n    string public name = \"Populous Governance Tokens\";\n\n    event Deposit(address indexed user, uint256 amount);\n    event Redeemed(address indexed user, uint256 amount);\n\n    constructor(address _pxt) public {\n        require(_pxt != address(0), \"MockVotingToken: Invalid pxt address\");\n        pxtToken = ERC20(_pxt);\n    }\n\n    function setGov(address _governance) public {\n        require(_governance != address(0), \"MockVotingToken: Invalid governance address\");\n        governance = IPopulousGovernanceV2(_governance);\n    }\n\n    function getGov() public returns(address) {\n        return address(governance);\n    }\n\n    function getPXT() public returns(address) {\n        return address(pxtToken);\n    }\n\n    function deposit() public {\n        uint256 balance = pxtToken.balanceOf(msg.sender);\n        require(balance > 0, \"MockVotingToken: PXT balance must be above 0\");\n        require(balanceOf(msg.sender) == 0, \"MockVotingToken: Voting token balance must be 0\");\n        require(\n            pxtToken.transferFrom(msg.sender, address(this), balance) == true,\n            \"MockVotingToken: TransferFrom failed\"\n        );\n        _mint(msg.sender, balance);\n        emit Deposit(msg.sender, balance);\n    }\n\n    function redeem() public {\n        uint256 govBalance = balanceOf(msg.sender);\n        _burn(msg.sender, govBalance);\n\n        for (uint256 i = 0; i < governance.getProposalsCount(); i++) {\n            uint256 state = uint256(governance.getProposalState(i));\n            if (governance.getVoteOnProposal(i, msg.sender).votingPower > 0) {\n                require (\n                    (\n                        state != 0 || state != 2\n                    ),\n                    \"MockVotingToken: User cannot have vote on pending or active proposal\"\n                );\n            }\n        }\n\n        require(\n            pxtToken.transfer(msg.sender, govBalance) == true,\n            \"MockVotingToken: Transfer failed\"\n        );\n    }\n\n    // increase voting power\n\n    function getPowerAtBlock(\n        address user,\n        uint256 blockNumber,\n        DelegationType delegationType\n    ) external view returns (uint256) {\n        return balanceOf(user);\n    }\n}",
  "sourcePath": "/Users/nemitariajienka/Desktop/projects/populous/Populous-DeFi-governance/contracts/MockVotingToken.sol",
  "compiler": {
    "name": "solc",
    "version": "0.7.5+commit.eb77ed08.Emscripten.clang"
  },
  "schemaVersion": "3.3.3",
  "updatedAt": "2021-04-19T10:58:21.366Z",
  "devdoc": {
    "details": "ERC20 minting logic",
    "kind": "dev",
    "methods": {
      "allowance(address,address)": {
        "details": "See `IERC20.allowance`."
      },
      "approve(address,uint256)": {
        "details": "See `IERC20.approve`. Requirements: - `spender` cannot be the zero address."
      },
      "balanceOf(address)": {
        "details": "See `IERC20.balanceOf`."
      },
      "decreaseAllowance(address,uint256)": {
        "details": "Atomically decreases the allowance granted to `spender` by the caller. This is an alternative to `approve` that can be used as a mitigation for problems described in `IERC20.approve`. Emits an `Approval` event indicating the updated allowance. Requirements: - `spender` cannot be the zero address. - `spender` must have allowance for the caller of at least `subtractedValue`."
      },
      "increaseAllowance(address,uint256)": {
        "details": "Atomically increases the allowance granted to `spender` by the caller. This is an alternative to `approve` that can be used as a mitigation for problems described in `IERC20.approve`. Emits an `Approval` event indicating the updated allowance. Requirements: - `spender` cannot be the zero address."
      },
      "totalSupply()": {
        "details": "See `IERC20.totalSupply`."
      },
      "transfer(address,uint256)": {
        "details": "See `IERC20.transfer`. Requirements: - `recipient` cannot be the zero address. - the caller must have a balance of at least `amount`."
      },
      "transferFrom(address,address,uint256)": {
        "details": "See `IERC20.transferFrom`. Emits an `Approval` event indicating the updated allowance. This is not required by the EIP. See the note at the beginning of `ERC20`; Requirements: - `sender` and `recipient` cannot be the zero address. - `sender` must have a balance of at least `value`. - the caller must have allowance for `sender`'s tokens of at least `amount`."
      }
    },
    "title": "ERC20Mintable",
    "version": 1
  },
  "userdoc": {
    "kind": "user",
    "methods": {},
    "version": 1
  }
}