{
  "contractName": "MockVotingToken",
  "abi": [
    {
      "anonymous": false,
      "inputs": [
        {
          "indexed": true,
          "internalType": "address",
          "name": "owner",
          "type": "address"
        },
        {
          "indexed": true,
          "internalType": "address",
          "name": "spender",
          "type": "address"
        },
        {
          "indexed": false,
          "internalType": "uint256",
          "name": "value",
          "type": "uint256"
        }
      ],
      "name": "Approval",
      "type": "event"
    },
    {
      "anonymous": false,
      "inputs": [
        {
          "indexed": true,
          "internalType": "address",
          "name": "previousOwner",
          "type": "address"
        },
        {
          "indexed": true,
          "internalType": "address",
          "name": "newOwner",
          "type": "address"
        }
      ],
      "name": "OwnershipTransferred",
      "type": "event"
    },
    {
      "anonymous": false,
      "inputs": [
        {
          "indexed": true,
          "internalType": "address",
          "name": "from",
          "type": "address"
        },
        {
          "indexed": true,
          "internalType": "address",
          "name": "to",
          "type": "address"
        },
        {
          "indexed": false,
          "internalType": "uint256",
          "name": "value",
          "type": "uint256"
        }
      ],
      "name": "Transfer",
      "type": "event"
    },
    {
      "inputs": [],
      "name": "_owner",
      "outputs": [
        {
          "internalType": "address",
          "name": "",
          "type": "address"
        }
      ],
      "stateMutability": "view",
      "type": "function"
    },
    {
      "inputs": [],
      "name": "admin",
      "outputs": [
        {
          "internalType": "address",
          "name": "",
          "type": "address"
        }
      ],
      "stateMutability": "view",
      "type": "function"
    },
    {
      "inputs": [
        {
          "internalType": "address",
          "name": "owner",
          "type": "address"
        },
        {
          "internalType": "address",
          "name": "spender",
          "type": "address"
        }
      ],
      "name": "allowance",
      "outputs": [
        {
          "internalType": "uint256",
          "name": "",
          "type": "uint256"
        }
      ],
      "stateMutability": "view",
      "type": "function"
    },
    {
      "inputs": [
        {
          "internalType": "address",
          "name": "spender",
          "type": "address"
        },
        {
          "internalType": "uint256",
          "name": "value",
          "type": "uint256"
        }
      ],
      "name": "approve",
      "outputs": [
        {
          "internalType": "bool",
          "name": "",
          "type": "bool"
        }
      ],
      "stateMutability": "nonpayable",
      "type": "function"
    },
    {
      "inputs": [
        {
          "internalType": "address",
          "name": "account",
          "type": "address"
        }
      ],
      "name": "balanceOf",
      "outputs": [
        {
          "internalType": "uint256",
          "name": "",
          "type": "uint256"
        }
      ],
      "stateMutability": "view",
      "type": "function"
    },
    {
      "inputs": [],
      "name": "decimals",
      "outputs": [
        {
          "internalType": "uint256",
          "name": "",
          "type": "uint256"
        }
      ],
      "stateMutability": "view",
      "type": "function"
    },
    {
      "inputs": [
        {
          "internalType": "address",
          "name": "spender",
          "type": "address"
        },
        {
          "internalType": "uint256",
          "name": "subtractedValue",
          "type": "uint256"
        }
      ],
      "name": "decreaseAllowance",
      "outputs": [
        {
          "internalType": "bool",
          "name": "",
          "type": "bool"
        }
      ],
      "stateMutability": "nonpayable",
      "type": "function"
    },
    {
      "inputs": [
        {
          "internalType": "address",
          "name": "spender",
          "type": "address"
        },
        {
          "internalType": "uint256",
          "name": "addedValue",
          "type": "uint256"
        }
      ],
      "name": "increaseAllowance",
      "outputs": [
        {
          "internalType": "bool",
          "name": "",
          "type": "bool"
        }
      ],
      "stateMutability": "nonpayable",
      "type": "function"
    },
    {
      "inputs": [],
      "name": "name",
      "outputs": [
        {
          "internalType": "string",
          "name": "",
          "type": "string"
        }
      ],
      "stateMutability": "view",
      "type": "function"
    },
    {
      "inputs": [],
      "name": "owner",
      "outputs": [
        {
          "internalType": "address",
          "name": "",
          "type": "address"
        }
      ],
      "stateMutability": "view",
      "type": "function"
    },
    {
      "inputs": [],
      "name": "renounceOwnership",
      "outputs": [],
      "stateMutability": "nonpayable",
      "type": "function"
    },
    {
      "inputs": [],
      "name": "symbol",
      "outputs": [
        {
          "internalType": "string",
          "name": "",
          "type": "string"
        }
      ],
      "stateMutability": "view",
      "type": "function"
    },
    {
      "inputs": [],
      "name": "totalSupply",
      "outputs": [
        {
          "internalType": "uint256",
          "name": "",
          "type": "uint256"
        }
      ],
      "stateMutability": "view",
      "type": "function"
    },
    {
      "inputs": [
        {
          "internalType": "address",
          "name": "recipient",
          "type": "address"
        },
        {
          "internalType": "uint256",
          "name": "amount",
          "type": "uint256"
        }
      ],
      "name": "transfer",
      "outputs": [
        {
          "internalType": "bool",
          "name": "",
          "type": "bool"
        }
      ],
      "stateMutability": "nonpayable",
      "type": "function"
    },
    {
      "inputs": [
        {
          "internalType": "address",
          "name": "sender",
          "type": "address"
        },
        {
          "internalType": "address",
          "name": "recipient",
          "type": "address"
        },
        {
          "internalType": "uint256",
          "name": "amount",
          "type": "uint256"
        }
      ],
      "name": "transferFrom",
      "outputs": [
        {
          "internalType": "bool",
          "name": "",
          "type": "bool"
        }
      ],
      "stateMutability": "nonpayable",
      "type": "function"
    },
    {
      "inputs": [
        {
          "internalType": "address",
          "name": "newOwner",
          "type": "address"
        }
      ],
      "name": "transferOwnership",
      "outputs": [],
      "stateMutability": "nonpayable",
      "type": "function"
    },
    {
      "inputs": [
        {
          "internalType": "address",
          "name": "_admin",
          "type": "address"
        }
      ],
      "name": "setAdmin",
      "outputs": [],
      "stateMutability": "nonpayable",
      "type": "function"
    },
    {
      "inputs": [
        {
          "internalType": "address",
          "name": "account",
          "type": "address"
        },
        {
          "internalType": "uint256",
          "name": "amount",
          "type": "uint256"
        }
      ],
      "name": "mint",
      "outputs": [
        {
          "internalType": "bool",
          "name": "",
          "type": "bool"
        }
      ],
      "stateMutability": "nonpayable",
      "type": "function"
    },
    {
      "inputs": [
        {
          "internalType": "address",
          "name": "account",
          "type": "address"
        },
        {
          "internalType": "uint256",
          "name": "amount",
          "type": "uint256"
        }
      ],
      "name": "burn",
      "outputs": [
        {
          "internalType": "bool",
          "name": "",
          "type": "bool"
        }
      ],
      "stateMutability": "nonpayable",
      "type": "function"
    }
  ],
  "bytecode": "0x600860045560c060405260036080819052621411d560ea1b60a09081526200002b9160059190620000e5565b506040805180820190915260198082527f506f70756c6f757320476f7665726e616e636520546f6b656e0000000000000060209092019182526200007291600691620000e5565b503480156200008057600080fd5b5060006200008d620000e1565b600380546001600160a01b0319166001600160a01b038316908117909155604051919250906000907f8be0079c531659141344cd1fd0a4f28419497f9722a3daafe3b4186f6b6457e0908290a35062000191565b3390565b828054600181600116156101000203166002900490600052602060002090601f0160209004810192826200011d576000855562000168565b82601f106200013857805160ff191683800117855562000168565b8280016001018555821562000168579182015b82811115620001685782518255916020019190600101906200014b565b50620001769291506200017a565b5090565b5b808211156200017657600081556001016200017b565b610f2e80620001a16000396000f3fe608060405234801561001057600080fd5b50600436106101215760003560e01c8063715018a6116100ad578063a9059cbb11610071578063a9059cbb1461022d578063b2bdfa7b14610240578063dd62ed3e14610248578063f2fde38b1461025b578063f851a4401461026e57610121565b8063715018a6146101e25780638da5cb5b146101ea57806395d89b41146101ff5780639dc29fac14610207578063a457c2d71461021a57610121565b8063313ce567116100f4578063313ce5671461018c578063395093511461019457806340c10f19146101a7578063704b6c02146101ba57806370a08231146101cf57610121565b806306fdde0314610126578063095ea7b31461014457806318160ddd1461016457806323b872dd14610179575b600080fd5b61012e610276565b60405161013b9190610d39565b60405180910390f35b610157610152366004610cf1565b610304565b60405161013b9190610d2e565b61016c61031a565b60405161013b9190610e1a565b610157610187366004610cb6565b610320565b61016c610371565b6101576101a2366004610cf1565b610377565b6101576101b5366004610cf1565b6103ad565b6101cd6101c8366004610c6a565b6103f7565b005b61016c6101dd366004610c6a565b6104a9565b6101cd6104c8565b6101f261057c565b60405161013b9190610d1a565b61012e61058b565b610157610215366004610cf1565b6105e6565b610157610228366004610cf1565b610627565b61015761023b366004610cf1565b61065d565b6101f261066a565b61016c610256366004610c84565b610679565b6101cd610269366004610c6a565b6106a4565b6101f26107af565b6006805460408051602060026001851615610100026000190190941693909304601f810184900484028201840190925281815292918301828280156102fc5780601f106102d1576101008083540402835291602001916102fc565b820191906000526020600020905b8154815290600101906020018083116102df57829003601f168201915b505050505081565b60006103113384846107be565b50600192915050565b60025490565b600061032d8484846108aa565b6001600160a01b03841660009081526001602090815260408083203380855292529091205461036791869161036290866109e0565b6107be565b5060019392505050565b60045481565b3360008181526001602090815260408083206001600160a01b038716845290915281205490916103119185906103629086610a3d565b60006103b7610a9e565b6007546001600160a01b039081169116146103ed5760405162461bcd60e51b81526004016103e490610d8c565b60405180910390fd5b6103118383610aa2565b6103ff610a9e565b6003546001600160a01b03908116911614610461576040805162461bcd60e51b815260206004820181905260248201527f4f776e61626c653a2063616c6c6572206973206e6f7420746865206f776e6572604482015290519081900360640190fd5b6001600160a01b0381166104875760405162461bcd60e51b81526004016103e490610dd4565b600780546001600160a01b0319166001600160a01b0392909216919091179055565b6001600160a01b0381166000908152602081905260409020545b919050565b6104d0610a9e565b6003546001600160a01b03908116911614610532576040805162461bcd60e51b815260206004820181905260248201527f4f776e61626c653a2063616c6c6572206973206e6f7420746865206f776e6572604482015290519081900360640190fd5b6003546040516000916001600160a01b0316907f8be0079c531659141344cd1fd0a4f28419497f9722a3daafe3b4186f6b6457e0908390a3600380546001600160a01b0319169055565b6003546001600160a01b031690565b6005805460408051602060026001851615610100026000190190941693909304601f810184900484028201840190925281815292918301828280156102fc5780601f106102d1576101008083540402835291602001916102fc565b60006105f0610a9e565b6007546001600160a01b0390811691161461061d5760405162461bcd60e51b81526004016103e490610d8c565b6103118383610b86565b3360008181526001602090815260408083206001600160a01b0387168452909152812054909161031191859061036290866109e0565b60006103113384846108aa565b6003546001600160a01b031681565b6001600160a01b03918216600090815260016020908152604080832093909416825291909152205490565b6106ac610a9e565b6003546001600160a01b0390811691161461070e576040805162461bcd60e51b815260206004820181905260248201527f4f776e61626c653a2063616c6c6572206973206e6f7420746865206f776e6572604482015290519081900360640190fd5b6001600160a01b0381166107535760405162461bcd60e51b8152600401808060200182810382526026815260200180610e476026913960400191505060405180910390fd5b6003546040516001600160a01b038084169216907f8be0079c531659141344cd1fd0a4f28419497f9722a3daafe3b4186f6b6457e090600090a3600380546001600160a01b0319166001600160a01b0392909216919091179055565b6007546001600160a01b031681565b6001600160a01b0383166108035760405162461bcd60e51b8152600401808060200182810382526024815260200180610ed56024913960400191505060405180910390fd5b6001600160a01b0382166108485760405162461bcd60e51b8152600401808060200182810382526022815260200180610e6d6022913960400191505060405180910390fd5b6001600160a01b03808416600081815260016020908152604080832094871680845294825291829020859055815185815291517f8c5be1e5ebec7d5bd14f71427d1e84f3dd0314c0f7b2291e5b200ac8c7c3b9259281900390910190a3505050565b6001600160a01b0383166108ef5760405162461bcd60e51b8152600401808060200182810382526025815260200180610eb06025913960400191505060405180910390fd5b6001600160a01b0382166109345760405162461bcd60e51b8152600401808060200182810382526023815260200180610e246023913960400191505060405180910390fd5b6001600160a01b03831660009081526020819052604090205461095790826109e0565b6001600160a01b0380851660009081526020819052604080822093909355908416815220546109869082610a3d565b6001600160a01b038084166000818152602081815260409182902094909455805185815290519193928716927fddf252ad1be2c89b69c2b068fc378daa952ba7f163c4a11628f55a4df523b3ef92918290030190a3505050565b600082821115610a37576040805162461bcd60e51b815260206004820152601e60248201527f536166654d6174683a207375627472616374696f6e206f766572666c6f770000604482015290519081900360640190fd5b50900390565b600082820183811015610a97576040805162461bcd60e51b815260206004820152601b60248201527f536166654d6174683a206164646974696f6e206f766572666c6f770000000000604482015290519081900360640190fd5b9392505050565b3390565b6001600160a01b038216610afd576040805162461bcd60e51b815260206004820152601f60248201527f45524332303a206d696e7420746f20746865207a65726f206164647265737300604482015290519081900360640190fd5b600254610b0a9082610a3d565b6002556001600160a01b038216600090815260208190526040902054610b309082610a3d565b6001600160a01b0383166000818152602081815260408083209490945583518581529351929391927fddf252ad1be2c89b69c2b068fc378daa952ba7f163c4a11628f55a4df523b3ef9281900390910190a35050565b6001600160a01b038216610bcb5760405162461bcd60e51b8152600401808060200182810382526021815260200180610e8f6021913960400191505060405180910390fd5b600254610bd890826109e0565b6002556001600160a01b038216600090815260208190526040902054610bfe90826109e0565b6001600160a01b038316600081815260208181526040808320949094558351858152935191937fddf252ad1be2c89b69c2b068fc378daa952ba7f163c4a11628f55a4df523b3ef929081900390910190a35050565b80356001600160a01b03811681146104c357600080fd5b600060208284031215610c7b578081fd5b610a9782610c53565b60008060408385031215610c96578081fd5b610c9f83610c53565b9150610cad60208401610c53565b90509250929050565b600080600060608486031215610cca578081fd5b610cd384610c53565b9250610ce160208501610c53565b9150604084013590509250925092565b60008060408385031215610d03578182fd5b610d0c83610c53565b946020939093013593505050565b6001600160a01b0391909116815260200190565b901515815260200190565b6000602080835283518082850152825b81811015610d6557858101830151858201604001528201610d49565b81811115610d765783604083870101525b50601f01601f1916929092016040019392505050565b60208082526028908201527f4d6f636b566f74696e67546f6b656e3a2063616c6c6572206973206e6f74207460408201526734329030b236b4b760c11b606082015260800190565b60208082526026908201527f4d6f636b566f74696e67546f6b656e3a20496e76616c69642061646d696e206160408201526564647265737360d01b606082015260800190565b9081526020019056fe45524332303a207472616e7366657220746f20746865207a65726f20616464726573734f776e61626c653a206e6577206f776e657220697320746865207a65726f206164647265737345524332303a20617070726f766520746f20746865207a65726f206164647265737345524332303a206275726e2066726f6d20746865207a65726f206164647265737345524332303a207472616e736665722066726f6d20746865207a65726f206164647265737345524332303a20617070726f76652066726f6d20746865207a65726f2061646472657373a2646970667358221220262647e10a7e7dc87ddb8a3a142d011f234a3a549543402864dbf53025fb274364736f6c63430007050033",
  "immutableReferences": {},
  "source": "//SPDX-License-Identifier: Unlicensed\npragma solidity 0.7.5;\npragma abicoder v2;\n\nimport \"./ERC20.sol\";\nimport \"./interfaces/IPopulousGovernanceV2.sol\";\nimport {Ownable} from './misc/Ownable.sol';\n\n/**\n * @title MockVotingToken\n * @dev Implements ERC20 minting logic\n */\ncontract MockVotingToken is ERC20, Ownable {\n    uint256 public decimals = 8;\n    string public symbol = \"PGT\";\n    string public name = \"Populous Governance Token\";\n\n    address public admin;\n\n    modifier onlyAdmin() {\n        require(admin == _msgSender(), 'MockVotingToken: caller is not the admin');\n        _;\n    }\n\n    function setAdmin(address _admin) public onlyOwner {\n        require(_admin != address(0), \"MockVotingToken: Invalid admin address\");\n        admin = _admin;\n    }\n\n    function mint(address account, uint256 amount) external onlyAdmin returns (bool) {\n        _mint(account, amount);\n        return true;\n    }\n\n    function burn(address account, uint256 amount) external onlyAdmin returns (bool) {\n        _burn(account, amount);\n        return true;\n    }\n}",
  "sourcePath": "/Users/nemitariajienka/Desktop/projects/populous/Populous-DeFi-governance/contracts/MockVotingToken.sol",
  "compiler": {
    "name": "solc",
    "version": "0.7.5+commit.eb77ed08.Emscripten.clang"
  },
  "schemaVersion": "3.3.3",
  "updatedAt": "2021-06-10T15:01:14.173Z",
  "networkType": "ethereum",
  "devdoc": {
    "details": "Implements ERC20 minting logic",
    "kind": "dev",
    "methods": {
      "allowance(address,address)": {
        "details": "See `IERC20.allowance`."
      },
      "approve(address,uint256)": {
        "details": "See `IERC20.approve`. Requirements: - `spender` cannot be the zero address."
      },
      "balanceOf(address)": {
        "details": "See `IERC20.balanceOf`."
      },
      "decreaseAllowance(address,uint256)": {
        "details": "Atomically decreases the allowance granted to `spender` by the caller. This is an alternative to `approve` that can be used as a mitigation for problems described in `IERC20.approve`. Emits an `Approval` event indicating the updated allowance. Requirements: - `spender` cannot be the zero address. - `spender` must have allowance for the caller of at least `subtractedValue`."
      },
      "increaseAllowance(address,uint256)": {
        "details": "Atomically increases the allowance granted to `spender` by the caller. This is an alternative to `approve` that can be used as a mitigation for problems described in `IERC20.approve`. Emits an `Approval` event indicating the updated allowance. Requirements: - `spender` cannot be the zero address."
      },
      "owner()": {
        "details": "Returns the address of the current owner."
      },
      "renounceOwnership()": {
        "details": "Leaves the contract without owner. It will not be possible to call `onlyOwner` functions anymore. Can only be called by the current owner. NOTE: Renouncing ownership will leave the contract without an owner, thereby removing any functionality that is only available to the owner."
      },
      "totalSupply()": {
        "details": "See `IERC20.totalSupply`."
      },
      "transfer(address,uint256)": {
        "details": "See `IERC20.transfer`. Requirements: - `recipient` cannot be the zero address. - the caller must have a balance of at least `amount`."
      },
      "transferFrom(address,address,uint256)": {
        "details": "See `IERC20.transferFrom`. Emits an `Approval` event indicating the updated allowance. This is not required by the EIP. See the note at the beginning of `ERC20`; Requirements: - `sender` and `recipient` cannot be the zero address. - `sender` must have a balance of at least `value`. - the caller must have allowance for `sender`'s tokens of at least `amount`."
      },
      "transferOwnership(address)": {
        "details": "Transfers ownership of the contract to a new account (`newOwner`). Can only be called by the current owner."
      }
    },
    "title": "MockVotingToken",
    "version": 1
  },
  "userdoc": {
    "kind": "user",
    "methods": {},
    "version": 1
  }
}