{
  "contractName": "MockVotingToken",
  "abi": [
    {
      "inputs": [
        {
          "internalType": "address",
          "name": "_pxt",
          "type": "address"
        }
      ],
      "stateMutability": "nonpayable",
      "type": "constructor"
    },
    {
      "anonymous": false,
      "inputs": [
        {
          "indexed": true,
          "internalType": "address",
          "name": "owner",
          "type": "address"
        },
        {
          "indexed": true,
          "internalType": "address",
          "name": "spender",
          "type": "address"
        },
        {
          "indexed": false,
          "internalType": "uint256",
          "name": "value",
          "type": "uint256"
        }
      ],
      "name": "Approval",
      "type": "event"
    },
    {
      "anonymous": false,
      "inputs": [
        {
          "indexed": true,
          "internalType": "address",
          "name": "user",
          "type": "address"
        },
        {
          "indexed": false,
          "internalType": "uint256",
          "name": "amount",
          "type": "uint256"
        }
      ],
      "name": "Deposit",
      "type": "event"
    },
    {
      "anonymous": false,
      "inputs": [
        {
          "indexed": true,
          "internalType": "address",
          "name": "previousOwner",
          "type": "address"
        },
        {
          "indexed": true,
          "internalType": "address",
          "name": "newOwner",
          "type": "address"
        }
      ],
      "name": "OwnershipTransferred",
      "type": "event"
    },
    {
      "anonymous": false,
      "inputs": [
        {
          "indexed": true,
          "internalType": "address",
          "name": "user",
          "type": "address"
        },
        {
          "indexed": false,
          "internalType": "uint256",
          "name": "amount",
          "type": "uint256"
        }
      ],
      "name": "Redeemed",
      "type": "event"
    },
    {
      "anonymous": false,
      "inputs": [
        {
          "indexed": true,
          "internalType": "address",
          "name": "from",
          "type": "address"
        },
        {
          "indexed": true,
          "internalType": "address",
          "name": "to",
          "type": "address"
        },
        {
          "indexed": false,
          "internalType": "uint256",
          "name": "value",
          "type": "uint256"
        }
      ],
      "name": "Transfer",
      "type": "event"
    },
    {
      "inputs": [
        {
          "internalType": "address",
          "name": "owner",
          "type": "address"
        },
        {
          "internalType": "address",
          "name": "spender",
          "type": "address"
        }
      ],
      "name": "allowance",
      "outputs": [
        {
          "internalType": "uint256",
          "name": "",
          "type": "uint256"
        }
      ],
      "stateMutability": "view",
      "type": "function"
    },
    {
      "inputs": [
        {
          "internalType": "address",
          "name": "spender",
          "type": "address"
        },
        {
          "internalType": "uint256",
          "name": "value",
          "type": "uint256"
        }
      ],
      "name": "approve",
      "outputs": [
        {
          "internalType": "bool",
          "name": "",
          "type": "bool"
        }
      ],
      "stateMutability": "nonpayable",
      "type": "function"
    },
    {
      "inputs": [
        {
          "internalType": "address",
          "name": "account",
          "type": "address"
        }
      ],
      "name": "balanceOf",
      "outputs": [
        {
          "internalType": "uint256",
          "name": "",
          "type": "uint256"
        }
      ],
      "stateMutability": "view",
      "type": "function"
    },
    {
      "inputs": [],
      "name": "decimals",
      "outputs": [
        {
          "internalType": "uint256",
          "name": "",
          "type": "uint256"
        }
      ],
      "stateMutability": "view",
      "type": "function"
    },
    {
      "inputs": [
        {
          "internalType": "address",
          "name": "spender",
          "type": "address"
        },
        {
          "internalType": "uint256",
          "name": "subtractedValue",
          "type": "uint256"
        }
      ],
      "name": "decreaseAllowance",
      "outputs": [
        {
          "internalType": "bool",
          "name": "",
          "type": "bool"
        }
      ],
      "stateMutability": "nonpayable",
      "type": "function"
    },
    {
      "inputs": [],
      "name": "governance",
      "outputs": [
        {
          "internalType": "contract IPopulousGovernanceV2",
          "name": "",
          "type": "address"
        }
      ],
      "stateMutability": "view",
      "type": "function"
    },
    {
      "inputs": [
        {
          "internalType": "address",
          "name": "spender",
          "type": "address"
        },
        {
          "internalType": "uint256",
          "name": "addedValue",
          "type": "uint256"
        }
      ],
      "name": "increaseAllowance",
      "outputs": [
        {
          "internalType": "bool",
          "name": "",
          "type": "bool"
        }
      ],
      "stateMutability": "nonpayable",
      "type": "function"
    },
    {
      "inputs": [],
      "name": "name",
      "outputs": [
        {
          "internalType": "string",
          "name": "",
          "type": "string"
        }
      ],
      "stateMutability": "view",
      "type": "function"
    },
    {
      "inputs": [],
      "name": "owner",
      "outputs": [
        {
          "internalType": "address",
          "name": "",
          "type": "address"
        }
      ],
      "stateMutability": "view",
      "type": "function"
    },
    {
      "inputs": [],
      "name": "pxtToken",
      "outputs": [
        {
          "internalType": "contract ERC20",
          "name": "",
          "type": "address"
        }
      ],
      "stateMutability": "view",
      "type": "function"
    },
    {
      "inputs": [],
      "name": "renounceOwnership",
      "outputs": [],
      "stateMutability": "nonpayable",
      "type": "function"
    },
    {
      "inputs": [],
      "name": "symbol",
      "outputs": [
        {
          "internalType": "string",
          "name": "",
          "type": "string"
        }
      ],
      "stateMutability": "view",
      "type": "function"
    },
    {
      "inputs": [],
      "name": "totalSupply",
      "outputs": [
        {
          "internalType": "uint256",
          "name": "",
          "type": "uint256"
        }
      ],
      "stateMutability": "view",
      "type": "function"
    },
    {
      "inputs": [
        {
          "internalType": "address",
          "name": "recipient",
          "type": "address"
        },
        {
          "internalType": "uint256",
          "name": "amount",
          "type": "uint256"
        }
      ],
      "name": "transfer",
      "outputs": [
        {
          "internalType": "bool",
          "name": "",
          "type": "bool"
        }
      ],
      "stateMutability": "nonpayable",
      "type": "function"
    },
    {
      "inputs": [
        {
          "internalType": "address",
          "name": "sender",
          "type": "address"
        },
        {
          "internalType": "address",
          "name": "recipient",
          "type": "address"
        },
        {
          "internalType": "uint256",
          "name": "amount",
          "type": "uint256"
        }
      ],
      "name": "transferFrom",
      "outputs": [
        {
          "internalType": "bool",
          "name": "",
          "type": "bool"
        }
      ],
      "stateMutability": "nonpayable",
      "type": "function"
    },
    {
      "inputs": [
        {
          "internalType": "address",
          "name": "newOwner",
          "type": "address"
        }
      ],
      "name": "transferOwnership",
      "outputs": [],
      "stateMutability": "nonpayable",
      "type": "function"
    },
    {
      "inputs": [
        {
          "internalType": "address",
          "name": "_governance",
          "type": "address"
        }
      ],
      "name": "setGov",
      "outputs": [],
      "stateMutability": "nonpayable",
      "type": "function"
    },
    {
      "inputs": [],
      "name": "getGov",
      "outputs": [
        {
          "internalType": "address",
          "name": "",
          "type": "address"
        }
      ],
      "stateMutability": "nonpayable",
      "type": "function"
    },
    {
      "inputs": [],
      "name": "getPXT",
      "outputs": [
        {
          "internalType": "address",
          "name": "",
          "type": "address"
        }
      ],
      "stateMutability": "nonpayable",
      "type": "function"
    },
    {
      "inputs": [],
      "name": "deposit",
      "outputs": [],
      "stateMutability": "nonpayable",
      "type": "function"
    },
    {
      "inputs": [],
      "name": "redeem",
      "outputs": [],
      "stateMutability": "nonpayable",
      "type": "function"
    },
    {
      "inputs": [
        {
          "internalType": "address",
          "name": "user",
          "type": "address"
        },
        {
          "internalType": "uint256",
          "name": "blockNumber",
          "type": "uint256"
        },
        {
          "internalType": "enum MockVotingToken.DelegationType",
          "name": "delegationType",
          "type": "uint8"
        }
      ],
      "name": "getPowerAtBlock",
      "outputs": [
        {
          "internalType": "uint256",
          "name": "",
          "type": "uint256"
        }
      ],
      "stateMutability": "view",
      "type": "function"
    }
  ],
  "bytecode": "0x600860065560c0604052600260808190526111d560f21b60a09081526200002a916007919062000158565b5060408051808201909152601a8082527f506f70756c6f757320476f7665726e616e636520546f6b656e730000000000006020909201918252620000719160089162000158565b503480156200007f57600080fd5b506040516200188d3803806200188d833981016040819052620000a29162000204565b6000620000ae62000154565b600380546001600160a01b0319166001600160a01b038316908117909155604051919250906000907f8be0079c531659141344cd1fd0a4f28419497f9722a3daafe3b4186f6b6457e0908290a3506001600160a01b0381166200012e5760405162461bcd60e51b8152600401620001259062000234565b60405180910390fd5b600480546001600160a01b0319166001600160a01b039290921691909117905562000278565b3390565b828054600181600116156101000203166002900490600052602060002090601f016020900481019282620001905760008555620001db565b82601f10620001ab57805160ff1916838001178555620001db565b82800160010185558215620001db579182015b82811115620001db578251825591602001919060010190620001be565b50620001e9929150620001ed565b5090565b5b80821115620001e95760008155600101620001ee565b60006020828403121562000216578081fd5b81516001600160a01b03811681146200022d578182fd5b9392505050565b60208082526024908201527f4d6f636b566f74696e67546f6b656e3a20496e76616c696420707874206164646040820152637265737360e01b606082015260800190565b61160580620002886000396000f3fe608060405234801561001057600080fd5b50600436106101425760003560e01c80638f10b2e0116100b8578063be040fb01161007c578063be040fb014610248578063c2ffbb9114610250578063cfad57a214610263578063d0e30db014610276578063dd62ed3e1461027e578063f2fde38b1461029157610142565b80638f10b2e01461020a57806395d89b4114610212578063a2ab2dee1461021a578063a457c2d714610222578063a9059cbb1461023557610142565b8063313ce5671161010a578063313ce567146101c257806339509351146101ca5780635aa6e675146101dd57806370a08231146101e5578063715018a6146101f85780638da5cb5b1461020257610142565b806306fdde0314610147578063095ea7b3146101655780630e3443761461018557806318160ddd1461019a57806323b872dd146101af575b600080fd5b61014f6102a4565b60405161015c91906112be565b60405180910390f35b610178610173366004611145565b610332565b60405161015c91906112b3565b61018d610348565b60405161015c9190611262565b6101a2610357565b60405161015c91906114da565b6101786101bd36600461110a565b61035d565b6101a26103ae565b6101786101d8366004611145565b6103b4565b61018d6103ea565b6101a26101f33660046110be565b6103f9565b610200610418565b005b61018d6104cc565b61018d6104db565b61014f6104ea565b61018d610545565b610178610230366004611145565b610554565b610178610243366004611145565b61058a565b610200610597565b6101a261025e36600461116e565b610849565b6102006102713660046110be565b61085c565b61020061090e565b6101a261028c3660046110d8565b610acc565b61020061029f3660046110be565b610af7565b6008805460408051602060026001851615610100026000190190941693909304601f8101849004840282018401909252818152929183018282801561032a5780601f106102ff5761010080835404028352916020019161032a565b820191906000526020600020905b81548152906001019060200180831161030d57829003601f168201915b505050505081565b600061033f338484610c02565b50600192915050565b6004546001600160a01b031681565b60025490565b600061036a848484610cee565b6001600160a01b0384166000908152600160209081526040808320338085529252909120546103a491869161039f9086610e24565b610c02565b5060019392505050565b60065481565b3360008181526001602090815260408083206001600160a01b0387168452909152812054909161033f91859061039f9086610e81565b6005546001600160a01b031681565b6001600160a01b0381166000908152602081905260409020545b919050565b610420610ee2565b6003546001600160a01b03908116911614610482576040805162461bcd60e51b815260206004820181905260248201527f4f776e61626c653a2063616c6c6572206973206e6f7420746865206f776e6572604482015290519081900360640190fd5b6003546040516000916001600160a01b0316907f8be0079c531659141344cd1fd0a4f28419497f9722a3daafe3b4186f6b6457e0908390a3600380546001600160a01b0319169055565b6003546001600160a01b031690565b6004546001600160a01b031690565b6007805460408051602060026001851615610100026000190190941693909304601f8101849004840282018401909252818152929183018282801561032a5780601f106102ff5761010080835404028352916020019161032a565b6005546001600160a01b031690565b3360008181526001602090815260408083206001600160a01b0387168452909152812054909161033f91859061039f9086610e24565b600061033f338484610cee565b60006105a2336103f9565b90506105ae3382610ee6565b60005b600560009054906101000a90046001600160a01b03166001600160a01b03166398e527d36040518163ffffffff1660e01b815260040160206040518083038186803b1580156105ff57600080fd5b505afa158015610613573d6000803e3d6000fd5b505050506040513d601f19601f82011682018060405250810190610637919061124a565b8110156107a157600554604051639080936f60e01b81526000916001600160a01b031690639080936f9061066f9085906004016114da565b60206040518083038186803b15801561068757600080fd5b505afa15801561069b573d6000803e3d6000fd5b505050506040513d601f19601f820116820180604052508101906106bf91906111ca565b60078111156106ca57fe5b600554604051634185ff8360e01b81529192506000916001600160a01b0390911690634185ff839061070290869033906004016114e3565b604080518083038186803b15801561071957600080fd5b505afa15801561072d573d6000803e3d6000fd5b505050506040513d601f19601f8201168201806040525081019061075191906111e9565b602001516001600160f81b031611156107985780151580610773575080600214155b6107985760405162461bcd60e51b815260040161078f90611395565b60405180910390fd5b506001016105b1565b506004805460405163a9059cbb60e01b81526001600160a01b039091169163a9059cbb916107d391339186910161129a565b602060405180830381600087803b1580156107ed57600080fd5b505af1158015610801573d6000803e3d6000fd5b505050506040513d601f19601f8201168201806040525081019061082591906111b0565b15156001146108465760405162461bcd60e51b815260040161078f90611360565b50565b6000610854846103f9565b949350505050565b610864610ee2565b6003546001600160a01b039081169116146108c6576040805162461bcd60e51b815260206004820181905260248201527f4f776e61626c653a2063616c6c6572206973206e6f7420746865206f776e6572604482015290519081900360640190fd5b6001600160a01b0381166108ec5760405162461bcd60e51b815260040161078f906113ff565b600580546001600160a01b0319166001600160a01b0392909216919091179055565b600480546040516370a0823160e01b81526000926001600160a01b03909216916370a082319161094091339101611262565b60206040518083038186803b15801561095857600080fd5b505afa15801561096c573d6000803e3d6000fd5b505050506040513d601f19601f82011682018060405250810190610990919061124a565b9050600081116109b25760405162461bcd60e51b815260040161078f9061148e565b6109bb336103f9565b156109d85760405162461bcd60e51b815260040161078f90611311565b600480546040516323b872dd60e01b81526001600160a01b03909116916323b872dd91610a0b9133913091879101611276565b602060405180830381600087803b158015610a2557600080fd5b505af1158015610a39573d6000803e3d6000fd5b505050506040513d601f19601f82011682018060405250810190610a5d91906111b0565b1515600114610a7e5760405162461bcd60e51b815260040161078f9061144a565b610a883382610fb3565b336001600160a01b03167fe1fffcc4923d04b559f4d29a8bfc6cda04eb5b0d3c460751c2402c5c5cc9109c82604051610ac191906114da565b60405180910390a250565b6001600160a01b03918216600090815260016020908152604080832093909416825291909152205490565b610aff610ee2565b6003546001600160a01b03908116911614610b61576040805162461bcd60e51b815260206004820181905260248201527f4f776e61626c653a2063616c6c6572206973206e6f7420746865206f776e6572604482015290519081900360640190fd5b6001600160a01b038116610ba65760405162461bcd60e51b815260040180806020018281038252602681526020018061151e6026913960400191505060405180910390fd5b6003546040516001600160a01b038084169216907f8be0079c531659141344cd1fd0a4f28419497f9722a3daafe3b4186f6b6457e090600090a3600380546001600160a01b0319166001600160a01b0392909216919091179055565b6001600160a01b038316610c475760405162461bcd60e51b81526004018080602001828103825260248152602001806115ac6024913960400191505060405180910390fd5b6001600160a01b038216610c8c5760405162461bcd60e51b81526004018080602001828103825260228152602001806115446022913960400191505060405180910390fd5b6001600160a01b03808416600081815260016020908152604080832094871680845294825291829020859055815185815291517f8c5be1e5ebec7d5bd14f71427d1e84f3dd0314c0f7b2291e5b200ac8c7c3b9259281900390910190a3505050565b6001600160a01b038316610d335760405162461bcd60e51b81526004018080602001828103825260258152602001806115876025913960400191505060405180910390fd5b6001600160a01b038216610d785760405162461bcd60e51b81526004018080602001828103825260238152602001806114fb6023913960400191505060405180910390fd5b6001600160a01b038316600090815260208190526040902054610d9b9082610e24565b6001600160a01b038085166000908152602081905260408082209390935590841681522054610dca9082610e81565b6001600160a01b038084166000818152602081815260409182902094909455805185815290519193928716927fddf252ad1be2c89b69c2b068fc378daa952ba7f163c4a11628f55a4df523b3ef92918290030190a3505050565b600082821115610e7b576040805162461bcd60e51b815260206004820152601e60248201527f536166654d6174683a207375627472616374696f6e206f766572666c6f770000604482015290519081900360640190fd5b50900390565b600082820183811015610edb576040805162461bcd60e51b815260206004820152601b60248201527f536166654d6174683a206164646974696f6e206f766572666c6f770000000000604482015290519081900360640190fd5b9392505050565b3390565b6001600160a01b038216610f2b5760405162461bcd60e51b81526004018080602001828103825260218152602001806115666021913960400191505060405180910390fd5b600254610f389082610e24565b6002556001600160a01b038216600090815260208190526040902054610f5e9082610e24565b6001600160a01b038316600081815260208181526040808320949094558351858152935191937fddf252ad1be2c89b69c2b068fc378daa952ba7f163c4a11628f55a4df523b3ef929081900390910190a35050565b6001600160a01b03821661100e576040805162461bcd60e51b815260206004820152601f60248201527f45524332303a206d696e7420746f20746865207a65726f206164647265737300604482015290519081900360640190fd5b60025461101b9082610e81565b6002556001600160a01b0382166000908152602081905260409020546110419082610e81565b6001600160a01b0383166000818152602081815260408083209490945583518581529351929391927fddf252ad1be2c89b69c2b068fc378daa952ba7f163c4a11628f55a4df523b3ef9281900390910190a35050565b80356001600160a01b038116811461041357600080fd5b8051801515811461041357600080fd5b6000602082840312156110cf578081fd5b610edb82611097565b600080604083850312156110ea578081fd5b6110f383611097565b915061110160208401611097565b90509250929050565b60008060006060848603121561111e578081fd5b61112784611097565b925061113560208501611097565b9150604084013590509250925092565b60008060408385031215611157578182fd5b61116083611097565b946020939093013593505050565b600080600060608486031215611182578283fd5b61118b84611097565b9250602084013591506040840135600281106111a5578182fd5b809150509250925092565b6000602082840312156111c1578081fd5b610edb826110ae565b6000602082840312156111db578081fd5b815160088110610edb578182fd5b6000604082840312156111fa578081fd5b6040516040810181811067ffffffffffffffff8211171561121757fe5b604052611223836110ae565b815260208301516001600160f81b038116811461123e578283fd5b60208201529392505050565b60006020828403121561125b578081fd5b5051919050565b6001600160a01b0391909116815260200190565b6001600160a01b039384168152919092166020820152604081019190915260600190565b6001600160a01b03929092168252602082015260400190565b901515815260200190565b6000602080835283518082850152825b818110156112ea578581018301518582016040015282016112ce565b818111156112fb5783604083870101525b50601f01601f1916929092016040019392505050565b6020808252602f908201527f4d6f636b566f74696e67546f6b656e3a20566f74696e6720746f6b656e20626160408201526e06c616e6365206d757374206265203608c1b606082015260800190565b6020808252818101527f4d6f636b566f74696e67546f6b656e3a205472616e73666572206661696c6564604082015260600190565b60208082526044908201527f4d6f636b566f74696e67546f6b656e3a20557365722063616e6e6f742068617660408201527f6520766f7465206f6e2070656e64696e67206f72206163746976652070726f706060820152631bdcd85b60e21b608082015260a00190565b6020808252602b908201527f4d6f636b566f74696e67546f6b656e3a20496e76616c696420676f7665726e6160408201526a6e6365206164647265737360a81b606082015260800190565b60208082526024908201527f4d6f636b566f74696e67546f6b656e3a205472616e7366657246726f6d2066616040820152631a5b195960e21b606082015260800190565b6020808252602c908201527f4d6f636b566f74696e67546f6b656e3a205058542062616c616e6365206d757360408201526b0742062652061626f766520360a41b606082015260800190565b90815260200190565b9182526001600160a01b031660208201526040019056fe45524332303a207472616e7366657220746f20746865207a65726f20616464726573734f776e61626c653a206e6577206f776e657220697320746865207a65726f206164647265737345524332303a20617070726f766520746f20746865207a65726f206164647265737345524332303a206275726e2066726f6d20746865207a65726f206164647265737345524332303a207472616e736665722066726f6d20746865207a65726f206164647265737345524332303a20617070726f76652066726f6d20746865207a65726f2061646472657373a264697066735822122095d3f002b7f7b74411395b611d0cbfe02e6b1744119270821537853156ecaa0264736f6c63430007050033",
  "immutableReferences": {},
  "source": "pragma solidity 0.7.5;\npragma abicoder v2;\n\nimport \"./ERC20.sol\";\nimport \"./interfaces/IPopulousGovernanceV2.sol\";\nimport {Ownable} from './dependencies/open-zeppelin/Ownable.sol';\n\n/**\n * @title MockVotingToken\n * @dev Implements ERC20 minting logic\n */\ncontract MockVotingToken is ERC20, Ownable {\n    enum DelegationType {VOTING_POWER, PROPOSITION_POWER}\n\n    ERC20 public pxtToken;\n    IPopulousGovernanceV2 public governance;\n\n    uint256 public decimals = 8;\n    string public symbol = \"GT\";\n    string public name = \"Populous Governance Tokens\";\n\n    event Deposit(address indexed user, uint256 amount);\n    event Redeemed(address indexed user, uint256 amount);\n\n    constructor(address _pxt) public {\n        require(_pxt != address(0), \"MockVotingToken: Invalid pxt address\");\n        pxtToken = ERC20(_pxt);\n    }\n\n    // only owner/admin\n    function setGov(address _governance) public onlyOwner {\n        require(_governance != address(0), \"MockVotingToken: Invalid governance address\");\n        governance = IPopulousGovernanceV2(_governance);\n    }\n\n    function getGov() public returns(address) {\n        return address(governance);\n    }\n\n    function getPXT() public returns(address) {\n        return address(pxtToken);\n    }\n\n    function deposit() public {\n        uint256 balance = pxtToken.balanceOf(msg.sender);\n        require(balance > 0, \"MockVotingToken: PXT balance must be above 0\");\n        require(balanceOf(msg.sender) == 0, \"MockVotingToken: Voting token balance must be 0\");\n        require(\n            pxtToken.transferFrom(msg.sender, address(this), balance) == true,\n            \"MockVotingToken: TransferFrom failed\"\n        );\n        _mint(msg.sender, balance);\n        emit Deposit(msg.sender, balance);\n    }\n\n    function redeem() public {\n        uint256 govBalance = balanceOf(msg.sender);\n        _burn(msg.sender, govBalance);\n\n        for (uint256 i = 0; i < governance.getProposalsCount(); i++) {\n            uint256 state = uint256(governance.getProposalState(i));\n            if (governance.getVoteOnProposal(i, msg.sender).votingPower > 0) {\n                require (\n                    (\n                        state != 0 || state != 2\n                    ),\n                    \"MockVotingToken: User cannot have vote on pending or active proposal\"\n                );\n            }\n        }\n\n        require(\n            pxtToken.transfer(msg.sender, govBalance) == true,\n            \"MockVotingToken: Transfer failed\"\n        );\n    }\n\n    // increase voting power\n    // how many tokens? pxt or ppt or both and 1:1?\n\n    function getPowerAtBlock(\n        address user,\n        uint256 blockNumber,\n        DelegationType delegationType\n    ) external view returns (uint256) {\n        return balanceOf(user);\n    }\n}",
  "sourcePath": "/Users/nemitariajienka/Desktop/projects/populous/Populous-DeFi-governance/contracts/MockVotingToken.sol",
  "compiler": {
    "name": "solc",
    "version": "0.7.5+commit.eb77ed08.Emscripten.clang"
  },
  "schemaVersion": "3.3.3",
  "updatedAt": "2021-04-19T19:49:49.780Z",
  "devdoc": {
    "details": "Implements ERC20 minting logic",
    "kind": "dev",
    "methods": {
      "allowance(address,address)": {
        "details": "See `IERC20.allowance`."
      },
      "approve(address,uint256)": {
        "details": "See `IERC20.approve`. Requirements: - `spender` cannot be the zero address."
      },
      "balanceOf(address)": {
        "details": "See `IERC20.balanceOf`."
      },
      "decreaseAllowance(address,uint256)": {
        "details": "Atomically decreases the allowance granted to `spender` by the caller. This is an alternative to `approve` that can be used as a mitigation for problems described in `IERC20.approve`. Emits an `Approval` event indicating the updated allowance. Requirements: - `spender` cannot be the zero address. - `spender` must have allowance for the caller of at least `subtractedValue`."
      },
      "increaseAllowance(address,uint256)": {
        "details": "Atomically increases the allowance granted to `spender` by the caller. This is an alternative to `approve` that can be used as a mitigation for problems described in `IERC20.approve`. Emits an `Approval` event indicating the updated allowance. Requirements: - `spender` cannot be the zero address."
      },
      "owner()": {
        "details": "Returns the address of the current owner."
      },
      "renounceOwnership()": {
        "details": "Leaves the contract without owner. It will not be possible to call `onlyOwner` functions anymore. Can only be called by the current owner. NOTE: Renouncing ownership will leave the contract without an owner, thereby removing any functionality that is only available to the owner."
      },
      "totalSupply()": {
        "details": "See `IERC20.totalSupply`."
      },
      "transfer(address,uint256)": {
        "details": "See `IERC20.transfer`. Requirements: - `recipient` cannot be the zero address. - the caller must have a balance of at least `amount`."
      },
      "transferFrom(address,address,uint256)": {
        "details": "See `IERC20.transferFrom`. Emits an `Approval` event indicating the updated allowance. This is not required by the EIP. See the note at the beginning of `ERC20`; Requirements: - `sender` and `recipient` cannot be the zero address. - `sender` must have a balance of at least `value`. - the caller must have allowance for `sender`'s tokens of at least `amount`."
      },
      "transferOwnership(address)": {
        "details": "Transfers ownership of the contract to a new account (`newOwner`). Can only be called by the current owner."
      }
    },
    "title": "MockVotingToken",
    "version": 1
  },
  "userdoc": {
    "kind": "user",
    "methods": {},
    "version": 1
  }
}