{
  "contractName": "PopulousGovernanceV2",
  "abi": [
    {
      "inputs": [
        {
          "internalType": "address",
          "name": "votingToken",
          "type": "address"
        },
        {
          "internalType": "address",
          "name": "ppt",
          "type": "address"
        },
        {
          "internalType": "address",
          "name": "pxt",
          "type": "address"
        },
        {
          "internalType": "address",
          "name": "governanceStrategy",
          "type": "address"
        },
        {
          "internalType": "uint256",
          "name": "votingDelay",
          "type": "uint256"
        },
        {
          "internalType": "address",
          "name": "guardian",
          "type": "address"
        },
        {
          "internalType": "address[]",
          "name": "executors",
          "type": "address[]"
        }
      ],
      "stateMutability": "nonpayable",
      "type": "constructor"
    },
    {
      "anonymous": false,
      "inputs": [
        {
          "indexed": false,
          "internalType": "address",
          "name": "executor",
          "type": "address"
        }
      ],
      "name": "ExecutorAuthorized",
      "type": "event"
    },
    {
      "anonymous": false,
      "inputs": [
        {
          "indexed": false,
          "internalType": "address",
          "name": "executor",
          "type": "address"
        }
      ],
      "name": "ExecutorUnauthorized",
      "type": "event"
    },
    {
      "anonymous": false,
      "inputs": [
        {
          "indexed": true,
          "internalType": "address",
          "name": "newStrategy",
          "type": "address"
        },
        {
          "indexed": true,
          "internalType": "address",
          "name": "initiatorChange",
          "type": "address"
        }
      ],
      "name": "GovernanceStrategyChanged",
      "type": "event"
    },
    {
      "anonymous": false,
      "inputs": [
        {
          "indexed": true,
          "internalType": "address",
          "name": "voter",
          "type": "address"
        },
        {
          "indexed": true,
          "internalType": "address",
          "name": "tokenAddress",
          "type": "address"
        },
        {
          "indexed": false,
          "internalType": "uint256",
          "name": "tokenAmount",
          "type": "uint256"
        }
      ],
      "name": "LockedTokensRedeemed",
      "type": "event"
    },
    {
      "anonymous": false,
      "inputs": [
        {
          "indexed": true,
          "internalType": "address",
          "name": "previousOwner",
          "type": "address"
        },
        {
          "indexed": true,
          "internalType": "address",
          "name": "newOwner",
          "type": "address"
        }
      ],
      "name": "OwnershipTransferred",
      "type": "event"
    },
    {
      "anonymous": false,
      "inputs": [
        {
          "indexed": false,
          "internalType": "uint256",
          "name": "id",
          "type": "uint256"
        }
      ],
      "name": "ProposalCanceled",
      "type": "event"
    },
    {
      "anonymous": false,
      "inputs": [
        {
          "indexed": false,
          "internalType": "uint256",
          "name": "id",
          "type": "uint256"
        },
        {
          "indexed": true,
          "internalType": "address",
          "name": "creator",
          "type": "address"
        },
        {
          "indexed": true,
          "internalType": "contract IExecutorWithTimelock",
          "name": "executor",
          "type": "address"
        },
        {
          "indexed": false,
          "internalType": "address[]",
          "name": "targets",
          "type": "address[]"
        },
        {
          "indexed": false,
          "internalType": "uint256[]",
          "name": "values",
          "type": "uint256[]"
        },
        {
          "indexed": false,
          "internalType": "string[]",
          "name": "signatures",
          "type": "string[]"
        },
        {
          "indexed": false,
          "internalType": "bytes[]",
          "name": "calldatas",
          "type": "bytes[]"
        },
        {
          "indexed": false,
          "internalType": "bool[]",
          "name": "withDelegatecalls",
          "type": "bool[]"
        },
        {
          "indexed": false,
          "internalType": "uint256",
          "name": "startBlock",
          "type": "uint256"
        },
        {
          "indexed": false,
          "internalType": "uint256",
          "name": "endBlock",
          "type": "uint256"
        },
        {
          "indexed": false,
          "internalType": "address",
          "name": "strategy",
          "type": "address"
        },
        {
          "indexed": false,
          "internalType": "bytes32",
          "name": "ipfsHash",
          "type": "bytes32"
        }
      ],
      "name": "ProposalCreated",
      "type": "event"
    },
    {
      "anonymous": false,
      "inputs": [
        {
          "indexed": false,
          "internalType": "uint256",
          "name": "id",
          "type": "uint256"
        },
        {
          "indexed": true,
          "internalType": "address",
          "name": "initiatorExecution",
          "type": "address"
        }
      ],
      "name": "ProposalExecuted",
      "type": "event"
    },
    {
      "anonymous": false,
      "inputs": [
        {
          "indexed": false,
          "internalType": "uint256",
          "name": "id",
          "type": "uint256"
        },
        {
          "indexed": false,
          "internalType": "uint256",
          "name": "executionTime",
          "type": "uint256"
        },
        {
          "indexed": true,
          "internalType": "address",
          "name": "initiatorQueueing",
          "type": "address"
        }
      ],
      "name": "ProposalQueued",
      "type": "event"
    },
    {
      "anonymous": false,
      "inputs": [
        {
          "indexed": true,
          "internalType": "address",
          "name": "voter",
          "type": "address"
        },
        {
          "indexed": true,
          "internalType": "address",
          "name": "tokenAddress",
          "type": "address"
        },
        {
          "indexed": false,
          "internalType": "uint256",
          "name": "tokenAmount",
          "type": "uint256"
        }
      ],
      "name": "TokensLockedForVoting",
      "type": "event"
    },
    {
      "anonymous": false,
      "inputs": [
        {
          "indexed": false,
          "internalType": "address",
          "name": "PPT",
          "type": "address"
        },
        {
          "indexed": false,
          "internalType": "address",
          "name": "PXT",
          "type": "address"
        }
      ],
      "name": "UserTokensSet",
      "type": "event"
    },
    {
      "anonymous": false,
      "inputs": [
        {
          "indexed": false,
          "internalType": "uint256",
          "name": "id",
          "type": "uint256"
        },
        {
          "indexed": true,
          "internalType": "address",
          "name": "voter",
          "type": "address"
        },
        {
          "indexed": false,
          "internalType": "bool",
          "name": "support",
          "type": "bool"
        },
        {
          "indexed": false,
          "internalType": "uint256",
          "name": "votingPower",
          "type": "uint256"
        }
      ],
      "name": "VoteEmitted",
      "type": "event"
    },
    {
      "anonymous": false,
      "inputs": [
        {
          "indexed": false,
          "internalType": "uint256",
          "name": "newVotingDelay",
          "type": "uint256"
        },
        {
          "indexed": true,
          "internalType": "address",
          "name": "initiatorChange",
          "type": "address"
        }
      ],
      "name": "VotingDelayChanged",
      "type": "event"
    },
    {
      "anonymous": false,
      "inputs": [
        {
          "indexed": false,
          "internalType": "address",
          "name": "token",
          "type": "address"
        }
      ],
      "name": "VotingTokenSet",
      "type": "event"
    },
    {
      "inputs": [],
      "name": "DOMAIN_TYPEHASH",
      "outputs": [
        {
          "internalType": "bytes32",
          "name": "",
          "type": "bytes32"
        }
      ],
      "stateMutability": "view",
      "type": "function"
    },
    {
      "inputs": [],
      "name": "NAME",
      "outputs": [
        {
          "internalType": "string",
          "name": "",
          "type": "string"
        }
      ],
      "stateMutability": "view",
      "type": "function"
    },
    {
      "inputs": [],
      "name": "VOTE_EMITTED_TYPEHASH",
      "outputs": [
        {
          "internalType": "bytes32",
          "name": "",
          "type": "bytes32"
        }
      ],
      "stateMutability": "view",
      "type": "function"
    },
    {
      "inputs": [],
      "name": "_PPT",
      "outputs": [
        {
          "internalType": "address",
          "name": "",
          "type": "address"
        }
      ],
      "stateMutability": "view",
      "type": "function"
    },
    {
      "inputs": [],
      "name": "_PXT",
      "outputs": [
        {
          "internalType": "address",
          "name": "",
          "type": "address"
        }
      ],
      "stateMutability": "view",
      "type": "function"
    },
    {
      "inputs": [],
      "name": "_votingToken",
      "outputs": [
        {
          "internalType": "address",
          "name": "",
          "type": "address"
        }
      ],
      "stateMutability": "view",
      "type": "function"
    },
    {
      "inputs": [],
      "name": "owner",
      "outputs": [
        {
          "internalType": "address",
          "name": "",
          "type": "address"
        }
      ],
      "stateMutability": "view",
      "type": "function"
    },
    {
      "inputs": [],
      "name": "renounceOwnership",
      "outputs": [],
      "stateMutability": "nonpayable",
      "type": "function"
    },
    {
      "inputs": [
        {
          "internalType": "address",
          "name": "newOwner",
          "type": "address"
        }
      ],
      "name": "transferOwnership",
      "outputs": [],
      "stateMutability": "nonpayable",
      "type": "function"
    },
    {
      "inputs": [
        {
          "internalType": "contract IExecutorWithTimelock",
          "name": "executor",
          "type": "address"
        },
        {
          "internalType": "address[]",
          "name": "targets",
          "type": "address[]"
        },
        {
          "internalType": "uint256[]",
          "name": "values",
          "type": "uint256[]"
        },
        {
          "internalType": "string[]",
          "name": "signatures",
          "type": "string[]"
        },
        {
          "internalType": "bytes[]",
          "name": "calldatas",
          "type": "bytes[]"
        },
        {
          "internalType": "bool[]",
          "name": "withDelegatecalls",
          "type": "bool[]"
        },
        {
          "internalType": "bytes32",
          "name": "ipfsHash",
          "type": "bytes32"
        }
      ],
      "name": "create",
      "outputs": [
        {
          "internalType": "uint256",
          "name": "",
          "type": "uint256"
        }
      ],
      "stateMutability": "nonpayable",
      "type": "function"
    },
    {
      "inputs": [
        {
          "internalType": "uint256",
          "name": "proposalId",
          "type": "uint256"
        }
      ],
      "name": "cancel",
      "outputs": [],
      "stateMutability": "nonpayable",
      "type": "function"
    },
    {
      "inputs": [
        {
          "internalType": "uint256",
          "name": "proposalId",
          "type": "uint256"
        }
      ],
      "name": "queue",
      "outputs": [],
      "stateMutability": "nonpayable",
      "type": "function"
    },
    {
      "inputs": [
        {
          "internalType": "uint256",
          "name": "proposalId",
          "type": "uint256"
        }
      ],
      "name": "execute",
      "outputs": [],
      "stateMutability": "payable",
      "type": "function"
    },
    {
      "inputs": [
        {
          "internalType": "address",
          "name": "tokenAddress",
          "type": "address"
        },
        {
          "internalType": "uint256",
          "name": "tokenAmount",
          "type": "uint256"
        },
        {
          "internalType": "uint256",
          "name": "proposalId",
          "type": "uint256"
        },
        {
          "internalType": "bool",
          "name": "support",
          "type": "bool"
        }
      ],
      "name": "submitVote",
      "outputs": [],
      "stateMutability": "nonpayable",
      "type": "function"
    },
    {
      "inputs": [
        {
          "internalType": "address",
          "name": "tokenAddress",
          "type": "address"
        },
        {
          "internalType": "uint256",
          "name": "tokenAmount",
          "type": "uint256"
        },
        {
          "internalType": "uint256",
          "name": "proposalId",
          "type": "uint256"
        },
        {
          "internalType": "bool",
          "name": "support",
          "type": "bool"
        },
        {
          "internalType": "uint8",
          "name": "v",
          "type": "uint8"
        },
        {
          "internalType": "bytes32",
          "name": "r",
          "type": "bytes32"
        },
        {
          "internalType": "bytes32",
          "name": "s",
          "type": "bytes32"
        }
      ],
      "name": "submitVoteBySignature",
      "outputs": [],
      "stateMutability": "nonpayable",
      "type": "function"
    },
    {
      "inputs": [
        {
          "internalType": "address",
          "name": "governanceStrategy",
          "type": "address"
        }
      ],
      "name": "setGovernanceStrategy",
      "outputs": [],
      "stateMutability": "nonpayable",
      "type": "function"
    },
    {
      "inputs": [
        {
          "internalType": "uint256",
          "name": "votingDelay",
          "type": "uint256"
        }
      ],
      "name": "setVotingDelay",
      "outputs": [],
      "stateMutability": "nonpayable",
      "type": "function"
    },
    {
      "inputs": [
        {
          "internalType": "address[]",
          "name": "executors",
          "type": "address[]"
        }
      ],
      "name": "authorizeExecutors",
      "outputs": [],
      "stateMutability": "nonpayable",
      "type": "function"
    },
    {
      "inputs": [
        {
          "internalType": "address[]",
          "name": "executors",
          "type": "address[]"
        }
      ],
      "name": "unauthorizeExecutors",
      "outputs": [],
      "stateMutability": "nonpayable",
      "type": "function"
    },
    {
      "inputs": [],
      "name": "__abdicate",
      "outputs": [],
      "stateMutability": "nonpayable",
      "type": "function"
    },
    {
      "inputs": [],
      "name": "getGovernanceStrategy",
      "outputs": [
        {
          "internalType": "address",
          "name": "",
          "type": "address"
        }
      ],
      "stateMutability": "view",
      "type": "function"
    },
    {
      "inputs": [],
      "name": "getVotingDelay",
      "outputs": [
        {
          "internalType": "uint256",
          "name": "",
          "type": "uint256"
        }
      ],
      "stateMutability": "view",
      "type": "function"
    },
    {
      "inputs": [
        {
          "internalType": "address",
          "name": "executor",
          "type": "address"
        }
      ],
      "name": "isExecutorAuthorized",
      "outputs": [
        {
          "internalType": "bool",
          "name": "",
          "type": "bool"
        }
      ],
      "stateMutability": "view",
      "type": "function"
    },
    {
      "inputs": [],
      "name": "getGuardian",
      "outputs": [
        {
          "internalType": "address",
          "name": "",
          "type": "address"
        }
      ],
      "stateMutability": "view",
      "type": "function"
    },
    {
      "inputs": [],
      "name": "getProposalsCount",
      "outputs": [
        {
          "internalType": "uint256",
          "name": "",
          "type": "uint256"
        }
      ],
      "stateMutability": "view",
      "type": "function"
    },
    {
      "inputs": [
        {
          "internalType": "uint256",
          "name": "proposalId",
          "type": "uint256"
        }
      ],
      "name": "getProposalById",
      "outputs": [
        {
          "components": [
            {
              "internalType": "uint256",
              "name": "id",
              "type": "uint256"
            },
            {
              "internalType": "address",
              "name": "creator",
              "type": "address"
            },
            {
              "internalType": "contract IExecutorWithTimelock",
              "name": "executor",
              "type": "address"
            },
            {
              "internalType": "address[]",
              "name": "targets",
              "type": "address[]"
            },
            {
              "internalType": "uint256[]",
              "name": "values",
              "type": "uint256[]"
            },
            {
              "internalType": "string[]",
              "name": "signatures",
              "type": "string[]"
            },
            {
              "internalType": "bytes[]",
              "name": "calldatas",
              "type": "bytes[]"
            },
            {
              "internalType": "bool[]",
              "name": "withDelegatecalls",
              "type": "bool[]"
            },
            {
              "internalType": "uint256",
              "name": "startBlock",
              "type": "uint256"
            },
            {
              "internalType": "uint256",
              "name": "endBlock",
              "type": "uint256"
            },
            {
              "internalType": "uint256",
              "name": "executionTime",
              "type": "uint256"
            },
            {
              "internalType": "uint256",
              "name": "forVotes",
              "type": "uint256"
            },
            {
              "internalType": "uint256",
              "name": "againstVotes",
              "type": "uint256"
            },
            {
              "internalType": "bool",
              "name": "executed",
              "type": "bool"
            },
            {
              "internalType": "bool",
              "name": "canceled",
              "type": "bool"
            },
            {
              "internalType": "address",
              "name": "strategy",
              "type": "address"
            },
            {
              "internalType": "bytes32",
              "name": "ipfsHash",
              "type": "bytes32"
            }
          ],
          "internalType": "struct IPopulousGovernanceV2.ProposalWithoutVotes",
          "name": "",
          "type": "tuple"
        }
      ],
      "stateMutability": "view",
      "type": "function"
    },
    {
      "inputs": [
        {
          "internalType": "uint256",
          "name": "proposalId",
          "type": "uint256"
        },
        {
          "internalType": "address",
          "name": "voter",
          "type": "address"
        }
      ],
      "name": "getVoteOnProposal",
      "outputs": [
        {
          "components": [
            {
              "internalType": "bool",
              "name": "support",
              "type": "bool"
            },
            {
              "internalType": "uint248",
              "name": "votingPower",
              "type": "uint248"
            }
          ],
          "internalType": "struct IPopulousGovernanceV2.Vote",
          "name": "",
          "type": "tuple"
        }
      ],
      "stateMutability": "view",
      "type": "function"
    },
    {
      "inputs": [
        {
          "internalType": "uint256",
          "name": "proposalId",
          "type": "uint256"
        }
      ],
      "name": "getProposalState",
      "outputs": [
        {
          "internalType": "enum IPopulousGovernanceV2.ProposalState",
          "name": "",
          "type": "uint8"
        }
      ],
      "stateMutability": "view",
      "type": "function"
    },
    {
      "inputs": [
        {
          "internalType": "address",
          "name": "tokenAddress",
          "type": "address"
        },
        {
          "internalType": "uint256",
          "name": "tokenAmount",
          "type": "uint256"
        },
        {
          "internalType": "uint256",
          "name": "proposalId",
          "type": "uint256"
        },
        {
          "internalType": "bool",
          "name": "support",
          "type": "bool"
        }
      ],
      "name": "getVotingOutcome",
      "outputs": [
        {
          "internalType": "uint256",
          "name": "",
          "type": "uint256"
        },
        {
          "internalType": "uint256",
          "name": "",
          "type": "uint256"
        },
        {
          "internalType": "uint256",
          "name": "",
          "type": "uint256"
        }
      ],
      "stateMutability": "view",
      "type": "function"
    },
    {
      "inputs": [
        {
          "internalType": "uint256",
          "name": "proposalId",
          "type": "uint256"
        },
        {
          "internalType": "address",
          "name": "voter",
          "type": "address"
        }
      ],
      "name": "getLockedTokens",
      "outputs": [
        {
          "components": [
            {
              "internalType": "address",
              "name": "tokenAddress",
              "type": "address"
            },
            {
              "internalType": "uint256",
              "name": "amount",
              "type": "uint256"
            }
          ],
          "internalType": "struct IPopulousGovernanceV2.LockedTokens",
          "name": "",
          "type": "tuple"
        }
      ],
      "stateMutability": "view",
      "type": "function"
    },
    {
      "inputs": [
        {
          "internalType": "uint256",
          "name": "proposalId",
          "type": "uint256"
        }
      ],
      "name": "redeemLockedTokens",
      "outputs": [],
      "stateMutability": "nonpayable",
      "type": "function"
    }
  ],
  "bytecode": "0x60806040523480156200001157600080fd5b50604051620049db380380620049db83398101604081905262000034916200041c565b600062000040620000ea565b600080546001600160a01b0319166001600160a01b0383169081178255604051929350917f8be0079c531659141344cd1fd0a4f28419497f9722a3daafe3b4186f6b6457e0908290a3506200009584620000ee565b620000a08362000155565b620000ab87620001a9565b620000b7868662000239565b600980546001600160a01b0319166001600160a01b038416179055620000dd81620002fe565b505050505050506200069f565b3390565b600180546001600160a01b0319166001600160a01b03831617905562000113620000ea565b6001600160a01b0316816001600160a01b03167f9e8e9f668db69a2cefb172dabe284d0d3aea2b7ee64212a205bd033bd03a3d5560405160405180910390a350565b600281905562000164620000ea565b6001600160a01b03167fc46fc23e244f0720a98ddbac6efb5bb40d212cf15e6478fc4b3017648715289d826040516200019e919062000672565b60405180910390a250565b6001600160a01b038116620001db5760405162461bcd60e51b8152600401620001d29062000568565b60405180910390fd5b600380546001600160a01b0319166001600160a01b0383811691909117918290556040517f392aa4d4c6804dae27d6bfa0c6430bba42833bed9c53833e7b7f2b2d7cc13aef926200022e9216906200053a565b60405180910390a150565b6001600160a01b038216620002625760405162461bcd60e51b8152600401620001d29062000615565b6001600160a01b0381166200028b5760405162461bcd60e51b8152600401620001d290620005b8565b600480546001600160a01b038085166001600160a01b0319928316179283905560058054858316931692909217918290556040517fb17851252d29a80a8ace9b26188567af63958a7cb31a5e32a09565d8f355d86f93620002f2939083169216906200054e565b60405180910390a15050565b62000308620000ea565b6000546001600160a01b039081169116146200036b576040805162461bcd60e51b815260206004820181905260248201527f4f776e61626c653a2063616c6c6572206973206e6f7420746865206f776e6572604482015290519081900360640190fd5b60005b8151811015620003a6576200039d8282815181106200038957fe5b6020026020010151620003aa60201b60201c565b6001016200036e565b5050565b6001600160a01b03811660009081526008602052604090819020805460ff19166001179055517f52762435f58790076157ea2a4914a5a4d0aa0eb421588891377692f7fd3bc082906200022e9083906200053a565b80516001600160a01b03811681146200041757600080fd5b919050565b600080600080600080600060e0888a03121562000437578283fd5b6200044288620003ff565b9650602062000453818a01620003ff565b96506200046360408a01620003ff565b95506200047360608a01620003ff565b9450608089015193506200048a60a08a01620003ff565b60c08a01519093506001600160401b0380821115620004a7578384fd5b818b0191508b601f830112620004bb578384fd5b815181811115620004c857fe5b8381029150620004da8483016200067b565b8082825285820191508585018f87868801011115620004f7578788fd5b8795505b8386101562000524576200050f81620003ff565b835260019590950194918601918601620004fb565b5080965050505050505092959891949750929550565b6001600160a01b0391909116815260200190565b6001600160a01b0392831681529116602082015260400190565b60208082526030908201527f476f7665726e616e63653a20736574566f74696e67746f6b656e3a20564f544960408201526f1391d7d513d2d153881253959053125160821b606082015260800190565b60208082526038908201527f476f7665726e616e63653a205f73657455736572546f6b656e733a205058542060408201527f544f4b454e204144445245535320495320494e56414c49440000000000000000606082015260800190565b60208082526038908201527f476f7665726e616e63653a205f73657455736572546f6b656e733a205050542060408201527f544f4b454e204144445245535320495320494e56414c49440000000000000000606082015260800190565b90815260200190565b6040518181016001600160401b03811182821017156200069757fe5b604052919050565b61432c80620006af6000396000f3fe6080604052600436106101d85760003560e01c8063760fbc1311610102578063a75b87d211610095578063ddf0b00911610064578063ddf0b00914610530578063f2fde38b14610550578063f8741a9c14610570578063fe0d94c114610590576101d8565b8063a75b87d21461049f578063a76a9a2f146104b4578063bd969ba3146104d4578063cdc35ef914610501576101d8565b80639aad6f6a116100d15780639aad6f6a14610433578063a2b170b014610453578063a3f4df7e14610468578063a4d822251461048a576101d8565b8063760fbc13146103c75780638da5cb5b146103dc5780639080936f146103f157806398e527d31461041e576101d8565b806340e58ee51161017a5780635877da45116101495780635877da451461035257806364c786d91461037257806370b0f66014610392578063715018a6146103b2576101d8565b806340e58ee5146102b85780634185ff83146102d85780634ef8cc1714610305578063548b514e14610325576101d8565b80631a1caf7f116101b65780631a1caf7f1461023257806320606b701461025457806334b18c26146102765780633656de211461028b576101d8565b806306be3e8e146101dd57806307c25b7d1461020857806307e8aaef1461021d575b600080fd5b3480156101e957600080fd5b506101f26105a3565b6040516101ff9190613490565b60405180910390f35b34801561021457600080fd5b506101f26105b2565b34801561022957600080fd5b506101f26105c1565b34801561023e57600080fd5b5061025261024d3660046130ae565b6105d0565b005b34801561026057600080fd5b5061026961065c565b6040516101ff919061359b565b34801561028257600080fd5b50610269610680565b34801561029757600080fd5b506102ab6102a6366004613276565b6106a4565b6040516101ff9190613f7b565b3480156102c457600080fd5b506102526102d3366004613276565b610a55565b3480156102e457600080fd5b506102f86102f336600461328e565b610d3a565b6040516101ff91906140d5565b34801561031157600080fd5b50610252610320366004612ff0565b610d93565b34801561033157600080fd5b50610345610340366004612fd4565b610dad565b6040516101ff9190613590565b34801561035e57600080fd5b5061025261036d366004613039565b610dcb565b34801561037e57600080fd5b5061025261038d3660046130ae565b610f79565b34801561039e57600080fd5b506102526103ad366004613276565b611001565b3480156103be57600080fd5b50610252611065565b3480156103d357600080fd5b50610252611107565b3480156103e857600080fd5b506101f2611153565b3480156103fd57600080fd5b5061041161040c366004613276565b611162565b6040516101ff919061362e565b34801561042a57600080fd5b5061026961134b565b34801561043f57600080fd5b5061025261044e366004612fd4565b611351565b34801561045f57600080fd5b506102696113b2565b34801561047457600080fd5b5061047d6113b8565b6040516101ff9190613642565b34801561049657600080fd5b506101f26113ea565b3480156104ab57600080fd5b506101f26113f9565b3480156104c057600080fd5b506102526104cf366004613276565b611408565b3480156104e057600080fd5b506104f46104ef36600461328e565b61174c565b6040516101ff9190613f5b565b34801561050d57600080fd5b5061052161051c366004612ff0565b611798565b6040516101ff939291906141ba565b34801561053c57600080fd5b5061025261054b366004613276565b61195f565b34801561055c57600080fd5b5061025261056b366004612fd4565b611c6a565b34801561057c57600080fd5b5061026961058b366004613190565b611d62565b61025261059e366004613276565b6120d2565b6001546001600160a01b031690565b6005546001600160a01b031681565b6004546001600160a01b031681565b6105d86122d8565b6000546001600160a01b03908116911614610628576040805162461bcd60e51b815260206004820181905260248201526000805160206142d7833981519152604482015290519081900360640190fd5b60005b81518110156106585761065082828151811061064357fe5b60200260200101516122dc565b60010161062b565b5050565b7f8cad95687ba82c2ce50e74f7b754645e5117c3a5bec8151c0726d5857980a86681565b7f4e031542a9553ed1c4e810c54674ab4b984243e335b246aa3de73663bf4c11ee81565b6106ac612a1c565b60008281526007602052604090206106c2612a1c565b60408051610220810182528354815260018401546001600160a01b0390811660208084019190915260028601549091168284015260038501805484518184028101840190955280855292936060850193909283018282801561074d57602002820191906000526020600020905b81546001600160a01b0316815260019091019060200180831161072f575b50505050508152602001836004018054806020026020016040519081016040528092919081815260200182805480156107a557602002820191906000526020600020905b815481526020019060010190808311610791575b5050505050815260200183600501805480602002602001604051908101604052809291908181526020016000905b8282101561087e5760008481526020908190208301805460408051601f600260001961010060018716150201909416939093049283018590048502810185019091528181529283018282801561086a5780601f1061083f5761010080835404028352916020019161086a565b820191906000526020600020905b81548152906001019060200180831161084d57829003601f168201915b5050505050815260200190600101906107d3565b50505050815260200183600601805480602002602001604051908101604052809291908181526020016000905b828210156109565760008481526020908190208301805460408051601f60026000196101006001871615020190941693909304928301859004850281018501909152818152928301828280156109425780601f1061091757610100808354040283529160200191610942565b820191906000526020600020905b81548152906001019060200180831161092557829003601f168201915b5050505050815260200190600101906108ab565b505050508152602001836007018054806020026020016040519081016040528092919081815260200182805480156109cd57602002820191906000526020600020906000905b825461010083900a900460ff16151581526020600192830181810494850194909303909202910180841161099c5790505b50505091835250506008840154602082015260098401546040820152600a8401546060820152600b8401546080820152600c84015460a0820152600d84015460ff808216151560c0840152610100808304909116151560e0840152620100009091046001600160a01b031690820152600e90930154610120909301929092525090505b919050565b6000610a6082611162565b90506007816007811115610a7057fe5b14158015610a8a57506001816007811115610a8757fe5b14155b8015610aa257506006816007811115610a9f57fe5b14155b610ac75760405162461bcd60e51b8152600401610abe9061391a565b60405180910390fd5b60008281526007602052604090206009546001600160a01b0316610ae96122d8565b6001600160a01b03161480610b845750600281015460018201546040516347293e6560e01b81526001600160a01b03928316926347293e6592610b3492309290911690600401613614565b60206040518083038186803b158015610b4c57600080fd5b505afa158015610b60573d6000803e3d6000fd5b505050506040513d601f19601f82011682018060405250810190610b8491906130e9565b610ba05760405162461bcd60e51b8152600401610abe90613752565b600d8101805461ff00191661010017905560005b6003820154811015610cfd5760028201546003830180546001600160a01b0390921691631dc40b51919084908110610be857fe5b6000918252602090912001546004850180546001600160a01b039092169185908110610c1057fe5b9060005260206000200154856005018581548110610c2a57fe5b90600052602060002001866006018681548110610c4357fe5b9060005260206000200187600a0154886007018881548110610c6157fe5b90600052602060002090602091828204019190069054906101000a900460ff166040518763ffffffff1660e01b8152600401610ca296959493929190613557565b602060405180830381600087803b158015610cbc57600080fd5b505af1158015610cd0573d6000803e3d6000fd5b505050506040513d601f19601f82011682018060405250810190610cf49190613105565b50600101610bb4565b507f789cf55be980739dad1d0699b93b58e806b51c9d96619bfa8fe0a28abaa7b30c83604051610d2d919061359b565b60405180910390a1505050565b610d42612ac2565b5060008281526007602090815260408083206001600160a01b0385168452600f0182529182902082518084019093525460ff81161515835261010090046001600160f81b0316908201525b92915050565b610da78484610da06122d8565b8585612337565b50505050565b6001600160a01b031660009081526008602052604090205460ff1690565b6040805180820190915260168152752837b83ab637bab99023b7bb32b93730b731b2903b1960511b60209091015260007f8cad95687ba82c2ce50e74f7b754645e5117c3a5bec8151c0726d5857980a8667f90d0e97d0675583859de66b0b508c48eebcdbecf06886b4366f8b83acdaff70b610e4561252b565b30604051602001610e5994939291906135d2565b604051602081830303815290604052805190602001207f4e031542a9553ed1c4e810c54674ab4b984243e335b246aa3de73663bf4c11ee89898989604051602001610ea89594939291906135a4565b60405160208183030381529060405280519060200120604051602001610ecf929190613475565b604051602081830303815290604052805190602001209050600060018286868660405160008152602001604052604051610f0c94939291906135f6565b6020604051602081039080840390855afa158015610f2e573d6000803e3d6000fd5b5050604051601f1901519150506001600160a01b038116610f615760405162461bcd60e51b8152600401610abe90613b1d565b610f6e8989838a8a612337565b505050505050505050565b610f816122d8565b6000546001600160a01b03908116911614610fd1576040805162461bcd60e51b815260206004820181905260248201526000805160206142d7833981519152604482015290519081900360640190fd5b60005b815181101561065857610ff9828281518110610fec57fe5b602002602001015161252f565b600101610fd4565b6110096122d8565b6000546001600160a01b03908116911614611059576040805162461bcd60e51b815260206004820181905260248201526000805160206142d7833981519152604482015290519081900360640190fd5b61106281612582565b50565b61106d6122d8565b6000546001600160a01b039081169116146110bd576040805162461bcd60e51b815260206004820181905260248201526000805160206142d7833981519152604482015290519081900360640190fd5b600080546040516001600160a01b03909116907f8be0079c531659141344cd1fd0a4f28419497f9722a3daafe3b4186f6b6457e0908390a3600080546001600160a01b0319169055565b6009546001600160a01b031661111b6122d8565b6001600160a01b0316146111415760405162461bcd60e51b8152600401610abe90613ad3565b600980546001600160a01b0319169055565b6000546001600160a01b031690565b60008160065410156111865760405162461bcd60e51b8152600401610abe90613a82565b6000828152600760205260409020600d810154610100900460ff16156111b0576001915050610a50565b806008015443116111c5576000915050610a50565b806009015443116111da576002915050610a50565b600081600c015482600b015401118015611275575060028101546040516306fbb3ab60e01b81526001600160a01b03909116906306fbb3ab9061122390309087906004016134ea565b60206040518083038186803b15801561123b57600080fd5b505afa15801561124f573d6000803e3d6000fd5b505050506040513d601f19601f8201168201806040525081019061127391906130e9565b155b15611284576003915050610a50565b600a810154611297576004915050610a50565b600d81015460ff16156112ae576007915050610a50565b600281015460405163f670a5f960e01b81526001600160a01b039091169063f670a5f9906112e290309087906004016134ea565b60206040518083038186803b1580156112fa57600080fd5b505afa15801561130e573d6000803e3d6000fd5b505050506040513d601f19601f8201168201806040525081019061133291906130e9565b15611341576006915050610a50565b6005915050610a50565b60065490565b6113596122d8565b6000546001600160a01b039081169116146113a9576040805162461bcd60e51b815260206004820181905260248201526000805160206142d7833981519152604482015290519081900360640190fd5b611062816125d2565b60025490565b604051806040016040528060168152602001752837b83ab637bab99023b7bb32b93730b731b2903b1960511b81525081565b6003546001600160a01b031681565b6009546001600160a01b031690565b600061141382611162565b600781111561141e57fe5b141580156114405750600261143282611162565b600781111561143d57fe5b14155b61145c5760405162461bcd60e51b8152600401610abe9061388c565b60006114666122d8565b600083815260076020526040808220600d01549051635da6a21b60e11b81529293509091620100009091046001600160a01b03169063bb4d4436906114af908590600401613490565b60206040518083038186803b1580156114c757600080fd5b505afa1580156114db573d6000803e3d6000fd5b505050506040513d601f19601f820116820180604052508101906114ff9190613105565b9050611509612ac2565b611513848461174c565b905060008160200151116115395760405162461bcd60e51b8152600401610abe90613dbf565b60008481526007602090815260408083206001600160a01b0380881685526010820190935290832060010183905560035490929116906115798787610d3a565b602001519050806001600160f81b03168510156115a85760405162461bcd60e51b8152600401610abe90613c23565b8351604051632770a7eb60e21b81526001600160a01b03841690639dc29fac906115d8908a9086906004016134c8565b602060405180830381600087803b1580156115f257600080fd5b505af1158015611606573d6000803e3d6000fd5b505050506040513d601f19601f8201168201806040525081019061162a91906130e9565b151560011461164b5760405162461bcd60e51b8152600401610abe90613e1c565b602085015160405163a9059cbb60e01b81526001600160a01b0383169163a9059cbb9161167c918b916004016134ea565b602060405180830381600087803b15801561169657600080fd5b505af11580156116aa573d6000803e3d6000fd5b505050506040513d601f19601f820116820180604052508101906116ce91906130e9565b15156001146116ef5760405162461bcd60e51b8152600401610abe90613ca6565b84600001516001600160a01b0316876001600160a01b03167f20eaecd96d36d2ea6564edf6426f0d3f7e6b9fc7bf120a9b854d9d2e5ef265f8876020015160405161173a919061359b565b60405180910390a35050505050505050565b611754612ac2565b5060009182526007602090815260408084206001600160a01b0393841685526010018252928390208351808501909452805490921683526001909101549082015290565b6000808060026117a786611162565b60078111156117b257fe5b146117cf5760405162461bcd60e51b8152600401610abe90613f10565b6117d7612a1c565b6117e0866106a4565b905060006117ec6122d8565b90506117f6612ac2565b5060008781526007602090815260408083206001600160a01b0385168452600f0182529182902082518084019093525460ff81161515835261010090046001600160f81b03169082018190521561185f5760405162461bcd60e51b8152600401610abe90613e71565b6000891161187f5760405162461bcd60e51b8152600401610abe90613bbb565b6004546001600160a01b038b8116911614806118a857506005546001600160a01b038b81169116145b6118c45760405162461bcd60e51b8152600401610abe90613d53565b6004546000906001600160a01b038c8116911614156118e4575088611908565b6005546001600160a01b038c811691161415611908576119058a6005612637565b90505b87156119295761016084015161191e9082612697565b610160850152611940565b6101808401516119399082612697565b6101808501525b61016084015161018090940151909b939a509850919650505050505050565b600461196a82611162565b600781111561197557fe5b146119925760405162461bcd60e51b8152600401610abe90613b71565b60008181526007602090815260408083206002810154825163675e4d4160e11b81529251919493611a2a936001600160a01b039092169263cebc9a82926004808201939291829003018186803b1580156119eb57600080fd5b505afa1580156119ff573d6000803e3d6000fd5b505050506040513d601f19601f82011682018060405250810190611a239190613105565b4290612697565b905060005b6003830154811015611c13576002830154600384018054611c0b926001600160a01b0316919084908110611a5f57fe5b6000918252602090912001546004860180546001600160a01b039092169185908110611a8757fe5b9060005260206000200154866005018581548110611aa157fe5b600091825260209182902001805460408051601f6002600019610100600187161502019094169390930492830185900485028101850190915281815292830182828015611b2f5780601f10611b0457610100808354040283529160200191611b2f565b820191906000526020600020905b815481529060010190602001808311611b1257829003601f168201915b5050505050876006018681548110611b4357fe5b600091825260209182902001805460408051601f6002600019610100600187161502019094169390930492830185900485028101850190915281815292830182828015611bd15780601f10611ba657610100808354040283529160200191611bd1565b820191906000526020600020905b815481529060010190602001808311611bb457829003601f168201915b505050505087896007018881548110611be657fe5b90600052602060002090602091828204019190069054906101000a900460ff166126f1565b600101611a2f565b50600a8201819055611c236122d8565b6001600160a01b03167f11a0b38e70585e4b09b794bd1d9f9b1a51a802eb8ee2101eeee178d0349e73fe8483604051611c5d9291906141ac565b60405180910390a2505050565b611c726122d8565b6000546001600160a01b03908116911614611cc2576040805162461bcd60e51b815260206004820181905260248201526000805160206142d7833981519152604482015290519081900360640190fd5b6001600160a01b038116611d075760405162461bcd60e51b81526004018080602001828103825260268152602001806142906026913960400191505060405180910390fd5b600080546040516001600160a01b03808516939216917f8be0079c531659141344cd1fd0a4f28419497f9722a3daafe3b4186f6b6457e091a3600080546001600160a01b0319166001600160a01b0392909216919091179055565b6000865160001415611d865760405162461bcd60e51b8152600401610abe90613a39565b85518751148015611d98575084518751145b8015611da5575083518751145b8015611db2575082518751145b611dce5760405162461bcd60e51b8152600401610abe906137f4565b611dd788610dad565b611df35760405162461bcd60e51b8152600401610abe90613ec5565b876001600160a01b0316630332f02530611e0b6122d8565b6040518363ffffffff1660e01b8152600401611e28929190613614565b60206040518083038186803b158015611e4057600080fd5b505afa158015611e54573d6000803e3d6000fd5b505050506040513d601f19601f82011682018060405250810190611e7891906130e9565b611e945760405162461bcd60e51b8152600401610abe90613d03565b611e9c612ad9565b600254611eaa904390612697565b816000018181525050611f2f896001600160a01b031663a438d2086040518163ffffffff1660e01b815260040160206040518083038186803b158015611eef57600080fd5b505afa158015611f03573d6000803e3d6000fd5b505050506040513d601f19601f82011682018060405250810190611f279190613105565b825190612697565b602080830191909152600654604080840182815260009283526007909352902090518155611f5b6122d8565b6001820180546001600160a01b03199081166001600160a01b0393841617909155600283018054909116918c169190911790558851611fa390600383019060208c0190612afa565b508751611fb990600483019060208b0190612b5f565b508651611fcf90600583019060208a0190612b9a565b508551611fe59060068301906020890190612bf3565b508451611ffb9060078301906020880190612c4c565b50815160088201556020820151600982015560018054600d8301805462010000600160b01b0319166001600160a01b039283166201000002179055600e8301869055600680549092019091558a166120516122d8565b6001600160a01b03167fd272d67d2c8c66de43c1d2515abb064978a5020c173e15903b6a2ab3bf7440ec84604001518c8c8c8c8c8a600001518b60200151600160009054906101000a90046001600160a01b03168f6040516120bc9a999897969594939291906140f7565b60405180910390a3549998505050505050505050565b60056120dd82611162565b60078111156120e857fe5b146121055760405162461bcd60e51b8152600401610abe90613842565b6000818152600760205260408120600d8101805460ff19166001179055905b600382015481101561228b5760028201546004830180546001600160a01b0390921691638902ab6591908490811061215857fe5b906000526020600020015484600301848154811061217257fe5b6000918252602090912001546004860180546001600160a01b03909216918690811061219a57fe5b90600052602060002001548660050186815481106121b457fe5b906000526020600020018760060187815481106121cd57fe5b9060005260206000200188600a01548960070189815481106121eb57fe5b90600052602060002090602091828204019190069054906101000a900460ff166040518863ffffffff1660e01b815260040161222c96959493929190613557565b6000604051808303818588803b15801561224557600080fd5b505af1158015612259573d6000803e3d6000fd5b50505050506040513d6000823e601f3d908101601f19168201604052612282919081019061311d565b50600101612124565b506122946122d8565b6001600160a01b03167f9c85b616f29fca57a17eafe71cf9ff82ffef41766e2cf01ea7f8f7878dd3ec24836040516122cc919061359b565b60405180910390a25050565b3390565b6001600160a01b03811660009081526008602052604090819020805460ff19169055517f5e8105a2af24345971359d2289f43efa80d093f4a7123561b8d63836b98724f49061232c908390613490565b60405180910390a150565b600061234283611162565b9050600281600781111561235257fe5b1461236f5760405162461bcd60e51b8152600401610abe906138d5565b60008381526007602090815260408083206001600160a01b0388168452600f8101909252909120805461010090046001600160f81b0316156123c35760405162461bcd60e51b8152600401610abe906137a6565b600087116123e35760405162461bcd60e51b8152600401610abe906136f5565b6004546001600160a01b038981169116148061240c57506005546001600160a01b038981169116145b6124285760405162461bcd60e51b8152600401610abe90613962565b6004546000906001600160a01b038a81169116141561245557508661245086888b848061284c565b612485565b6005546001600160a01b038a81169116141561248557612476886005612637565b905061248586888b8b8561284c565b84156124a457600b83015461249a9082612697565b600b8401556124b9565b600c8301546124b39082612697565b600c8401555b815460ff60ff1990911686151517166101006001600160f81b038316021782556040516001600160a01b038816907f0c611e7b6ae0de26f4772260e1bbdb5f58cbb7c275fe2de14671968d29add8d69061251890899089908690614196565b60405180910390a2505050505050505050565b4690565b6001600160a01b03811660009081526008602052604090819020805460ff19166001179055517f52762435f58790076157ea2a4914a5a4d0aa0eb421588891377692f7fd3bc0829061232c908390613490565b600281905561258f6122d8565b6001600160a01b03167fc46fc23e244f0720a98ddbac6efb5bb40d212cf15e6478fc4b3017648715289d826040516125c7919061359b565b60405180910390a250565b600180546001600160a01b0319166001600160a01b0383161790556125f56122d8565b6001600160a01b0316816001600160a01b03167f9e8e9f668db69a2cefb172dabe284d0d3aea2b7ee64212a205bd033bd03a3d5560405160405180910390a350565b60008261264657506000610d8d565b8282028284828161265357fe5b04146126905760405162461bcd60e51b81526004018080602001828103825260218152602001806142b66021913960400191505060405180910390fd5b9392505050565b600082820183811015612690576040805162461bcd60e51b815260206004820152601b60248201527f536166654d6174683a206164646974696f6e206f766572666c6f770000000000604482015290519081900360640190fd5b866001600160a01b031663b1fc879687878787878760405160200161271b96959493929190613503565b604051602081830303815290604052805190602001206040518263ffffffff1660e01b815260040161274d919061359b565b60206040518083038186803b15801561276557600080fd5b505afa158015612779573d6000803e3d6000fd5b505050506040513d601f19601f8201168201806040525081019061279d91906130e9565b156127ba5760405162461bcd60e51b8152600401610abe90613655565b604051638d8fe2e360e01b81526001600160a01b03881690638d8fe2e3906127f090899089908990899089908990600401613503565b602060405180830381600087803b15801561280a57600080fd5b505af115801561281e573d6000803e3d6000fd5b505050506040513d601f19601f820116820180604052508101906128429190613105565b5050505050505050565b60008581526007602090815260408083206001600160a01b03808916855260109091019092529182902060035492516323b872dd60e01b815290928216918691908216906323b872dd906128a8908a9030908a906004016134a4565b602060405180830381600087803b1580156128c257600080fd5b505af11580156128d6573d6000803e3d6000fd5b505050506040513d601f19601f820116820180604052508101906128fa91906130e9565b151560011461291b5760405162461bcd60e51b8152600401610abe906139c0565b82546001600160a01b0319166001600160a01b03878116919091178455600184018690556040516340c10f1960e01b8152908316906340c10f1990612966908a9088906004016134ea565b602060405180830381600087803b15801561298057600080fd5b505af1158015612994573d6000803e3d6000fd5b505050506040513d601f19601f820116820180604052508101906129b891906130e9565b15156001146129d95760405162461bcd60e51b8152600401610abe906136a1565b856001600160a01b0316876001600160a01b03167f87f4b5cc1d7b955dd69a5ce366fe29a7a5b9c644c277eeea72cf6659c2590ae88760405161173a919061359b565b6040518061022001604052806000815260200160006001600160a01b0316815260200160006001600160a01b031681526020016060815260200160608152602001606081526020016060815260200160608152602001600081526020016000815260200160008152602001600081526020016000815260200160001515815260200160001515815260200160006001600160a01b03168152602001600080191681525090565b604080518082019091526000808252602082015290565b60405180606001604052806000815260200160008152602001600081525090565b828054828255906000526020600020908101928215612b4f579160200282015b82811115612b4f57825182546001600160a01b0319166001600160a01b03909116178255602090920191600190910190612b1a565b50612b5b929150612ce8565b5090565b828054828255906000526020600020908101928215612b4f579160200282015b82811115612b4f578251825591602001919060010190612b7f565b828054828255906000526020600020908101928215612be7579160200282015b82811115612be75782518051612bd7918491602090910190612cfd565b5091602001919060010190612bba565b50612b5b929150612d78565b828054828255906000526020600020908101928215612c40579160200282015b82811115612c405782518051612c30918491602090910190612cfd565b5091602001919060010190612c13565b50612b5b929150612d95565b82805482825590600052602060002090601f01602090048101928215612b4f5791602002820160005b83821115612cb257835183826101000a81548160ff0219169083151502179055509260200192600101602081600001049283019260010302612c75565b8015612cdf5782816101000a81549060ff0219169055600101602081600001049283019260010302612cb2565b5050612b5b9291505b5b80821115612b5b5760008155600101612ce9565b828054600181600116156101000203166002900490600052602060002090601f016020900481019282612d335760008555612b4f565b82601f10612d4c57805160ff1916838001178555612b4f565b82800160010185558215612b4f5791820182811115612b4f578251825591602001919060010190612b7f565b80821115612b5b576000612d8c8282612db2565b50600101612d78565b80821115612b5b576000612da98282612db2565b50600101612d95565b50805460018160011615610100020316600290046000825580601f10612dd85750611062565b601f0160209004906000526020600020908101906110629190612ce8565b600082601f830112612e06578081fd5b8135612e19612e14826141f4565b6141d0565b818152915060208083019084810181840286018201871015612e3a57600080fd5b60005b84811015612e62578135612e508161426c565b84529282019290820190600101612e3d565b505050505092915050565b600082601f830112612e7d578081fd5b8135612e8b612e14826141f4565b818152915060208083019084810181840286018201871015612eac57600080fd5b60005b84811015612e62578135612ec281614281565b84529282019290820190600101612eaf565b600082601f830112612ee4578081fd5b8135612ef2612e14826141f4565b818152915060208083019084810160005b84811015612e62578135870188603f820112612f1e57600080fd5b83810135612f2e612e1482614212565b81815260408b81848601011115612f4457600080fd5b82818501888401375060009181018601919091528552509282019290820190600101612f03565b600082601f830112612f7b578081fd5b8135612f89612e14826141f4565b818152915060208083019084810181840286018201871015612faa57600080fd5b60005b84811015612e6257813584529282019290820190600101612fad565b8035610a508161426c565b600060208284031215612fe5578081fd5b81356126908161426c565b60008060008060808587031215613005578283fd5b84356130108161426c565b93506020850135925060408501359150606085013561302e81614281565b939692955090935050565b600080600080600080600060e0888a031215613053578283fd5b873561305e8161426c565b96506020880135955060408801359450606088013561307c81614281565b9350608088013560ff81168114613091578384fd5b9699959850939692959460a0840135945060c09093013592915050565b6000602082840312156130bf578081fd5b813567ffffffffffffffff8111156130d5578182fd5b6130e184828501612df6565b949350505050565b6000602082840312156130fa578081fd5b815161269081614281565b600060208284031215613116578081fd5b5051919050565b60006020828403121561312e578081fd5b815167ffffffffffffffff811115613144578182fd5b8201601f81018413613154578182fd5b8051613162612e1482614212565b818152856020838501011115613176578384fd5b613187826020830160208601614240565b95945050505050565b600080600080600080600060e0888a0312156131aa578081fd5b6131b388612fc9565b9650602088013567ffffffffffffffff808211156131cf578283fd5b6131db8b838c01612df6565b975060408a01359150808211156131f0578283fd5b6131fc8b838c01612f6b565b965060608a0135915080821115613211578283fd5b61321d8b838c01612ed4565b955060808a0135915080821115613232578283fd5b61323e8b838c01612ed4565b945060a08a0135915080821115613253578283fd5b506132608a828b01612e6d565b92505060c0880135905092959891949750929550565b600060208284031215613287578081fd5b5035919050565b600080604083850312156132a0578182fd5b8235915060208301356132b28161426c565b809150509250929050565b6001600160a01b03169052565b6000815180845260208085019450808401835b838110156133025781516001600160a01b0316875295820195908201906001016132dd565b509495945050505050565b6000815180845260208085019450808401835b83811015613302578151151587529582019590820190600101613320565b6000815180845260208085018081965082840281019150828601855b858110156133845782840389526133728483516133c6565b9885019893509084019060010161335a565b5091979650505050505050565b6000815180845260208085019450808401835b83811015613302578151875295820195908201906001016133a4565b15159052565b600081518084526133de816020860160208601614240565b601f01601f19169290920160200192915050565b60008154600180821660008114613410576001811461342e5761346c565b60028304607f16865260ff198316602087015260408601935061346c565b6002830480875261343e86614234565b60005b828110156134625781546020828b0101528482019150602081019050613441565b8801602001955050505b50505092915050565b61190160f01b81526002810192909252602282015260420190565b6001600160a01b0391909116815260200190565b6001600160a01b039384168152919092166020820152604081019190915260600190565b6001600160a01b039290921682526001600160f81b0316602082015260400190565b6001600160a01b03929092168252602082015260400190565b600060018060a01b038816825286602083015260c0604083015261352a60c08301876133c6565b828103606084015261353c81876133c6565b6080840195909552505090151560a090910152949350505050565b600060018060a01b038816825286602083015260c0604083015261357e60c08301876133f2565b828103606084015261353c81876133f2565b901515815260200190565b90815260200190565b9485526001600160a01b03939093166020850152604084019190915260608301521515608082015260a00190565b938452602084019290925260408301526001600160a01b0316606082015260800190565b93845260ff9290921660208401526040830152606082015260800190565b6001600160a01b0392831681529116602082015260400190565b602081016008831061363c57fe5b91905290565b60006020825261269060208301846133c6565b6020808252602c908201527f476f7665726e616e63653a2071756575654f725265766572743a204455504c4960408201526b21a0aa22a22fa0a1aa24a7a760a11b606082015260800190565b60208082526034908201527f476f7665726e616e63653a20746f6b656e53776170416e644c6f636b3a20564f6040820152731511481513d2d15394c81393d50813525395115160621b606082015260800190565b6020808252603c908201527f476f7665726e616e63653a207375626d6974566f74653a20544f4b454e20414d60408201527f4f554e5420544f2053574150204d5553542042452041424f5645203000000000606082015260800190565b60208082526034908201527f476f7665726e616e63653a2063616e63656c3a2050524f504f534954494f4e5f60408201527310d05390d1531310551253d397d253959053125160621b606082015260800190565b6020808252602e908201527f476f7665726e616e63653a207375626d6974566f74653a20564f54455f414c5260408201526d1150511657d4d55093525515115160921b606082015260800190565b6020808252602e908201527f476f7665726e616e63653a206372656174653a20494e434f4e53495354454e5460408201526d0bea082a4829aa6be988a9c8ea8960931b606082015260800190565b6020808252602a908201527f476f7665726e616e63653a20657865637574653a204f4e4c595f5155455545446040820152695f50524f504f53414c5360b01b606082015260800190565b60208082526029908201527f476f7665726e616e63653a20676574566f74696e674f7574636f6d653a20564f6040820152682a24a723afa7a822a760b91b606082015260800190565b60208082526025908201527f476f7665726e616e63653a207375626d6974566f74653a20564f54494e475f436040820152641313d4d15160da1b606082015260800190565b60208082526028908201527f476f7665726e616e63653a2063616e63656c3a204f4e4c595f4245464f52455f60408201526711561150d555115160c21b606082015260800190565b602080825260409082018190527f476f7665726e616e63653a207375626d6974566f74653a20544f4b454e5f4144908201527f4452455353204d55535420424520505054204f522050585420544f20564f5445606082015260800190565b60208082526053908201527f476f7665726e616e63653a20746f6b656e53776170416e644c6f636b3a20544f60408201527f4b454e205452414e534645525f46524f4d204641494c45442c20434845434b20606082015272109053105390d14813d4881054141493d59053606a1b608082015260a00190565b60208082526029908201527f476f7665726e616e63653a206372656174653a20494e56414c49445f454d5054604082015268595f5441524745545360b81b606082015260800190565b60208082526031908201527f476f7665726e616e63653a2067657450726f706f73616c53746174653a20494e604082015270159053125117d41493d413d4d05317d251607a1b606082015260800190565b6020808252602a908201527f476f7665726e616e63653a206f6e6c79477561726469616e3a204f4e4c595f426040820152692cafa3aaa0a92224a0a760b11b606082015260800190565b60208082526034908201527f476f7665726e616e63653a207375626d6974566f746542795369676e61747572604082015273653a20494e56414c49445f5349474e415455524560601b606082015260800190565b6020808252602a908201527f476f7665726e616e63653a2071756575653a20494e56414c49445f53544154456040820152695f464f525f515545554560b01b606082015260800190565b60208082526042908201527f476f7665726e616e63653a20676574566f74696e674f7574636f6d653a20544f60408201527f4b454e20414d4f554e5420544f2053574150204d5553542042452041424f5645606082015261020360f41b608082015260a00190565b60208082526057908201527f476f7665726e616e63653a2072656465656d4c6f636b6564546f6b656e733a2060408201527f564f54494e4720504f574552204d5553542042452041424f5645206f7220455160608201527f55414c20544f20564f5445204f4e2050524f504f53414c000000000000000000608082015260a00190565b6020808252603e908201527f476f7665726e616e63653a2072656465656d4c6f636b6564546f6b656e733a2060408201527f4c4f434b454420544f4b454e53204e4f542053454e5420544f20555345520000606082015260800190565b60208082526030908201527f476f7665726e616e63653a206372656174653a2050524f504f534954494f4e5f60408201526f10d49150551253d397d253959053125160821b606082015260800190565b60208082526046908201527f476f7665726e616e63653a20676574566f74696e674f7574636f6d653a20544f60408201527f4b454e5f41444452455353204d55535420424520505054204f522050585420546060820152654f20564f544560d01b608082015260a00190565b60208082526038908201527f476f7665726e616e63653a72656465656d4c6f636b6564546f6b656e733a207560408201527f73657220686173206e6f206c6f636b656420746f6b656e730000000000000000606082015260800190565b60208082526035908201527f476f7665726e616e63653a2072656465656d4c6f636b6564546f6b656e733a206040820152741593d511481513d2d15394c81393d5081095549395605a1b606082015260800190565b60208082526034908201527f476f7665726e616e63653a20676574566f74696e674f7574636f6d653a20564f604082015273151157d053149150511657d4d55093525515115160621b606082015260800190565b6020808252602b908201527f476f7665726e616e63653a206372656174653a204558454355544f525f4e4f5460408201526a17d055551213d49256915160aa1b606082015260800190565b6020808252602b908201527f476f7665726e616e63653a20676574566f74696e674f7574636f6d653a20564f60408201526a15125391d7d0d313d4d15160aa1b606082015260800190565b81516001600160a01b031681526020918201519181019190915260400190565b600060208252825160208301526020830151613f9a60408401826132bd565b506040830151613fad60608401826132bd565b506060830151610220806080850152613fca6102408501836132ca565b91506080850151601f19808685030160a0870152613fe88483613391565b935060a08701519150808685030160c0870152614005848361333e565b935060c08701519150808685030160e0870152614022848361333e565b935060e08701519150610100818786030181880152614041858461330d565b90880151610120888101919091528801516101408089019190915288015161016080890191909152880151610180808901919091528801516101a08089019190915288015190945091506101c0905061409c818701836133c0565b86015190506101e06140b0868201836133c0565b86015190506102006140c4868201836132bd565b959095015193019290925250919050565b8151151581526020918201516001600160f81b03169181019190915260400190565b60006101408c83528060208401526141118184018d6132ca565b90508281036040840152614125818c613391565b90508281036060840152614139818b61333e565b9050828103608084015261414d818a61333e565b905082810360a0840152614161818961330d565b60c0840197909752505060e08101939093526001600160a01b0391909116610100830152610120909101529695505050505050565b9283529015156020830152604082015260600190565b918252602082015260400190565b9283526020830191909152604082015260600190565b60405181810167ffffffffffffffff811182821017156141ec57fe5b604052919050565b600067ffffffffffffffff82111561420857fe5b5060209081020190565b600067ffffffffffffffff82111561422657fe5b50601f01601f191660200190565b60009081526020902090565b60005b8381101561425b578181015183820152602001614243565b83811115610da75750506000910152565b6001600160a01b038116811461106257600080fd5b801515811461106257600080fdfe4f776e61626c653a206e6577206f776e657220697320746865207a65726f2061646472657373536166654d6174683a206d756c7469706c69636174696f6e206f766572666c6f774f776e61626c653a2063616c6c6572206973206e6f7420746865206f776e6572a264697066735822122063158bed2e3c4a0a08100c543f33a503fc029601fd9d5e75638c4acc7f55390a64736f6c63430007050033",
  "immutableReferences": {},
  "source": "// SPDX-License-Identifier: agpl-3.0\npragma solidity 0.7.5;\npragma abicoder v2;\n\nimport {IVotingStrategy} from '../interfaces/IVotingStrategy.sol';\nimport {IExecutorWithTimelock} from '../interfaces/IExecutorWithTimelock.sol';\nimport {IProposalValidator} from '../interfaces/IProposalValidator.sol';\nimport {IGovernanceStrategy} from '../interfaces/IGovernanceStrategy.sol';\nimport {IPopulousGovernanceV2} from '../interfaces/IPopulousGovernanceV2.sol';\nimport {Ownable} from '../dependencies/open-zeppelin/Ownable.sol';\nimport {SafeMath} from '../dependencies/open-zeppelin/SafeMath.sol';\nimport {isContract, getChainId} from '../misc/Helpers.sol';\nimport {MockVotingToken} from '../MockVotingToken.sol';\nimport {IERC20Detailed} from '../interfaces/IERC20Detailed.sol';\n\n/**\n * @title Governance V2 contract\n * @dev Main point of interaction with Populous protocol's governance\n * - Create a Proposal\n * - Cancel a Proposal\n * - Queue a Proposal\n * - Execute a Proposal\n * - Submit Vote to a Proposal\n * Proposal States : Pending => Active => Succeeded(/Failed) => Queued => Executed(/Expired)\n *                   The transition to \"Canceled\" can appear in multiple states\n * @author Populous\n **/\ncontract PopulousGovernanceV2 is Ownable, IPopulousGovernanceV2 {\n  using SafeMath for uint256;\n\n  address private _governanceStrategy;\n  uint256 private _votingDelay;\n\n  address public _votingToken;\n  address public _PPT;\n  address public _PXT;\n\n  uint256 private _proposalsCount;\n  mapping(uint256 => Proposal) private _proposals;\n  mapping(address => bool) private _authorizedExecutors;\n\n  address private _guardian;\n\n  bytes32 public constant DOMAIN_TYPEHASH = keccak256(\n    'EIP712Domain(string name,uint256 chainId,address verifyingContract)'\n  );\n  bytes32 public constant VOTE_EMITTED_TYPEHASH = keccak256('VoteEmitted(uint256 id,bool support)');\n  string public constant NAME = 'Populous Governance v2';\n\n  modifier onlyGuardian() {\n    require(_msgSender() == _guardian, 'Governance: onlyGuardian: ONLY_BY_GUARDIAN');\n    _;\n  }\n\n  // todo - check for bugs with using different governance strategy address\n  // for each proposal in unit tests\n  constructor (\n    address votingToken,\n    address ppt,\n    address pxt,\n    address governanceStrategy,\n    uint256 votingDelay,\n    address guardian,\n    address[] memory executors\n  ) {\n    _setGovernanceStrategy(governanceStrategy);\n    _setVotingDelay(votingDelay);\n    _setVotingToken(votingToken);\n    _setUserTokens(ppt, pxt);\n    _guardian = guardian;\n    \n    authorizeExecutors(executors);\n  }\n\n  struct CreateVars {\n    uint256 startBlock;\n    uint256 endBlock;\n    uint256 previousProposalsCount;\n  }\n\n  /**\n   * @dev Creates a Proposal (needs to be validated by the Proposal Validator)\n   * @param executor The ExecutorWithTimelock contract that will execute the proposal\n   * @param targets list of contracts called by proposal's associated transactions\n   * @param values list of value in wei for each propoposal's associated transaction\n   * @param signatures list of function signatures (can be empty) to be used when created the callData\n   * @param calldatas list of calldatas: if associated signature empty, calldata ready, else calldata is arguments\n   * @param withDelegatecalls boolean, true = transaction delegatecalls the taget, else calls the target\n   * @param ipfsHash IPFS hash of the proposal\n   **/\n  function create(\n    IExecutorWithTimelock executor,\n    address[] memory targets,\n    uint256[] memory values,\n    string[] memory signatures,\n    bytes[] memory calldatas,\n    bool[] memory withDelegatecalls,\n    bytes32 ipfsHash\n  ) external override returns (uint256) {\n    require(targets.length != 0, 'Governance: create: INVALID_EMPTY_TARGETS');\n    require(\n      targets.length == values.length &&\n        targets.length == signatures.length &&\n        targets.length == calldatas.length &&\n        targets.length == withDelegatecalls.length,\n      'Governance: create: INCONSISTENT_PARAMS_LENGTH'\n    );\n\n    require(isExecutorAuthorized(address(executor)), 'Governance: create: EXECUTOR_NOT_AUTHORIZED');\n\n    require(\n      // proposition token is based on pxt and proposition token\n      // and does not need locking or swap with voting tokens\n      IProposalValidator(address(executor)).validateCreatorOfProposal(\n        this,\n        _msgSender()\n      ),\n      'Governance: create: PROPOSITION_CREATION_INVALID'\n    );\n\n    CreateVars memory vars;\n\n    vars.startBlock = block.number.add(_votingDelay);\n    vars.endBlock = vars.startBlock.add(IProposalValidator(address(executor)).VOTING_DURATION());\n\n    vars.previousProposalsCount = _proposalsCount;\n\n    Proposal storage newProposal = _proposals[vars.previousProposalsCount];\n    newProposal.id = vars.previousProposalsCount;\n    newProposal.creator = _msgSender();\n    newProposal.executor = executor;\n    newProposal.targets = targets;\n    newProposal.values = values;\n    newProposal.signatures = signatures;\n    newProposal.calldatas = calldatas;\n    newProposal.withDelegatecalls = withDelegatecalls;\n    newProposal.startBlock = vars.startBlock;\n    newProposal.endBlock = vars.endBlock;\n    newProposal.strategy = _governanceStrategy;\n    newProposal.ipfsHash = ipfsHash;\n    _proposalsCount++;\n\n    emit ProposalCreated(\n      vars.previousProposalsCount,\n      _msgSender(),\n      executor,\n      targets,\n      values,\n      signatures,\n      calldatas,\n      withDelegatecalls,\n      vars.startBlock,\n      vars.endBlock,\n      _governanceStrategy,\n      ipfsHash\n    );\n\n    return newProposal.id;\n  }\n\n  /**\n   * @dev Cancels a Proposal.\n   * - Callable by the _guardian with relaxed conditions, or by anybody if the conditions of\n   *   cancellation on the executor are fulfilled\n   * @param proposalId id of the proposal\n   **/\n  function cancel(uint256 proposalId) external override {\n    ProposalState state = getProposalState(proposalId);\n    require(\n      state != ProposalState.Executed &&\n        state != ProposalState.Canceled &&\n        state != ProposalState.Expired,\n      'Governance: cancel: ONLY_BEFORE_EXECUTED'\n    );\n\n    Proposal storage proposal = _proposals[proposalId];\n    require(\n      _msgSender() == _guardian ||\n        IProposalValidator(address(proposal.executor)).validateProposalCancellation(\n          this,\n          proposal.creator\n        ),\n      'Governance: cancel: PROPOSITION_CANCELLATION_INVALID'\n    );\n    proposal.canceled = true;\n    for (uint256 i = 0; i < proposal.targets.length; i++) {\n      proposal.executor.cancelTransaction(\n        proposal.targets[i],\n        proposal.values[i],\n        proposal.signatures[i],\n        proposal.calldatas[i],\n        proposal.executionTime,\n        proposal.withDelegatecalls[i]\n      );\n    }\n\n    emit ProposalCanceled(proposalId);\n  }\n\n  /**\n   * @dev Queue the proposal (If Proposal Succeeded)\n   * @param proposalId id of the proposal to queue\n   **/\n  function queue(uint256 proposalId) external override {\n    require(getProposalState(proposalId) == ProposalState.Succeeded, 'Governance: queue: INVALID_STATE_FOR_QUEUE');\n    Proposal storage proposal = _proposals[proposalId];\n    uint256 executionTime = block.timestamp.add(proposal.executor.getDelay());\n    for (uint256 i = 0; i < proposal.targets.length; i++) {\n      _queueOrRevert(\n        proposal.executor,\n        proposal.targets[i],\n        proposal.values[i],\n        proposal.signatures[i],\n        proposal.calldatas[i],\n        executionTime,\n        proposal.withDelegatecalls[i]\n      );\n    }\n    proposal.executionTime = executionTime;\n\n    emit ProposalQueued(proposalId, executionTime, _msgSender());\n  }\n\n  /**\n   * @dev Execute the proposal (If Proposal Queued)\n   * @param proposalId id of the proposal to execute\n   **/\n  function execute(uint256 proposalId) external payable override {\n    require(getProposalState(proposalId) == ProposalState.Queued, 'Governance: execute: ONLY_QUEUED_PROPOSALS');\n    Proposal storage proposal = _proposals[proposalId];\n    proposal.executed = true;\n    for (uint256 i = 0; i < proposal.targets.length; i++) {\n      proposal.executor.executeTransaction{value: proposal.values[i]}(\n        proposal.targets[i],\n        proposal.values[i],\n        proposal.signatures[i],\n        proposal.calldatas[i],\n        proposal.executionTime,\n        proposal.withDelegatecalls[i]\n      );\n    }\n    emit ProposalExecuted(proposalId, _msgSender());\n  }\n\n  /**\n   * @dev Function allowing msg.sender to vote for/against a proposal\n   * @param tokenAddress the address of the token to use to vote\n   * tokenAddress must be PPT or PXT and user balance of tokenAddress\n   * must be greater than zero\n   * @param tokenAmount the amount of tokens to use as voting power\n   * @param proposalId id of the proposal\n   * @param support boolean, true = vote for, false = vote against\n   **/\n  function submitVote(\n    address tokenAddress, \n    uint256 tokenAmount,\n    uint256 proposalId, \n    bool support\n    ) external override {\n    return \n    _submitVote(\n      tokenAddress, tokenAmount, _msgSender(), proposalId, support\n    );\n  }\n\n  /**\n   * @dev Function to register the vote of user that has voted offchain via signature\n   * @param tokenAddress the address of the token to use to vote\n   * tokenAddress must be PPT or PXT and user balance of tokenAddress\n   * must be greater than zero\n   * @param tokenAmount the amount of tokens to use as voting power\n   * @param proposalId id of the proposal\n   * @param support boolean, true = vote for, false = vote against\n   * @param v v part of the voter signature\n   * @param r r part of the voter signature\n   * @param s s part of the voter signature\n   **/\n  function submitVoteBySignature(\n    address tokenAddress, \n    uint256 tokenAmount,\n    uint256 proposalId,\n    bool support,\n    uint8 v,\n    bytes32 r,\n    bytes32 s\n  ) external override {\n    bytes32 digest = keccak256(\n      abi.encodePacked(\n        '\\x19\\x01',\n        keccak256(abi.encode(DOMAIN_TYPEHASH, keccak256(bytes(NAME)), getChainId(), address(this))),\n        keccak256(abi.encode(VOTE_EMITTED_TYPEHASH, tokenAddress, tokenAmount, proposalId, support))\n      )\n    );\n    address signer = ecrecover(digest, v, r, s);\n    require(signer != address(0), 'Governance: submitVoteBySignature: INVALID_SIGNATURE');\n    _submitVote(\n      tokenAddress, tokenAmount, signer, proposalId, support\n    );\n  }\n\n  /**\n   * @dev Set new GovernanceStrategy\n   * Note: owner should be a timelocked executor, so needs to make a proposal\n   * @param governanceStrategy new Address of the GovernanceStrategy contract\n   **/\n  function setGovernanceStrategy(address governanceStrategy) external override onlyOwner {\n    _setGovernanceStrategy(governanceStrategy);\n  }\n\n  /**\n   * @dev Set new Voting Delay (delay before a newly created proposal can be voted on)\n   * Note: owner should be a timelocked executor, so needs to make a proposal\n   * @param votingDelay new voting delay in terms of blocks\n   **/\n  function setVotingDelay(uint256 votingDelay) external override onlyOwner {\n    _setVotingDelay(votingDelay);\n  }\n\n  /**\n   * @dev Add new addresses to the list of authorized executors\n   * @param executors list of new addresses to be authorized executors\n   **/\n  function authorizeExecutors(address[] memory executors) public override onlyOwner {\n    for (uint256 i = 0; i < executors.length; i++) {\n      _authorizeExecutor(executors[i]);\n    }\n  }\n\n  /**\n   * @dev Remove addresses to the list of authorized executors\n   * @param executors list of addresses to be removed as authorized executors\n   **/\n  function unauthorizeExecutors(address[] memory executors) public override onlyOwner {\n    for (uint256 i = 0; i < executors.length; i++) {\n      _unauthorizeExecutor(executors[i]);\n    }\n  }\n\n  /**\n   * @dev Let the guardian abdicate from its priviledged rights\n   **/\n  function __abdicate() external override onlyGuardian {\n    _guardian = address(0);\n  }\n\n  /**\n   * @dev Getter of the current GovernanceStrategy address\n   * @return The address of the current GovernanceStrategy contracts\n   **/\n  function getGovernanceStrategy() external view override returns (address) {\n    return _governanceStrategy;\n  }\n\n  /**\n   * @dev Getter of the current Voting Delay (delay before a created proposal can be voted on)\n   * Different from the voting duration\n   * @return The voting delay in number of blocks\n   **/\n  function getVotingDelay() external view override returns (uint256) {\n    return _votingDelay;\n  }\n\n  /**\n   * @dev Returns whether an address is an authorized executor\n   * @param executor address to evaluate as authorized executor\n   * @return true if authorized\n   **/\n  function isExecutorAuthorized(address executor) public view override returns (bool) {\n    return _authorizedExecutors[executor];\n  }\n\n  /**\n   * @dev Getter the address of the guardian, that can mainly cancel proposals\n   * @return The address of the guardian\n   **/\n  function getGuardian() external view override returns (address) {\n    return _guardian;\n  }\n\n  /**\n   * @dev Getter of the proposal count (the current number of proposals ever created)\n   * @return the proposal count\n   **/\n  function getProposalsCount() external view override returns (uint256) {\n    return _proposalsCount;\n  }\n\n  /**\n   * @dev Getter of a proposal by id\n   * @param proposalId id of the proposal to get\n   * @return the proposal as ProposalWithoutVotes memory object\n   **/\n  function getProposalById(uint256 proposalId)\n    public\n    view\n    override\n    returns (ProposalWithoutVotes memory)\n  {\n    Proposal storage proposal = _proposals[proposalId];\n    ProposalWithoutVotes memory proposalWithoutVotes = ProposalWithoutVotes({\n      id: proposal.id,\n      creator: proposal.creator,\n      executor: proposal.executor,\n      targets: proposal.targets,\n      values: proposal.values,\n      signatures: proposal.signatures,\n      calldatas: proposal.calldatas,\n      withDelegatecalls: proposal.withDelegatecalls,\n      startBlock: proposal.startBlock,\n      endBlock: proposal.endBlock,\n      executionTime: proposal.executionTime,\n      forVotes: proposal.forVotes,\n      againstVotes: proposal.againstVotes,\n      executed: proposal.executed,\n      canceled: proposal.canceled,\n      strategy: proposal.strategy,\n      ipfsHash: proposal.ipfsHash\n    });\n\n    return proposalWithoutVotes;\n  }\n\n  /**\n   * @dev Getter of the Vote of a voter about a proposal\n   * Note: Vote is a struct: ({bool support, uint248 votingPower})\n   * @param proposalId id of the proposal\n   * @param voter address of the voter\n   * @return The associated Vote memory object\n   **/\n  function getVoteOnProposal(uint256 proposalId, address voter)\n    public\n    view\n    override\n    returns (Vote memory)\n  {\n    return _proposals[proposalId].votes[voter];\n  }\n\n  /**\n   * @dev Get the current state of a proposal\n   * @param proposalId id of the proposal\n   * @return The current state of the proposal\n   **/\n  function getProposalState(uint256 proposalId) public view override returns (ProposalState) {\n    require(_proposalsCount >= proposalId, 'Governance: getProposalState: INVALID_PROPOSAL_ID');\n    Proposal storage proposal = _proposals[proposalId];\n    if (proposal.canceled) {\n      return ProposalState.Canceled;\n    } else if (block.number <= proposal.startBlock) {\n      return ProposalState.Pending;\n    } else if (block.number <= proposal.endBlock) {\n      return ProposalState.Active;\n    } else if (\n      //todo - check\n        (proposal.forVotes + proposal.againstVotes) > 0 &&\n        !IProposalValidator(address(proposal.executor)).isProposalPassed(this, proposalId)\n      ) \n    {\n      return ProposalState.Failed;\n    } else if (proposal.executionTime == 0) {\n      return ProposalState.Succeeded;\n    } else if (proposal.executed) {\n      return ProposalState.Executed;\n    } else if (proposal.executor.isProposalOverGracePeriod(this, proposalId)) {\n      return ProposalState.Expired;\n    } else {\n      return ProposalState.Queued;\n    }\n  }\n\n  function _queueOrRevert(\n    IExecutorWithTimelock executor,\n    address target,\n    uint256 value,\n    string memory signature,\n    bytes memory callData,\n    uint256 executionTime,\n    bool withDelegatecall\n  ) internal {\n    require(\n      !executor.isActionQueued(\n        keccak256(abi.encode(target, value, signature, callData, executionTime, withDelegatecall))\n      ),\n      'Governance: queueOrRevert: DUPLICATED_ACTION'\n    );\n    executor.queueTransaction(target, value, signature, callData, executionTime, withDelegatecall);\n  }\n\n  function _submitVote(\n    address tokenAddress,\n    uint256 tokenAmount,\n    address voter,\n    uint256 proposalId,\n    bool support\n  ) internal {\n    ProposalState state = getProposalState(proposalId);\n    require(state == ProposalState.Active, 'Governance: submitVote: VOTING_CLOSED');\n    Proposal storage proposal = _proposals[proposalId];\n    Vote storage vote = proposal.votes[voter];\n    \n    require(vote.votingPower == 0, 'Governance: submitVote: VOTE_ALREADY_SUBMITTED');\n    \n    require(tokenAmount > 0, 'Governance: submitVote: TOKEN AMOUNT TO SWAP MUST BE ABOVE 0');\n    require(\n      (tokenAddress == _PPT) || \n      (tokenAddress == _PXT),\n      'Governance: submitVote: TOKEN_ADDRESS MUST BE PPT OR PXT TO VOTE'\n    );\n\n    uint256 votingPower = 0;\n\n    if (tokenAddress == _PPT) {\n      votingPower = tokenAmount; // to issue 1-1 for PPT\n      _tokenSwapAndLock(\n        proposalId, voter, \n        tokenAddress, tokenAmount, \n        votingPower\n      );\n    } else if (tokenAddress == _PXT) {\n      votingPower = tokenAmount.mul(5);\n      _tokenSwapAndLock(\n        proposalId, voter, \n        tokenAddress, tokenAmount, \n        votingPower // to issue x5 for PXT\n      ); \n    }\n\n    if (support) {\n      proposal.forVotes = proposal.forVotes.add(votingPower);\n    } else {\n      proposal.againstVotes = proposal.againstVotes.add(votingPower);\n    }\n\n    vote.support = support;\n    vote.votingPower = uint248(votingPower);\n\n    emit VoteEmitted(proposalId, voter, support, votingPower);\n  }\n\n  function _tokenSwapAndLock(\n    uint256 proposalId,\n    address voter,\n    address tokenAddress, \n    uint256 tokenAmount, \n    uint256 votingPower\n    ) internal {\n    LockedTokens storage lockedTokens = _proposals[proposalId].lockedTokens[voter];\n    MockVotingToken voteToken = MockVotingToken(_votingToken);\n    IERC20Detailed userToken = IERC20Detailed(tokenAddress);\n    require(\n        userToken.transferFrom(voter, address(this), tokenAmount) == true,\n        'Governance: tokenSwapAndLock: TOKEN TRANSFER_FROM FAILED, CHECK BALANCE OR APPROVAL'\n    );\n    lockedTokens.tokenAddress =  tokenAddress;\n    lockedTokens.amount = tokenAmount;\n    require(\n      voteToken.mint(voter, votingPower) == true,\n      'Governance: tokenSwapAndLock: VOTE TOKENS NOT MINTED'\n    );\n\n    emit TokensLockedForVoting(voter, tokenAddress, tokenAmount);\n  }\n\n  function _setGovernanceStrategy(address governanceStrategy) internal {\n    _governanceStrategy = governanceStrategy;\n\n    emit GovernanceStrategyChanged(governanceStrategy, _msgSender());\n  }\n\n  function _setVotingDelay(uint256 votingDelay) internal {\n    _votingDelay = votingDelay;\n\n    emit VotingDelayChanged(votingDelay, _msgSender());\n  }\n\n  function _setVotingToken(address votingToken) internal {\n    require(votingToken != address(0), \"Governance: setVotingtoken: VOTING_TOKEN INVALID\");\n    _votingToken = votingToken;\n    emit VotingTokenSet(_votingToken);\n  }\n\n  function _authorizeExecutor(address executor) internal {\n    _authorizedExecutors[executor] = true;\n    emit ExecutorAuthorized(executor);\n  }\n\n  function _unauthorizeExecutor(address executor) internal {\n    _authorizedExecutors[executor] = false;\n    emit ExecutorUnauthorized(executor);\n  }\n\n  function _setUserTokens(address ppt, address pxt) internal {\n    require(\n      (ppt != address(0)),\n      //&& (IERC20Detailed(ppt).totalSupply() > 0), \n      'Governance: _setUserTokens: PPT TOKEN ADDRESS IS INVALID'\n    );\n\n    require(\n      (pxt != address(0)),\n      //&& (IERC20Detailed(pxt).totalSupply() > 0), \n      'Governance: _setUserTokens: PXT TOKEN ADDRESS IS INVALID'\n    );\n    \n    _PPT = ppt;\n    _PXT = pxt;\n\n    emit UserTokensSet(_PPT, _PXT);\n  }\n\n  /**\n   * @dev View function allowing msg.sender to view how their voting power\n   * could change the outcome of the proposal. \n   * The proposal must be pending or active\n   * @param tokenAddress the address of the token to use to vote\n   * tokenAddress must be PPT or PXT and user balance of tokenAddress\n   * must be greater than zero\n   * @param tokenAmount the amount of tokens to use as voting power\n   * @param proposalId id of the proposal\n   * @param support boolean, true = vote for, false = vote against\n   * @return votingPower, for votes and against votes\n   **/\n  function getVotingOutcome(\n    address tokenAddress, \n    uint256 tokenAmount,\n    uint256 proposalId, \n    bool support\n  ) external view override returns (uint256, uint256, uint256) {\n    require(getProposalState(proposalId) == ProposalState.Active, 'Governance: getVotingOutcome: VOTING_CLOSED');\n    ProposalWithoutVotes memory proposal = getProposalById(proposalId);\n    address voter = _msgSender();\n    Vote memory vote = _proposals[proposalId].votes[voter];\n\n    require(vote.votingPower == 0, 'Governance: getVotingOutcome: VOTE_ALREADY_SUBMITTED');\n    require(tokenAmount > 0, 'Governance: getVotingOutcome: TOKEN AMOUNT TO SWAP MUST BE ABOVE 0');\n    require(\n      (tokenAddress == _PPT) || \n      (tokenAddress == _PXT),\n      'Governance: getVotingOutcome: TOKEN_ADDRESS MUST BE PPT OR PXT TO VOTE'\n    );\n\n    uint256 votingPower = 0;\n\n    if (tokenAddress == _PPT) {\n      votingPower = tokenAmount;\n    } else if (tokenAddress == _PXT) {\n      votingPower = tokenAmount.mul(5);\n    }\n    \n    if (support) {\n      proposal.forVotes = proposal.forVotes.add(votingPower);\n    } else {\n      proposal.againstVotes = proposal.againstVotes.add(votingPower);\n    }\n\n    return (votingPower, proposal.forVotes, proposal.againstVotes);\n  }\n\n  /**\n   * @dev Getter function to get tokens locked in proposal for user\n   * by proposal id\n   * @param proposalId id of the proposal to get\n   * @param voter address of the voter\n   * @return the amount of tokens locked and token address\n   **/\n  function getLockedTokens(uint256 proposalId, address voter) \n  public \n  view \n  override \n  returns(LockedTokens memory) {\n    return _proposals[proposalId].lockedTokens[voter];\n  }\n\n  /**\n   * @dev Function to redeem tokens locked in proposal for user\n   * by proposal id\n   * @param proposalId id of the proposal to get\n   **/\n  function redeemLockedTokens(\n    uint256 proposalId\n  ) external override {\n    require(\n      getProposalState(proposalId) != ProposalState.Pending &&\n      getProposalState(proposalId) != ProposalState.Active, \n      'Governance: getVotingOutcome: VOTING_OPEN'\n    );\n\n    address voter = _msgSender();\n    uint256 votingPower = IVotingStrategy(_proposals[proposalId].strategy).getVotingPower(\n      voter    \n    );\n    \n    LockedTokens memory lockTokens = getLockedTokens(proposalId, voter);\n    require(lockTokens.amount > 0, \"Governance:redeemLockedTokens: user has no locked tokens\");\n    \n    Proposal storage proposal = _proposals[proposalId];\n    proposal.lockedTokens[voter].amount = 0;\n\n    MockVotingToken voteToken = MockVotingToken(_votingToken);\n    uint248 voteOnProposal = getVoteOnProposal(proposalId, voter).votingPower;\n    require(votingPower >= voteOnProposal, 'Governance: redeemLockedTokens: VOTING POWER MUST BE ABOVE or EQUAL TO VOTE ON PROPOSAL');\n    \n    IERC20Detailed userToken = IERC20Detailed(lockTokens.tokenAddress);\n  \n    require(\n      voteToken.burn(voter, voteOnProposal) == true,\n      'Governance: redeemLockedTokens: VOTE TOKENS NOT BURNT'\n    );\n\n    require(\n      userToken.transfer(voter, lockTokens.amount) == true,\n      'Governance: redeemLockedTokens: LOCKED TOKENS NOT SENT TO USER'\n    );\n    \n    emit LockedTokensRedeemed(voter, lockTokens.tokenAddress, lockTokens.amount);\n  }\n\n}\n",
  "sourcePath": "/Users/nemitariajienka/Desktop/projects/populous/Populous-DeFi-governance/contracts/governance/PopulousGovernanceV2.sol",
  "compiler": {
    "name": "solc",
    "version": "0.7.5+commit.eb77ed08.Emscripten.clang"
  },
  "schemaVersion": "3.3.3",
  "updatedAt": "2021-05-16T18:15:33.752Z",
  "devdoc": {
    "author": "Populous*",
    "details": "Main point of interaction with Populous protocol's governance - Create a Proposal - Cancel a Proposal - Queue a Proposal - Execute a Proposal - Submit Vote to a Proposal Proposal States : Pending => Active => Succeeded(/Failed) => Queued => Executed(/Expired)                   The transition to \"Canceled\" can appear in multiple states",
    "kind": "dev",
    "methods": {
      "__abdicate()": {
        "details": "Let the guardian abdicate from its priviledged rights*"
      },
      "authorizeExecutors(address[])": {
        "details": "Add new addresses to the list of authorized executors",
        "params": {
          "executors": "list of new addresses to be authorized executors*"
        }
      },
      "cancel(uint256)": {
        "details": "Cancels a Proposal. - Callable by the _guardian with relaxed conditions, or by anybody if the conditions of   cancellation on the executor are fulfilled",
        "params": {
          "proposalId": "id of the proposal*"
        }
      },
      "create(address,address[],uint256[],string[],bytes[],bool[],bytes32)": {
        "details": "Creates a Proposal (needs to be validated by the Proposal Validator)",
        "params": {
          "calldatas": "list of calldatas: if associated signature empty, calldata ready, else calldata is arguments",
          "executor": "The ExecutorWithTimelock contract that will execute the proposal",
          "ipfsHash": "IPFS hash of the proposal*",
          "signatures": "list of function signatures (can be empty) to be used when created the callData",
          "targets": "list of contracts called by proposal's associated transactions",
          "values": "list of value in wei for each propoposal's associated transaction",
          "withDelegatecalls": "boolean, true = transaction delegatecalls the taget, else calls the target"
        }
      },
      "execute(uint256)": {
        "details": "Execute the proposal (If Proposal Queued)",
        "params": {
          "proposalId": "id of the proposal to execute*"
        }
      },
      "getGovernanceStrategy()": {
        "details": "Getter of the current GovernanceStrategy address",
        "returns": {
          "_0": "The address of the current GovernanceStrategy contracts*"
        }
      },
      "getGuardian()": {
        "details": "Getter the address of the guardian, that can mainly cancel proposals",
        "returns": {
          "_0": "The address of the guardian*"
        }
      },
      "getLockedTokens(uint256,address)": {
        "details": "Getter function to get tokens locked in proposal for user by proposal id",
        "params": {
          "proposalId": "id of the proposal to get",
          "voter": "address of the voter"
        },
        "returns": {
          "_0": "the amount of tokens locked and token address*"
        }
      },
      "getProposalById(uint256)": {
        "details": "Getter of a proposal by id",
        "params": {
          "proposalId": "id of the proposal to get"
        },
        "returns": {
          "_0": "the proposal as ProposalWithoutVotes memory object*"
        }
      },
      "getProposalState(uint256)": {
        "details": "Get the current state of a proposal",
        "params": {
          "proposalId": "id of the proposal"
        },
        "returns": {
          "_0": "The current state of the proposal*"
        }
      },
      "getProposalsCount()": {
        "details": "Getter of the proposal count (the current number of proposals ever created)",
        "returns": {
          "_0": "the proposal count*"
        }
      },
      "getVoteOnProposal(uint256,address)": {
        "details": "Getter of the Vote of a voter about a proposal Note: Vote is a struct: ({bool support, uint248 votingPower})",
        "params": {
          "proposalId": "id of the proposal",
          "voter": "address of the voter"
        },
        "returns": {
          "_0": "The associated Vote memory object*"
        }
      },
      "getVotingDelay()": {
        "details": "Getter of the current Voting Delay (delay before a created proposal can be voted on) Different from the voting duration",
        "returns": {
          "_0": "The voting delay in number of blocks*"
        }
      },
      "getVotingOutcome(address,uint256,uint256,bool)": {
        "details": "View function allowing msg.sender to view how their voting power could change the outcome of the proposal.  The proposal must be pending or active",
        "params": {
          "proposalId": "id of the proposal",
          "support": "boolean, true = vote for, false = vote against",
          "tokenAddress": "the address of the token to use to vote tokenAddress must be PPT or PXT and user balance of tokenAddress must be greater than zero",
          "tokenAmount": "the amount of tokens to use as voting power"
        },
        "returns": {
          "_0": "votingPower, for votes and against votes*"
        }
      },
      "isExecutorAuthorized(address)": {
        "details": "Returns whether an address is an authorized executor",
        "params": {
          "executor": "address to evaluate as authorized executor"
        },
        "returns": {
          "_0": "true if authorized*"
        }
      },
      "owner()": {
        "details": "Returns the address of the current owner."
      },
      "queue(uint256)": {
        "details": "Queue the proposal (If Proposal Succeeded)",
        "params": {
          "proposalId": "id of the proposal to queue*"
        }
      },
      "redeemLockedTokens(uint256)": {
        "details": "Function to redeem tokens locked in proposal for user by proposal id",
        "params": {
          "proposalId": "id of the proposal to get*"
        }
      },
      "renounceOwnership()": {
        "details": "Leaves the contract without owner. It will not be possible to call `onlyOwner` functions anymore. Can only be called by the current owner. NOTE: Renouncing ownership will leave the contract without an owner, thereby removing any functionality that is only available to the owner."
      },
      "setGovernanceStrategy(address)": {
        "details": "Set new GovernanceStrategy Note: owner should be a timelocked executor, so needs to make a proposal",
        "params": {
          "governanceStrategy": "new Address of the GovernanceStrategy contract*"
        }
      },
      "setVotingDelay(uint256)": {
        "details": "Set new Voting Delay (delay before a newly created proposal can be voted on) Note: owner should be a timelocked executor, so needs to make a proposal",
        "params": {
          "votingDelay": "new voting delay in terms of blocks*"
        }
      },
      "submitVote(address,uint256,uint256,bool)": {
        "details": "Function allowing msg.sender to vote for/against a proposal",
        "params": {
          "proposalId": "id of the proposal",
          "support": "boolean, true = vote for, false = vote against*",
          "tokenAddress": "the address of the token to use to vote tokenAddress must be PPT or PXT and user balance of tokenAddress must be greater than zero",
          "tokenAmount": "the amount of tokens to use as voting power"
        }
      },
      "submitVoteBySignature(address,uint256,uint256,bool,uint8,bytes32,bytes32)": {
        "details": "Function to register the vote of user that has voted offchain via signature",
        "params": {
          "proposalId": "id of the proposal",
          "r": "r part of the voter signature",
          "s": "s part of the voter signature*",
          "support": "boolean, true = vote for, false = vote against",
          "tokenAddress": "the address of the token to use to vote tokenAddress must be PPT or PXT and user balance of tokenAddress must be greater than zero",
          "tokenAmount": "the amount of tokens to use as voting power",
          "v": "v part of the voter signature"
        }
      },
      "transferOwnership(address)": {
        "details": "Transfers ownership of the contract to a new account (`newOwner`). Can only be called by the current owner."
      },
      "unauthorizeExecutors(address[])": {
        "details": "Remove addresses to the list of authorized executors",
        "params": {
          "executors": "list of addresses to be removed as authorized executors*"
        }
      }
    },
    "title": "Governance V2 contract",
    "version": 1
  },
  "userdoc": {
    "kind": "user",
    "methods": {},
    "version": 1
  }
}