{
  "contractName": "PopulousGovernanceV3",
  "abi": [
    {
      "anonymous": false,
      "inputs": [
        {
          "indexed": false,
          "internalType": "address",
          "name": "executor",
          "type": "address"
        }
      ],
      "name": "ExecutorAuthorized",
      "type": "event"
    },
    {
      "anonymous": false,
      "inputs": [
        {
          "indexed": false,
          "internalType": "address",
          "name": "executor",
          "type": "address"
        }
      ],
      "name": "ExecutorUnauthorized",
      "type": "event"
    },
    {
      "anonymous": false,
      "inputs": [
        {
          "indexed": true,
          "internalType": "address",
          "name": "newStrategy",
          "type": "address"
        },
        {
          "indexed": true,
          "internalType": "address",
          "name": "initiatorChange",
          "type": "address"
        }
      ],
      "name": "GovernanceStrategyChanged",
      "type": "event"
    },
    {
      "anonymous": false,
      "inputs": [
        {
          "indexed": true,
          "internalType": "address",
          "name": "voter",
          "type": "address"
        },
        {
          "indexed": true,
          "internalType": "address",
          "name": "tokenAddress",
          "type": "address"
        },
        {
          "indexed": false,
          "internalType": "uint256",
          "name": "tokenAmount",
          "type": "uint256"
        }
      ],
      "name": "LockedTokensRedeemed",
      "type": "event"
    },
    {
      "anonymous": false,
      "inputs": [
        {
          "indexed": true,
          "internalType": "address",
          "name": "previousOwner",
          "type": "address"
        },
        {
          "indexed": true,
          "internalType": "address",
          "name": "newOwner",
          "type": "address"
        }
      ],
      "name": "OwnershipTransferred",
      "type": "event"
    },
    {
      "anonymous": false,
      "inputs": [
        {
          "indexed": false,
          "internalType": "uint256",
          "name": "id",
          "type": "uint256"
        }
      ],
      "name": "ProposalCanceled",
      "type": "event"
    },
    {
      "anonymous": false,
      "inputs": [
        {
          "indexed": false,
          "internalType": "uint256",
          "name": "id",
          "type": "uint256"
        },
        {
          "indexed": true,
          "internalType": "address",
          "name": "creator",
          "type": "address"
        },
        {
          "indexed": true,
          "internalType": "contract IExecutorWithTimelock",
          "name": "executor",
          "type": "address"
        },
        {
          "indexed": false,
          "internalType": "address[]",
          "name": "targets",
          "type": "address[]"
        },
        {
          "indexed": false,
          "internalType": "uint256[]",
          "name": "values",
          "type": "uint256[]"
        },
        {
          "indexed": false,
          "internalType": "string[]",
          "name": "signatures",
          "type": "string[]"
        },
        {
          "indexed": false,
          "internalType": "bytes[]",
          "name": "calldatas",
          "type": "bytes[]"
        },
        {
          "indexed": false,
          "internalType": "bool[]",
          "name": "withDelegatecalls",
          "type": "bool[]"
        },
        {
          "indexed": false,
          "internalType": "uint256",
          "name": "startBlock",
          "type": "uint256"
        },
        {
          "indexed": false,
          "internalType": "uint256",
          "name": "endBlock",
          "type": "uint256"
        },
        {
          "indexed": false,
          "internalType": "address",
          "name": "strategy",
          "type": "address"
        },
        {
          "indexed": false,
          "internalType": "bytes32",
          "name": "ipfsHash",
          "type": "bytes32"
        }
      ],
      "name": "ProposalCreated",
      "type": "event"
    },
    {
      "anonymous": false,
      "inputs": [
        {
          "indexed": false,
          "internalType": "uint256",
          "name": "id",
          "type": "uint256"
        },
        {
          "indexed": true,
          "internalType": "address",
          "name": "initiatorExecution",
          "type": "address"
        }
      ],
      "name": "ProposalExecuted",
      "type": "event"
    },
    {
      "anonymous": false,
      "inputs": [
        {
          "indexed": false,
          "internalType": "uint256",
          "name": "id",
          "type": "uint256"
        },
        {
          "indexed": false,
          "internalType": "uint256",
          "name": "executionTime",
          "type": "uint256"
        },
        {
          "indexed": true,
          "internalType": "address",
          "name": "initiatorQueueing",
          "type": "address"
        }
      ],
      "name": "ProposalQueued",
      "type": "event"
    },
    {
      "anonymous": false,
      "inputs": [
        {
          "indexed": true,
          "internalType": "address",
          "name": "voter",
          "type": "address"
        },
        {
          "indexed": true,
          "internalType": "address",
          "name": "tokenAddress",
          "type": "address"
        },
        {
          "indexed": false,
          "internalType": "uint256",
          "name": "tokenAmount",
          "type": "uint256"
        }
      ],
      "name": "TokensLockedForVoting",
      "type": "event"
    },
    {
      "anonymous": false,
      "inputs": [
        {
          "indexed": false,
          "internalType": "address",
          "name": "PPT",
          "type": "address"
        },
        {
          "indexed": false,
          "internalType": "address",
          "name": "PXT",
          "type": "address"
        }
      ],
      "name": "UserTokensSet",
      "type": "event"
    },
    {
      "anonymous": false,
      "inputs": [
        {
          "indexed": false,
          "internalType": "uint256",
          "name": "id",
          "type": "uint256"
        },
        {
          "indexed": true,
          "internalType": "address",
          "name": "voter",
          "type": "address"
        },
        {
          "indexed": false,
          "internalType": "bool",
          "name": "support",
          "type": "bool"
        },
        {
          "indexed": false,
          "internalType": "uint256",
          "name": "votingPower",
          "type": "uint256"
        }
      ],
      "name": "VoteEmitted",
      "type": "event"
    },
    {
      "anonymous": false,
      "inputs": [
        {
          "indexed": false,
          "internalType": "uint256",
          "name": "newVotingDelay",
          "type": "uint256"
        },
        {
          "indexed": true,
          "internalType": "address",
          "name": "initiatorChange",
          "type": "address"
        }
      ],
      "name": "VotingDelayChanged",
      "type": "event"
    },
    {
      "anonymous": false,
      "inputs": [
        {
          "indexed": false,
          "internalType": "address",
          "name": "token",
          "type": "address"
        }
      ],
      "name": "VotingTokenSet",
      "type": "event"
    },
    {
      "inputs": [],
      "name": "DOMAIN_TYPEHASH",
      "outputs": [
        {
          "internalType": "bytes32",
          "name": "",
          "type": "bytes32"
        }
      ],
      "stateMutability": "view",
      "type": "function"
    },
    {
      "inputs": [],
      "name": "GOVERNANCE_REVISION",
      "outputs": [
        {
          "internalType": "uint256",
          "name": "",
          "type": "uint256"
        }
      ],
      "stateMutability": "view",
      "type": "function"
    },
    {
      "inputs": [],
      "name": "NAME",
      "outputs": [
        {
          "internalType": "string",
          "name": "",
          "type": "string"
        }
      ],
      "stateMutability": "view",
      "type": "function"
    },
    {
      "inputs": [],
      "name": "VOTE_EMITTED_TYPEHASH",
      "outputs": [
        {
          "internalType": "bytes32",
          "name": "",
          "type": "bytes32"
        }
      ],
      "stateMutability": "view",
      "type": "function"
    },
    {
      "inputs": [],
      "name": "_PPT",
      "outputs": [
        {
          "internalType": "address",
          "name": "",
          "type": "address"
        }
      ],
      "stateMutability": "view",
      "type": "function"
    },
    {
      "inputs": [],
      "name": "_PXT",
      "outputs": [
        {
          "internalType": "address",
          "name": "",
          "type": "address"
        }
      ],
      "stateMutability": "view",
      "type": "function"
    },
    {
      "inputs": [],
      "name": "_owner",
      "outputs": [
        {
          "internalType": "address",
          "name": "",
          "type": "address"
        }
      ],
      "stateMutability": "view",
      "type": "function"
    },
    {
      "inputs": [],
      "name": "_votingToken",
      "outputs": [
        {
          "internalType": "address",
          "name": "",
          "type": "address"
        }
      ],
      "stateMutability": "view",
      "type": "function"
    },
    {
      "inputs": [],
      "name": "owner",
      "outputs": [
        {
          "internalType": "address",
          "name": "",
          "type": "address"
        }
      ],
      "stateMutability": "view",
      "type": "function"
    },
    {
      "inputs": [],
      "name": "renounceOwnership",
      "outputs": [],
      "stateMutability": "nonpayable",
      "type": "function"
    },
    {
      "inputs": [
        {
          "internalType": "address",
          "name": "newOwner",
          "type": "address"
        }
      ],
      "name": "transferOwnership",
      "outputs": [],
      "stateMutability": "nonpayable",
      "type": "function"
    },
    {
      "inputs": [
        {
          "internalType": "address",
          "name": "votingToken",
          "type": "address"
        },
        {
          "internalType": "address",
          "name": "ppt",
          "type": "address"
        },
        {
          "internalType": "address",
          "name": "pxt",
          "type": "address"
        },
        {
          "internalType": "address",
          "name": "governanceStrategy",
          "type": "address"
        },
        {
          "internalType": "uint256",
          "name": "votingDelay",
          "type": "uint256"
        },
        {
          "internalType": "address",
          "name": "guardian",
          "type": "address"
        },
        {
          "internalType": "address[]",
          "name": "executors",
          "type": "address[]"
        }
      ],
      "name": "initialize",
      "outputs": [],
      "stateMutability": "nonpayable",
      "type": "function"
    },
    {
      "inputs": [
        {
          "internalType": "contract IExecutorWithTimelock",
          "name": "executor",
          "type": "address"
        },
        {
          "internalType": "address[]",
          "name": "targets",
          "type": "address[]"
        },
        {
          "internalType": "uint256[]",
          "name": "values",
          "type": "uint256[]"
        },
        {
          "internalType": "string[]",
          "name": "signatures",
          "type": "string[]"
        },
        {
          "internalType": "bytes[]",
          "name": "calldatas",
          "type": "bytes[]"
        },
        {
          "internalType": "bool[]",
          "name": "withDelegatecalls",
          "type": "bool[]"
        },
        {
          "internalType": "bytes32",
          "name": "ipfsHash",
          "type": "bytes32"
        }
      ],
      "name": "create",
      "outputs": [
        {
          "internalType": "uint256",
          "name": "",
          "type": "uint256"
        }
      ],
      "stateMutability": "nonpayable",
      "type": "function"
    },
    {
      "inputs": [
        {
          "internalType": "uint256",
          "name": "proposalId",
          "type": "uint256"
        }
      ],
      "name": "cancel",
      "outputs": [],
      "stateMutability": "nonpayable",
      "type": "function"
    },
    {
      "inputs": [
        {
          "internalType": "uint256",
          "name": "proposalId",
          "type": "uint256"
        }
      ],
      "name": "queue",
      "outputs": [],
      "stateMutability": "nonpayable",
      "type": "function"
    },
    {
      "inputs": [
        {
          "internalType": "uint256",
          "name": "proposalId",
          "type": "uint256"
        }
      ],
      "name": "execute",
      "outputs": [],
      "stateMutability": "payable",
      "type": "function"
    },
    {
      "inputs": [
        {
          "internalType": "address",
          "name": "tokenAddress",
          "type": "address"
        },
        {
          "internalType": "uint256",
          "name": "tokenAmount",
          "type": "uint256"
        },
        {
          "internalType": "uint256",
          "name": "proposalId",
          "type": "uint256"
        },
        {
          "internalType": "bool",
          "name": "support",
          "type": "bool"
        }
      ],
      "name": "submitVote",
      "outputs": [],
      "stateMutability": "nonpayable",
      "type": "function"
    },
    {
      "inputs": [
        {
          "internalType": "address",
          "name": "tokenAddress",
          "type": "address"
        },
        {
          "internalType": "uint256",
          "name": "tokenAmount",
          "type": "uint256"
        },
        {
          "internalType": "uint256",
          "name": "proposalId",
          "type": "uint256"
        },
        {
          "internalType": "bool",
          "name": "support",
          "type": "bool"
        },
        {
          "internalType": "uint8",
          "name": "v",
          "type": "uint8"
        },
        {
          "internalType": "bytes32",
          "name": "r",
          "type": "bytes32"
        },
        {
          "internalType": "bytes32",
          "name": "s",
          "type": "bytes32"
        }
      ],
      "name": "submitVoteBySignature",
      "outputs": [],
      "stateMutability": "nonpayable",
      "type": "function"
    },
    {
      "inputs": [
        {
          "internalType": "address",
          "name": "governanceStrategy",
          "type": "address"
        }
      ],
      "name": "setGovernanceStrategy",
      "outputs": [],
      "stateMutability": "nonpayable",
      "type": "function"
    },
    {
      "inputs": [
        {
          "internalType": "uint256",
          "name": "votingDelay",
          "type": "uint256"
        }
      ],
      "name": "setVotingDelay",
      "outputs": [],
      "stateMutability": "nonpayable",
      "type": "function"
    },
    {
      "inputs": [
        {
          "internalType": "address[]",
          "name": "executors",
          "type": "address[]"
        }
      ],
      "name": "authorizeExecutors",
      "outputs": [],
      "stateMutability": "nonpayable",
      "type": "function"
    },
    {
      "inputs": [
        {
          "internalType": "address[]",
          "name": "executors",
          "type": "address[]"
        }
      ],
      "name": "unauthorizeExecutors",
      "outputs": [],
      "stateMutability": "nonpayable",
      "type": "function"
    },
    {
      "inputs": [],
      "name": "__abdicate",
      "outputs": [],
      "stateMutability": "nonpayable",
      "type": "function"
    },
    {
      "inputs": [],
      "name": "getGovernanceStrategy",
      "outputs": [
        {
          "internalType": "address",
          "name": "",
          "type": "address"
        }
      ],
      "stateMutability": "view",
      "type": "function"
    },
    {
      "inputs": [],
      "name": "getVotingDelay",
      "outputs": [
        {
          "internalType": "uint256",
          "name": "",
          "type": "uint256"
        }
      ],
      "stateMutability": "view",
      "type": "function"
    },
    {
      "inputs": [
        {
          "internalType": "address",
          "name": "executor",
          "type": "address"
        }
      ],
      "name": "isExecutorAuthorized",
      "outputs": [
        {
          "internalType": "bool",
          "name": "",
          "type": "bool"
        }
      ],
      "stateMutability": "view",
      "type": "function"
    },
    {
      "inputs": [],
      "name": "getGuardian",
      "outputs": [
        {
          "internalType": "address",
          "name": "",
          "type": "address"
        }
      ],
      "stateMutability": "view",
      "type": "function"
    },
    {
      "inputs": [],
      "name": "getProposalsCount",
      "outputs": [
        {
          "internalType": "uint256",
          "name": "",
          "type": "uint256"
        }
      ],
      "stateMutability": "view",
      "type": "function"
    },
    {
      "inputs": [
        {
          "internalType": "uint256",
          "name": "proposalId",
          "type": "uint256"
        }
      ],
      "name": "getProposalById",
      "outputs": [
        {
          "components": [
            {
              "internalType": "uint256",
              "name": "id",
              "type": "uint256"
            },
            {
              "internalType": "address",
              "name": "creator",
              "type": "address"
            },
            {
              "internalType": "contract IExecutorWithTimelock",
              "name": "executor",
              "type": "address"
            },
            {
              "internalType": "address[]",
              "name": "targets",
              "type": "address[]"
            },
            {
              "internalType": "uint256[]",
              "name": "values",
              "type": "uint256[]"
            },
            {
              "internalType": "string[]",
              "name": "signatures",
              "type": "string[]"
            },
            {
              "internalType": "bytes[]",
              "name": "calldatas",
              "type": "bytes[]"
            },
            {
              "internalType": "bool[]",
              "name": "withDelegatecalls",
              "type": "bool[]"
            },
            {
              "internalType": "uint256",
              "name": "startBlock",
              "type": "uint256"
            },
            {
              "internalType": "uint256",
              "name": "endBlock",
              "type": "uint256"
            },
            {
              "internalType": "uint256",
              "name": "executionTime",
              "type": "uint256"
            },
            {
              "internalType": "uint256",
              "name": "forVotes",
              "type": "uint256"
            },
            {
              "internalType": "uint256",
              "name": "againstVotes",
              "type": "uint256"
            },
            {
              "internalType": "bool",
              "name": "executed",
              "type": "bool"
            },
            {
              "internalType": "bool",
              "name": "canceled",
              "type": "bool"
            },
            {
              "internalType": "address",
              "name": "strategy",
              "type": "address"
            },
            {
              "internalType": "bytes32",
              "name": "ipfsHash",
              "type": "bytes32"
            }
          ],
          "internalType": "struct IPopulousGovernanceV2.ProposalWithoutVotes",
          "name": "",
          "type": "tuple"
        }
      ],
      "stateMutability": "view",
      "type": "function"
    },
    {
      "inputs": [
        {
          "internalType": "uint256",
          "name": "proposalId",
          "type": "uint256"
        },
        {
          "internalType": "address",
          "name": "voter",
          "type": "address"
        }
      ],
      "name": "getVoteOnProposal",
      "outputs": [
        {
          "components": [
            {
              "internalType": "bool",
              "name": "support",
              "type": "bool"
            },
            {
              "internalType": "uint248",
              "name": "votingPower",
              "type": "uint248"
            }
          ],
          "internalType": "struct IPopulousGovernanceV2.Vote",
          "name": "",
          "type": "tuple"
        }
      ],
      "stateMutability": "view",
      "type": "function"
    },
    {
      "inputs": [
        {
          "internalType": "uint256",
          "name": "proposalId",
          "type": "uint256"
        }
      ],
      "name": "getProposalState",
      "outputs": [
        {
          "internalType": "enum IPopulousGovernanceV2.ProposalState",
          "name": "",
          "type": "uint8"
        }
      ],
      "stateMutability": "view",
      "type": "function"
    },
    {
      "inputs": [
        {
          "internalType": "address",
          "name": "tokenAddress",
          "type": "address"
        },
        {
          "internalType": "uint256",
          "name": "tokenAmount",
          "type": "uint256"
        },
        {
          "internalType": "uint256",
          "name": "proposalId",
          "type": "uint256"
        },
        {
          "internalType": "bool",
          "name": "support",
          "type": "bool"
        }
      ],
      "name": "getVotingOutcome",
      "outputs": [
        {
          "internalType": "uint256",
          "name": "",
          "type": "uint256"
        },
        {
          "internalType": "uint256",
          "name": "",
          "type": "uint256"
        },
        {
          "internalType": "uint256",
          "name": "",
          "type": "uint256"
        }
      ],
      "stateMutability": "view",
      "type": "function"
    },
    {
      "inputs": [
        {
          "internalType": "uint256",
          "name": "proposalId",
          "type": "uint256"
        },
        {
          "internalType": "address",
          "name": "voter",
          "type": "address"
        }
      ],
      "name": "getLockedTokens",
      "outputs": [
        {
          "components": [
            {
              "internalType": "address",
              "name": "tokenAddress",
              "type": "address"
            },
            {
              "internalType": "uint256",
              "name": "amount",
              "type": "uint256"
            }
          ],
          "internalType": "struct IPopulousGovernanceV2.LockedTokens",
          "name": "",
          "type": "tuple"
        }
      ],
      "stateMutability": "view",
      "type": "function"
    },
    {
      "inputs": [
        {
          "internalType": "uint256",
          "name": "proposalId",
          "type": "uint256"
        }
      ],
      "name": "redeemLockedTokens",
      "outputs": [],
      "stateMutability": "nonpayable",
      "type": "function"
    },
    {
      "inputs": [],
      "name": "getChainId",
      "outputs": [
        {
          "internalType": "uint256",
          "name": "",
          "type": "uint256"
        }
      ],
      "stateMutability": "pure",
      "type": "function"
    }
  ],
  "bytecode": "0x608060405234801561001057600080fd5b50614801806100206000396000f3fe6080604052600436106102045760003560e01c80638da5cb5b11610118578063a76a9a2f116100a0578063ddf0b0091161006f578063ddf0b0091461059b578063f27ae0f9146105bb578063f2fde38b146105db578063f8741a9c146105fb578063fe0d94c11461061b57610204565b8063a76a9a2f1461050a578063b2bdfa7b1461052a578063bd969ba31461053f578063cdc35ef91461056c57610204565b80639ec07089116100e75780639ec0708914610494578063a2b170b0146104a9578063a3f4df7e146104be578063a4d82225146104e0578063a75b87d2146104f557610204565b80638da5cb5b1461041d5780639080936f1461043257806398e527d31461045f5780639aad6f6a1461047457610204565b806340e58ee51161019b5780635877da451161016a5780635877da451461039357806364c786d9146103b357806370b0f660146103d3578063715018a6146103f3578063760fbc131461040857610204565b806340e58ee5146102f95780634185ff83146103195780634ef8cc1714610346578063548b514e1461036657610204565b806320606b70116101d757806320606b70146102805780633408e470146102a257806334b18c26146102b75780633656de21146102cc57610204565b806306be3e8e1461020957806307c25b7d1461023457806307e8aaef146102495780631a1caf7f1461025e575b600080fd5b34801561021557600080fd5b5061021e61062e565b60405161022b9190613837565b60405180910390f35b34801561024057600080fd5b5061021e61063d565b34801561025557600080fd5b5061021e61064c565b34801561026a57600080fd5b5061027e610279366004613458565b61065b565b005b34801561028c57600080fd5b506102956106e7565b60405161022b919061395c565b3480156102ae57600080fd5b5061029561070b565b3480156102c357600080fd5b5061029561070f565b3480156102d857600080fd5b506102ec6102e7366004613620565b610733565b60405161022b9190614422565b34801561030557600080fd5b5061027e610314366004613620565b610ae4565b34801561032557600080fd5b50610339610334366004613638565b610dc9565b60405161022b919061457c565b34801561035257600080fd5b5061027e61036136600461339a565b610e22565b34801561037257600080fd5b506103866103813660046132dc565b610e3c565b60405161022b9190613951565b34801561039f57600080fd5b5061027e6103ae3660046133e3565b610e5a565b3480156103bf57600080fd5b5061027e6103ce366004613458565b611008565b3480156103df57600080fd5b5061027e6103ee366004613620565b611090565b3480156103ff57600080fd5b5061027e6110f4565b34801561041457600080fd5b5061027e611196565b34801561042957600080fd5b5061021e6111e2565b34801561043e57600080fd5b5061045261044d366004613620565b6111f1565b60405161022b91906139d5565b34801561046b57600080fd5b506102956113c2565b34801561048057600080fd5b5061027e61048f3660046132dc565b6113c8565b3480156104a057600080fd5b50610295611429565b3480156104b557600080fd5b5061029561142e565b3480156104ca57600080fd5b506104d3611434565b60405161022b91906139e9565b3480156104ec57600080fd5b5061021e611466565b34801561050157600080fd5b5061021e611475565b34801561051657600080fd5b5061027e610525366004613620565b611484565b34801561053657600080fd5b5061021e6117c8565b34801561054b57600080fd5b5061055f61055a366004613638565b6117d7565b60405161022b9190614402565b34801561057857600080fd5b5061058c61058736600461339a565b611823565b60405161022b93929190614661565b3480156105a757600080fd5b5061027e6105b6366004613620565b6119ea565b3480156105c757600080fd5b5061027e6105d63660046132f8565b611cf5565b3480156105e757600080fd5b5061027e6105f63660046132dc565b611e38565b34801561060757600080fd5b5061029561061636600461353a565b611f31565b61027e610629366004613620565b61229f565b6035546001600160a01b031690565b6039546001600160a01b031681565b6038546001600160a01b031681565b6106636124a5565b6034546001600160a01b039081169116146106b3576040805162461bcd60e51b8152602060048201819052602482015260008051602061477e833981519152604482015290519081900360640190fd5b60005b81518110156106e3576106db8282815181106106ce57fe5b60200260200101516124a9565b6001016106b6565b5050565b7f8cad95687ba82c2ce50e74f7b754645e5117c3a5bec8151c0726d5857980a86681565b4690565b7f4e031542a9553ed1c4e810c54674ab4b984243e335b246aa3de73663bf4c11ee81565b61073b612d24565b6000828152603b60205260409020610751612d24565b60408051610220810182528354815260018401546001600160a01b039081166020808401919091526002860154909116828401526003850180548451818402810184019095528085529293606085019390928301828280156107dc57602002820191906000526020600020905b81546001600160a01b031681526001909101906020018083116107be575b505050505081526020018360040180548060200260200160405190810160405280929190818152602001828054801561083457602002820191906000526020600020905b815481526020019060010190808311610820575b5050505050815260200183600501805480602002602001604051908101604052809291908181526020016000905b8282101561090d5760008481526020908190208301805460408051601f60026000196101006001871615020190941693909304928301859004850281018501909152818152928301828280156108f95780601f106108ce576101008083540402835291602001916108f9565b820191906000526020600020905b8154815290600101906020018083116108dc57829003601f168201915b505050505081526020019060010190610862565b50505050815260200183600601805480602002602001604051908101604052809291908181526020016000905b828210156109e55760008481526020908190208301805460408051601f60026000196101006001871615020190941693909304928301859004850281018501909152818152928301828280156109d15780601f106109a6576101008083540402835291602001916109d1565b820191906000526020600020905b8154815290600101906020018083116109b457829003601f168201915b50505050508152602001906001019061093a565b50505050815260200183600701805480602002602001604051908101604052809291908181526020018280548015610a5c57602002820191906000526020600020906000905b825461010083900a900460ff161515815260206001928301818104948501949093039092029101808411610a2b5790505b50505091835250506008840154602082015260098401546040820152600a8401546060820152600b8401546080820152600c84015460a0820152600d84015460ff808216151560c0840152610100808304909116151560e0840152620100009091046001600160a01b031690820152600e90930154610120909301929092525090505b919050565b6000610aef826111f1565b90506007816007811115610aff57fe5b14158015610b1957506001816007811115610b1657fe5b14155b8015610b3157506006816007811115610b2e57fe5b14155b610b565760405162461bcd60e51b8152600401610b4d90613d69565b60405180910390fd5b6000828152603b60205260409020603d546001600160a01b0316610b786124a5565b6001600160a01b03161480610c135750600281015460018201546040516347293e6560e01b81526001600160a01b03928316926347293e6592610bc39230929091169060040161384b565b60206040518083038186803b158015610bdb57600080fd5b505afa158015610bef573d6000803e3d6000fd5b505050506040513d601f19601f82011682018060405250810190610c139190613493565b610c2f5760405162461bcd60e51b8152600401610b4d90613af9565b600d8101805461ff00191661010017905560005b6003820154811015610d8c5760028201546003830180546001600160a01b0390921691631dc40b51919084908110610c7757fe5b6000918252602090912001546004850180546001600160a01b039092169185908110610c9f57fe5b9060005260206000200154856005018581548110610cb957fe5b90600052602060002001866006018681548110610cd257fe5b9060005260206000200187600a0154886007018881548110610cf057fe5b90600052602060002090602091828204019190069054906101000a900460ff166040518763ffffffff1660e01b8152600401610d3196959493929190613918565b602060405180830381600087803b158015610d4b57600080fd5b505af1158015610d5f573d6000803e3d6000fd5b505050506040513d601f19601f82011682018060405250810190610d8391906134af565b50600101610c43565b507f789cf55be980739dad1d0699b93b58e806b51c9d96619bfa8fe0a28abaa7b30c83604051610dbc919061395c565b60405180910390a1505050565b610dd1612dca565b506000828152603b602090815260408083206001600160a01b0385168452600f0182529182902082518084019093525460ff81161515835261010090046001600160f81b0316908201525b92915050565b610e368484610e2f6124a5565b8585612504565b50505050565b6001600160a01b03166000908152603c602052604090205460ff1690565b6040805180820190915260168152752837b83ab637bab99023b7bb32b93730b731b2903b1960511b60209091015260007f8cad95687ba82c2ce50e74f7b754645e5117c3a5bec8151c0726d5857980a8667f90d0e97d0675583859de66b0b508c48eebcdbecf06886b4366f8b83acdaff70b610ed461070b565b30604051602001610ee89493929190613993565b604051602081830303815290604052805190602001207f4e031542a9553ed1c4e810c54674ab4b984243e335b246aa3de73663bf4c11ee89898989604051602001610f37959493929190613965565b60405160208183030381529060405280519060200120604051602001610f5e92919061381c565b604051602081830303815290604052805190602001209050600060018286868660405160008152602001604052604051610f9b94939291906139b7565b6020604051602081039080840390855afa158015610fbd573d6000803e3d6000fd5b5050604051601f1901519150506001600160a01b038116610ff05760405162461bcd60e51b8152600401610b4d90613fc4565b610ffd8989838a8a612504565b505050505050505050565b6110106124a5565b6034546001600160a01b03908116911614611060576040805162461bcd60e51b8152602060048201819052602482015260008051602061477e833981519152604482015290519081900360640190fd5b60005b81518110156106e35761108882828151811061107b57fe5b60200260200101516126f8565b600101611063565b6110986124a5565b6034546001600160a01b039081169116146110e8576040805162461bcd60e51b8152602060048201819052602482015260008051602061477e833981519152604482015290519081900360640190fd5b6110f18161274b565b50565b6110fc6124a5565b6034546001600160a01b0390811691161461114c576040805162461bcd60e51b8152602060048201819052602482015260008051602061477e833981519152604482015290519081900360640190fd5b6034546040516000916001600160a01b0316907f8be0079c531659141344cd1fd0a4f28419497f9722a3daafe3b4186f6b6457e0908390a3603480546001600160a01b0319169055565b603d546001600160a01b03166111aa6124a5565b6001600160a01b0316146111d05760405162461bcd60e51b8152600401610b4d90613f22565b603d80546001600160a01b0319169055565b6034546001600160a01b031690565b600081603a5410156112155760405162461bcd60e51b8152600401610b4d90613ed1565b6000828152603b60205260409020600d810154610100900460ff161561123f576001915050610adf565b80600801544311611254576000915050610adf565b80600901544311611269576002915050610adf565b60028101546040516306fbb3ab60e01b81526001600160a01b03909116906306fbb3ab9061129d90309087906004016138ab565b60206040518083038186803b1580156112b557600080fd5b505afa1580156112c9573d6000803e3d6000fd5b505050506040513d601f19601f820116820180604052508101906112ed9190613493565b6112fb576003915050610adf565b600a81015461130e576004915050610adf565b600d81015460ff1615611325576007915050610adf565b600281015460405163f670a5f960e01b81526001600160a01b039091169063f670a5f99061135990309087906004016138ab565b60206040518083038186803b15801561137157600080fd5b505afa158015611385573d6000803e3d6000fd5b505050506040513d601f19601f820116820180604052508101906113a99190613493565b156113b8576006915050610adf565b6005915050610adf565b603a5490565b6113d06124a5565b6034546001600160a01b03908116911614611420576040805162461bcd60e51b8152602060048201819052602482015260008051602061477e833981519152604482015290519081900360640190fd5b6110f18161279b565b600281565b60365490565b604051806040016040528060168152602001752837b83ab637bab99023b7bb32b93730b731b2903b1960511b81525081565b6037546001600160a01b031681565b603d546001600160a01b031690565b600061148f826111f1565b600781111561149a57fe5b141580156114bc575060026114ae826111f1565b60078111156114b957fe5b14155b6114d85760405162461bcd60e51b8152600401610b4d90613cdb565b60006114e26124a5565b6000838152603b6020526040808220600d01549051635da6a21b60e11b81529293509091620100009091046001600160a01b03169063bb4d44369061152b908590600401613837565b60206040518083038186803b15801561154357600080fd5b505afa158015611557573d6000803e3d6000fd5b505050506040513d601f19601f8201168201806040525081019061157b91906134af565b9050611585612dca565b61158f84846117d7565b905060008160200151116115b55760405162461bcd60e51b8152600401610b4d90614266565b6000848152603b602090815260408083206001600160a01b0380881685526010820190935290832060010183905560375490929116906115f58787610dc9565b602001519050806001600160f81b03168510156116245760405162461bcd60e51b8152600401610b4d906140ca565b8351604051632770a7eb60e21b81526001600160a01b03841690639dc29fac90611654908a908690600401613889565b602060405180830381600087803b15801561166e57600080fd5b505af1158015611682573d6000803e3d6000fd5b505050506040513d601f19601f820116820180604052508101906116a69190613493565b15156001146116c75760405162461bcd60e51b8152600401610b4d906142c3565b602085015160405163a9059cbb60e01b81526001600160a01b0383169163a9059cbb916116f8918b916004016138ab565b602060405180830381600087803b15801561171257600080fd5b505af1158015611726573d6000803e3d6000fd5b505050506040513d601f19601f8201168201806040525081019061174a9190613493565b151560011461176b5760405162461bcd60e51b8152600401610b4d9061414d565b84600001516001600160a01b0316876001600160a01b03167f20eaecd96d36d2ea6564edf6426f0d3f7e6b9fc7bf120a9b854d9d2e5ef265f887602001516040516117b6919061395c565b60405180910390a35050505050505050565b6034546001600160a01b031681565b6117df612dca565b506000918252603b602090815260408084206001600160a01b0393841685526010018252928390208351808501909452805490921683526001909101549082015290565b600080806002611832866111f1565b600781111561183d57fe5b1461185a5760405162461bcd60e51b8152600401610b4d906143b7565b611862612d24565b61186b86610733565b905060006118776124a5565b9050611881612dca565b506000878152603b602090815260408083206001600160a01b0385168452600f0182529182902082518084019093525460ff81161515835261010090046001600160f81b0316908201819052156118ea5760405162461bcd60e51b8152600401610b4d90614318565b6000891161190a5760405162461bcd60e51b8152600401610b4d90614062565b6038546001600160a01b038b81169116148061193357506039546001600160a01b038b81169116145b61194f5760405162461bcd60e51b8152600401610b4d906141fa565b6038546000906001600160a01b038c81169116141561196f575088611993565b6039546001600160a01b038c811691161415611993576119908a6005612800565b90505b87156119b4576101608401516119a99082612860565b6101608501526119cb565b6101808401516119c49082612860565b6101808501525b61016084015161018090940151909b939a509850919650505050505050565b60046119f5826111f1565b6007811115611a0057fe5b14611a1d5760405162461bcd60e51b8152600401610b4d90614018565b6000818152603b602090815260408083206002810154825163675e4d4160e11b81529251919493611ab5936001600160a01b039092169263cebc9a82926004808201939291829003018186803b158015611a7657600080fd5b505afa158015611a8a573d6000803e3d6000fd5b505050506040513d601f19601f82011682018060405250810190611aae91906134af565b4290612860565b905060005b6003830154811015611c9e576002830154600384018054611c96926001600160a01b0316919084908110611aea57fe5b6000918252602090912001546004860180546001600160a01b039092169185908110611b1257fe5b9060005260206000200154866005018581548110611b2c57fe5b600091825260209182902001805460408051601f6002600019610100600187161502019094169390930492830185900485028101850190915281815292830182828015611bba5780601f10611b8f57610100808354040283529160200191611bba565b820191906000526020600020905b815481529060010190602001808311611b9d57829003601f168201915b5050505050876006018681548110611bce57fe5b600091825260209182902001805460408051601f6002600019610100600187161502019094169390930492830185900485028101850190915281815292830182828015611c5c5780601f10611c3157610100808354040283529160200191611c5c565b820191906000526020600020905b815481529060010190602001808311611c3f57829003601f168201915b505050505087896007018881548110611c7157fe5b90600052602060002090602091828204019190069054906101000a900460ff166128ba565b600101611aba565b50600a8201819055611cae6124a5565b6001600160a01b03167f11a0b38e70585e4b09b794bd1d9f9b1a51a802eb8ee2101eeee178d0349e73fe8483604051611ce8929190614653565b60405180910390a2505050565b6000611cff612a15565b60015490915060ff1680611d165750611d16612a1a565b80611d22575060005481115b611d5d5760405162461bcd60e51b815260040180806020018281038252602e81526020018061479e602e913960400191505060405180910390fd5b60015460ff16158015611d7c576001805460ff19168117905560008290555b6000611d866124a5565b603480546001600160a01b0319166001600160a01b038316908117909155604051919250906000907f8be0079c531659141344cd1fd0a4f28419497f9722a3daafe3b4186f6b6457e0908290a3611ddc8761279b565b611de58661274b565b611dee8a612a20565b611df88989612a97565b603d80546001600160a01b0319166001600160a01b038716179055611e1c84611008565b508015610ffd576001805460ff19169055505050505050505050565b611e406124a5565b6034546001600160a01b03908116911614611e90576040805162461bcd60e51b8152602060048201819052602482015260008051602061477e833981519152604482015290519081900360640190fd5b6001600160a01b038116611ed55760405162461bcd60e51b81526004018080602001828103825260268152602001806147376026913960400191505060405180910390fd5b6034546040516001600160a01b038084169216907f8be0079c531659141344cd1fd0a4f28419497f9722a3daafe3b4186f6b6457e090600090a3603480546001600160a01b0319166001600160a01b0392909216919091179055565b6000865160001415611f555760405162461bcd60e51b8152600401610b4d90613e88565b85518751148015611f67575084518751145b8015611f74575083518751145b8015611f81575082518751145b611f9d5760405162461bcd60e51b8152600401610b4d90613beb565b611fa688610e3c565b611fc25760405162461bcd60e51b8152600401610b4d9061436c565b876001600160a01b0316630332f02530611fda6124a5565b6040518363ffffffff1660e01b8152600401611ff792919061384b565b60206040518083038186803b15801561200f57600080fd5b505afa158015612023573d6000803e3d6000fd5b505050506040513d601f19601f820116820180604052508101906120479190613493565b6120635760405162461bcd60e51b8152600401610b4d906141aa565b61206b612de1565b603654612079904390612860565b8160000181815250506120fe896001600160a01b031663a438d2086040518163ffffffff1660e01b815260040160206040518083038186803b1580156120be57600080fd5b505afa1580156120d2573d6000803e3d6000fd5b505050506040513d601f19601f820116820180604052508101906120f691906134af565b825190612860565b602080830191909152603a5460408084018281526000928352603b90935290209051815561212a6124a5565b6001820180546001600160a01b03199081166001600160a01b0393841617909155600283018054909116918c16919091179055885161217290600383019060208c0190612e02565b50875161218890600483019060208b0190612e67565b50865161219e90600583019060208a0190612ea2565b5085516121b49060068301906020890190612efb565b5084516121ca9060078301906020880190612f54565b508151600882015560208201516009820155603554600d8201805462010000600160b01b0319166001600160a01b039283166201000002179055600e8201859055603a805460010190558a1661221e6124a5565b6001600160a01b03167fd272d67d2c8c66de43c1d2515abb064978a5020c173e15903b6a2ab3bf7440ec84604001518c8c8c8c8c8a600001518b60200151603560009054906101000a90046001600160a01b03168f6040516122899a9998979695949392919061459e565b60405180910390a3549998505050505050505050565b60056122aa826111f1565b60078111156122b557fe5b146122d25760405162461bcd60e51b8152600401610b4d90613c91565b6000818152603b60205260408120600d8101805460ff19166001179055905b60038201548110156124585760028201546004830180546001600160a01b0390921691638902ab6591908490811061232557fe5b906000526020600020015484600301848154811061233f57fe5b6000918252602090912001546004860180546001600160a01b03909216918690811061236757fe5b906000526020600020015486600501868154811061238157fe5b9060005260206000200187600601878154811061239a57fe5b9060005260206000200188600a01548960070189815481106123b857fe5b90600052602060002090602091828204019190069054906101000a900460ff166040518863ffffffff1660e01b81526004016123f996959493929190613918565b6000604051808303818588803b15801561241257600080fd5b505af1158015612426573d6000803e3d6000fd5b50505050506040513d6000823e601f3d908101601f1916820160405261244f91908101906134c7565b506001016122f1565b506124616124a5565b6001600160a01b03167f9c85b616f29fca57a17eafe71cf9ff82ffef41766e2cf01ea7f8f7878dd3ec2483604051612499919061395c565b60405180910390a25050565b3390565b6001600160a01b0381166000908152603c602052604090819020805460ff19169055517f5e8105a2af24345971359d2289f43efa80d093f4a7123561b8d63836b98724f4906124f9908390613837565b60405180910390a150565b600061250f836111f1565b9050600281600781111561251f57fe5b1461253c5760405162461bcd60e51b8152600401610b4d90613d24565b6000838152603b602090815260408083206001600160a01b0388168452600f8101909252909120805461010090046001600160f81b0316156125905760405162461bcd60e51b8152600401610b4d90613b4d565b600087116125b05760405162461bcd60e51b8152600401610b4d90613a9c565b6038546001600160a01b03898116911614806125d957506039546001600160a01b038981169116145b6125f55760405162461bcd60e51b8152600401610b4d90613db1565b6038546000906001600160a01b038a81169116141561262257508661261d86888b8480612b54565b612652565b6039546001600160a01b038a81169116141561265257612643886005612800565b905061265286888b8b85612b54565b841561267157600b8301546126679082612860565b600b840155612686565b600c8301546126809082612860565b600c8401555b815460ff60ff1990911686151517166101006001600160f81b038316021782556040516001600160a01b038816907f0c611e7b6ae0de26f4772260e1bbdb5f58cbb7c275fe2de14671968d29add8d6906126e59089908990869061463d565b60405180910390a2505050505050505050565b6001600160a01b0381166000908152603c602052604090819020805460ff19166001179055517f52762435f58790076157ea2a4914a5a4d0aa0eb421588891377692f7fd3bc082906124f9908390613837565b60368190556127586124a5565b6001600160a01b03167fc46fc23e244f0720a98ddbac6efb5bb40d212cf15e6478fc4b3017648715289d82604051612790919061395c565b60405180910390a250565b603580546001600160a01b0319166001600160a01b0383161790556127be6124a5565b6001600160a01b0316816001600160a01b03167f9e8e9f668db69a2cefb172dabe284d0d3aea2b7ee64212a205bd033bd03a3d5560405160405180910390a350565b60008261280f57506000610e1c565b8282028284828161281c57fe5b04146128595760405162461bcd60e51b815260040180806020018281038252602181526020018061475d6021913960400191505060405180910390fd5b9392505050565b600082820183811015612859576040805162461bcd60e51b815260206004820152601b60248201527f536166654d6174683a206164646974696f6e206f766572666c6f770000000000604482015290519081900360640190fd5b866001600160a01b031663b1fc87968787878787876040516020016128e4969594939291906138c4565b604051602081830303815290604052805190602001206040518263ffffffff1660e01b8152600401612916919061395c565b60206040518083038186803b15801561292e57600080fd5b505afa158015612942573d6000803e3d6000fd5b505050506040513d601f19601f820116820180604052508101906129669190613493565b156129835760405162461bcd60e51b8152600401610b4d906139fc565b604051638d8fe2e360e01b81526001600160a01b03881690638d8fe2e3906129b9908990899089908990899089906004016138c4565b602060405180830381600087803b1580156129d357600080fd5b505af11580156129e7573d6000803e3d6000fd5b505050506040513d601f19601f82011682018060405250810190612a0b91906134af565b5050505050505050565b600290565b303b1590565b6001600160a01b038116612a465760405162461bcd60e51b8152600401610b4d90613b9b565b603780546001600160a01b0319166001600160a01b0383811691909117918290556040517f392aa4d4c6804dae27d6bfa0c6430bba42833bed9c53833e7b7f2b2d7cc13aef926124f9921690613837565b6001600160a01b038216612abd5760405162461bcd60e51b8152600401610b4d90613f6c565b6001600160a01b038116612ae35760405162461bcd60e51b8152600401610b4d90613c39565b603880546001600160a01b038085166001600160a01b0319928316179283905560398054858316931692909217918290556040517fb17851252d29a80a8ace9b26188567af63958a7cb31a5e32a09565d8f355d86f93612b489390831692169061384b565b60405180910390a15050565b6000858152603b602090815260408083206001600160a01b03808916855260109091019092529182902060375492516323b872dd60e01b815290928216918691908216906323b872dd90612bb0908a9030908a90600401613865565b602060405180830381600087803b158015612bca57600080fd5b505af1158015612bde573d6000803e3d6000fd5b505050506040513d601f19601f82011682018060405250810190612c029190613493565b1515600114612c235760405162461bcd60e51b8152600401610b4d90613e0f565b82546001600160a01b0319166001600160a01b03878116919091178455600184018690556040516340c10f1960e01b8152908316906340c10f1990612c6e908a9088906004016138ab565b602060405180830381600087803b158015612c8857600080fd5b505af1158015612c9c573d6000803e3d6000fd5b505050506040513d601f19601f82011682018060405250810190612cc09190613493565b1515600114612ce15760405162461bcd60e51b8152600401610b4d90613a48565b856001600160a01b0316876001600160a01b03167f87f4b5cc1d7b955dd69a5ce366fe29a7a5b9c644c277eeea72cf6659c2590ae8876040516117b6919061395c565b6040518061022001604052806000815260200160006001600160a01b0316815260200160006001600160a01b031681526020016060815260200160608152602001606081526020016060815260200160608152602001600081526020016000815260200160008152602001600081526020016000815260200160001515815260200160001515815260200160006001600160a01b03168152602001600080191681525090565b604080518082019091526000808252602082015290565b60405180606001604052806000815260200160008152602001600081525090565b828054828255906000526020600020908101928215612e57579160200282015b82811115612e5757825182546001600160a01b0319166001600160a01b03909116178255602090920191600190910190612e22565b50612e63929150612ff0565b5090565b828054828255906000526020600020908101928215612e57579160200282015b82811115612e57578251825591602001919060010190612e87565b828054828255906000526020600020908101928215612eef579160200282015b82811115612eef5782518051612edf918491602090910190613005565b5091602001919060010190612ec2565b50612e63929150613080565b828054828255906000526020600020908101928215612f48579160200282015b82811115612f485782518051612f38918491602090910190613005565b5091602001919060010190612f1b565b50612e6392915061309d565b82805482825590600052602060002090601f01602090048101928215612e575791602002820160005b83821115612fba57835183826101000a81548160ff0219169083151502179055509260200192600101602081600001049283019260010302612f7d565b8015612fe75782816101000a81549060ff0219169055600101602081600001049283019260010302612fba565b5050612e639291505b5b80821115612e635760008155600101612ff1565b828054600181600116156101000203166002900490600052602060002090601f01602090048101928261303b5760008555612e57565b82601f1061305457805160ff1916838001178555612e57565b82800160010185558215612e575791820182811115612e57578251825591602001919060010190612e87565b80821115612e6357600061309482826130ba565b50600101613080565b80821115612e635760006130b182826130ba565b5060010161309d565b50805460018160011615610100020316600290046000825580601f106130e057506110f1565b601f0160209004906000526020600020908101906110f19190612ff0565b600082601f83011261310e578081fd5b813561312161311c8261469b565b614677565b81815291506020808301908481018184028601820187101561314257600080fd5b60005b8481101561316a57813561315881614713565b84529282019290820190600101613145565b505050505092915050565b600082601f830112613185578081fd5b813561319361311c8261469b565b8181529150602080830190848101818402860182018710156131b457600080fd5b60005b8481101561316a5781356131ca81614728565b845292820192908201906001016131b7565b600082601f8301126131ec578081fd5b81356131fa61311c8261469b565b818152915060208083019084810160005b8481101561316a578135870188603f82011261322657600080fd5b8381013561323661311c826146b9565b81815260408b8184860101111561324c57600080fd5b8281850188840137506000918101860191909152855250928201929082019060010161320b565b600082601f830112613283578081fd5b813561329161311c8261469b565b8181529150602080830190848101818402860182018710156132b257600080fd5b60005b8481101561316a578135845292820192908201906001016132b5565b8035610adf81614713565b6000602082840312156132ed578081fd5b813561285981614713565b600080600080600080600060e0888a031215613312578283fd5b873561331d81614713565b9650602088013561332d81614713565b9550604088013561333d81614713565b9450606088013561334d81614713565b93506080880135925060a088013561336481614713565b915060c088013567ffffffffffffffff81111561337f578182fd5b61338b8a828b016130fe565b91505092959891949750929550565b600080600080608085870312156133af578384fd5b84356133ba81614713565b9350602085013592506040850135915060608501356133d881614728565b939692955090935050565b600080600080600080600060e0888a0312156133fd578081fd5b873561340881614713565b96506020880135955060408801359450606088013561342681614728565b9350608088013560ff8116811461343b578182fd5b9699959850939692959460a0840135945060c09093013592915050565b600060208284031215613469578081fd5b813567ffffffffffffffff81111561347f578182fd5b61348b848285016130fe565b949350505050565b6000602082840312156134a4578081fd5b815161285981614728565b6000602082840312156134c0578081fd5b5051919050565b6000602082840312156134d8578081fd5b815167ffffffffffffffff8111156134ee578182fd5b8201601f810184136134fe578182fd5b805161350c61311c826146b9565b818152856020838501011115613520578384fd5b6135318260208301602086016146e7565b95945050505050565b600080600080600080600060e0888a031215613554578081fd5b61355d886132d1565b9650602088013567ffffffffffffffff80821115613579578283fd5b6135858b838c016130fe565b975060408a013591508082111561359a578283fd5b6135a68b838c01613273565b965060608a01359150808211156135bb578283fd5b6135c78b838c016131dc565b955060808a01359150808211156135dc578283fd5b6135e88b838c016131dc565b945060a08a01359150808211156135fd578283fd5b5061360a8a828b01613175565b92505060c0880135905092959891949750929550565b600060208284031215613631578081fd5b5035919050565b6000806040838503121561364a578182fd5b82359150602083013561365c81614713565b809150509250929050565b6001600160a01b03169052565b6000815180845260208085019450808401835b838110156136ac5781516001600160a01b031687529582019590820190600101613687565b509495945050505050565b6000815180845260208085019450808401835b838110156136ac5781511515875295820195908201906001016136ca565b6000815180845260208085019450848183028601828601855b8581101561372b57838303895261371983835161376d565b98850198925090840190600101613701565b5090979650505050505050565b6000815180845260208085019450808401835b838110156136ac5781518752958201959082019060010161374b565b15159052565b600081518084526137858160208601602086016146e7565b601f01601f19169290920160200192915050565b600081546001808216600081146137b757600181146137d557613813565b60028304607f16865260ff1983166020870152604086019350613813565b600283048087526137e5866146db565b60005b828110156138095781546020828b01015284820191506020810190506137e8565b8801602001955050505b50505092915050565b61190160f01b81526002810192909252602282015260420190565b6001600160a01b0391909116815260200190565b6001600160a01b0392831681529116602082015260400190565b6001600160a01b039384168152919092166020820152604081019190915260600190565b6001600160a01b039290921682526001600160f81b0316602082015260400190565b6001600160a01b03929092168252602082015260400190565b600060018060a01b038816825286602083015260c060408301526138eb60c083018761376d565b82810360608401526138fd818761376d565b6080840195909552505090151560a090910152949350505050565b600060018060a01b038816825286602083015260c0604083015261393f60c0830187613799565b82810360608401526138fd8187613799565b901515815260200190565b90815260200190565b9485526001600160a01b03939093166020850152604084019190915260608301521515608082015260a00190565b938452602084019290925260408301526001600160a01b0316606082015260800190565b93845260ff9290921660208401526040830152606082015260800190565b60208101600883106139e357fe5b91905290565b600060208252612859602083018461376d565b6020808252602c908201527f476f7665726e616e63653a2071756575654f725265766572743a204455504c4960408201526b21a0aa22a22fa0a1aa24a7a760a11b606082015260800190565b60208082526034908201527f476f7665726e616e63653a20746f6b656e53776170416e644c6f636b3a20564f6040820152731511481513d2d15394c81393d50813525395115160621b606082015260800190565b6020808252603c908201527f476f7665726e616e63653a207375626d6974566f74653a20544f4b454e20414d60408201527f4f554e5420544f2053574150204d5553542042452041424f5645203000000000606082015260800190565b60208082526034908201527f476f7665726e616e63653a2063616e63656c3a2050524f504f534954494f4e5f60408201527310d05390d1531310551253d397d253959053125160621b606082015260800190565b6020808252602e908201527f476f7665726e616e63653a207375626d6974566f74653a20564f54455f414c5260408201526d1150511657d4d55093525515115160921b606082015260800190565b60208082526030908201527f476f7665726e616e63653a20736574566f74696e67746f6b656e3a20564f544960408201526f1391d7d513d2d153881253959053125160821b606082015260800190565b6020808252602e908201527f476f7665726e616e63653a206372656174653a20494e434f4e53495354454e5460408201526d0bea082a4829aa6be988a9c8ea8960931b606082015260800190565b60208082526038908201527f476f7665726e616e63653a205f73657455736572546f6b656e733a20505854206040820152771513d2d15388105111149154d4c81254c81253959053125160421b606082015260800190565b6020808252602a908201527f476f7665726e616e63653a20657865637574653a204f4e4c595f5155455545446040820152695f50524f504f53414c5360b01b606082015260800190565b60208082526029908201527f476f7665726e616e63653a20676574566f74696e674f7574636f6d653a20564f6040820152682a24a723afa7a822a760b91b606082015260800190565b60208082526025908201527f476f7665726e616e63653a207375626d6974566f74653a20564f54494e475f436040820152641313d4d15160da1b606082015260800190565b60208082526028908201527f476f7665726e616e63653a2063616e63656c3a204f4e4c595f4245464f52455f60408201526711561150d555115160c21b606082015260800190565b602080825260409082018190527f476f7665726e616e63653a207375626d6974566f74653a20544f4b454e5f4144908201527f4452455353204d55535420424520505054204f522050585420544f20564f5445606082015260800190565b60208082526053908201527f476f7665726e616e63653a20746f6b656e53776170416e644c6f636b3a20544f60408201527f4b454e205452414e534645525f46524f4d204641494c45442c20434845434b20606082015272109053105390d14813d4881054141493d59053606a1b608082015260a00190565b60208082526029908201527f476f7665726e616e63653a206372656174653a20494e56414c49445f454d5054604082015268595f5441524745545360b81b606082015260800190565b60208082526031908201527f476f7665726e616e63653a2067657450726f706f73616c53746174653a20494e604082015270159053125117d41493d413d4d05317d251607a1b606082015260800190565b6020808252602a908201527f476f7665726e616e63653a206f6e6c79477561726469616e3a204f4e4c595f426040820152692cafa3aaa0a92224a0a760b11b606082015260800190565b60208082526038908201527f476f7665726e616e63653a205f73657455736572546f6b656e733a20505054206040820152771513d2d15388105111149154d4c81254c81253959053125160421b606082015260800190565b60208082526034908201527f476f7665726e616e63653a207375626d6974566f746542795369676e61747572604082015273653a20494e56414c49445f5349474e415455524560601b606082015260800190565b6020808252602a908201527f476f7665726e616e63653a2071756575653a20494e56414c49445f53544154456040820152695f464f525f515545554560b01b606082015260800190565b60208082526042908201527f476f7665726e616e63653a20676574566f74696e674f7574636f6d653a20544f60408201527f4b454e20414d4f554e5420544f2053574150204d5553542042452041424f5645606082015261020360f41b608082015260a00190565b60208082526057908201527f476f7665726e616e63653a2072656465656d4c6f636b6564546f6b656e733a2060408201527f564f54494e4720504f574552204d5553542042452041424f5645206f7220455160608201527f55414c20544f20564f5445204f4e2050524f504f53414c000000000000000000608082015260a00190565b6020808252603e908201527f476f7665726e616e63653a2072656465656d4c6f636b6564546f6b656e733a2060408201527f4c4f434b454420544f4b454e53204e4f542053454e5420544f20555345520000606082015260800190565b60208082526030908201527f476f7665726e616e63653a206372656174653a2050524f504f534954494f4e5f60408201526f10d49150551253d397d253959053125160821b606082015260800190565b60208082526046908201527f476f7665726e616e63653a20676574566f74696e674f7574636f6d653a20544f60408201527f4b454e5f41444452455353204d55535420424520505054204f522050585420546060820152654f20564f544560d01b608082015260a00190565b60208082526038908201527f476f7665726e616e63653a72656465656d4c6f636b6564546f6b656e733a207560408201527f73657220686173206e6f206c6f636b656420746f6b656e730000000000000000606082015260800190565b60208082526035908201527f476f7665726e616e63653a2072656465656d4c6f636b6564546f6b656e733a206040820152741593d511481513d2d15394c81393d5081095549395605a1b606082015260800190565b60208082526034908201527f476f7665726e616e63653a20676574566f74696e674f7574636f6d653a20564f604082015273151157d053149150511657d4d55093525515115160621b606082015260800190565b6020808252602b908201527f476f7665726e616e63653a206372656174653a204558454355544f525f4e4f5460408201526a17d055551213d49256915160aa1b606082015260800190565b6020808252602b908201527f476f7665726e616e63653a20676574566f74696e674f7574636f6d653a20564f60408201526a15125391d7d0d313d4d15160aa1b606082015260800190565b81516001600160a01b031681526020918201519181019190915260400190565b6000602082528251602083015260208301516144416040840182613667565b5060408301516144546060840182613667565b506060830151610220806080850152614471610240850183613674565b91506080850151601f19808685030160a087015261448f8483613738565b935060a08701519150808685030160c08701526144ac84836136e8565b935060c08701519150808685030160e08701526144c984836136e8565b935060e087015191506101008187860301818801526144e885846136b7565b90880151610120888101919091528801516101408089019190915288015161016080890191909152880151610180808901919091528801516101a08089019190915288015190945091506101c0905061454381870183613767565b86015190506101e061455786820183613767565b860151905061020061456b86820183613667565b959095015193019290925250919050565b8151151581526020918201516001600160f81b03169181019190915260400190565b60006101408c83528060208401526145b88184018d613674565b905082810360408401526145cc818c613738565b905082810360608401526145e0818b6136e8565b905082810360808401526145f4818a6136e8565b905082810360a084015261460881896136b7565b60c0840197909752505060e08101939093526001600160a01b0391909116610100830152610120909101529695505050505050565b9283529015156020830152604082015260600190565b918252602082015260400190565b9283526020830191909152604082015260600190565b60405181810167ffffffffffffffff8111828210171561469357fe5b604052919050565b600067ffffffffffffffff8211156146af57fe5b5060209081020190565b600067ffffffffffffffff8211156146cd57fe5b50601f01601f191660200190565b60009081526020902090565b60005b838110156147025781810151838201526020016146ea565b83811115610e365750506000910152565b6001600160a01b03811681146110f157600080fd5b80151581146110f157600080fdfe4f776e61626c653a206e6577206f776e657220697320746865207a65726f2061646472657373536166654d6174683a206d756c7469706c69636174696f6e206f766572666c6f774f776e61626c653a2063616c6c6572206973206e6f7420746865206f776e6572436f6e747261637420696e7374616e63652068617320616c7265616479206265656e20696e697469616c697a6564a264697066735822122013868ad6a74db0f64332f0f702ee7b19ea0f32ea1a2df4e28c9ac40c9ab63d8f64736f6c63430007050033",
  "immutableReferences": {},
  "source": "// SPDX-License-Identifier: agpl-3.0\npragma solidity 0.7.5;\npragma abicoder v2;\n\nimport {IVotingStrategy} from '../interfaces/IVotingStrategy.sol';\nimport {IExecutorWithTimelock} from '../interfaces/IExecutorWithTimelock.sol';\nimport {IProposalValidator} from '../interfaces/IProposalValidator.sol';\nimport {IGovernanceStrategy} from '../interfaces/IGovernanceStrategy.sol';\nimport {IPopulousGovernanceV2} from '../interfaces/IPopulousGovernanceV2.sol';\nimport {Owned} from '../dependencies/open-zeppelin/Owned.sol';\nimport {SafeMath} from '../dependencies/open-zeppelin/SafeMath.sol';\nimport {MockVotingToken} from '../MockVotingToken.sol';\nimport {IERC20Detailed} from '../interfaces/IERC20Detailed.sol';\nimport \"../dependencies/open-zeppelin/VersionedInitializable.sol\";\n\n/**\n * @title Governance V2 contract\n * @dev Main point of interaction with Populous protocol's governance\n * - Create a Proposal\n * - Cancel a Proposal\n * - Queue a Proposal\n * - Execute a Proposal\n * - Submit Vote to a Proposal\n * Proposal States : Pending => Active => Succeeded(/Failed) => Queued => Executed(/Expired)\n *                   The transition to \"Canceled\" can appear in multiple states\n * @author Populous\n **/\ncontract PopulousGovernanceV3 is VersionedInitializable, Owned, IPopulousGovernanceV2 {\n  using SafeMath for uint256;\n\n  address private _governanceStrategy;\n  uint256 private _votingDelay;\n\n  address public _votingToken;\n  address public _PPT;\n  address public _PXT;\n\n  uint256 private _proposalsCount;\n  mapping(uint256 => Proposal) private _proposals;\n  mapping(address => bool) private _authorizedExecutors;\n\n  address private _guardian;\n\n  bytes32 public constant DOMAIN_TYPEHASH = keccak256(\n    'EIP712Domain(string name,uint256 chainId,address verifyingContract)'\n  );\n  bytes32 public constant VOTE_EMITTED_TYPEHASH = keccak256('VoteEmitted(uint256 id,bool support)');\n  string public constant NAME = 'Populous Governance v2';\n\n  modifier onlyGuardian() {\n    require(_msgSender() == _guardian, 'Governance: onlyGuardian: ONLY_BY_GUARDIAN');\n    _;\n  }\n\n  uint256 public constant GOVERNANCE_REVISION = 0x2;\n\n  function getRevision() internal pure override returns (uint256) {\n      return GOVERNANCE_REVISION;\n  }\n\n  function initialize (\n    address votingToken,\n    address ppt,\n    address pxt,\n    address governanceStrategy,\n    uint256 votingDelay,\n    address guardian,\n    address[] memory executors\n  ) initializer public {\n    address msgSender = _msgSender();\n    _owner = msgSender;\n    emit OwnershipTransferred(address(0), msgSender);\n    _setGovernanceStrategy(governanceStrategy);\n    _setVotingDelay(votingDelay);\n    _setVotingToken(votingToken);\n    _setUserTokens(ppt, pxt);\n    _guardian = guardian;\n    \n    authorizeExecutors(executors);\n  }\n\n  struct CreateVars {\n    uint256 startBlock;\n    uint256 endBlock;\n    uint256 previousProposalsCount;\n  }\n\n  /**\n   * @dev Creates a Proposal (needs to be validated by the Proposal Validator)\n   * @param executor The ExecutorWithTimelock contract that will execute the proposal\n   * @param targets list of contracts called by proposal's associated transactions\n   * @param values list of value in wei for each propoposal's associated transaction\n   * @param signatures list of function signatures (can be empty) to be used when created the callData\n   * @param calldatas list of calldatas: if associated signature empty, calldata ready, else calldata is arguments\n   * @param withDelegatecalls boolean, true = transaction delegatecalls the taget, else calls the target\n   * @param ipfsHash IPFS hash of the proposal\n   **/\n  function create(\n    IExecutorWithTimelock executor,\n    address[] memory targets,\n    uint256[] memory values,\n    string[] memory signatures,\n    bytes[] memory calldatas,\n    bool[] memory withDelegatecalls,\n    bytes32 ipfsHash\n  ) external override returns (uint256) {\n    require(targets.length != 0, 'Governance: create: INVALID_EMPTY_TARGETS');\n    require(\n      targets.length == values.length &&\n        targets.length == signatures.length &&\n        targets.length == calldatas.length &&\n        targets.length == withDelegatecalls.length,\n      'Governance: create: INCONSISTENT_PARAMS_LENGTH'\n    );\n\n    require(isExecutorAuthorized(address(executor)), 'Governance: create: EXECUTOR_NOT_AUTHORIZED');\n\n    require(\n      // proposition token is based on pxt and proposition token\n      // and does not need locking or swap with voting tokens\n      IProposalValidator(address(executor)).validateCreatorOfProposal(\n        this,\n        _msgSender()\n      ),\n      'Governance: create: PROPOSITION_CREATION_INVALID'\n    );\n\n    CreateVars memory vars;\n\n    vars.startBlock = block.number.add(_votingDelay);\n    vars.endBlock = vars.startBlock.add(IProposalValidator(address(executor)).VOTING_DURATION());\n\n    vars.previousProposalsCount = _proposalsCount;\n\n    Proposal storage newProposal = _proposals[vars.previousProposalsCount];\n    newProposal.id = vars.previousProposalsCount;\n    newProposal.creator = _msgSender();\n    newProposal.executor = executor;\n    newProposal.targets = targets;\n    newProposal.values = values;\n    newProposal.signatures = signatures;\n    newProposal.calldatas = calldatas;\n    newProposal.withDelegatecalls = withDelegatecalls;\n    newProposal.startBlock = vars.startBlock;\n    newProposal.endBlock = vars.endBlock;\n    newProposal.strategy = _governanceStrategy;\n    newProposal.ipfsHash = ipfsHash;\n    _proposalsCount++;\n\n    emit ProposalCreated(\n      vars.previousProposalsCount,\n      _msgSender(),\n      executor,\n      targets,\n      values,\n      signatures,\n      calldatas,\n      withDelegatecalls,\n      vars.startBlock,\n      vars.endBlock,\n      _governanceStrategy,\n      ipfsHash\n    );\n\n    return newProposal.id;\n  }\n\n  /**\n   * @dev Cancels a Proposal.\n   * - Callable by the _guardian with relaxed conditions, or by anybody if the conditions of\n   *   cancellation on the executor are fulfilled\n   * @param proposalId id of the proposal\n   **/\n  function cancel(uint256 proposalId) external override {\n    ProposalState state = getProposalState(proposalId);\n    require(\n      state != ProposalState.Executed &&\n        state != ProposalState.Canceled &&\n        state != ProposalState.Expired,\n      'Governance: cancel: ONLY_BEFORE_EXECUTED'\n    );\n\n    Proposal storage proposal = _proposals[proposalId];\n    require(\n      _msgSender() == _guardian ||\n        IProposalValidator(address(proposal.executor)).validateProposalCancellation(\n          this,\n          proposal.creator\n        ),\n      'Governance: cancel: PROPOSITION_CANCELLATION_INVALID'\n    );\n    proposal.canceled = true;\n    for (uint256 i = 0; i < proposal.targets.length; i++) {\n      proposal.executor.cancelTransaction(\n        proposal.targets[i],\n        proposal.values[i],\n        proposal.signatures[i],\n        proposal.calldatas[i],\n        proposal.executionTime,\n        proposal.withDelegatecalls[i]\n      );\n    }\n\n    emit ProposalCanceled(proposalId);\n  }\n\n  /**\n   * @dev Queue the proposal (If Proposal Succeeded)\n   * @param proposalId id of the proposal to queue\n   **/\n  function queue(uint256 proposalId) external override {\n    require(getProposalState(proposalId) == ProposalState.Succeeded, 'Governance: queue: INVALID_STATE_FOR_QUEUE');\n    Proposal storage proposal = _proposals[proposalId];\n    uint256 executionTime = block.timestamp.add(proposal.executor.getDelay());\n    for (uint256 i = 0; i < proposal.targets.length; i++) {\n      _queueOrRevert(\n        proposal.executor,\n        proposal.targets[i],\n        proposal.values[i],\n        proposal.signatures[i],\n        proposal.calldatas[i],\n        executionTime,\n        proposal.withDelegatecalls[i]\n      );\n    }\n    proposal.executionTime = executionTime;\n\n    emit ProposalQueued(proposalId, executionTime, _msgSender());\n  }\n\n  /**\n   * @dev Execute the proposal (If Proposal Queued)\n   * @param proposalId id of the proposal to execute\n   **/\n  function execute(uint256 proposalId) external payable override {\n    require(getProposalState(proposalId) == ProposalState.Queued, 'Governance: execute: ONLY_QUEUED_PROPOSALS');\n    Proposal storage proposal = _proposals[proposalId];\n    proposal.executed = true;\n    for (uint256 i = 0; i < proposal.targets.length; i++) {\n      proposal.executor.executeTransaction{value: proposal.values[i]}(\n        proposal.targets[i],\n        proposal.values[i],\n        proposal.signatures[i],\n        proposal.calldatas[i],\n        proposal.executionTime,\n        proposal.withDelegatecalls[i]\n      );\n    }\n    emit ProposalExecuted(proposalId, _msgSender());\n  }\n\n  /**\n   * @dev Function allowing msg.sender to vote for/against a proposal\n   * @param tokenAddress the address of the token to use to vote\n   * tokenAddress must be PPT or PXT and user balance of tokenAddress\n   * must be greater than zero\n   * @param tokenAmount the amount of tokens to use as voting power\n   * @param proposalId id of the proposal\n   * @param support boolean, true = vote for, false = vote against\n   **/\n  function submitVote(\n    address tokenAddress, \n    uint256 tokenAmount,\n    uint256 proposalId, \n    bool support\n    ) external override {\n    return \n    _submitVote(\n      tokenAddress, tokenAmount, _msgSender(), proposalId, support\n    );\n  }\n\n  /**\n   * @dev Function to register the vote of user that has voted offchain via signature\n   * @param tokenAddress the address of the token to use to vote\n   * tokenAddress must be PPT or PXT and user balance of tokenAddress\n   * must be greater than zero\n   * @param tokenAmount the amount of tokens to use as voting power\n   * @param proposalId id of the proposal\n   * @param support boolean, true = vote for, false = vote against\n   * @param v v part of the voter signature\n   * @param r r part of the voter signature\n   * @param s s part of the voter signature\n   **/\n  function submitVoteBySignature(\n    address tokenAddress, \n    uint256 tokenAmount,\n    uint256 proposalId,\n    bool support,\n    uint8 v,\n    bytes32 r,\n    bytes32 s\n  ) external override {\n    bytes32 digest = keccak256(\n      abi.encodePacked(\n        '\\x19\\x01',\n        keccak256(abi.encode(DOMAIN_TYPEHASH, keccak256(bytes(NAME)), getChainId(), address(this))),\n        keccak256(abi.encode(VOTE_EMITTED_TYPEHASH, tokenAddress, tokenAmount, proposalId, support))\n      )\n    );\n    address signer = ecrecover(digest, v, r, s);\n    require(signer != address(0), 'Governance: submitVoteBySignature: INVALID_SIGNATURE');\n    _submitVote(\n      tokenAddress, tokenAmount, signer, proposalId, support\n    );\n  }\n\n  /**\n   * @dev Set new GovernanceStrategy\n   * Note: owner should be a timelocked executor, so needs to make a proposal\n   * @param governanceStrategy new Address of the GovernanceStrategy contract\n   **/\n  function setGovernanceStrategy(address governanceStrategy) external override onlyOwner {\n    _setGovernanceStrategy(governanceStrategy);\n  }\n\n  /**\n   * @dev Set new Voting Delay (delay before a newly created proposal can be voted on)\n   * Note: owner should be a timelocked executor, so needs to make a proposal\n   * @param votingDelay new voting delay in terms of blocks\n   **/\n  function setVotingDelay(uint256 votingDelay) external override onlyOwner {\n    _setVotingDelay(votingDelay);\n  }\n\n  /**\n   * @dev Add new addresses to the list of authorized executors\n   * @param executors list of new addresses to be authorized executors\n   **/\n  function authorizeExecutors(address[] memory executors) public override onlyOwner {\n    for (uint256 i = 0; i < executors.length; i++) {\n      _authorizeExecutor(executors[i]);\n    }\n  }\n\n  /**\n   * @dev Remove addresses to the list of authorized executors\n   * @param executors list of addresses to be removed as authorized executors\n   **/\n  function unauthorizeExecutors(address[] memory executors) public override onlyOwner {\n    for (uint256 i = 0; i < executors.length; i++) {\n      _unauthorizeExecutor(executors[i]);\n    }\n  }\n\n  /**\n   * @dev Let the guardian abdicate from its priviledged rights\n   **/\n  function __abdicate() external override onlyGuardian {\n    _guardian = address(0);\n  }\n\n  /**\n   * @dev Getter of the current GovernanceStrategy address\n   * @return The address of the current GovernanceStrategy contracts\n   **/\n  function getGovernanceStrategy() external view override returns (address) {\n    return _governanceStrategy;\n  }\n\n  /**\n   * @dev Getter of the current Voting Delay (delay before a created proposal can be voted on)\n   * Different from the voting duration\n   * @return The voting delay in number of blocks\n   **/\n  function getVotingDelay() external view override returns (uint256) {\n    return _votingDelay;\n  }\n\n  /**\n   * @dev Returns whether an address is an authorized executor\n   * @param executor address to evaluate as authorized executor\n   * @return true if authorized\n   **/\n  function isExecutorAuthorized(address executor) public view override returns (bool) {\n    return _authorizedExecutors[executor];\n  }\n\n  /**\n   * @dev Getter the address of the guardian, that can mainly cancel proposals\n   * @return The address of the guardian\n   **/\n  function getGuardian() external view override returns (address) {\n    return _guardian;\n  }\n\n  /**\n   * @dev Getter of the proposal count (the current number of proposals ever created)\n   * @return the proposal count\n   **/\n  function getProposalsCount() external view override returns (uint256) {\n    return _proposalsCount;\n  }\n\n  /**\n   * @dev Getter of a proposal by id\n   * @param proposalId id of the proposal to get\n   * @return the proposal as ProposalWithoutVotes memory object\n   **/\n  function getProposalById(uint256 proposalId)\n    public\n    view\n    override\n    returns (ProposalWithoutVotes memory)\n  {\n    Proposal storage proposal = _proposals[proposalId];\n    ProposalWithoutVotes memory proposalWithoutVotes = ProposalWithoutVotes({\n      id: proposal.id,\n      creator: proposal.creator,\n      executor: proposal.executor,\n      targets: proposal.targets,\n      values: proposal.values,\n      signatures: proposal.signatures,\n      calldatas: proposal.calldatas,\n      withDelegatecalls: proposal.withDelegatecalls,\n      startBlock: proposal.startBlock,\n      endBlock: proposal.endBlock,\n      executionTime: proposal.executionTime,\n      forVotes: proposal.forVotes,\n      againstVotes: proposal.againstVotes,\n      executed: proposal.executed,\n      canceled: proposal.canceled,\n      strategy: proposal.strategy,\n      ipfsHash: proposal.ipfsHash\n    });\n\n    return proposalWithoutVotes;\n  }\n\n  /**\n   * @dev Getter of the Vote of a voter about a proposal\n   * Note: Vote is a struct: ({bool support, uint248 votingPower})\n   * @param proposalId id of the proposal\n   * @param voter address of the voter\n   * @return The associated Vote memory object\n   **/\n  function getVoteOnProposal(uint256 proposalId, address voter)\n    public\n    view\n    override\n    returns (Vote memory)\n  {\n    return _proposals[proposalId].votes[voter];\n  }\n\n  /**\n   * @dev Get the current state of a proposal\n   * @param proposalId id of the proposal\n   * @return The current state of the proposal\n   **/\n  function getProposalState(uint256 proposalId) public view override returns (ProposalState) {\n    require(_proposalsCount >= proposalId, 'Governance: getProposalState: INVALID_PROPOSAL_ID');\n    Proposal storage proposal = _proposals[proposalId];\n    if (proposal.canceled) {\n      return ProposalState.Canceled;\n    } else if (block.number <= proposal.startBlock) {\n      return ProposalState.Pending;\n    } else if (block.number <= proposal.endBlock) {\n      return ProposalState.Active;\n    } else if (!IProposalValidator(address(proposal.executor)).isProposalPassed(this, proposalId)) {\n      return ProposalState.Failed;\n    } else if (proposal.executionTime == 0) {\n      return ProposalState.Succeeded;\n    } else if (proposal.executed) {\n      return ProposalState.Executed;\n    } else if (proposal.executor.isProposalOverGracePeriod(this, proposalId)) {\n      return ProposalState.Expired;\n    } else {\n      return ProposalState.Queued;\n    }\n  }\n\n  function _queueOrRevert(\n    IExecutorWithTimelock executor,\n    address target,\n    uint256 value,\n    string memory signature,\n    bytes memory callData,\n    uint256 executionTime,\n    bool withDelegatecall\n  ) internal {\n    require(\n      !executor.isActionQueued(\n        keccak256(abi.encode(target, value, signature, callData, executionTime, withDelegatecall))\n      ),\n      'Governance: queueOrRevert: DUPLICATED_ACTION'\n    );\n    executor.queueTransaction(target, value, signature, callData, executionTime, withDelegatecall);\n  }\n\n  function _submitVote(\n    address tokenAddress,\n    uint256 tokenAmount,\n    address voter,\n    uint256 proposalId,\n    bool support\n  ) internal {\n    ProposalState state = getProposalState(proposalId);\n    require(state == ProposalState.Active, 'Governance: submitVote: VOTING_CLOSED');\n    Proposal storage proposal = _proposals[proposalId];\n    Vote storage vote = proposal.votes[voter];\n    \n    require(vote.votingPower == 0, 'Governance: submitVote: VOTE_ALREADY_SUBMITTED');\n    \n    require(tokenAmount > 0, 'Governance: submitVote: TOKEN AMOUNT TO SWAP MUST BE ABOVE 0');\n    require(\n      (tokenAddress == _PPT) || \n      (tokenAddress == _PXT),\n      'Governance: submitVote: TOKEN_ADDRESS MUST BE PPT OR PXT TO VOTE'\n    );\n\n    uint256 votingPower = 0;\n\n    if (tokenAddress == _PPT) {\n      votingPower = tokenAmount; // to issue 1-1 for PPT\n      _tokenSwapAndLock(\n        proposalId, voter, \n        tokenAddress, tokenAmount, \n        votingPower\n      );\n    } else if (tokenAddress == _PXT) {\n      votingPower = tokenAmount.mul(5);\n      _tokenSwapAndLock(\n        proposalId, voter, \n        tokenAddress, tokenAmount, \n        votingPower // to issue x5 for PXT\n      ); \n    }\n\n    if (support) {\n      proposal.forVotes = proposal.forVotes.add(votingPower);\n    } else {\n      proposal.againstVotes = proposal.againstVotes.add(votingPower);\n    }\n\n    vote.support = support;\n    vote.votingPower = uint248(votingPower);\n\n    emit VoteEmitted(proposalId, voter, support, votingPower);\n  }\n\n  function _tokenSwapAndLock(\n    uint256 proposalId,\n    address voter,\n    address tokenAddress, \n    uint256 tokenAmount, \n    uint256 votingPower\n    ) internal {\n    LockedTokens storage lockedTokens = _proposals[proposalId].lockedTokens[voter];\n    MockVotingToken voteToken = MockVotingToken(_votingToken);\n    IERC20Detailed userToken = IERC20Detailed(tokenAddress);\n    require(\n        userToken.transferFrom(voter, address(this), tokenAmount) == true,\n        'Governance: tokenSwapAndLock: TOKEN TRANSFER_FROM FAILED, CHECK BALANCE OR APPROVAL'\n    );\n    lockedTokens.tokenAddress =  tokenAddress;\n    lockedTokens.amount = tokenAmount;\n    require(\n      voteToken.mint(voter, votingPower) == true,\n      'Governance: tokenSwapAndLock: VOTE TOKENS NOT MINTED'\n    );\n\n    emit TokensLockedForVoting(voter, tokenAddress, tokenAmount);\n  }\n\n  function _setGovernanceStrategy(address governanceStrategy) internal {\n    _governanceStrategy = governanceStrategy;\n\n    emit GovernanceStrategyChanged(governanceStrategy, _msgSender());\n  }\n\n  function _setVotingDelay(uint256 votingDelay) internal {\n    _votingDelay = votingDelay;\n\n    emit VotingDelayChanged(votingDelay, _msgSender());\n  }\n\n  function _setVotingToken(address votingToken) internal {\n    require(votingToken != address(0), \"Governance: setVotingtoken: VOTING_TOKEN INVALID\");\n    _votingToken = votingToken;\n    emit VotingTokenSet(_votingToken);\n  }\n\n  function _authorizeExecutor(address executor) internal {\n    _authorizedExecutors[executor] = true;\n    emit ExecutorAuthorized(executor);\n  }\n\n  function _unauthorizeExecutor(address executor) internal {\n    _authorizedExecutors[executor] = false;\n    emit ExecutorUnauthorized(executor);\n  }\n\n  function _setUserTokens(address ppt, address pxt) internal {\n    require(\n      (ppt != address(0)),\n      //&& (IERC20Detailed(ppt).totalSupply() > 0), \n      'Governance: _setUserTokens: PPT TOKEN ADDRESS IS INVALID'\n    );\n\n    require(\n      (pxt != address(0)),\n      //&& (IERC20Detailed(pxt).totalSupply() > 0), \n      'Governance: _setUserTokens: PXT TOKEN ADDRESS IS INVALID'\n    );\n    \n    _PPT = ppt;\n    _PXT = pxt;\n\n    emit UserTokensSet(_PPT, _PXT);\n  }\n\n  /**\n   * @dev View function allowing msg.sender to view how their voting power\n   * could change the outcome of the proposal. \n   * The proposal must be pending or active\n   * @param tokenAddress the address of the token to use to vote\n   * tokenAddress must be PPT or PXT and user balance of tokenAddress\n   * must be greater than zero\n   * @param tokenAmount the amount of tokens to use as voting power\n   * @param proposalId id of the proposal\n   * @param support boolean, true = vote for, false = vote against\n   * @return votingPower, for votes and against votes\n   **/\n  function getVotingOutcome(\n    address tokenAddress, \n    uint256 tokenAmount,\n    uint256 proposalId, \n    bool support\n  ) external view override returns (uint256, uint256, uint256) {\n    require(getProposalState(proposalId) == ProposalState.Active, 'Governance: getVotingOutcome: VOTING_CLOSED');\n    ProposalWithoutVotes memory proposal = getProposalById(proposalId);\n    address voter = _msgSender();\n    Vote memory vote = _proposals[proposalId].votes[voter];\n\n    require(vote.votingPower == 0, 'Governance: getVotingOutcome: VOTE_ALREADY_SUBMITTED');\n    require(tokenAmount > 0, 'Governance: getVotingOutcome: TOKEN AMOUNT TO SWAP MUST BE ABOVE 0');\n    require(\n      (tokenAddress == _PPT) || \n      (tokenAddress == _PXT),\n      'Governance: getVotingOutcome: TOKEN_ADDRESS MUST BE PPT OR PXT TO VOTE'\n    );\n\n    uint256 votingPower = 0;\n\n    if (tokenAddress == _PPT) {\n      votingPower = tokenAmount;\n    } else if (tokenAddress == _PXT) {\n      votingPower = tokenAmount.mul(5);\n    }\n    \n    if (support) {\n      proposal.forVotes = proposal.forVotes.add(votingPower);\n    } else {\n      proposal.againstVotes = proposal.againstVotes.add(votingPower);\n    }\n\n    return (votingPower, proposal.forVotes, proposal.againstVotes);\n  }\n\n  /**\n   * @dev Getter function to get tokens locked in proposal for user\n   * by proposal id\n   * @param proposalId id of the proposal to get\n   * @param voter address of the voter\n   * @return the amount of tokens locked and token address\n   **/\n  function getLockedTokens(uint256 proposalId, address voter) \n  public \n  view \n  override \n  returns(LockedTokens memory) {\n    return _proposals[proposalId].lockedTokens[voter];\n  }\n\n  /**\n   * @dev Function to redeem tokens locked in proposal for user\n   * by proposal id\n   * @param proposalId id of the proposal to get\n   **/\n  function redeemLockedTokens(\n    uint256 proposalId\n  ) external {\n    require(\n      getProposalState(proposalId) != ProposalState.Pending &&\n      getProposalState(proposalId) != ProposalState.Active, \n      'Governance: getVotingOutcome: VOTING_OPEN'\n    );\n\n    address voter = _msgSender();\n    uint256 votingPower = IVotingStrategy(_proposals[proposalId].strategy).getVotingPower(\n      voter    \n    );\n    \n    LockedTokens memory lockTokens = getLockedTokens(proposalId, voter);\n    require(lockTokens.amount > 0, \"Governance:redeemLockedTokens: user has no locked tokens\");\n    \n    Proposal storage proposal = _proposals[proposalId];\n    proposal.lockedTokens[voter].amount = 0;\n\n    MockVotingToken voteToken = MockVotingToken(_votingToken);\n    uint248 voteOnProposal = getVoteOnProposal(proposalId, voter).votingPower;\n    require(votingPower >= voteOnProposal, 'Governance: redeemLockedTokens: VOTING POWER MUST BE ABOVE or EQUAL TO VOTE ON PROPOSAL');\n    \n    IERC20Detailed userToken = IERC20Detailed(lockTokens.tokenAddress);\n  \n    require(\n      voteToken.burn(voter, voteOnProposal) == true,\n      'Governance: redeemLockedTokens: VOTE TOKENS NOT BURNT'\n    );\n\n    require(\n      userToken.transfer(voter, lockTokens.amount) == true,\n      'Governance: redeemLockedTokens: LOCKED TOKENS NOT SENT TO USER'\n    );\n    \n    emit LockedTokensRedeemed(voter, lockTokens.tokenAddress, lockTokens.amount);\n  }\n\n  function getChainId() public pure returns (uint256) {\n    uint256 chainId;\n    assembly {\n      chainId := chainid()\n    }\n    return chainId;\n  }\n\n}\n",
  "sourcePath": "/Users/nemitariajienka/Desktop/projects/populous/Populous-DeFi-governance/contracts/governance/PopulousGovernanceV3.sol",
  "compiler": {
    "name": "solc",
    "version": "0.7.5+commit.eb77ed08.Emscripten.clang"
  },
  "schemaVersion": "3.3.3",
  "updatedAt": "2021-06-04T11:56:26.148Z",
  "networkType": "ethereum",
  "devdoc": {
    "author": "Populous*",
    "details": "Main point of interaction with Populous protocol's governance - Create a Proposal - Cancel a Proposal - Queue a Proposal - Execute a Proposal - Submit Vote to a Proposal Proposal States : Pending => Active => Succeeded(/Failed) => Queued => Executed(/Expired)                   The transition to \"Canceled\" can appear in multiple states",
    "kind": "dev",
    "methods": {
      "__abdicate()": {
        "details": "Let the guardian abdicate from its priviledged rights*"
      },
      "authorizeExecutors(address[])": {
        "details": "Add new addresses to the list of authorized executors",
        "params": {
          "executors": "list of new addresses to be authorized executors*"
        }
      },
      "cancel(uint256)": {
        "details": "Cancels a Proposal. - Callable by the _guardian with relaxed conditions, or by anybody if the conditions of   cancellation on the executor are fulfilled",
        "params": {
          "proposalId": "id of the proposal*"
        }
      },
      "create(address,address[],uint256[],string[],bytes[],bool[],bytes32)": {
        "details": "Creates a Proposal (needs to be validated by the Proposal Validator)",
        "params": {
          "calldatas": "list of calldatas: if associated signature empty, calldata ready, else calldata is arguments",
          "executor": "The ExecutorWithTimelock contract that will execute the proposal",
          "ipfsHash": "IPFS hash of the proposal*",
          "signatures": "list of function signatures (can be empty) to be used when created the callData",
          "targets": "list of contracts called by proposal's associated transactions",
          "values": "list of value in wei for each propoposal's associated transaction",
          "withDelegatecalls": "boolean, true = transaction delegatecalls the taget, else calls the target"
        }
      },
      "execute(uint256)": {
        "details": "Execute the proposal (If Proposal Queued)",
        "params": {
          "proposalId": "id of the proposal to execute*"
        }
      },
      "getGovernanceStrategy()": {
        "details": "Getter of the current GovernanceStrategy address",
        "returns": {
          "_0": "The address of the current GovernanceStrategy contracts*"
        }
      },
      "getGuardian()": {
        "details": "Getter the address of the guardian, that can mainly cancel proposals",
        "returns": {
          "_0": "The address of the guardian*"
        }
      },
      "getLockedTokens(uint256,address)": {
        "details": "Getter function to get tokens locked in proposal for user by proposal id",
        "params": {
          "proposalId": "id of the proposal to get",
          "voter": "address of the voter"
        },
        "returns": {
          "_0": "the amount of tokens locked and token address*"
        }
      },
      "getProposalById(uint256)": {
        "details": "Getter of a proposal by id",
        "params": {
          "proposalId": "id of the proposal to get"
        },
        "returns": {
          "_0": "the proposal as ProposalWithoutVotes memory object*"
        }
      },
      "getProposalState(uint256)": {
        "details": "Get the current state of a proposal",
        "params": {
          "proposalId": "id of the proposal"
        },
        "returns": {
          "_0": "The current state of the proposal*"
        }
      },
      "getProposalsCount()": {
        "details": "Getter of the proposal count (the current number of proposals ever created)",
        "returns": {
          "_0": "the proposal count*"
        }
      },
      "getVoteOnProposal(uint256,address)": {
        "details": "Getter of the Vote of a voter about a proposal Note: Vote is a struct: ({bool support, uint248 votingPower})",
        "params": {
          "proposalId": "id of the proposal",
          "voter": "address of the voter"
        },
        "returns": {
          "_0": "The associated Vote memory object*"
        }
      },
      "getVotingDelay()": {
        "details": "Getter of the current Voting Delay (delay before a created proposal can be voted on) Different from the voting duration",
        "returns": {
          "_0": "The voting delay in number of blocks*"
        }
      },
      "getVotingOutcome(address,uint256,uint256,bool)": {
        "details": "View function allowing msg.sender to view how their voting power could change the outcome of the proposal.  The proposal must be pending or active",
        "params": {
          "proposalId": "id of the proposal",
          "support": "boolean, true = vote for, false = vote against",
          "tokenAddress": "the address of the token to use to vote tokenAddress must be PPT or PXT and user balance of tokenAddress must be greater than zero",
          "tokenAmount": "the amount of tokens to use as voting power"
        },
        "returns": {
          "_0": "votingPower, for votes and against votes*"
        }
      },
      "isExecutorAuthorized(address)": {
        "details": "Returns whether an address is an authorized executor",
        "params": {
          "executor": "address to evaluate as authorized executor"
        },
        "returns": {
          "_0": "true if authorized*"
        }
      },
      "owner()": {
        "details": "Returns the address of the current owner."
      },
      "queue(uint256)": {
        "details": "Queue the proposal (If Proposal Succeeded)",
        "params": {
          "proposalId": "id of the proposal to queue*"
        }
      },
      "redeemLockedTokens(uint256)": {
        "details": "Function to redeem tokens locked in proposal for user by proposal id",
        "params": {
          "proposalId": "id of the proposal to get*"
        }
      },
      "renounceOwnership()": {
        "details": "Leaves the contract without owner. It will not be possible to call `onlyOwner` functions anymore. Can only be called by the current owner. NOTE: Renouncing ownership will leave the contract without an owner, thereby removing any functionality that is only available to the owner."
      },
      "setGovernanceStrategy(address)": {
        "details": "Set new GovernanceStrategy Note: owner should be a timelocked executor, so needs to make a proposal",
        "params": {
          "governanceStrategy": "new Address of the GovernanceStrategy contract*"
        }
      },
      "setVotingDelay(uint256)": {
        "details": "Set new Voting Delay (delay before a newly created proposal can be voted on) Note: owner should be a timelocked executor, so needs to make a proposal",
        "params": {
          "votingDelay": "new voting delay in terms of blocks*"
        }
      },
      "submitVote(address,uint256,uint256,bool)": {
        "details": "Function allowing msg.sender to vote for/against a proposal",
        "params": {
          "proposalId": "id of the proposal",
          "support": "boolean, true = vote for, false = vote against*",
          "tokenAddress": "the address of the token to use to vote tokenAddress must be PPT or PXT and user balance of tokenAddress must be greater than zero",
          "tokenAmount": "the amount of tokens to use as voting power"
        }
      },
      "submitVoteBySignature(address,uint256,uint256,bool,uint8,bytes32,bytes32)": {
        "details": "Function to register the vote of user that has voted offchain via signature",
        "params": {
          "proposalId": "id of the proposal",
          "r": "r part of the voter signature",
          "s": "s part of the voter signature*",
          "support": "boolean, true = vote for, false = vote against",
          "tokenAddress": "the address of the token to use to vote tokenAddress must be PPT or PXT and user balance of tokenAddress must be greater than zero",
          "tokenAmount": "the amount of tokens to use as voting power",
          "v": "v part of the voter signature"
        }
      },
      "transferOwnership(address)": {
        "details": "Transfers ownership of the contract to a new account (`newOwner`). Can only be called by the current owner."
      },
      "unauthorizeExecutors(address[])": {
        "details": "Remove addresses to the list of authorized executors",
        "params": {
          "executors": "list of addresses to be removed as authorized executors*"
        }
      }
    },
    "title": "Governance V2 contract",
    "version": 1
  },
  "userdoc": {
    "kind": "user",
    "methods": {},
    "version": 1
  }
}