{
  "contractName": "PopulousGovernanceV2",
  "abi": [
    {
      "inputs": [
        {
          "internalType": "address",
          "name": "votingToken",
          "type": "address"
        },
        {
          "internalType": "address",
          "name": "ppt",
          "type": "address"
        },
        {
          "internalType": "address",
          "name": "pxt",
          "type": "address"
        },
        {
          "internalType": "address",
          "name": "governanceStrategy",
          "type": "address"
        },
        {
          "internalType": "uint256",
          "name": "votingDelay",
          "type": "uint256"
        },
        {
          "internalType": "address",
          "name": "guardian",
          "type": "address"
        },
        {
          "internalType": "address[]",
          "name": "executors",
          "type": "address[]"
        }
      ],
      "stateMutability": "nonpayable",
      "type": "constructor"
    },
    {
      "anonymous": false,
      "inputs": [
        {
          "indexed": false,
          "internalType": "address",
          "name": "executor",
          "type": "address"
        }
      ],
      "name": "ExecutorAuthorized",
      "type": "event"
    },
    {
      "anonymous": false,
      "inputs": [
        {
          "indexed": false,
          "internalType": "address",
          "name": "executor",
          "type": "address"
        }
      ],
      "name": "ExecutorUnauthorized",
      "type": "event"
    },
    {
      "anonymous": false,
      "inputs": [
        {
          "indexed": true,
          "internalType": "address",
          "name": "newStrategy",
          "type": "address"
        },
        {
          "indexed": true,
          "internalType": "address",
          "name": "initiatorChange",
          "type": "address"
        }
      ],
      "name": "GovernanceStrategyChanged",
      "type": "event"
    },
    {
      "anonymous": false,
      "inputs": [
        {
          "indexed": true,
          "internalType": "address",
          "name": "voter",
          "type": "address"
        },
        {
          "indexed": true,
          "internalType": "address",
          "name": "tokenAddress",
          "type": "address"
        },
        {
          "indexed": false,
          "internalType": "uint256",
          "name": "tokenAmount",
          "type": "uint256"
        }
      ],
      "name": "LockedTokensRedeemed",
      "type": "event"
    },
    {
      "anonymous": false,
      "inputs": [
        {
          "indexed": true,
          "internalType": "address",
          "name": "previousOwner",
          "type": "address"
        },
        {
          "indexed": true,
          "internalType": "address",
          "name": "newOwner",
          "type": "address"
        }
      ],
      "name": "OwnershipTransferred",
      "type": "event"
    },
    {
      "anonymous": false,
      "inputs": [
        {
          "indexed": false,
          "internalType": "uint256",
          "name": "id",
          "type": "uint256"
        }
      ],
      "name": "ProposalCanceled",
      "type": "event"
    },
    {
      "anonymous": false,
      "inputs": [
        {
          "indexed": false,
          "internalType": "uint256",
          "name": "id",
          "type": "uint256"
        },
        {
          "indexed": true,
          "internalType": "address",
          "name": "creator",
          "type": "address"
        },
        {
          "indexed": true,
          "internalType": "contract IExecutorWithTimelock",
          "name": "executor",
          "type": "address"
        },
        {
          "indexed": false,
          "internalType": "address[]",
          "name": "targets",
          "type": "address[]"
        },
        {
          "indexed": false,
          "internalType": "uint256[]",
          "name": "values",
          "type": "uint256[]"
        },
        {
          "indexed": false,
          "internalType": "string[]",
          "name": "signatures",
          "type": "string[]"
        },
        {
          "indexed": false,
          "internalType": "bytes[]",
          "name": "calldatas",
          "type": "bytes[]"
        },
        {
          "indexed": false,
          "internalType": "bool[]",
          "name": "withDelegatecalls",
          "type": "bool[]"
        },
        {
          "indexed": false,
          "internalType": "uint256",
          "name": "startBlock",
          "type": "uint256"
        },
        {
          "indexed": false,
          "internalType": "uint256",
          "name": "endBlock",
          "type": "uint256"
        },
        {
          "indexed": false,
          "internalType": "address",
          "name": "strategy",
          "type": "address"
        },
        {
          "indexed": false,
          "internalType": "bytes32",
          "name": "ipfsHash",
          "type": "bytes32"
        }
      ],
      "name": "ProposalCreated",
      "type": "event"
    },
    {
      "anonymous": false,
      "inputs": [
        {
          "indexed": false,
          "internalType": "uint256",
          "name": "id",
          "type": "uint256"
        },
        {
          "indexed": true,
          "internalType": "address",
          "name": "initiatorExecution",
          "type": "address"
        }
      ],
      "name": "ProposalExecuted",
      "type": "event"
    },
    {
      "anonymous": false,
      "inputs": [
        {
          "indexed": false,
          "internalType": "uint256",
          "name": "id",
          "type": "uint256"
        },
        {
          "indexed": false,
          "internalType": "uint256",
          "name": "executionTime",
          "type": "uint256"
        },
        {
          "indexed": true,
          "internalType": "address",
          "name": "initiatorQueueing",
          "type": "address"
        }
      ],
      "name": "ProposalQueued",
      "type": "event"
    },
    {
      "anonymous": false,
      "inputs": [
        {
          "indexed": true,
          "internalType": "address",
          "name": "voter",
          "type": "address"
        },
        {
          "indexed": true,
          "internalType": "address",
          "name": "tokenAddress",
          "type": "address"
        },
        {
          "indexed": false,
          "internalType": "uint256",
          "name": "tokenAmount",
          "type": "uint256"
        }
      ],
      "name": "TokensLockedForVoting",
      "type": "event"
    },
    {
      "anonymous": false,
      "inputs": [
        {
          "indexed": false,
          "internalType": "uint256",
          "name": "id",
          "type": "uint256"
        },
        {
          "indexed": true,
          "internalType": "address",
          "name": "voter",
          "type": "address"
        },
        {
          "indexed": false,
          "internalType": "bool",
          "name": "support",
          "type": "bool"
        },
        {
          "indexed": false,
          "internalType": "uint256",
          "name": "votingPower",
          "type": "uint256"
        }
      ],
      "name": "VoteEmitted",
      "type": "event"
    },
    {
      "anonymous": false,
      "inputs": [
        {
          "indexed": false,
          "internalType": "uint256",
          "name": "newVotingDelay",
          "type": "uint256"
        },
        {
          "indexed": true,
          "internalType": "address",
          "name": "initiatorChange",
          "type": "address"
        }
      ],
      "name": "VotingDelayChanged",
      "type": "event"
    },
    {
      "anonymous": false,
      "inputs": [
        {
          "indexed": false,
          "internalType": "address",
          "name": "token",
          "type": "address"
        }
      ],
      "name": "VotingTokenSet",
      "type": "event"
    },
    {
      "inputs": [],
      "name": "DOMAIN_TYPEHASH",
      "outputs": [
        {
          "internalType": "bytes32",
          "name": "",
          "type": "bytes32"
        }
      ],
      "stateMutability": "view",
      "type": "function"
    },
    {
      "inputs": [],
      "name": "NAME",
      "outputs": [
        {
          "internalType": "string",
          "name": "",
          "type": "string"
        }
      ],
      "stateMutability": "view",
      "type": "function"
    },
    {
      "inputs": [],
      "name": "VOTE_EMITTED_TYPEHASH",
      "outputs": [
        {
          "internalType": "bytes32",
          "name": "",
          "type": "bytes32"
        }
      ],
      "stateMutability": "view",
      "type": "function"
    },
    {
      "inputs": [],
      "name": "_PPT",
      "outputs": [
        {
          "internalType": "address",
          "name": "",
          "type": "address"
        }
      ],
      "stateMutability": "view",
      "type": "function"
    },
    {
      "inputs": [],
      "name": "_PXT",
      "outputs": [
        {
          "internalType": "address",
          "name": "",
          "type": "address"
        }
      ],
      "stateMutability": "view",
      "type": "function"
    },
    {
      "inputs": [],
      "name": "owner",
      "outputs": [
        {
          "internalType": "address",
          "name": "",
          "type": "address"
        }
      ],
      "stateMutability": "view",
      "type": "function"
    },
    {
      "inputs": [],
      "name": "renounceOwnership",
      "outputs": [],
      "stateMutability": "nonpayable",
      "type": "function"
    },
    {
      "inputs": [
        {
          "internalType": "address",
          "name": "newOwner",
          "type": "address"
        }
      ],
      "name": "transferOwnership",
      "outputs": [],
      "stateMutability": "nonpayable",
      "type": "function"
    },
    {
      "inputs": [
        {
          "internalType": "contract IExecutorWithTimelock",
          "name": "executor",
          "type": "address"
        },
        {
          "internalType": "address[]",
          "name": "targets",
          "type": "address[]"
        },
        {
          "internalType": "uint256[]",
          "name": "values",
          "type": "uint256[]"
        },
        {
          "internalType": "string[]",
          "name": "signatures",
          "type": "string[]"
        },
        {
          "internalType": "bytes[]",
          "name": "calldatas",
          "type": "bytes[]"
        },
        {
          "internalType": "bool[]",
          "name": "withDelegatecalls",
          "type": "bool[]"
        },
        {
          "internalType": "bytes32",
          "name": "ipfsHash",
          "type": "bytes32"
        }
      ],
      "name": "create",
      "outputs": [
        {
          "internalType": "uint256",
          "name": "",
          "type": "uint256"
        }
      ],
      "stateMutability": "nonpayable",
      "type": "function"
    },
    {
      "inputs": [
        {
          "internalType": "uint256",
          "name": "proposalId",
          "type": "uint256"
        }
      ],
      "name": "cancel",
      "outputs": [],
      "stateMutability": "nonpayable",
      "type": "function"
    },
    {
      "inputs": [
        {
          "internalType": "uint256",
          "name": "proposalId",
          "type": "uint256"
        }
      ],
      "name": "queue",
      "outputs": [],
      "stateMutability": "nonpayable",
      "type": "function"
    },
    {
      "inputs": [
        {
          "internalType": "uint256",
          "name": "proposalId",
          "type": "uint256"
        }
      ],
      "name": "execute",
      "outputs": [],
      "stateMutability": "payable",
      "type": "function"
    },
    {
      "inputs": [
        {
          "internalType": "address",
          "name": "tokenAddress",
          "type": "address"
        },
        {
          "internalType": "uint256",
          "name": "tokenAmount",
          "type": "uint256"
        },
        {
          "internalType": "uint256",
          "name": "proposalId",
          "type": "uint256"
        },
        {
          "internalType": "bool",
          "name": "support",
          "type": "bool"
        }
      ],
      "name": "submitVote",
      "outputs": [],
      "stateMutability": "nonpayable",
      "type": "function"
    },
    {
      "inputs": [
        {
          "internalType": "address",
          "name": "tokenAddress",
          "type": "address"
        },
        {
          "internalType": "uint256",
          "name": "tokenAmount",
          "type": "uint256"
        },
        {
          "internalType": "uint256",
          "name": "proposalId",
          "type": "uint256"
        },
        {
          "internalType": "bool",
          "name": "support",
          "type": "bool"
        },
        {
          "internalType": "uint8",
          "name": "v",
          "type": "uint8"
        },
        {
          "internalType": "bytes32",
          "name": "r",
          "type": "bytes32"
        },
        {
          "internalType": "bytes32",
          "name": "s",
          "type": "bytes32"
        }
      ],
      "name": "submitVoteBySignature",
      "outputs": [],
      "stateMutability": "nonpayable",
      "type": "function"
    },
    {
      "inputs": [
        {
          "internalType": "address",
          "name": "governanceStrategy",
          "type": "address"
        }
      ],
      "name": "setGovernanceStrategy",
      "outputs": [],
      "stateMutability": "nonpayable",
      "type": "function"
    },
    {
      "inputs": [
        {
          "internalType": "uint256",
          "name": "votingDelay",
          "type": "uint256"
        }
      ],
      "name": "setVotingDelay",
      "outputs": [],
      "stateMutability": "nonpayable",
      "type": "function"
    },
    {
      "inputs": [
        {
          "internalType": "address[]",
          "name": "executors",
          "type": "address[]"
        }
      ],
      "name": "authorizeExecutors",
      "outputs": [],
      "stateMutability": "nonpayable",
      "type": "function"
    },
    {
      "inputs": [
        {
          "internalType": "address[]",
          "name": "executors",
          "type": "address[]"
        }
      ],
      "name": "unauthorizeExecutors",
      "outputs": [],
      "stateMutability": "nonpayable",
      "type": "function"
    },
    {
      "inputs": [],
      "name": "__abdicate",
      "outputs": [],
      "stateMutability": "nonpayable",
      "type": "function"
    },
    {
      "inputs": [],
      "name": "getGovernanceStrategy",
      "outputs": [
        {
          "internalType": "address",
          "name": "",
          "type": "address"
        }
      ],
      "stateMutability": "view",
      "type": "function"
    },
    {
      "inputs": [],
      "name": "getVotingDelay",
      "outputs": [
        {
          "internalType": "uint256",
          "name": "",
          "type": "uint256"
        }
      ],
      "stateMutability": "view",
      "type": "function"
    },
    {
      "inputs": [
        {
          "internalType": "address",
          "name": "executor",
          "type": "address"
        }
      ],
      "name": "isExecutorAuthorized",
      "outputs": [
        {
          "internalType": "bool",
          "name": "",
          "type": "bool"
        }
      ],
      "stateMutability": "view",
      "type": "function"
    },
    {
      "inputs": [],
      "name": "getGuardian",
      "outputs": [
        {
          "internalType": "address",
          "name": "",
          "type": "address"
        }
      ],
      "stateMutability": "view",
      "type": "function"
    },
    {
      "inputs": [],
      "name": "getProposalsCount",
      "outputs": [
        {
          "internalType": "uint256",
          "name": "",
          "type": "uint256"
        }
      ],
      "stateMutability": "view",
      "type": "function"
    },
    {
      "inputs": [
        {
          "internalType": "uint256",
          "name": "proposalId",
          "type": "uint256"
        }
      ],
      "name": "getProposalById",
      "outputs": [
        {
          "components": [
            {
              "internalType": "uint256",
              "name": "id",
              "type": "uint256"
            },
            {
              "internalType": "address",
              "name": "creator",
              "type": "address"
            },
            {
              "internalType": "contract IExecutorWithTimelock",
              "name": "executor",
              "type": "address"
            },
            {
              "internalType": "address[]",
              "name": "targets",
              "type": "address[]"
            },
            {
              "internalType": "uint256[]",
              "name": "values",
              "type": "uint256[]"
            },
            {
              "internalType": "string[]",
              "name": "signatures",
              "type": "string[]"
            },
            {
              "internalType": "bytes[]",
              "name": "calldatas",
              "type": "bytes[]"
            },
            {
              "internalType": "bool[]",
              "name": "withDelegatecalls",
              "type": "bool[]"
            },
            {
              "internalType": "uint256",
              "name": "startBlock",
              "type": "uint256"
            },
            {
              "internalType": "uint256",
              "name": "endBlock",
              "type": "uint256"
            },
            {
              "internalType": "uint256",
              "name": "executionTime",
              "type": "uint256"
            },
            {
              "internalType": "uint256",
              "name": "forVotes",
              "type": "uint256"
            },
            {
              "internalType": "uint256",
              "name": "againstVotes",
              "type": "uint256"
            },
            {
              "internalType": "bool",
              "name": "executed",
              "type": "bool"
            },
            {
              "internalType": "bool",
              "name": "canceled",
              "type": "bool"
            },
            {
              "internalType": "address",
              "name": "strategy",
              "type": "address"
            },
            {
              "internalType": "bytes32",
              "name": "ipfsHash",
              "type": "bytes32"
            }
          ],
          "internalType": "struct IPopulousGovernanceV2.ProposalWithoutVotes",
          "name": "",
          "type": "tuple"
        }
      ],
      "stateMutability": "view",
      "type": "function"
    },
    {
      "inputs": [
        {
          "internalType": "uint256",
          "name": "proposalId",
          "type": "uint256"
        },
        {
          "internalType": "address",
          "name": "voter",
          "type": "address"
        }
      ],
      "name": "getVoteOnProposal",
      "outputs": [
        {
          "components": [
            {
              "internalType": "bool",
              "name": "support",
              "type": "bool"
            },
            {
              "internalType": "uint248",
              "name": "votingPower",
              "type": "uint248"
            }
          ],
          "internalType": "struct IPopulousGovernanceV2.Vote",
          "name": "",
          "type": "tuple"
        }
      ],
      "stateMutability": "view",
      "type": "function"
    },
    {
      "inputs": [
        {
          "internalType": "uint256",
          "name": "proposalId",
          "type": "uint256"
        }
      ],
      "name": "getProposalState",
      "outputs": [
        {
          "internalType": "enum IPopulousGovernanceV2.ProposalState",
          "name": "",
          "type": "uint8"
        }
      ],
      "stateMutability": "view",
      "type": "function"
    },
    {
      "inputs": [
        {
          "internalType": "address",
          "name": "tokenAddress",
          "type": "address"
        },
        {
          "internalType": "uint256",
          "name": "tokenAmount",
          "type": "uint256"
        },
        {
          "internalType": "uint256",
          "name": "proposalId",
          "type": "uint256"
        },
        {
          "internalType": "bool",
          "name": "support",
          "type": "bool"
        }
      ],
      "name": "getVotingOutcome",
      "outputs": [
        {
          "internalType": "uint256",
          "name": "",
          "type": "uint256"
        },
        {
          "internalType": "uint256",
          "name": "",
          "type": "uint256"
        }
      ],
      "stateMutability": "view",
      "type": "function"
    },
    {
      "inputs": [
        {
          "internalType": "uint256",
          "name": "proposalId",
          "type": "uint256"
        },
        {
          "internalType": "address",
          "name": "voter",
          "type": "address"
        }
      ],
      "name": "getLockedTokens",
      "outputs": [
        {
          "components": [
            {
              "internalType": "address",
              "name": "tokenAddress",
              "type": "address"
            },
            {
              "internalType": "uint256",
              "name": "amount",
              "type": "uint256"
            }
          ],
          "internalType": "struct IPopulousGovernanceV2.LockedTokens",
          "name": "",
          "type": "tuple"
        }
      ],
      "stateMutability": "view",
      "type": "function"
    },
    {
      "inputs": [
        {
          "internalType": "uint256",
          "name": "proposalId",
          "type": "uint256"
        }
      ],
      "name": "redeemLockedTokens",
      "outputs": [],
      "stateMutability": "nonpayable",
      "type": "function"
    }
  ],
  "bytecode": "0x60806040523480156200001157600080fd5b506040516200442c3803806200442c8339810160408190526200003491620004b3565b600062000040620000ea565b600080546001600160a01b0319166001600160a01b0383169081178255604051929350917f8be0079c531659141344cd1fd0a4f28419497f9722a3daafe3b4186f6b6457e0908290a3506200009584620000ee565b620000a0836200013b565b620000ab876200017f565b620000b786866200020f565b600980546001600160a01b0319166001600160a01b038416179055620000dd8162000395565b50505050505050620006d0565b3390565b600180546001600160a01b0319166001600160a01b0383169081179091556040513391907f9e8e9f668db69a2cefb172dabe284d0d3aea2b7ee64212a205bd033bd03a3d5590600090a350565b600281905560405133907fc46fc23e244f0720a98ddbac6efb5bb40d212cf15e6478fc4b3017648715289d9062000174908490620006a3565b60405180910390a250565b6001600160a01b038116620001b15760405162461bcd60e51b8152600401620001a89062000635565b60405180910390fd5b600380546001600160a01b0319166001600160a01b0383811691909117918290556040517f392aa4d4c6804dae27d6bfa0c6430bba42833bed9c53833e7b7f2b2d7cc13aef9262000204921690620005ea565b60405180910390a150565b6001600160a01b038216158015906200029c57506000826001600160a01b03166318160ddd6040518163ffffffff1660e01b815260040160206040518083038186803b1580156200025f57600080fd5b505afa15801562000274573d6000803e3d6000fd5b505050506040513d601f19601f820116820180604052508101906200029a9190620005d1565b115b620002bb5760405162461bcd60e51b8152600401620001a8906200066c565b6001600160a01b038116158015906200034857506000816001600160a01b03166318160ddd6040518163ffffffff1660e01b815260040160206040518083038186803b1580156200030b57600080fd5b505afa15801562000320573d6000803e3d6000fd5b505050506040513d601f19601f82011682018060405250810190620003469190620005d1565b115b620003675760405162461bcd60e51b8152600401620001a890620005fe565b600480546001600160a01b039384166001600160a01b03199182161790915560058054929093169116179055565b6200039f620000ea565b6000546001600160a01b0390811691161462000402576040805162461bcd60e51b815260206004820181905260248201527f4f776e61626c653a2063616c6c6572206973206e6f7420746865206f776e6572604482015290519081900360640190fd5b60005b81518110156200043d57620004348282815181106200042057fe5b60200260200101516200044160201b60201c565b60010162000405565b5050565b6001600160a01b03811660009081526008602052604090819020805460ff19166001179055517f52762435f58790076157ea2a4914a5a4d0aa0eb421588891377692f7fd3bc0829062000204908390620005ea565b80516001600160a01b0381168114620004ae57600080fd5b919050565b600080600080600080600060e0888a031215620004ce578283fd5b620004d98862000496565b96506020620004ea818a0162000496565b9650620004fa60408a0162000496565b95506200050a60608a0162000496565b9450608089015193506200052160a08a0162000496565b60c08a01519093506001600160401b03808211156200053e578384fd5b818b0191508b601f83011262000552578384fd5b8151818111156200055f57fe5b838102915062000571848301620006ac565b8082825285820191508585018f878688010111156200058e578788fd5b8795505b83861015620005bb57620005a68162000496565b83526001959095019491860191860162000592565b5080965050505050505092959891949750929550565b600060208284031215620005e3578081fd5b5051919050565b6001600160a01b0391909116815260200190565b6020808252601c908201527f50585420544f4b454e204144445245535320495320494e56414c494400000000604082015260600190565b60208082526014908201527f564f54494e475f544f4b454e20494e56414c4944000000000000000000000000604082015260600190565b6020808252601c908201527f50505420544f4b454e204144445245535320495320494e56414c494400000000604082015260600190565b90815260200190565b6040518181016001600160401b0381118282101715620006c857fe5b604052919050565b613d4c80620006e06000396000f3fe6080604052600436106101cd5760003560e01c8063760fbc13116100f7578063a75b87d211610095578063ddf0b00911610064578063ddf0b0091461050f578063f2fde38b1461052f578063f8741a9c1461054f578063fe0d94c11461056f576101cd565b8063a75b87d21461047f578063a76a9a2f14610494578063bd969ba3146104b4578063cdc35ef9146104e1576101cd565b806398e527d3116100d157806398e527d3146104135780639aad6f6a14610428578063a2b170b014610448578063a3f4df7e1461045d576101cd565b8063760fbc13146103bc5780638da5cb5b146103d15780639080936f146103e6576101cd565b806340e58ee51161016f5780635877da451161013e5780635877da451461034757806364c786d91461036757806370b0f66014610387578063715018a6146103a7576101cd565b806340e58ee5146102ad5780634185ff83146102cd5780634ef8cc17146102fa578063548b514e1461031a576101cd565b80631a1caf7f116101ab5780631a1caf7f1461022757806320606b701461024957806334b18c261461026b5780633656de2114610280576101cd565b806306be3e8e146101d257806307c25b7d146101fd57806307e8aaef14610212575b600080fd5b3480156101de57600080fd5b506101e7610582565b6040516101f49190613357565b60405180910390f35b34801561020957600080fd5b506101e7610591565b34801561021e57600080fd5b506101e76105a0565b34801561023357600080fd5b50610247610242366004612f72565b6105af565b005b34801561025557600080fd5b5061025e61063b565b6040516101f49190613462565b34801561027757600080fd5b5061025e61065f565b34801561028c57600080fd5b506102a061029b36600461313a565b610683565b6040516101f491906139b1565b3480156102b957600080fd5b506102476102c836600461313a565b610a34565b3480156102d957600080fd5b506102ed6102e8366004613152565b610d09565b6040516101f49190613b0b565b34801561030657600080fd5b50610247610315366004612eb4565b610d62565b34801561032657600080fd5b5061033a610335366004612e98565b610d75565b6040516101f49190613457565b34801561035357600080fd5b50610247610362366004612efd565b610d93565b34801561037357600080fd5b50610247610382366004612f72565b610f41565b34801561039357600080fd5b506102476103a236600461313a565b610fc9565b3480156103b357600080fd5b5061024761102d565b3480156103c857600080fd5b506102476110cf565b3480156103dd57600080fd5b506101e761110b565b3480156103f257600080fd5b5061040661040136600461313a565b61111a565b6040516101f491906134f5565b34801561041f57600080fd5b5061025e6112eb565b34801561043457600080fd5b50610247610443366004612e98565b6112f1565b34801561045457600080fd5b5061025e611352565b34801561046957600080fd5b50610472611358565b6040516101f49190613509565b34801561048b57600080fd5b506101e761138a565b3480156104a057600080fd5b506102476104af36600461313a565b611399565b3480156104c057600080fd5b506104d46104cf366004613152565b611630565b6040516101f49190613991565b3480156104ed57600080fd5b506105016104fc366004612eb4565b61167c565b6040516101f4929190613be2565b34801561051b57600080fd5b5061024761052a36600461313a565b611838565b34801561053b57600080fd5b5061024761054a366004612e98565b611b35565b34801561055b57600080fd5b5061025e61056a366004613054565b611c2d565b61024761057d36600461313a565b611fb0565b6001546001600160a01b031690565b6005546001600160a01b031681565b6004546001600160a01b031681565b6105b76121af565b6000546001600160a01b03908116911614610607576040805162461bcd60e51b81526020600482018190526024820152600080516020613cf7833981519152604482015290519081900360640190fd5b60005b81518110156106375761062f82828151811061062257fe5b60200260200101516121b3565b60010161060a565b5050565b7f8cad95687ba82c2ce50e74f7b754645e5117c3a5bec8151c0726d5857980a86681565b7f4e031542a9553ed1c4e810c54674ab4b984243e335b246aa3de73663bf4c11ee81565b61068b6128e0565b60008281526007602052604090206106a16128e0565b60408051610220810182528354815260018401546001600160a01b0390811660208084019190915260028601549091168284015260038501805484518184028101840190955280855292936060850193909283018282801561072c57602002820191906000526020600020905b81546001600160a01b0316815260019091019060200180831161070e575b505050505081526020018360040180548060200260200160405190810160405280929190818152602001828054801561078457602002820191906000526020600020905b815481526020019060010190808311610770575b5050505050815260200183600501805480602002602001604051908101604052809291908181526020016000905b8282101561085d5760008481526020908190208301805460408051601f60026000196101006001871615020190941693909304928301859004850281018501909152818152928301828280156108495780601f1061081e57610100808354040283529160200191610849565b820191906000526020600020905b81548152906001019060200180831161082c57829003601f168201915b5050505050815260200190600101906107b2565b50505050815260200183600601805480602002602001604051908101604052809291908181526020016000905b828210156109355760008481526020908190208301805460408051601f60026000196101006001871615020190941693909304928301859004850281018501909152818152928301828280156109215780601f106108f657610100808354040283529160200191610921565b820191906000526020600020905b81548152906001019060200180831161090457829003601f168201915b50505050508152602001906001019061088a565b505050508152602001836007018054806020026020016040519081016040528092919081815260200182805480156109ac57602002820191906000526020600020906000905b825461010083900a900460ff16151581526020600192830181810494850194909303909202910180841161097b5790505b50505091835250506008840154602082015260098401546040820152600a8401546060820152600b8401546080820152600c84015460a0820152600d84015460ff808216151560c0840152610100808304909116151560e0840152620100009091046001600160a01b031690820152600e90930154610120909301929092525090505b919050565b6000610a3f8261111a565b90506007816007811115610a4f57fe5b14158015610a6957506001816007811115610a6657fe5b14155b8015610a8157506006816007811115610a7e57fe5b14155b610aa65760405162461bcd60e51b8152600401610a9d9061387b565b60405180910390fd5b60008281526007602052604090206009546001600160a01b0316331480610b535750600281015460018201546040516347293e6560e01b81526001600160a01b03928316926347293e6592610b03923092909116906004016134db565b60206040518083038186803b158015610b1b57600080fd5b505afa158015610b2f573d6000803e3d6000fd5b505050506040513d601f19601f82011682018060405250810190610b539190612fad565b610b6f5760405162461bcd60e51b8152600401610a9d90613846565b600d8101805461ff00191661010017905560005b6003820154811015610ccc5760028201546003830180546001600160a01b0390921691631dc40b51919084908110610bb757fe5b6000918252602090912001546004850180546001600160a01b039092169185908110610bdf57fe5b9060005260206000200154856005018581548110610bf957fe5b90600052602060002001866006018681548110610c1257fe5b9060005260206000200187600a0154886007018881548110610c3057fe5b90600052602060002090602091828204019190069054906101000a900460ff166040518763ffffffff1660e01b8152600401610c719695949392919061341e565b602060405180830381600087803b158015610c8b57600080fd5b505af1158015610c9f573d6000803e3d6000fd5b505050506040513d601f19601f82011682018060405250810190610cc39190612fc9565b50600101610b83565b507f789cf55be980739dad1d0699b93b58e806b51c9d96619bfa8fe0a28abaa7b30c83604051610cfc9190613462565b60405180910390a1505050565b610d11612986565b5060008281526007602090815260408083206001600160a01b0385168452600f0182529182902082518084019093525460ff81161515835261010090046001600160f81b0316908201525b92915050565b610d6f848433858561220e565b50505050565b6001600160a01b031660009081526008602052604090205460ff1690565b6040805180820190915260168152752837b83ab637bab99023b7bb32b93730b731b2903b1960511b60209091015260007f8cad95687ba82c2ce50e74f7b754645e5117c3a5bec8151c0726d5857980a8667f90d0e97d0675583859de66b0b508c48eebcdbecf06886b4366f8b83acdaff70b610e0d612403565b30604051602001610e219493929190613499565b604051602081830303815290604052805190602001207f4e031542a9553ed1c4e810c54674ab4b984243e335b246aa3de73663bf4c11ee89898989604051602001610e7095949392919061346b565b60405160208183030381529060405280519060200120604051602001610e9792919061333c565b604051602081830303815290604052805190602001209050600060018286868660405160008152602001604052604051610ed494939291906134bd565b6020604051602081039080840390855afa158015610ef6573d6000803e3d6000fd5b5050604051601f1901519150506001600160a01b038116610f295760405162461bcd60e51b8152600401610a9d906136ac565b610f368989838a8a61220e565b505050505050505050565b610f496121af565b6000546001600160a01b03908116911614610f99576040805162461bcd60e51b81526020600482018190526024820152600080516020613cf7833981519152604482015290519081900360640190fd5b60005b815181101561063757610fc1828281518110610fb457fe5b6020026020010151612407565b600101610f9c565b610fd16121af565b6000546001600160a01b03908116911614611021576040805162461bcd60e51b81526020600482018190526024820152600080516020613cf7833981519152604482015290519081900360640190fd5b61102a8161245a565b50565b6110356121af565b6000546001600160a01b03908116911614611085576040805162461bcd60e51b81526020600482018190526024820152600080516020613cf7833981519152604482015290519081900360640190fd5b600080546040516001600160a01b03909116907f8be0079c531659141344cd1fd0a4f28419497f9722a3daafe3b4186f6b6457e0908390a3600080546001600160a01b0319169055565b6009546001600160a01b031633146110f95760405162461bcd60e51b8152600401610a9d906137e5565b600980546001600160a01b0319169055565b6000546001600160a01b031690565b600081600654101561113e5760405162461bcd60e51b8152600401610a9d906138a9565b6000828152600760205260409020600d810154610100900460ff1615611168576001915050610a2f565b8060080154431161117d576000915050610a2f565b80600901544311611192576002915050610a2f565b60028101546040516306fbb3ab60e01b81526001600160a01b03909116906306fbb3ab906111c690309087906004016133b1565b60206040518083038186803b1580156111de57600080fd5b505afa1580156111f2573d6000803e3d6000fd5b505050506040513d601f19601f820116820180604052508101906112169190612fad565b611224576003915050610a2f565b600a810154611237576004915050610a2f565b600d81015460ff161561124e576007915050610a2f565b600281015460405163f670a5f960e01b81526001600160a01b039091169063f670a5f99061128290309087906004016133b1565b60206040518083038186803b15801561129a57600080fd5b505afa1580156112ae573d6000803e3d6000fd5b505050506040513d601f19601f820116820180604052508101906112d29190612fad565b156112e1576006915050610a2f565b6005915050610a2f565b60065490565b6112f96121af565b6000546001600160a01b03908116911614611349576040805162461bcd60e51b81526020600482018190526024820152600080516020613cf7833981519152604482015290519081900360640190fd5b61102a8161249c565b60025490565b604051806040016040528060168152602001752837b83ab637bab99023b7bb32b93730b731b2903b1960511b81525081565b6009546001600160a01b031690565b600081815260076020526040808220600d01549051635da6a21b60e11b81523392916201000090046001600160a01b03169063bb4d4436906113df908590600401613357565b60206040518083038186803b1580156113f757600080fd5b505afa15801561140b573d6000803e3d6000fd5b505050506040513d601f19601f8201168201806040525081019061142f9190612fc9565b9050611439612986565b6114438484611630565b6003549091506001600160a01b0316600061145e8686610d09565b602001519050806001600160f81b031684101561148d5760405162461bcd60e51b8152600401610a9d90613620565b8251604051632770a7eb60e21b81526001600160a01b03841690639dc29fac906114bd908990869060040161338f565b602060405180830381600087803b1580156114d757600080fd5b505af11580156114eb573d6000803e3d6000fd5b505050506040513d601f19601f8201168201806040525081019061150f9190612fad565b15156001146115305760405162461bcd60e51b8152600401610a9d90613707565b602084015160405163a9059cbb60e01b81526001600160a01b0383169163a9059cbb91611561918a916004016133b1565b602060405180830381600087803b15801561157b57600080fd5b505af115801561158f573d6000803e3d6000fd5b505050506040513d601f19601f820116820180604052508101906115b39190612fad565b15156001146115d45760405162461bcd60e51b8152600401610a9d9061392b565b83600001516001600160a01b0316866001600160a01b03167f20eaecd96d36d2ea6564edf6426f0d3f7e6b9fc7bf120a9b854d9d2e5ef265f8866020015160405161161f9190613462565b60405180910390a350505050505050565b611638612986565b5060009182526007602090815260408084206001600160a01b0393841685526010018252928390208351808501909452805490921683526001909101549082015290565b600080600261168a8561111a565b600781111561169557fe5b146116b25760405162461bcd60e51b8152600401610a9d90613553565b6116ba6128e0565b6116c385610683565b9050336116ce612986565b5060008681526007602090815260408083206001600160a01b0385168452600f0182529182902082518084019093525460ff81161515835261010090046001600160f81b0316908201819052156117375760405162461bcd60e51b8152600401610a9d906136d7565b600088116117575760405162461bcd60e51b8152600401610a9d9061357a565b6004546001600160a01b038a81169116148061178057506005546001600160a01b038a81169116145b61179c5760405162461bcd60e51b8152600401610a9d9061379d565b60045489906000906001600160a01b03808416911614156117c9576117c28a60026124e9565b90506117e2565b6005546001600160a01b038c8116911614156117e25750885b8715611803576101608501516117f89082612549565b61016086015261181a565b6101808501516118139082612549565b6101808601525b84610160015185610180015196509650505050505094509492505050565b60046118438261111a565b600781111561184e57fe5b1461186b5760405162461bcd60e51b8152600401610a9d906135be565b60008181526007602090815260408083206002810154825163675e4d4160e11b81529251919493611903936001600160a01b039092169263cebc9a82926004808201939291829003018186803b1580156118c457600080fd5b505afa1580156118d8573d6000803e3d6000fd5b505050506040513d601f19601f820116820180604052508101906118fc9190612fc9565b4290612549565b905060005b6003830154811015611aec576002830154600384018054611ae4926001600160a01b031691908490811061193857fe5b6000918252602090912001546004860180546001600160a01b03909216918590811061196057fe5b906000526020600020015486600501858154811061197a57fe5b600091825260209182902001805460408051601f6002600019610100600187161502019094169390930492830185900485028101850190915281815292830182828015611a085780601f106119dd57610100808354040283529160200191611a08565b820191906000526020600020905b8154815290600101906020018083116119eb57829003601f168201915b5050505050876006018681548110611a1c57fe5b600091825260209182902001805460408051601f6002600019610100600187161502019094169390930492830185900485028101850190915281815292830182828015611aaa5780601f10611a7f57610100808354040283529160200191611aaa565b820191906000526020600020905b815481529060010190602001808311611a8d57829003601f168201915b505050505087896007018881548110611abf57fe5b90600052602060002090602091828204019190069054906101000a900460ff166125a3565b600101611908565b50600a820181905560405133907f11a0b38e70585e4b09b794bd1d9f9b1a51a802eb8ee2101eeee178d0349e73fe90611b289086908590613be2565b60405180910390a2505050565b611b3d6121af565b6000546001600160a01b03908116911614611b8d576040805162461bcd60e51b81526020600482018190526024820152600080516020613cf7833981519152604482015290519081900360640190fd5b6001600160a01b038116611bd25760405162461bcd60e51b8152600401808060200182810382526026815260200180613cb06026913960400191505060405180910390fd5b600080546040516001600160a01b03808516939216917f8be0079c531659141344cd1fd0a4f28419497f9722a3daafe3b4186f6b6457e091a3600080546001600160a01b0319166001600160a01b0392909216919091179055565b6000865160001415611c515760405162461bcd60e51b8152600401610a9d9061367d565b85518751148015611c63575084518751145b8015611c70575083518751145b8015611c7d575082518751145b611c995760405162461bcd60e51b8152600401610a9d9061380f565b611ca288610d75565b611cbe5760405162461bcd60e51b8152600401610a9d90613766565b604051630332f02560e01b81526001600160a01b03891690630332f02590611cec90309033906004016134db565b60206040518083038186803b158015611d0457600080fd5b505afa158015611d18573d6000803e3d6000fd5b505050506040513d601f19601f82011682018060405250810190611d3c9190612fad565b611d585760405162461bcd60e51b8152600401610a9d9061351c565b611d6061299d565b600254611d6e904390612549565b816000018181525050611df3896001600160a01b031663a438d2086040518163ffffffff1660e01b815260040160206040518083038186803b158015611db357600080fd5b505afa158015611dc7573d6000803e3d6000fd5b505050506040513d601f19601f82011682018060405250810190611deb9190612fc9565b825190612549565b6020828101919091526006546040808401828152600092835260078452912090518155600181018054336001600160a01b0319918216179091556002820180549091166001600160a01b038d1617905589519091611e589160038401918c01906129be565b508751611e6e90600483019060208b0190612a23565b508651611e8490600583019060208a0190612a5e565b508551611e9a9060068301906020890190612ab7565b508451611eb09060078301906020880190612b10565b508160000151816008018190555081602001518160090181905550600160009054906101000a90046001600160a01b031681600d0160026101000a8154816001600160a01b0302191690836001600160a01b031602179055508381600e0181905550600660008154809291906001019190505550896001600160a01b0316336001600160a01b03167fd272d67d2c8c66de43c1d2515abb064978a5020c173e15903b6a2ab3bf7440ec84604001518c8c8c8c8c8a600001518b60200151600160009054906101000a90046001600160a01b03168f604051611f9a9a99989796959493929190613b2d565b60405180910390a3549998505050505050505050565b6005611fbb8261111a565b6007811115611fc657fe5b14611fe35760405162461bcd60e51b8152600401610a9d90613962565b6000818152600760205260408120600d8101805460ff19166001179055905b60038201548110156121695760028201546004830180546001600160a01b0390921691638902ab6591908490811061203657fe5b906000526020600020015484600301848154811061205057fe5b6000918252602090912001546004860180546001600160a01b03909216918690811061207857fe5b906000526020600020015486600501868154811061209257fe5b906000526020600020018760060187815481106120ab57fe5b9060005260206000200188600a01548960070189815481106120c957fe5b90600052602060002090602091828204019190069054906101000a900460ff166040518863ffffffff1660e01b815260040161210a9695949392919061341e565b6000604051808303818588803b15801561212357600080fd5b505af1158015612137573d6000803e3d6000fd5b50505050506040513d6000823e601f3d908101601f191682016040526121609190810190612fe1565b50600101612002565b50336001600160a01b03167f9c85b616f29fca57a17eafe71cf9ff82ffef41766e2cf01ea7f8f7878dd3ec24836040516121a39190613462565b60405180910390a25050565b3390565b6001600160a01b03811660009081526008602052604090819020805460ff19169055517f5e8105a2af24345971359d2289f43efa80d093f4a7123561b8d63836b98724f490612203908390613357565b60405180910390a150565b60026122198361111a565b600781111561222457fe5b146122415760405162461bcd60e51b8152600401610a9d90613553565b60008281526007602090815260408083206001600160a01b0387168452600f81018352818420601082019093529220815461010090046001600160f81b03161561229d5760405162461bcd60e51b8152600401610a9d906136d7565b600087116122bd5760405162461bcd60e51b8152600401610a9d9061357a565b6004546001600160a01b03898116911614806122e657506005546001600160a01b038981169116145b6123025760405162461bcd60e51b8152600401610a9d9061379d565b6004546000906001600160a01b038a81169116141561233a576123268860026124e9565b905061233586888b8b856126fe565b61235d565b6005546001600160a01b038a81169116141561235d5761235d86888b8b8c6126fe565b841561237c57600b8401546123729082612549565b600b850155612391565b600c84015461238b9082612549565b600c8501555b825460ff60ff1990911686151517166101006001600160f81b038316021783556040516001600160a01b038816907f0c611e7b6ae0de26f4772260e1bbdb5f58cbb7c275fe2de14671968d29add8d6906123f090899089908690613bcc565b60405180910390a2505050505050505050565b4690565b6001600160a01b03811660009081526008602052604090819020805460ff19166001179055517f52762435f58790076157ea2a4914a5a4d0aa0eb421588891377692f7fd3bc08290612203908390613357565b600281905560405133907fc46fc23e244f0720a98ddbac6efb5bb40d212cf15e6478fc4b3017648715289d90612491908490613462565b60405180910390a250565b600180546001600160a01b0319166001600160a01b0383169081179091556040513391907f9e8e9f668db69a2cefb172dabe284d0d3aea2b7ee64212a205bd033bd03a3d5590600090a350565b6000826124f857506000610d5c565b8282028284828161250557fe5b04146125425760405162461bcd60e51b8152600401808060200182810382526021815260200180613cd66021913960400191505060405180910390fd5b9392505050565b600082820183811015612542576040805162461bcd60e51b815260206004820152601b60248201527f536166654d6174683a206164646974696f6e206f766572666c6f770000000000604482015290519081900360640190fd5b866001600160a01b031663b1fc87968787878787876040516020016125cd969594939291906133ca565b604051602081830303815290604052805190602001206040518263ffffffff1660e01b81526004016125ff9190613462565b60206040518083038186803b15801561261757600080fd5b505afa15801561262b573d6000803e3d6000fd5b505050506040513d601f19601f8201168201806040525081019061264f9190612fad565b1561266c5760405162461bcd60e51b8152600401610a9d906135f5565b604051638d8fe2e360e01b81526001600160a01b03881690638d8fe2e3906126a2908990899089908990899089906004016133ca565b602060405180830381600087803b1580156126bc57600080fd5b505af11580156126d0573d6000803e3d6000fd5b505050506040513d601f19601f820116820180604052508101906126f49190612fc9565b5050505050505050565b60008581526007602090815260408083206001600160a01b03808916855260109091019092529182902060035492516323b872dd60e01b815290928216918691908216906323b872dd9061275a908a9030908a9060040161336b565b602060405180830381600087803b15801561277457600080fd5b505af1158015612788573d6000803e3d6000fd5b505050506040513d601f19601f820116820180604052508101906127ac9190612fad565b15156001146127cd5760405162461bcd60e51b8152600401610a9d906138d6565b82546001600160a01b0319166001600160a01b03878116919091178455600184018690556040516340c10f1960e01b8152908316906340c10f1990612818908a9088906004016133b1565b602060405180830381600087803b15801561283257600080fd5b505af1158015612846573d6000803e3d6000fd5b505050506040513d601f19601f8201168201806040525081019061286a9190612fad565b151560011461288b5760405162461bcd60e51b8152600401610a9d90613736565b856001600160a01b0316876001600160a01b03167f87f4b5cc1d7b955dd69a5ce366fe29a7a5b9c644c277eeea72cf6659c2590ae8876040516128ce9190613462565b60405180910390a35050505050505050565b6040518061022001604052806000815260200160006001600160a01b0316815260200160006001600160a01b031681526020016060815260200160608152602001606081526020016060815260200160608152602001600081526020016000815260200160008152602001600081526020016000815260200160001515815260200160001515815260200160006001600160a01b03168152602001600080191681525090565b604080518082019091526000808252602082015290565b60405180606001604052806000815260200160008152602001600081525090565b828054828255906000526020600020908101928215612a13579160200282015b82811115612a1357825182546001600160a01b0319166001600160a01b039091161782556020909201916001909101906129de565b50612a1f929150612bac565b5090565b828054828255906000526020600020908101928215612a13579160200282015b82811115612a13578251825591602001919060010190612a43565b828054828255906000526020600020908101928215612aab579160200282015b82811115612aab5782518051612a9b918491602090910190612bc1565b5091602001919060010190612a7e565b50612a1f929150612c3c565b828054828255906000526020600020908101928215612b04579160200282015b82811115612b045782518051612af4918491602090910190612bc1565b5091602001919060010190612ad7565b50612a1f929150612c59565b82805482825590600052602060002090601f01602090048101928215612a135791602002820160005b83821115612b7657835183826101000a81548160ff0219169083151502179055509260200192600101602081600001049283019260010302612b39565b8015612ba35782816101000a81549060ff0219169055600101602081600001049283019260010302612b76565b5050612a1f9291505b5b80821115612a1f5760008155600101612bad565b828054600181600116156101000203166002900490600052602060002090601f016020900481019282612bf75760008555612a13565b82601f10612c1057805160ff1916838001178555612a13565b82800160010185558215612a135791820182811115612a13578251825591602001919060010190612a43565b80821115612a1f576000612c508282612c76565b50600101612c3c565b80821115612a1f576000612c6d8282612c76565b50600101612c59565b50805460018160011615610100020316600290046000825580601f10612c9c575061102a565b601f01602090049060005260206000209081019061102a9190612bac565b600082601f830112612cca578081fd5b8135612cdd612cd882613c14565b613bf0565b818152915060208083019084810181840286018201871015612cfe57600080fd5b60005b84811015612d26578135612d1481613c8c565b84529282019290820190600101612d01565b505050505092915050565b600082601f830112612d41578081fd5b8135612d4f612cd882613c14565b818152915060208083019084810181840286018201871015612d7057600080fd5b60005b84811015612d26578135612d8681613ca1565b84529282019290820190600101612d73565b600082601f830112612da8578081fd5b8135612db6612cd882613c14565b818152915060208083019084810160005b84811015612d26578135870188603f820112612de257600080fd5b83810135612df2612cd882613c32565b81815260408b81848601011115612e0857600080fd5b82818501888401375060009181018601919091528552509282019290820190600101612dc7565b600082601f830112612e3f578081fd5b8135612e4d612cd882613c14565b818152915060208083019084810181840286018201871015612e6e57600080fd5b60005b84811015612d2657813584529282019290820190600101612e71565b8035610a2f81613c8c565b600060208284031215612ea9578081fd5b813561254281613c8c565b60008060008060808587031215612ec9578283fd5b8435612ed481613c8c565b935060208501359250604085013591506060850135612ef281613ca1565b939692955090935050565b600080600080600080600060e0888a031215612f17578283fd5b8735612f2281613c8c565b965060208801359550604088013594506060880135612f4081613ca1565b9350608088013560ff81168114612f55578384fd5b9699959850939692959460a0840135945060c09093013592915050565b600060208284031215612f83578081fd5b813567ffffffffffffffff811115612f99578182fd5b612fa584828501612cba565b949350505050565b600060208284031215612fbe578081fd5b815161254281613ca1565b600060208284031215612fda578081fd5b5051919050565b600060208284031215612ff2578081fd5b815167ffffffffffffffff811115613008578182fd5b8201601f81018413613018578182fd5b8051613026612cd882613c32565b81815285602083850101111561303a578384fd5b61304b826020830160208601613c60565b95945050505050565b600080600080600080600060e0888a03121561306e578081fd5b61307788612e8d565b9650602088013567ffffffffffffffff80821115613093578283fd5b61309f8b838c01612cba565b975060408a01359150808211156130b4578283fd5b6130c08b838c01612e2f565b965060608a01359150808211156130d5578283fd5b6130e18b838c01612d98565b955060808a01359150808211156130f6578283fd5b6131028b838c01612d98565b945060a08a0135915080821115613117578283fd5b506131248a828b01612d31565b92505060c0880135905092959891949750929550565b60006020828403121561314b578081fd5b5035919050565b60008060408385031215613164578182fd5b82359150602083013561317681613c8c565b809150509250929050565b6001600160a01b03169052565b6000815180845260208085019450808401835b838110156131c65781516001600160a01b0316875295820195908201906001016131a1565b509495945050505050565b6000815180845260208085019450808401835b838110156131c65781511515875295820195908201906001016131e4565b60008282518085526020808601955080818302840101818601855b8481101561324b57601f1986840301895261323983835161328d565b9884019892509083019060010161321d565b5090979650505050505050565b6000815180845260208085019450808401835b838110156131c65781518752958201959082019060010161326b565b15159052565b600081518084526132a5816020860160208601613c60565b601f01601f19169290920160200192915050565b600081546001808216600081146132d757600181146132f557613333565b60028304607f16865260ff1983166020870152604086019350613333565b6002830480875261330586613c54565b60005b828110156133295781546020828b0101528482019150602081019050613308565b8801602001955050505b50505092915050565b61190160f01b81526002810192909252602282015260420190565b6001600160a01b0391909116815260200190565b6001600160a01b039384168152919092166020820152604081019190915260600190565b6001600160a01b039290921682526001600160f81b0316602082015260400190565b6001600160a01b03929092168252602082015260400190565b600060018060a01b038816825286602083015260c060408301526133f160c083018761328d565b8281036060840152613403818761328d565b6080840195909552505090151560a090910152949350505050565b600060018060a01b038816825286602083015260c0604083015261344560c08301876132b9565b828103606084015261340381876132b9565b901515815260200190565b90815260200190565b9485526001600160a01b03939093166020850152604084019190915260608301521515608082015260a00190565b938452602084019290925260408301526001600160a01b0316606082015260800190565b93845260ff9290921660208401526040830152606082015260800190565b6001600160a01b0392831681529116602082015260400190565b602081016008831061350357fe5b91905290565b600060208252612542602083018461328d565b6020808252601c908201527f50524f504f534954494f4e5f4352454154494f4e5f494e56414c494400000000604082015260600190565b6020808252600d908201526c1593d5125391d7d0d313d4d151609a1b604082015260600190565b60208082526024908201527f544f4b454e20414d4f554e5420544f2053574150204d5553542042452041424f6040820152630564520360e41b606082015260800190565b60208082526017908201527f494e56414c49445f53544154455f464f525f5155455545000000000000000000604082015260600190565b602080825260119082015270222aa82624a1a0aa22a22fa0a1aa24a7a760791b604082015260600190565b60208082526037908201527f564f54494e4720504f574552204d5553542042452041424f5645206f7220455160408201527f55414c20544f20564f5445204f4e2050524f504f53414c000000000000000000606082015260800190565b602080825260159082015274494e56414c49445f454d5054595f5441524745545360581b604082015260600190565b602080825260119082015270494e56414c49445f5349474e415455524560781b604082015260600190565b6020808252601690820152751593d51157d053149150511657d4d55093525515115160521b604082015260600190565b6020808252601590820152741593d511481513d2d15394c81393d5081095549395605a1b604082015260600190565b6020808252601690820152751593d511481513d2d15394c81393d50813525395115160521b604082015260600190565b60208082526017908201527f4558454355544f525f4e4f545f415554484f52495a4544000000000000000000604082015260600190565b60208082526028908201527f544f4b454e5f41444452455353204d55535420424520505054204f522050585460408201526720544f20564f544560c01b606082015260800190565b60208082526010908201526f27a7262cafa12cafa3aaa0a92224a0a760811b604082015260600190565b6020808252601a908201527f494e434f4e53495354454e545f504152414d535f4c454e475448000000000000604082015260600190565b6020808252818101527f50524f504f534954494f4e5f43414e43454c4c4154494f4e5f494e56414c4944604082015260600190565b60208082526014908201527313d3931657d0915193d49157d1561150d555115160621b604082015260600190565b6020808252601390820152721253959053125117d41493d413d4d05317d251606a1b604082015260600190565b60208082526035908201527f544f4b454e205452414e534645525f46524f4d204641494c45442c204348454360408201527412c8109053105390d14813d4881054141493d59053605a1b606082015260800190565b6020808252601e908201527f4c4f434b454420544f4b454e53204e4f542053454e5420544f20555345520000604082015260600190565b6020808252601590820152744f4e4c595f5155455545445f50524f504f53414c5360581b604082015260600190565b81516001600160a01b031681526020918201519181019190915260400190565b6000602082528251602083015260208301516139d06040840182613181565b5060408301516139e36060840182613181565b506060830151610220806080850152613a0061024085018361318e565b91506080850151601f19808685030160a0870152613a1e8483613258565b935060a08701519150808685030160c0870152613a3b8483613202565b935060c08701519150808685030160e0870152613a588483613202565b935060e08701519150610100818786030181880152613a7785846131d1565b90880151610120888101919091528801516101408089019190915288015161016080890191909152880151610180808901919091528801516101a08089019190915288015190945091506101c09050613ad281870183613287565b86015190506101e0613ae686820183613287565b8601519050610200613afa86820183613181565b959095015193019290925250919050565b8151151581526020918201516001600160f81b03169181019190915260400190565b60006101408c8352806020840152613b478184018d61318e565b90508281036040840152613b5b818c613258565b90508281036060840152613b6f818b613202565b90508281036080840152613b83818a613202565b905082810360a0840152613b9781896131d1565b60c0840197909752505060e08101939093526001600160a01b0391909116610100830152610120909101529695505050505050565b9283529015156020830152604082015260600190565b918252602082015260400190565b60405181810167ffffffffffffffff81118282101715613c0c57fe5b604052919050565b600067ffffffffffffffff821115613c2857fe5b5060209081020190565b600067ffffffffffffffff821115613c4657fe5b50601f01601f191660200190565b60009081526020902090565b60005b83811015613c7b578181015183820152602001613c63565b83811115610d6f5750506000910152565b6001600160a01b038116811461102a57600080fd5b801515811461102a57600080fdfe4f776e61626c653a206e6577206f776e657220697320746865207a65726f2061646472657373536166654d6174683a206d756c7469706c69636174696f6e206f766572666c6f774f776e61626c653a2063616c6c6572206973206e6f7420746865206f776e6572a264697066735822122098124c09cce9c7e9f4f59a8a75ac54d19b89b2f76691846647b4259360135a2d64736f6c63430007050033",
  "immutableReferences": {},
  "source": "// SPDX-License-Identifier: agpl-3.0\npragma solidity 0.7.5;\npragma abicoder v2;\n\nimport {IVotingStrategy} from '../interfaces/IVotingStrategy.sol';\nimport {IExecutorWithTimelock} from '../interfaces/IExecutorWithTimelock.sol';\nimport {IProposalValidator} from '../interfaces/IProposalValidator.sol';\nimport {IGovernanceStrategy} from '../interfaces/IGovernanceStrategy.sol';\nimport {IPopulousGovernanceV2} from '../interfaces/IPopulousGovernanceV2.sol';\nimport {Ownable} from '../dependencies/open-zeppelin/Ownable.sol';\nimport {SafeMath} from '../dependencies/open-zeppelin/SafeMath.sol';\nimport {isContract, getChainId} from '../misc/Helpers.sol';\nimport {MockVotingToken} from '../MockVotingToken.sol';\nimport {IERC20Detailed} from '../interfaces/IERC20Detailed.sol';\n\n/**\n * @title Governance V2 contract\n * @dev Main point of interaction with Populous protocol's governance\n * - Create a Proposal\n * - Cancel a Proposal\n * - Queue a Proposal\n * - Execute a Proposal\n * - Submit Vote to a Proposal\n * Proposal States : Pending => Active => Succeeded(/Failed) => Queued => Executed(/Expired)\n *                   The transition to \"Canceled\" can appear in multiple states\n * @author Populous\n **/\ncontract PopulousGovernanceV2 is Ownable, IPopulousGovernanceV2 {\n  using SafeMath for uint256;\n\n  address private _governanceStrategy;\n  uint256 private _votingDelay;\n  address private _votingToken;\n  address public _PPT;\n  address public _PXT;\n\n  uint256 private _proposalsCount;\n  mapping(uint256 => Proposal) private _proposals;\n  mapping(address => bool) private _authorizedExecutors;\n\n  address private _guardian;\n\n  bytes32 public constant DOMAIN_TYPEHASH = keccak256(\n    'EIP712Domain(string name,uint256 chainId,address verifyingContract)'\n  );\n  bytes32 public constant VOTE_EMITTED_TYPEHASH = keccak256('VoteEmitted(uint256 id,bool support)');\n  string public constant NAME = 'Populous Governance v2';\n\n  modifier onlyGuardian() {\n    require(msg.sender == _guardian, 'ONLY_BY_GUARDIAN');\n    _;\n  }\n\n  constructor(\n    address votingToken,\n    address ppt,\n    address pxt,\n    address governanceStrategy,\n    uint256 votingDelay,\n    address guardian,\n    address[] memory executors\n  ) {\n    _setGovernanceStrategy(governanceStrategy);\n    _setVotingDelay(votingDelay);\n    _setVotingToken(votingToken);\n    _setUserTokens(ppt, pxt);\n    _guardian = guardian;\n    \n    authorizeExecutors(executors);\n  }\n\n  struct CreateVars {\n    uint256 startBlock;\n    uint256 endBlock;\n    uint256 previousProposalsCount;\n  }\n\n  /**\n   * @dev Creates a Proposal (needs to be validated by the Proposal Validator)\n   * @param executor The ExecutorWithTimelock contract that will execute the proposal\n   * @param targets list of contracts called by proposal's associated transactions\n   * @param values list of value in wei for each propoposal's associated transaction\n   * @param signatures list of function signatures (can be empty) to be used when created the callData\n   * @param calldatas list of calldatas: if associated signature empty, calldata ready, else calldata is arguments\n   * @param withDelegatecalls boolean, true = transaction delegatecalls the taget, else calls the target\n   * @param ipfsHash IPFS hash of the proposal\n   **/\n  function create(\n    IExecutorWithTimelock executor,\n    address[] memory targets,\n    uint256[] memory values,\n    string[] memory signatures,\n    bytes[] memory calldatas,\n    bool[] memory withDelegatecalls,\n    bytes32 ipfsHash\n  ) external override returns (uint256) {\n    require(targets.length != 0, 'INVALID_EMPTY_TARGETS');\n    require(\n      targets.length == values.length &&\n        targets.length == signatures.length &&\n        targets.length == calldatas.length &&\n        targets.length == withDelegatecalls.length,\n      'INCONSISTENT_PARAMS_LENGTH'\n    );\n\n    require(isExecutorAuthorized(address(executor)), 'EXECUTOR_NOT_AUTHORIZED');\n\n    require(\n      // proposition token is based on pxt and proposition token\n      // and does not need locking or swap with voting tokens\n      IProposalValidator(address(executor)).validateCreatorOfProposal(\n        this,\n        msg.sender\n      ),\n      'PROPOSITION_CREATION_INVALID'\n    );\n\n    CreateVars memory vars;\n\n    vars.startBlock = block.number.add(_votingDelay);\n    vars.endBlock = vars.startBlock.add(IProposalValidator(address(executor)).VOTING_DURATION());\n\n    vars.previousProposalsCount = _proposalsCount;\n\n    Proposal storage newProposal = _proposals[vars.previousProposalsCount];\n    newProposal.id = vars.previousProposalsCount;\n    newProposal.creator = msg.sender;\n    newProposal.executor = executor;\n    newProposal.targets = targets;\n    newProposal.values = values;\n    newProposal.signatures = signatures;\n    newProposal.calldatas = calldatas;\n    newProposal.withDelegatecalls = withDelegatecalls;\n    newProposal.startBlock = vars.startBlock;\n    newProposal.endBlock = vars.endBlock;\n    newProposal.strategy = _governanceStrategy;\n    newProposal.ipfsHash = ipfsHash;\n    _proposalsCount++;\n\n    emit ProposalCreated(\n      vars.previousProposalsCount,\n      msg.sender,\n      executor,\n      targets,\n      values,\n      signatures,\n      calldatas,\n      withDelegatecalls,\n      vars.startBlock,\n      vars.endBlock,\n      _governanceStrategy,\n      ipfsHash\n    );\n\n    return newProposal.id;\n  }\n\n  /**\n   * @dev Cancels a Proposal.\n   * - Callable by the _guardian with relaxed conditions, or by anybody if the conditions of\n   *   cancellation on the executor are fulfilled\n   * @param proposalId id of the proposal\n   **/\n  function cancel(uint256 proposalId) external override {\n    ProposalState state = getProposalState(proposalId);\n    require(\n      state != ProposalState.Executed &&\n        state != ProposalState.Canceled &&\n        state != ProposalState.Expired,\n      'ONLY_BEFORE_EXECUTED'\n    );\n\n    Proposal storage proposal = _proposals[proposalId];\n    require(\n      msg.sender == _guardian ||\n        IProposalValidator(address(proposal.executor)).validateProposalCancellation(\n          this,\n          proposal.creator\n        ),\n      'PROPOSITION_CANCELLATION_INVALID'\n    );\n    proposal.canceled = true;\n    for (uint256 i = 0; i < proposal.targets.length; i++) {\n      proposal.executor.cancelTransaction(\n        proposal.targets[i],\n        proposal.values[i],\n        proposal.signatures[i],\n        proposal.calldatas[i],\n        proposal.executionTime,\n        proposal.withDelegatecalls[i]\n      );\n    }\n\n    emit ProposalCanceled(proposalId);\n  }\n\n  /**\n   * @dev Queue the proposal (If Proposal Succeeded)\n   * @param proposalId id of the proposal to queue\n   **/\n  function queue(uint256 proposalId) external override {\n    require(getProposalState(proposalId) == ProposalState.Succeeded, 'INVALID_STATE_FOR_QUEUE');\n    Proposal storage proposal = _proposals[proposalId];\n    uint256 executionTime = block.timestamp.add(proposal.executor.getDelay());\n    for (uint256 i = 0; i < proposal.targets.length; i++) {\n      _queueOrRevert(\n        proposal.executor,\n        proposal.targets[i],\n        proposal.values[i],\n        proposal.signatures[i],\n        proposal.calldatas[i],\n        executionTime,\n        proposal.withDelegatecalls[i]\n      );\n    }\n    proposal.executionTime = executionTime;\n\n    emit ProposalQueued(proposalId, executionTime, msg.sender);\n  }\n\n  /**\n   * @dev Execute the proposal (If Proposal Queued)\n   * @param proposalId id of the proposal to execute\n   **/\n  function execute(uint256 proposalId) external payable override {\n    require(getProposalState(proposalId) == ProposalState.Queued, 'ONLY_QUEUED_PROPOSALS');\n    Proposal storage proposal = _proposals[proposalId];\n    proposal.executed = true;\n    for (uint256 i = 0; i < proposal.targets.length; i++) {\n      proposal.executor.executeTransaction{value: proposal.values[i]}(\n        proposal.targets[i],\n        proposal.values[i],\n        proposal.signatures[i],\n        proposal.calldatas[i],\n        proposal.executionTime,\n        proposal.withDelegatecalls[i]\n      );\n    }\n    emit ProposalExecuted(proposalId, msg.sender);\n  }\n\n  /**\n   * @dev Function allowing msg.sender to vote for/against a proposal\n   * @param tokenAddress the address of the token to use to vote\n   * tokenAddress must be PPT or PXT and user balance of tokenAddress\n   * must be greater than zero\n   * @param tokenAmount the amount of tokens to use as voting power\n   * @param proposalId id of the proposal\n   * @param support boolean, true = vote for, false = vote against\n   **/\n  function submitVote(\n    address tokenAddress, \n    uint256 tokenAmount,\n    uint256 proposalId, \n    bool support\n    ) external override {\n    return \n    _submitVote(\n      tokenAddress, tokenAmount, msg.sender, proposalId, support\n    );\n  }\n\n  /**\n   * @dev Function to register the vote of user that has voted offchain via signature\n   * @param tokenAddress the address of the token to use to vote\n   * tokenAddress must be PPT or PXT and user balance of tokenAddress\n   * must be greater than zero\n   * @param tokenAmount the amount of tokens to use as voting power\n   * @param proposalId id of the proposal\n   * @param support boolean, true = vote for, false = vote against\n   * @param v v part of the voter signature\n   * @param r r part of the voter signature\n   * @param s s part of the voter signature\n   **/\n  function submitVoteBySignature(\n    address tokenAddress, \n    uint256 tokenAmount,\n    uint256 proposalId,\n    bool support,\n    uint8 v,\n    bytes32 r,\n    bytes32 s\n  ) external override {\n    bytes32 digest = keccak256(\n      abi.encodePacked(\n        '\\x19\\x01',\n        keccak256(abi.encode(DOMAIN_TYPEHASH, keccak256(bytes(NAME)), getChainId(), address(this))),\n        keccak256(abi.encode(VOTE_EMITTED_TYPEHASH, tokenAddress, tokenAmount, proposalId, support))\n      )\n    );\n    address signer = ecrecover(digest, v, r, s);\n    require(signer != address(0), 'INVALID_SIGNATURE');\n    _submitVote(\n      tokenAddress, tokenAmount, signer, proposalId, support\n    );\n  }\n\n  /**\n   * @dev Set new GovernanceStrategy\n   * Note: owner should be a timelocked executor, so needs to make a proposal\n   * @param governanceStrategy new Address of the GovernanceStrategy contract\n   **/\n  function setGovernanceStrategy(address governanceStrategy) external override onlyOwner {\n    _setGovernanceStrategy(governanceStrategy);\n  }\n\n  /**\n   * @dev Set new Voting Delay (delay before a newly created proposal can be voted on)\n   * Note: owner should be a timelocked executor, so needs to make a proposal\n   * @param votingDelay new voting delay in terms of blocks\n   **/\n  function setVotingDelay(uint256 votingDelay) external override onlyOwner {\n    _setVotingDelay(votingDelay);\n  }\n\n  /**\n   * @dev Add new addresses to the list of authorized executors\n   * @param executors list of new addresses to be authorized executors\n   **/\n  function authorizeExecutors(address[] memory executors) public override onlyOwner {\n    for (uint256 i = 0; i < executors.length; i++) {\n      _authorizeExecutor(executors[i]);\n    }\n  }\n\n  /**\n   * @dev Remove addresses to the list of authorized executors\n   * @param executors list of addresses to be removed as authorized executors\n   **/\n  function unauthorizeExecutors(address[] memory executors) public override onlyOwner {\n    for (uint256 i = 0; i < executors.length; i++) {\n      _unauthorizeExecutor(executors[i]);\n    }\n  }\n\n  /**\n   * @dev Let the guardian abdicate from its priviledged rights\n   **/\n  function __abdicate() external override onlyGuardian {\n    _guardian = address(0);\n  }\n\n  /**\n   * @dev Getter of the current GovernanceStrategy address\n   * @return The address of the current GovernanceStrategy contracts\n   **/\n  function getGovernanceStrategy() external view override returns (address) {\n    return _governanceStrategy;\n  }\n\n  /**\n   * @dev Getter of the current Voting Delay (delay before a created proposal can be voted on)\n   * Different from the voting duration\n   * @return The voting delay in number of blocks\n   **/\n  function getVotingDelay() external view override returns (uint256) {\n    return _votingDelay;\n  }\n\n  /**\n   * @dev Returns whether an address is an authorized executor\n   * @param executor address to evaluate as authorized executor\n   * @return true if authorized\n   **/\n  function isExecutorAuthorized(address executor) public view override returns (bool) {\n    return _authorizedExecutors[executor];\n  }\n\n  /**\n   * @dev Getter the address of the guardian, that can mainly cancel proposals\n   * @return The address of the guardian\n   **/\n  function getGuardian() external view override returns (address) {\n    return _guardian;\n  }\n\n  /**\n   * @dev Getter of the proposal count (the current number of proposals ever created)\n   * @return the proposal count\n   **/\n  function getProposalsCount() external view override returns (uint256) {\n    return _proposalsCount;\n  }\n\n  /**\n   * @dev Getter of a proposal by id\n   * @param proposalId id of the proposal to get\n   * @return the proposal as ProposalWithoutVotes memory object\n   **/\n  function getProposalById(uint256 proposalId)\n    public\n    view\n    override\n    returns (ProposalWithoutVotes memory)\n  {\n    Proposal storage proposal = _proposals[proposalId];\n    ProposalWithoutVotes memory proposalWithoutVotes = ProposalWithoutVotes({\n      id: proposal.id,\n      creator: proposal.creator,\n      executor: proposal.executor,\n      targets: proposal.targets,\n      values: proposal.values,\n      signatures: proposal.signatures,\n      calldatas: proposal.calldatas,\n      withDelegatecalls: proposal.withDelegatecalls,\n      startBlock: proposal.startBlock,\n      endBlock: proposal.endBlock,\n      executionTime: proposal.executionTime,\n      forVotes: proposal.forVotes,\n      againstVotes: proposal.againstVotes,\n      executed: proposal.executed,\n      canceled: proposal.canceled,\n      strategy: proposal.strategy,\n      ipfsHash: proposal.ipfsHash\n    });\n\n    return proposalWithoutVotes;\n  }\n\n  /**\n   * @dev Getter of the Vote of a voter about a proposal\n   * Note: Vote is a struct: ({bool support, uint248 votingPower})\n   * @param proposalId id of the proposal\n   * @param voter address of the voter\n   * @return The associated Vote memory object\n   **/\n  function getVoteOnProposal(uint256 proposalId, address voter)\n    public\n    view\n    override\n    returns (Vote memory)\n  {\n    return _proposals[proposalId].votes[voter];\n  }\n\n  /**\n   * @dev Get the current state of a proposal\n   * @param proposalId id of the proposal\n   * @return The current state of the proposal\n   **/\n  function getProposalState(uint256 proposalId) public view override returns (ProposalState) {\n    require(_proposalsCount >= proposalId, 'INVALID_PROPOSAL_ID');\n    Proposal storage proposal = _proposals[proposalId];\n    if (proposal.canceled) {\n      return ProposalState.Canceled;\n    } else if (block.number <= proposal.startBlock) {\n      return ProposalState.Pending;\n    } else if (block.number <= proposal.endBlock) {\n      return ProposalState.Active;\n    } else if (!IProposalValidator(address(proposal.executor)).isProposalPassed(this, proposalId)) {\n      return ProposalState.Failed;\n    } else if (proposal.executionTime == 0) {\n      return ProposalState.Succeeded;\n    } else if (proposal.executed) {\n      return ProposalState.Executed;\n    } else if (proposal.executor.isProposalOverGracePeriod(this, proposalId)) {\n      return ProposalState.Expired;\n    } else {\n      return ProposalState.Queued;\n    }\n  }\n\n  function _queueOrRevert(\n    IExecutorWithTimelock executor,\n    address target,\n    uint256 value,\n    string memory signature,\n    bytes memory callData,\n    uint256 executionTime,\n    bool withDelegatecall\n  ) internal {\n    require(\n      !executor.isActionQueued(\n        keccak256(abi.encode(target, value, signature, callData, executionTime, withDelegatecall))\n      ),\n      'DUPLICATED_ACTION'\n    );\n    executor.queueTransaction(target, value, signature, callData, executionTime, withDelegatecall);\n  }\n\n  function _submitVote(\n    address tokenAddress,\n    uint256 tokenAmount,\n    address voter,\n    uint256 proposalId,\n    bool support\n  ) internal {\n    require(getProposalState(proposalId) == ProposalState.Active, 'VOTING_CLOSED');\n    Proposal storage proposal = _proposals[proposalId];\n    Vote storage vote = proposal.votes[voter];\n    LockedTokens storage lockedTokens = proposal.lockedTokens[voter];\n\n    require(vote.votingPower == 0, 'VOTE_ALREADY_SUBMITTED');\n    \n    require(tokenAmount > 0, 'TOKEN AMOUNT TO SWAP MUST BE ABOVE 0');\n    require(\n      (tokenAddress == _PPT) || \n      (tokenAddress == _PXT),\n      'TOKEN_ADDRESS MUST BE PPT OR PXT TO VOTE'\n    );\n\n    uint256 votingPower = 0;\n\n    if (tokenAddress == _PPT) {\n      votingPower = tokenAmount.mul(2); // to issue x2 for PPT\n      _tokenSwapAndLock(\n        proposalId, voter, \n        tokenAddress, tokenAmount, \n        votingPower\n      );\n    } else if (tokenAddress == _PXT) {\n      _tokenSwapAndLock(\n        proposalId, voter, \n        tokenAddress, tokenAmount, \n        tokenAmount // to issue 1-1 for PXT\n      ); \n    }\n\n    if (support) {\n      proposal.forVotes = proposal.forVotes.add(votingPower);\n    } else {\n      proposal.againstVotes = proposal.againstVotes.add(votingPower);\n    }\n\n    vote.support = support;\n    vote.votingPower = uint248(votingPower);\n\n    emit VoteEmitted(proposalId, voter, support, votingPower);\n  }\n\n  function _tokenSwapAndLock(\n    uint256 proposalId,\n    address voter,\n    address tokenAddress, \n    uint256 tokenAmount, \n    uint256 votingPower\n    ) internal {\n    LockedTokens storage lockedTokens = _proposals[proposalId].lockedTokens[voter];\n    MockVotingToken voteToken = MockVotingToken(_votingToken);\n    IERC20Detailed userToken = IERC20Detailed(tokenAddress);\n    require(\n        userToken.transferFrom(voter, address(this), tokenAmount) == true,\n        'TOKEN TRANSFER_FROM FAILED, CHECK BALANCE OR APPROVAL'\n    );\n    lockedTokens.tokenAddress =  tokenAddress;\n    lockedTokens.amount = tokenAmount;\n    require(\n      voteToken.mint(voter, votingPower) == true,\n      'VOTE TOKENS NOT MINTED'\n    );\n\n    emit TokensLockedForVoting(voter, tokenAddress, tokenAmount);\n  }\n\n  function _setGovernanceStrategy(address governanceStrategy) internal {\n    _governanceStrategy = governanceStrategy;\n\n    emit GovernanceStrategyChanged(governanceStrategy, msg.sender);\n  }\n\n  function _setVotingDelay(uint256 votingDelay) internal {\n    _votingDelay = votingDelay;\n\n    emit VotingDelayChanged(votingDelay, msg.sender);\n  }\n\n  function _setVotingToken(address votingToken) internal {\n    require(votingToken != address(0), \"VOTING_TOKEN INVALID\");\n    _votingToken = votingToken;\n    emit VotingTokenSet(_votingToken);\n  }\n\n  function _authorizeExecutor(address executor) internal {\n    _authorizedExecutors[executor] = true;\n    emit ExecutorAuthorized(executor);\n  }\n\n  function _unauthorizeExecutor(address executor) internal {\n    _authorizedExecutors[executor] = false;\n    emit ExecutorUnauthorized(executor);\n  }\n\n  function _setUserTokens(address ppt, address pxt) internal {\n    require(\n      (ppt != address(0)) &&\n      (IERC20Detailed(ppt).totalSupply() > 0), \n      'PPT TOKEN ADDRESS IS INVALID'\n    );\n\n    require(\n      (pxt != address(0)) &&\n      (IERC20Detailed(pxt).totalSupply() > 0), \n      'PXT TOKEN ADDRESS IS INVALID'\n    );\n    \n    _PPT = ppt;\n    _PXT = pxt;\n  }\n\n  /**\n   * @dev View function allowing msg.sender to view how their voting power\n   * could change the outcome of the proposal. \n   * The proposal must be pending or active\n   * @param tokenAddress the address of the token to use to vote\n   * tokenAddress must be PPT or PXT and user balance of tokenAddress\n   * must be greater than zero\n   * @param tokenAmount the amount of tokens to use as voting power\n   * @param proposalId id of the proposal\n   * @param support boolean, true = vote for, false = vote against\n   * @return for votes and against votes\n   **/\n  function getVotingOutcome(\n    address tokenAddress, \n    uint256 tokenAmount,\n    uint256 proposalId, \n    bool support\n  ) external view override returns (uint256, uint256) {\n    require(getProposalState(proposalId) == ProposalState.Active, 'VOTING_CLOSED');\n    ProposalWithoutVotes memory proposal = getProposalById(proposalId);\n    address voter = msg.sender;\n    Vote memory vote = _proposals[proposalId].votes[voter];\n\n    require(vote.votingPower == 0, 'VOTE_ALREADY_SUBMITTED');\n    require(tokenAmount > 0, 'TOKEN AMOUNT TO SWAP MUST BE ABOVE 0');\n    require(\n      (tokenAddress == _PPT) || \n      (tokenAddress == _PXT),\n      'TOKEN_ADDRESS MUST BE PPT OR PXT TO VOTE'\n    );\n\n    IERC20Detailed userToken = IERC20Detailed(tokenAddress);\n    uint256 votingPower = 0;\n\n    if (tokenAddress == _PPT) {\n      votingPower = tokenAmount.mul(2);\n    } else if (tokenAddress == _PXT) {\n      votingPower = tokenAmount;\n    }\n    \n    if (support) {\n      proposal.forVotes = proposal.forVotes.add(votingPower);\n    } else {\n      proposal.againstVotes = proposal.againstVotes.add(votingPower);\n    }\n\n    return (proposal.forVotes, proposal.againstVotes);\n  }\n\n  /**\n   * @dev Getter function to get tokens locked in proposal for user\n   * by proposal id\n   * @param proposalId id of the proposal to get\n   * @param voter address of the voter\n   * @return the amount of tokens locked and token address\n   **/\n  function getLockedTokens(uint256 proposalId, address voter) \n  public \n  view \n  override \n  returns(LockedTokens memory) {\n    return _proposals[proposalId].lockedTokens[voter];\n  }\n\n  /**\n   * @dev Function to redeem tokens locked in proposal for user\n   * by proposal id\n   * @param proposalId id of the proposal to get\n   **/\n  function redeemLockedTokens(\n    uint256 proposalId\n  ) external override {\n    address voter = msg.sender;\n    uint256 votingPower = IVotingStrategy(_proposals[proposalId].strategy).getVotingPower(\n      voter    \n    );\n  \n    LockedTokens memory lockTokens = getLockedTokens(proposalId, voter);\n    MockVotingToken voteToken = MockVotingToken(_votingToken);\n    uint248 voteOnProposal = getVoteOnProposal(proposalId, voter).votingPower;\n    require(votingPower >= voteOnProposal, 'VOTING POWER MUST BE ABOVE or EQUAL TO VOTE ON PROPOSAL');\n    IERC20Detailed userToken = IERC20Detailed(lockTokens.tokenAddress);\n  \n    require(\n      voteToken.burn(voter, voteOnProposal) == true,\n      'VOTE TOKENS NOT BURNT'\n    );\n\n    require(\n      userToken.transfer(voter, lockTokens.amount) == true,\n      'LOCKED TOKENS NOT SENT TO USER'\n    );\n    \n    emit LockedTokensRedeemed(voter, lockTokens.tokenAddress, lockTokens.amount);\n  }\n\n}\n",
  "sourcePath": "/Users/nemitariajienka/Desktop/projects/populous/Populous-DeFi-governance/contracts/governance/PopulousGovernanceV2.sol",
  "compiler": {
    "name": "solc",
    "version": "0.7.5+commit.eb77ed08.Emscripten.clang"
  },
  "schemaVersion": "3.3.3",
  "updatedAt": "2021-04-22T09:47:59.409Z",
  "devdoc": {
    "author": "Populous*",
    "details": "Main point of interaction with Populous protocol's governance - Create a Proposal - Cancel a Proposal - Queue a Proposal - Execute a Proposal - Submit Vote to a Proposal Proposal States : Pending => Active => Succeeded(/Failed) => Queued => Executed(/Expired)                   The transition to \"Canceled\" can appear in multiple states",
    "kind": "dev",
    "methods": {
      "__abdicate()": {
        "details": "Let the guardian abdicate from its priviledged rights*"
      },
      "authorizeExecutors(address[])": {
        "details": "Add new addresses to the list of authorized executors",
        "params": {
          "executors": "list of new addresses to be authorized executors*"
        }
      },
      "cancel(uint256)": {
        "details": "Cancels a Proposal. - Callable by the _guardian with relaxed conditions, or by anybody if the conditions of   cancellation on the executor are fulfilled",
        "params": {
          "proposalId": "id of the proposal*"
        }
      },
      "create(address,address[],uint256[],string[],bytes[],bool[],bytes32)": {
        "details": "Creates a Proposal (needs to be validated by the Proposal Validator)",
        "params": {
          "calldatas": "list of calldatas: if associated signature empty, calldata ready, else calldata is arguments",
          "executor": "The ExecutorWithTimelock contract that will execute the proposal",
          "ipfsHash": "IPFS hash of the proposal*",
          "signatures": "list of function signatures (can be empty) to be used when created the callData",
          "targets": "list of contracts called by proposal's associated transactions",
          "values": "list of value in wei for each propoposal's associated transaction",
          "withDelegatecalls": "boolean, true = transaction delegatecalls the taget, else calls the target"
        }
      },
      "execute(uint256)": {
        "details": "Execute the proposal (If Proposal Queued)",
        "params": {
          "proposalId": "id of the proposal to execute*"
        }
      },
      "getGovernanceStrategy()": {
        "details": "Getter of the current GovernanceStrategy address",
        "returns": {
          "_0": "The address of the current GovernanceStrategy contracts*"
        }
      },
      "getGuardian()": {
        "details": "Getter the address of the guardian, that can mainly cancel proposals",
        "returns": {
          "_0": "The address of the guardian*"
        }
      },
      "getLockedTokens(uint256,address)": {
        "details": "Getter function to get tokens locked in proposal for user by proposal id",
        "params": {
          "proposalId": "id of the proposal to get",
          "voter": "address of the voter"
        },
        "returns": {
          "_0": "the amount of tokens locked and token address*"
        }
      },
      "getProposalById(uint256)": {
        "details": "Getter of a proposal by id",
        "params": {
          "proposalId": "id of the proposal to get"
        },
        "returns": {
          "_0": "the proposal as ProposalWithoutVotes memory object*"
        }
      },
      "getProposalState(uint256)": {
        "details": "Get the current state of a proposal",
        "params": {
          "proposalId": "id of the proposal"
        },
        "returns": {
          "_0": "The current state of the proposal*"
        }
      },
      "getProposalsCount()": {
        "details": "Getter of the proposal count (the current number of proposals ever created)",
        "returns": {
          "_0": "the proposal count*"
        }
      },
      "getVoteOnProposal(uint256,address)": {
        "details": "Getter of the Vote of a voter about a proposal Note: Vote is a struct: ({bool support, uint248 votingPower})",
        "params": {
          "proposalId": "id of the proposal",
          "voter": "address of the voter"
        },
        "returns": {
          "_0": "The associated Vote memory object*"
        }
      },
      "getVotingDelay()": {
        "details": "Getter of the current Voting Delay (delay before a created proposal can be voted on) Different from the voting duration",
        "returns": {
          "_0": "The voting delay in number of blocks*"
        }
      },
      "getVotingOutcome(address,uint256,uint256,bool)": {
        "details": "View function allowing msg.sender to view how their voting power could change the outcome of the proposal.  The proposal must be pending or active",
        "params": {
          "proposalId": "id of the proposal",
          "support": "boolean, true = vote for, false = vote against",
          "tokenAddress": "the address of the token to use to vote tokenAddress must be PPT or PXT and user balance of tokenAddress must be greater than zero",
          "tokenAmount": "the amount of tokens to use as voting power"
        },
        "returns": {
          "_0": "for votes and against votes*"
        }
      },
      "isExecutorAuthorized(address)": {
        "details": "Returns whether an address is an authorized executor",
        "params": {
          "executor": "address to evaluate as authorized executor"
        },
        "returns": {
          "_0": "true if authorized*"
        }
      },
      "owner()": {
        "details": "Returns the address of the current owner."
      },
      "queue(uint256)": {
        "details": "Queue the proposal (If Proposal Succeeded)",
        "params": {
          "proposalId": "id of the proposal to queue*"
        }
      },
      "redeemLockedTokens(uint256)": {
        "details": "Function to redeem tokens locked in proposal for user by proposal id",
        "params": {
          "proposalId": "id of the proposal to get*"
        }
      },
      "renounceOwnership()": {
        "details": "Leaves the contract without owner. It will not be possible to call `onlyOwner` functions anymore. Can only be called by the current owner. NOTE: Renouncing ownership will leave the contract without an owner, thereby removing any functionality that is only available to the owner."
      },
      "setGovernanceStrategy(address)": {
        "details": "Set new GovernanceStrategy Note: owner should be a timelocked executor, so needs to make a proposal",
        "params": {
          "governanceStrategy": "new Address of the GovernanceStrategy contract*"
        }
      },
      "setVotingDelay(uint256)": {
        "details": "Set new Voting Delay (delay before a newly created proposal can be voted on) Note: owner should be a timelocked executor, so needs to make a proposal",
        "params": {
          "votingDelay": "new voting delay in terms of blocks*"
        }
      },
      "submitVote(address,uint256,uint256,bool)": {
        "details": "Function allowing msg.sender to vote for/against a proposal",
        "params": {
          "proposalId": "id of the proposal",
          "support": "boolean, true = vote for, false = vote against*",
          "tokenAddress": "the address of the token to use to vote tokenAddress must be PPT or PXT and user balance of tokenAddress must be greater than zero",
          "tokenAmount": "the amount of tokens to use as voting power"
        }
      },
      "submitVoteBySignature(address,uint256,uint256,bool,uint8,bytes32,bytes32)": {
        "details": "Function to register the vote of user that has voted offchain via signature",
        "params": {
          "proposalId": "id of the proposal",
          "r": "r part of the voter signature",
          "s": "s part of the voter signature*",
          "support": "boolean, true = vote for, false = vote against",
          "tokenAddress": "the address of the token to use to vote tokenAddress must be PPT or PXT and user balance of tokenAddress must be greater than zero",
          "tokenAmount": "the amount of tokens to use as voting power",
          "v": "v part of the voter signature"
        }
      },
      "transferOwnership(address)": {
        "details": "Transfers ownership of the contract to a new account (`newOwner`). Can only be called by the current owner."
      },
      "unauthorizeExecutors(address[])": {
        "details": "Remove addresses to the list of authorized executors",
        "params": {
          "executors": "list of addresses to be removed as authorized executors*"
        }
      }
    },
    "title": "Governance V2 contract",
    "version": 1
  },
  "userdoc": {
    "kind": "user",
    "methods": {},
    "version": 1
  }
}