{
  "contractName": "PopulousGovernanceV3",
  "abi": [
    {
      "anonymous": false,
      "inputs": [
        {
          "indexed": false,
          "internalType": "address",
          "name": "executor",
          "type": "address"
        }
      ],
      "name": "ExecutorAuthorized",
      "type": "event"
    },
    {
      "anonymous": false,
      "inputs": [
        {
          "indexed": false,
          "internalType": "address",
          "name": "executor",
          "type": "address"
        }
      ],
      "name": "ExecutorUnauthorized",
      "type": "event"
    },
    {
      "anonymous": false,
      "inputs": [
        {
          "indexed": true,
          "internalType": "address",
          "name": "newStrategy",
          "type": "address"
        },
        {
          "indexed": true,
          "internalType": "address",
          "name": "initiatorChange",
          "type": "address"
        }
      ],
      "name": "GovernanceStrategyChanged",
      "type": "event"
    },
    {
      "anonymous": false,
      "inputs": [
        {
          "indexed": true,
          "internalType": "address",
          "name": "voter",
          "type": "address"
        },
        {
          "indexed": true,
          "internalType": "address",
          "name": "tokenAddress",
          "type": "address"
        },
        {
          "indexed": false,
          "internalType": "uint256",
          "name": "tokenAmount",
          "type": "uint256"
        }
      ],
      "name": "LockedTokensRedeemed",
      "type": "event"
    },
    {
      "anonymous": false,
      "inputs": [
        {
          "indexed": true,
          "internalType": "address",
          "name": "previousOwner",
          "type": "address"
        },
        {
          "indexed": true,
          "internalType": "address",
          "name": "newOwner",
          "type": "address"
        }
      ],
      "name": "OwnershipTransferred",
      "type": "event"
    },
    {
      "anonymous": false,
      "inputs": [
        {
          "indexed": false,
          "internalType": "uint256",
          "name": "id",
          "type": "uint256"
        }
      ],
      "name": "ProposalCanceled",
      "type": "event"
    },
    {
      "anonymous": false,
      "inputs": [
        {
          "indexed": false,
          "internalType": "uint256",
          "name": "id",
          "type": "uint256"
        },
        {
          "indexed": true,
          "internalType": "address",
          "name": "creator",
          "type": "address"
        },
        {
          "indexed": true,
          "internalType": "contract IExecutorWithTimelock",
          "name": "executor",
          "type": "address"
        },
        {
          "indexed": false,
          "internalType": "address[]",
          "name": "targets",
          "type": "address[]"
        },
        {
          "indexed": false,
          "internalType": "uint256[]",
          "name": "values",
          "type": "uint256[]"
        },
        {
          "indexed": false,
          "internalType": "string[]",
          "name": "signatures",
          "type": "string[]"
        },
        {
          "indexed": false,
          "internalType": "bytes[]",
          "name": "calldatas",
          "type": "bytes[]"
        },
        {
          "indexed": false,
          "internalType": "bool[]",
          "name": "withDelegatecalls",
          "type": "bool[]"
        },
        {
          "indexed": false,
          "internalType": "uint256",
          "name": "startBlock",
          "type": "uint256"
        },
        {
          "indexed": false,
          "internalType": "uint256",
          "name": "endBlock",
          "type": "uint256"
        },
        {
          "indexed": false,
          "internalType": "address",
          "name": "strategy",
          "type": "address"
        },
        {
          "indexed": false,
          "internalType": "bytes32",
          "name": "ipfsHash",
          "type": "bytes32"
        }
      ],
      "name": "ProposalCreated",
      "type": "event"
    },
    {
      "anonymous": false,
      "inputs": [
        {
          "indexed": false,
          "internalType": "uint256",
          "name": "id",
          "type": "uint256"
        },
        {
          "indexed": true,
          "internalType": "address",
          "name": "initiatorExecution",
          "type": "address"
        }
      ],
      "name": "ProposalExecuted",
      "type": "event"
    },
    {
      "anonymous": false,
      "inputs": [
        {
          "indexed": false,
          "internalType": "uint256",
          "name": "id",
          "type": "uint256"
        },
        {
          "indexed": false,
          "internalType": "uint256",
          "name": "executionTime",
          "type": "uint256"
        },
        {
          "indexed": true,
          "internalType": "address",
          "name": "initiatorQueueing",
          "type": "address"
        }
      ],
      "name": "ProposalQueued",
      "type": "event"
    },
    {
      "anonymous": false,
      "inputs": [
        {
          "indexed": true,
          "internalType": "address",
          "name": "voter",
          "type": "address"
        },
        {
          "indexed": true,
          "internalType": "address",
          "name": "tokenAddress",
          "type": "address"
        },
        {
          "indexed": false,
          "internalType": "uint256",
          "name": "tokenAmount",
          "type": "uint256"
        }
      ],
      "name": "TokensLockedForVoting",
      "type": "event"
    },
    {
      "anonymous": false,
      "inputs": [
        {
          "indexed": false,
          "internalType": "address",
          "name": "PPT",
          "type": "address"
        },
        {
          "indexed": false,
          "internalType": "address",
          "name": "PXT",
          "type": "address"
        }
      ],
      "name": "UserTokensSet",
      "type": "event"
    },
    {
      "anonymous": false,
      "inputs": [
        {
          "indexed": false,
          "internalType": "uint256",
          "name": "id",
          "type": "uint256"
        },
        {
          "indexed": true,
          "internalType": "address",
          "name": "voter",
          "type": "address"
        },
        {
          "indexed": false,
          "internalType": "bool",
          "name": "support",
          "type": "bool"
        },
        {
          "indexed": false,
          "internalType": "uint256",
          "name": "votingPower",
          "type": "uint256"
        }
      ],
      "name": "VoteEmitted",
      "type": "event"
    },
    {
      "anonymous": false,
      "inputs": [
        {
          "indexed": false,
          "internalType": "uint256",
          "name": "newVotingDelay",
          "type": "uint256"
        },
        {
          "indexed": true,
          "internalType": "address",
          "name": "initiatorChange",
          "type": "address"
        }
      ],
      "name": "VotingDelayChanged",
      "type": "event"
    },
    {
      "anonymous": false,
      "inputs": [
        {
          "indexed": false,
          "internalType": "address",
          "name": "token",
          "type": "address"
        }
      ],
      "name": "VotingTokenSet",
      "type": "event"
    },
    {
      "inputs": [],
      "name": "DOMAIN_TYPEHASH",
      "outputs": [
        {
          "internalType": "bytes32",
          "name": "",
          "type": "bytes32"
        }
      ],
      "stateMutability": "view",
      "type": "function"
    },
    {
      "inputs": [],
      "name": "GOVERNANCE_REVISION",
      "outputs": [
        {
          "internalType": "uint256",
          "name": "",
          "type": "uint256"
        }
      ],
      "stateMutability": "view",
      "type": "function"
    },
    {
      "inputs": [],
      "name": "NAME",
      "outputs": [
        {
          "internalType": "string",
          "name": "",
          "type": "string"
        }
      ],
      "stateMutability": "view",
      "type": "function"
    },
    {
      "inputs": [],
      "name": "VOTE_EMITTED_TYPEHASH",
      "outputs": [
        {
          "internalType": "bytes32",
          "name": "",
          "type": "bytes32"
        }
      ],
      "stateMutability": "view",
      "type": "function"
    },
    {
      "inputs": [],
      "name": "_PPT",
      "outputs": [
        {
          "internalType": "address",
          "name": "",
          "type": "address"
        }
      ],
      "stateMutability": "view",
      "type": "function"
    },
    {
      "inputs": [],
      "name": "_PXT",
      "outputs": [
        {
          "internalType": "address",
          "name": "",
          "type": "address"
        }
      ],
      "stateMutability": "view",
      "type": "function"
    },
    {
      "inputs": [],
      "name": "_owner",
      "outputs": [
        {
          "internalType": "address",
          "name": "",
          "type": "address"
        }
      ],
      "stateMutability": "view",
      "type": "function"
    },
    {
      "inputs": [],
      "name": "_votingToken",
      "outputs": [
        {
          "internalType": "address",
          "name": "",
          "type": "address"
        }
      ],
      "stateMutability": "view",
      "type": "function"
    },
    {
      "inputs": [],
      "name": "owner",
      "outputs": [
        {
          "internalType": "address",
          "name": "",
          "type": "address"
        }
      ],
      "stateMutability": "view",
      "type": "function"
    },
    {
      "inputs": [],
      "name": "renounceOwnership",
      "outputs": [],
      "stateMutability": "nonpayable",
      "type": "function"
    },
    {
      "inputs": [
        {
          "internalType": "address",
          "name": "newOwner",
          "type": "address"
        }
      ],
      "name": "transferOwnership",
      "outputs": [],
      "stateMutability": "nonpayable",
      "type": "function"
    },
    {
      "inputs": [
        {
          "internalType": "address",
          "name": "votingToken",
          "type": "address"
        },
        {
          "internalType": "address",
          "name": "ppt",
          "type": "address"
        },
        {
          "internalType": "address",
          "name": "pxt",
          "type": "address"
        },
        {
          "internalType": "address",
          "name": "governanceStrategy",
          "type": "address"
        },
        {
          "internalType": "uint256",
          "name": "votingDelay",
          "type": "uint256"
        },
        {
          "internalType": "address",
          "name": "guardian",
          "type": "address"
        },
        {
          "internalType": "address[]",
          "name": "executors",
          "type": "address[]"
        }
      ],
      "name": "initialize",
      "outputs": [],
      "stateMutability": "nonpayable",
      "type": "function"
    },
    {
      "inputs": [
        {
          "internalType": "contract IExecutorWithTimelock",
          "name": "executor",
          "type": "address"
        },
        {
          "internalType": "address[]",
          "name": "targets",
          "type": "address[]"
        },
        {
          "internalType": "uint256[]",
          "name": "values",
          "type": "uint256[]"
        },
        {
          "internalType": "string[]",
          "name": "signatures",
          "type": "string[]"
        },
        {
          "internalType": "bytes[]",
          "name": "calldatas",
          "type": "bytes[]"
        },
        {
          "internalType": "bool[]",
          "name": "withDelegatecalls",
          "type": "bool[]"
        },
        {
          "internalType": "bytes32",
          "name": "ipfsHash",
          "type": "bytes32"
        }
      ],
      "name": "create",
      "outputs": [
        {
          "internalType": "uint256",
          "name": "",
          "type": "uint256"
        }
      ],
      "stateMutability": "nonpayable",
      "type": "function"
    },
    {
      "inputs": [
        {
          "internalType": "uint256",
          "name": "proposalId",
          "type": "uint256"
        }
      ],
      "name": "cancel",
      "outputs": [],
      "stateMutability": "nonpayable",
      "type": "function"
    },
    {
      "inputs": [
        {
          "internalType": "uint256",
          "name": "proposalId",
          "type": "uint256"
        }
      ],
      "name": "queue",
      "outputs": [],
      "stateMutability": "nonpayable",
      "type": "function"
    },
    {
      "inputs": [
        {
          "internalType": "uint256",
          "name": "proposalId",
          "type": "uint256"
        }
      ],
      "name": "execute",
      "outputs": [],
      "stateMutability": "payable",
      "type": "function"
    },
    {
      "inputs": [
        {
          "internalType": "address",
          "name": "tokenAddress",
          "type": "address"
        },
        {
          "internalType": "uint256",
          "name": "tokenAmount",
          "type": "uint256"
        },
        {
          "internalType": "uint256",
          "name": "proposalId",
          "type": "uint256"
        },
        {
          "internalType": "bool",
          "name": "support",
          "type": "bool"
        }
      ],
      "name": "submitVote",
      "outputs": [],
      "stateMutability": "nonpayable",
      "type": "function"
    },
    {
      "inputs": [
        {
          "internalType": "address",
          "name": "tokenAddress",
          "type": "address"
        },
        {
          "internalType": "uint256",
          "name": "tokenAmount",
          "type": "uint256"
        },
        {
          "internalType": "uint256",
          "name": "proposalId",
          "type": "uint256"
        },
        {
          "internalType": "bool",
          "name": "support",
          "type": "bool"
        },
        {
          "internalType": "uint8",
          "name": "v",
          "type": "uint8"
        },
        {
          "internalType": "bytes32",
          "name": "r",
          "type": "bytes32"
        },
        {
          "internalType": "bytes32",
          "name": "s",
          "type": "bytes32"
        }
      ],
      "name": "submitVoteBySignature",
      "outputs": [],
      "stateMutability": "nonpayable",
      "type": "function"
    },
    {
      "inputs": [
        {
          "internalType": "address",
          "name": "governanceStrategy",
          "type": "address"
        }
      ],
      "name": "setGovernanceStrategy",
      "outputs": [],
      "stateMutability": "nonpayable",
      "type": "function"
    },
    {
      "inputs": [
        {
          "internalType": "uint256",
          "name": "votingDelay",
          "type": "uint256"
        }
      ],
      "name": "setVotingDelay",
      "outputs": [],
      "stateMutability": "nonpayable",
      "type": "function"
    },
    {
      "inputs": [
        {
          "internalType": "address[]",
          "name": "executors",
          "type": "address[]"
        }
      ],
      "name": "authorizeExecutors",
      "outputs": [],
      "stateMutability": "nonpayable",
      "type": "function"
    },
    {
      "inputs": [
        {
          "internalType": "address[]",
          "name": "executors",
          "type": "address[]"
        }
      ],
      "name": "unauthorizeExecutors",
      "outputs": [],
      "stateMutability": "nonpayable",
      "type": "function"
    },
    {
      "inputs": [],
      "name": "__abdicate",
      "outputs": [],
      "stateMutability": "nonpayable",
      "type": "function"
    },
    {
      "inputs": [],
      "name": "getGovernanceStrategy",
      "outputs": [
        {
          "internalType": "address",
          "name": "",
          "type": "address"
        }
      ],
      "stateMutability": "view",
      "type": "function"
    },
    {
      "inputs": [],
      "name": "getVotingDelay",
      "outputs": [
        {
          "internalType": "uint256",
          "name": "",
          "type": "uint256"
        }
      ],
      "stateMutability": "view",
      "type": "function"
    },
    {
      "inputs": [
        {
          "internalType": "address",
          "name": "executor",
          "type": "address"
        }
      ],
      "name": "isExecutorAuthorized",
      "outputs": [
        {
          "internalType": "bool",
          "name": "",
          "type": "bool"
        }
      ],
      "stateMutability": "view",
      "type": "function"
    },
    {
      "inputs": [],
      "name": "getGuardian",
      "outputs": [
        {
          "internalType": "address",
          "name": "",
          "type": "address"
        }
      ],
      "stateMutability": "view",
      "type": "function"
    },
    {
      "inputs": [],
      "name": "getProposalsCount",
      "outputs": [
        {
          "internalType": "uint256",
          "name": "",
          "type": "uint256"
        }
      ],
      "stateMutability": "view",
      "type": "function"
    },
    {
      "inputs": [
        {
          "internalType": "uint256",
          "name": "proposalId",
          "type": "uint256"
        }
      ],
      "name": "getProposalById",
      "outputs": [
        {
          "components": [
            {
              "internalType": "uint256",
              "name": "id",
              "type": "uint256"
            },
            {
              "internalType": "address",
              "name": "creator",
              "type": "address"
            },
            {
              "internalType": "contract IExecutorWithTimelock",
              "name": "executor",
              "type": "address"
            },
            {
              "internalType": "address[]",
              "name": "targets",
              "type": "address[]"
            },
            {
              "internalType": "uint256[]",
              "name": "values",
              "type": "uint256[]"
            },
            {
              "internalType": "string[]",
              "name": "signatures",
              "type": "string[]"
            },
            {
              "internalType": "bytes[]",
              "name": "calldatas",
              "type": "bytes[]"
            },
            {
              "internalType": "bool[]",
              "name": "withDelegatecalls",
              "type": "bool[]"
            },
            {
              "internalType": "uint256",
              "name": "startBlock",
              "type": "uint256"
            },
            {
              "internalType": "uint256",
              "name": "endBlock",
              "type": "uint256"
            },
            {
              "internalType": "uint256",
              "name": "executionTime",
              "type": "uint256"
            },
            {
              "internalType": "uint256",
              "name": "forVotes",
              "type": "uint256"
            },
            {
              "internalType": "uint256",
              "name": "againstVotes",
              "type": "uint256"
            },
            {
              "internalType": "bool",
              "name": "executed",
              "type": "bool"
            },
            {
              "internalType": "bool",
              "name": "canceled",
              "type": "bool"
            },
            {
              "internalType": "address",
              "name": "strategy",
              "type": "address"
            },
            {
              "internalType": "bytes32",
              "name": "ipfsHash",
              "type": "bytes32"
            }
          ],
          "internalType": "struct IPopulousGovernanceV2.ProposalWithoutVotes",
          "name": "",
          "type": "tuple"
        }
      ],
      "stateMutability": "view",
      "type": "function"
    },
    {
      "inputs": [
        {
          "internalType": "uint256",
          "name": "proposalId",
          "type": "uint256"
        },
        {
          "internalType": "address",
          "name": "voter",
          "type": "address"
        }
      ],
      "name": "getVoteOnProposal",
      "outputs": [
        {
          "components": [
            {
              "internalType": "bool",
              "name": "support",
              "type": "bool"
            },
            {
              "internalType": "uint248",
              "name": "votingPower",
              "type": "uint248"
            }
          ],
          "internalType": "struct IPopulousGovernanceV2.Vote",
          "name": "",
          "type": "tuple"
        }
      ],
      "stateMutability": "view",
      "type": "function"
    },
    {
      "inputs": [
        {
          "internalType": "uint256",
          "name": "proposalId",
          "type": "uint256"
        }
      ],
      "name": "getProposalState",
      "outputs": [
        {
          "internalType": "enum IPopulousGovernanceV2.ProposalState",
          "name": "",
          "type": "uint8"
        }
      ],
      "stateMutability": "view",
      "type": "function"
    },
    {
      "inputs": [
        {
          "internalType": "address",
          "name": "tokenAddress",
          "type": "address"
        },
        {
          "internalType": "uint256",
          "name": "tokenAmount",
          "type": "uint256"
        },
        {
          "internalType": "uint256",
          "name": "proposalId",
          "type": "uint256"
        },
        {
          "internalType": "bool",
          "name": "support",
          "type": "bool"
        }
      ],
      "name": "getVotingOutcome",
      "outputs": [
        {
          "internalType": "uint256",
          "name": "",
          "type": "uint256"
        },
        {
          "internalType": "uint256",
          "name": "",
          "type": "uint256"
        },
        {
          "internalType": "uint256",
          "name": "",
          "type": "uint256"
        }
      ],
      "stateMutability": "view",
      "type": "function"
    },
    {
      "inputs": [
        {
          "internalType": "uint256",
          "name": "proposalId",
          "type": "uint256"
        },
        {
          "internalType": "address",
          "name": "voter",
          "type": "address"
        }
      ],
      "name": "getLockedTokens",
      "outputs": [
        {
          "components": [
            {
              "internalType": "address",
              "name": "tokenAddress",
              "type": "address"
            },
            {
              "internalType": "uint256",
              "name": "amount",
              "type": "uint256"
            }
          ],
          "internalType": "struct IPopulousGovernanceV2.LockedTokens",
          "name": "",
          "type": "tuple"
        }
      ],
      "stateMutability": "view",
      "type": "function"
    },
    {
      "inputs": [
        {
          "internalType": "uint256",
          "name": "proposalId",
          "type": "uint256"
        }
      ],
      "name": "redeemLockedTokens",
      "outputs": [],
      "stateMutability": "nonpayable",
      "type": "function"
    },
    {
      "inputs": [
        {
          "internalType": "uint256",
          "name": "proposalId",
          "type": "uint256"
        }
      ],
      "name": "payToRedeemLockedTokens",
      "outputs": [],
      "stateMutability": "payable",
      "type": "function"
    },
    {
      "inputs": [],
      "name": "getChainId",
      "outputs": [
        {
          "internalType": "uint256",
          "name": "",
          "type": "uint256"
        }
      ],
      "stateMutability": "pure",
      "type": "function"
    }
  ],
  "bytecode": "0x608060405234801561001057600080fd5b506148a8806100206000396000f3fe60806040526004361061020f5760003560e01c80638da5cb5b11610118578063a76a9a2f116100a0578063ddf0b0091161006f578063ddf0b009146105b9578063f27ae0f9146105d9578063f2fde38b146105f9578063f8741a9c14610619578063fe0d94c1146106395761020f565b8063a76a9a2f14610528578063b2bdfa7b14610548578063bd969ba31461055d578063cdc35ef91461058a5761020f565b80639ec07089116100e75780639ec07089146104b2578063a2b170b0146104c7578063a3f4df7e146104dc578063a4d82225146104fe578063a75b87d2146105135761020f565b80638da5cb5b1461043b5780639080936f1461045057806398e527d31461047d5780639aad6f6a146104925761020f565b806340e58ee51161019b5780635877da451161016a5780635877da45146103b157806364c786d9146103d157806370b0f660146103f1578063715018a614610411578063760fbc13146104265761020f565b806340e58ee5146103175780634185ff83146103375780634ef8cc1714610364578063548b514e146103845761020f565b806320606b70116101e257806320606b701461028b57806328764cca146102ad5780633408e470146102c057806334b18c26146102d55780633656de21146102ea5761020f565b806306be3e8e1461021457806307c25b7d1461023f57806307e8aaef146102545780631a1caf7f14610269575b600080fd5b34801561022057600080fd5b5061022961064c565b6040516102369190613881565b60405180910390f35b34801561024b57600080fd5b5061022961065b565b34801561026057600080fd5b5061022961066a565b34801561027557600080fd5b5061028961028436600461349f565b610679565b005b34801561029757600080fd5b506102a0610705565b60405161023691906139a6565b6102896102bb366004613667565b610729565b3480156102cc57600080fd5b506102a061075e565b3480156102e157600080fd5b506102a0610762565b3480156102f657600080fd5b5061030a610305366004613667565b610786565b60405161023691906144c9565b34801561032357600080fd5b50610289610332366004613667565b610b37565b34801561034357600080fd5b5061035761035236600461367f565b610e13565b6040516102369190614623565b34801561037057600080fd5b5061028961037f3660046133e1565b610e6c565b34801561039057600080fd5b506103a461039f366004613323565b610e86565b604051610236919061399b565b3480156103bd57600080fd5b506102896103cc36600461342a565b610ea4565b3480156103dd57600080fd5b506102896103ec36600461349f565b611052565b3480156103fd57600080fd5b5061028961040c366004613667565b6110da565b34801561041d57600080fd5b5061028961113b565b34801561043257600080fd5b506102896111dd565b34801561044757600080fd5b50610229611229565b34801561045c57600080fd5b5061047061046b366004613667565b611238565b6040516102369190613a1f565b34801561048957600080fd5b506102a0611409565b34801561049e57600080fd5b506102896104ad366004613323565b61140f565b3480156104be57600080fd5b506102a0611470565b3480156104d357600080fd5b506102a0611475565b3480156104e857600080fd5b506104f161147b565b6040516102369190613a33565b34801561050a57600080fd5b506102296114ad565b34801561051f57600080fd5b506102296114bc565b34801561053457600080fd5b50610289610543366004613667565b6114cb565b34801561055457600080fd5b5061022961180f565b34801561056957600080fd5b5061057d61057836600461367f565b61181e565b60405161023691906144a9565b34801561059657600080fd5b506105aa6105a53660046133e1565b61186a565b60405161023693929190614708565b3480156105c557600080fd5b506102896105d4366004613667565b611a31565b3480156105e557600080fd5b506102896105f436600461333f565b611d3c565b34801561060557600080fd5b50610289610614366004613323565b611e7f565b34801561062557600080fd5b506102a0610634366004613581565b611f78565b610289610647366004613667565b6122e6565b6035546001600160a01b031690565b6039546001600160a01b031681565b6038546001600160a01b031681565b6106816124ec565b6034546001600160a01b039081169116146106d1576040805162461bcd60e51b81526020600482018190526024820152600080516020614825833981519152604482015290519081900360640190fd5b60005b8151811015610701576106f98282815181106106ec57fe5b60200260200101516124f0565b6001016106d4565b5050565b7f8cad95687ba82c2ce50e74f7b754645e5117c3a5bec8151c0726d5857980a86681565b600034116107525760405162461bcd60e51b815260040161074990613ed2565b60405180910390fd5b61075b816114cb565b50565b4690565b7f4e031542a9553ed1c4e810c54674ab4b984243e335b246aa3de73663bf4c11ee81565b61078e612d6b565b6000828152603b602052604090206107a4612d6b565b60408051610220810182528354815260018401546001600160a01b0390811660208084019190915260028601549091168284015260038501805484518184028101840190955280855292936060850193909283018282801561082f57602002820191906000526020600020905b81546001600160a01b03168152600190910190602001808311610811575b505050505081526020018360040180548060200260200160405190810160405280929190818152602001828054801561088757602002820191906000526020600020905b815481526020019060010190808311610873575b5050505050815260200183600501805480602002602001604051908101604052809291908181526020016000905b828210156109605760008481526020908190208301805460408051601f600260001961010060018716150201909416939093049283018590048502810185019091528181529283018282801561094c5780601f106109215761010080835404028352916020019161094c565b820191906000526020600020905b81548152906001019060200180831161092f57829003601f168201915b5050505050815260200190600101906108b5565b50505050815260200183600601805480602002602001604051908101604052809291908181526020016000905b82821015610a385760008481526020908190208301805460408051601f6002600019610100600187161502019094169390930492830185900485028101850190915281815292830182828015610a245780601f106109f957610100808354040283529160200191610a24565b820191906000526020600020905b815481529060010190602001808311610a0757829003601f168201915b50505050508152602001906001019061098d565b50505050815260200183600701805480602002602001604051908101604052809291908181526020018280548015610aaf57602002820191906000526020600020906000905b825461010083900a900460ff161515815260206001928301818104948501949093039092029101808411610a7e5790505b50505091835250506008840154602082015260098401546040820152600a8401546060820152600b8401546080820152600c84015460a0820152600d84015460ff808216151560c0840152610100808304909116151560e0840152620100009091046001600160a01b031690820152600e90930154610120909301929092525090505b919050565b6000610b4282611238565b90506007816007811115610b5257fe5b14158015610b6c57506001816007811115610b6957fe5b14155b8015610b8457506006816007811115610b8157fe5b14155b610ba05760405162461bcd60e51b815260040161074990613db3565b6000828152603b60205260409020603d546001600160a01b0316610bc26124ec565b6001600160a01b03161480610c5d5750600281015460018201546040516347293e6560e01b81526001600160a01b03928316926347293e6592610c0d92309290911690600401613895565b60206040518083038186803b158015610c2557600080fd5b505afa158015610c39573d6000803e3d6000fd5b505050506040513d601f19601f82011682018060405250810190610c5d91906134da565b610c795760405162461bcd60e51b815260040161074990613b43565b600d8101805461ff00191661010017905560005b6003820154811015610dd65760028201546003830180546001600160a01b0390921691631dc40b51919084908110610cc157fe5b6000918252602090912001546004850180546001600160a01b039092169185908110610ce957fe5b9060005260206000200154856005018581548110610d0357fe5b90600052602060002001866006018681548110610d1c57fe5b9060005260206000200187600a0154886007018881548110610d3a57fe5b90600052602060002090602091828204019190069054906101000a900460ff166040518763ffffffff1660e01b8152600401610d7b96959493929190613962565b602060405180830381600087803b158015610d9557600080fd5b505af1158015610da9573d6000803e3d6000fd5b505050506040513d601f19601f82011682018060405250810190610dcd91906134f6565b50600101610c8d565b507f789cf55be980739dad1d0699b93b58e806b51c9d96619bfa8fe0a28abaa7b30c83604051610e0691906139a6565b60405180910390a1505050565b610e1b612e11565b506000828152603b602090815260408083206001600160a01b0385168452600f0182529182902082518084019093525460ff81161515835261010090046001600160f81b0316908201525b92915050565b610e808484610e796124ec565b858561254b565b50505050565b6001600160a01b03166000908152603c602052604090205460ff1690565b6040805180820190915260168152752837b83ab637bab99023b7bb32b93730b731b2903b1960511b60209091015260007f8cad95687ba82c2ce50e74f7b754645e5117c3a5bec8151c0726d5857980a8667f90d0e97d0675583859de66b0b508c48eebcdbecf06886b4366f8b83acdaff70b610f1e61075e565b30604051602001610f3294939291906139dd565b604051602081830303815290604052805190602001207f4e031542a9553ed1c4e810c54674ab4b984243e335b246aa3de73663bf4c11ee89898989604051602001610f819594939291906139af565b60405160208183030381529060405280519060200120604051602001610fa8929190613866565b604051602081830303815290604052805190602001209050600060018286868660405160008152602001604052604051610fe59493929190613a01565b6020604051602081039080840390855afa158015611007573d6000803e3d6000fd5b5050604051601f1901519150506001600160a01b03811661103a5760405162461bcd60e51b81526004016107499061406b565b6110478989838a8a61254b565b505050505050505050565b61105a6124ec565b6034546001600160a01b039081169116146110aa576040805162461bcd60e51b81526020600482018190526024820152600080516020614825833981519152604482015290519081900360640190fd5b60005b8151811015610701576110d28282815181106110c557fe5b602002602001015161273f565b6001016110ad565b6110e26124ec565b6034546001600160a01b03908116911614611132576040805162461bcd60e51b81526020600482018190526024820152600080516020614825833981519152604482015290519081900360640190fd5b61075b81612792565b6111436124ec565b6034546001600160a01b03908116911614611193576040805162461bcd60e51b81526020600482018190526024820152600080516020614825833981519152604482015290519081900360640190fd5b6034546040516000916001600160a01b0316907f8be0079c531659141344cd1fd0a4f28419497f9722a3daafe3b4186f6b6457e0908390a3603480546001600160a01b0319169055565b603d546001600160a01b03166111f16124ec565b6001600160a01b0316146112175760405162461bcd60e51b815260040161074990613fc9565b603d80546001600160a01b0319169055565b6034546001600160a01b031690565b600081603a54101561125c5760405162461bcd60e51b815260040161074990613f78565b6000828152603b60205260409020600d810154610100900460ff1615611286576001915050610b32565b8060080154431161129b576000915050610b32565b806009015443116112b0576002915050610b32565b60028101546040516306fbb3ab60e01b81526001600160a01b03909116906306fbb3ab906112e490309087906004016138f5565b60206040518083038186803b1580156112fc57600080fd5b505afa158015611310573d6000803e3d6000fd5b505050506040513d601f19601f8201168201806040525081019061133491906134da565b611342576003915050610b32565b600a810154611355576004915050610b32565b600d81015460ff161561136c576007915050610b32565b600281015460405163f670a5f960e01b81526001600160a01b039091169063f670a5f9906113a090309087906004016138f5565b60206040518083038186803b1580156113b857600080fd5b505afa1580156113cc573d6000803e3d6000fd5b505050506040513d601f19601f820116820180604052508101906113f091906134da565b156113ff576006915050610b32565b6005915050610b32565b603a5490565b6114176124ec565b6034546001600160a01b03908116911614611467576040805162461bcd60e51b81526020600482018190526024820152600080516020614825833981519152604482015290519081900360640190fd5b61075b816127e2565b600281565b60365490565b604051806040016040528060168152602001752837b83ab637bab99023b7bb32b93730b731b2903b1960511b81525081565b6037546001600160a01b031681565b603d546001600160a01b031690565b60006114d682611238565b60078111156114e157fe5b14158015611503575060026114f582611238565b600781111561150057fe5b14155b61151f5760405162461bcd60e51b815260040161074990613d25565b60006115296124ec565b6000838152603b6020526040808220600d01549051635da6a21b60e11b81529293509091620100009091046001600160a01b03169063bb4d443690611572908590600401613881565b60206040518083038186803b15801561158a57600080fd5b505afa15801561159e573d6000803e3d6000fd5b505050506040513d601f19601f820116820180604052508101906115c291906134f6565b90506115cc612e11565b6115d6848461181e565b905060008160200151116115fc5760405162461bcd60e51b81526004016107499061430d565b6000848152603b602090815260408083206001600160a01b03808816855260108201909352908320600101839055603754909291169061163c8787610e13565b602001519050806001600160f81b031685101561166b5760405162461bcd60e51b815260040161074990614171565b8351604051632770a7eb60e21b81526001600160a01b03841690639dc29fac9061169b908a9086906004016138d3565b602060405180830381600087803b1580156116b557600080fd5b505af11580156116c9573d6000803e3d6000fd5b505050506040513d601f19601f820116820180604052508101906116ed91906134da565b151560011461170e5760405162461bcd60e51b81526004016107499061436a565b602085015160405163a9059cbb60e01b81526001600160a01b0383169163a9059cbb9161173f918b916004016138f5565b602060405180830381600087803b15801561175957600080fd5b505af115801561176d573d6000803e3d6000fd5b505050506040513d601f19601f8201168201806040525081019061179191906134da565b15156001146117b25760405162461bcd60e51b8152600401610749906141f4565b84600001516001600160a01b0316876001600160a01b03167f20eaecd96d36d2ea6564edf6426f0d3f7e6b9fc7bf120a9b854d9d2e5ef265f887602001516040516117fd91906139a6565b60405180910390a35050505050505050565b6034546001600160a01b031681565b611826612e11565b506000918252603b602090815260408084206001600160a01b0393841685526010018252928390208351808501909452805490921683526001909101549082015290565b60008080600261187986611238565b600781111561188457fe5b146118a15760405162461bcd60e51b81526004016107499061445e565b6118a9612d6b565b6118b286610786565b905060006118be6124ec565b90506118c8612e11565b506000878152603b602090815260408083206001600160a01b0385168452600f0182529182902082518084019093525460ff81161515835261010090046001600160f81b0316908201819052156119315760405162461bcd60e51b8152600401610749906143bf565b600089116119515760405162461bcd60e51b815260040161074990614109565b6038546001600160a01b038b81169116148061197a57506039546001600160a01b038b81169116145b6119965760405162461bcd60e51b8152600401610749906142a1565b6038546000906001600160a01b038c8116911614156119b65750886119da565b6039546001600160a01b038c8116911614156119da576119d78a6005612847565b90505b87156119fb576101608401516119f090826128a7565b610160850152611a12565b610180840151611a0b90826128a7565b6101808501525b61016084015161018090940151909b939a509850919650505050505050565b6004611a3c82611238565b6007811115611a4757fe5b14611a645760405162461bcd60e51b8152600401610749906140bf565b6000818152603b602090815260408083206002810154825163675e4d4160e11b81529251919493611afc936001600160a01b039092169263cebc9a82926004808201939291829003018186803b158015611abd57600080fd5b505afa158015611ad1573d6000803e3d6000fd5b505050506040513d601f19601f82011682018060405250810190611af591906134f6565b42906128a7565b905060005b6003830154811015611ce5576002830154600384018054611cdd926001600160a01b0316919084908110611b3157fe5b6000918252602090912001546004860180546001600160a01b039092169185908110611b5957fe5b9060005260206000200154866005018581548110611b7357fe5b600091825260209182902001805460408051601f6002600019610100600187161502019094169390930492830185900485028101850190915281815292830182828015611c015780601f10611bd657610100808354040283529160200191611c01565b820191906000526020600020905b815481529060010190602001808311611be457829003601f168201915b5050505050876006018681548110611c1557fe5b600091825260209182902001805460408051601f6002600019610100600187161502019094169390930492830185900485028101850190915281815292830182828015611ca35780601f10611c7857610100808354040283529160200191611ca3565b820191906000526020600020905b815481529060010190602001808311611c8657829003601f168201915b505050505087896007018881548110611cb857fe5b90600052602060002090602091828204019190069054906101000a900460ff16612901565b600101611b01565b50600a8201819055611cf56124ec565b6001600160a01b03167f11a0b38e70585e4b09b794bd1d9f9b1a51a802eb8ee2101eeee178d0349e73fe8483604051611d2f9291906146fa565b60405180910390a2505050565b6000611d46612a5c565b60015490915060ff1680611d5d5750611d5d612a61565b80611d69575060005481115b611da45760405162461bcd60e51b815260040180806020018281038252602e815260200180614845602e913960400191505060405180910390fd5b60015460ff16158015611dc3576001805460ff19168117905560008290555b6000611dcd6124ec565b603480546001600160a01b0319166001600160a01b038316908117909155604051919250906000907f8be0079c531659141344cd1fd0a4f28419497f9722a3daafe3b4186f6b6457e0908290a3611e23876127e2565b611e2c86612792565b611e358a612a67565b611e3f8989612ade565b603d80546001600160a01b0319166001600160a01b038716179055611e6384611052565b508015611047576001805460ff19169055505050505050505050565b611e876124ec565b6034546001600160a01b03908116911614611ed7576040805162461bcd60e51b81526020600482018190526024820152600080516020614825833981519152604482015290519081900360640190fd5b6001600160a01b038116611f1c5760405162461bcd60e51b81526004018080602001828103825260268152602001806147de6026913960400191505060405180910390fd5b6034546040516001600160a01b038084169216907f8be0079c531659141344cd1fd0a4f28419497f9722a3daafe3b4186f6b6457e090600090a3603480546001600160a01b0319166001600160a01b0392909216919091179055565b6000865160001415611f9c5760405162461bcd60e51b815260040161074990613f2f565b85518751148015611fae575084518751145b8015611fbb575083518751145b8015611fc8575082518751145b611fe45760405162461bcd60e51b815260040161074990613c35565b611fed88610e86565b6120095760405162461bcd60e51b815260040161074990614413565b876001600160a01b0316630332f025306120216124ec565b6040518363ffffffff1660e01b815260040161203e929190613895565b60206040518083038186803b15801561205657600080fd5b505afa15801561206a573d6000803e3d6000fd5b505050506040513d601f19601f8201168201806040525081019061208e91906134da565b6120aa5760405162461bcd60e51b815260040161074990614251565b6120b2612e28565b6036546120c09043906128a7565b816000018181525050612145896001600160a01b031663a438d2086040518163ffffffff1660e01b815260040160206040518083038186803b15801561210557600080fd5b505afa158015612119573d6000803e3d6000fd5b505050506040513d601f19601f8201168201806040525081019061213d91906134f6565b8251906128a7565b602080830191909152603a5460408084018281526000928352603b9093529020905181556121716124ec565b6001820180546001600160a01b03199081166001600160a01b0393841617909155600283018054909116918c1691909117905588516121b990600383019060208c0190612e49565b5087516121cf90600483019060208b0190612eae565b5086516121e590600583019060208a0190612ee9565b5085516121fb9060068301906020890190612f42565b5084516122119060078301906020880190612f9b565b508151600882015560208201516009820155603554600d8201805462010000600160b01b0319166001600160a01b039283166201000002179055600e8201859055603a805460010190558a166122656124ec565b6001600160a01b03167fd272d67d2c8c66de43c1d2515abb064978a5020c173e15903b6a2ab3bf7440ec84604001518c8c8c8c8c8a600001518b60200151603560009054906101000a90046001600160a01b03168f6040516122d09a99989796959493929190614645565b60405180910390a3549998505050505050505050565b60056122f182611238565b60078111156122fc57fe5b146123195760405162461bcd60e51b815260040161074990613cdb565b6000818152603b60205260408120600d8101805460ff19166001179055905b600382015481101561249f5760028201546004830180546001600160a01b0390921691638902ab6591908490811061236c57fe5b906000526020600020015484600301848154811061238657fe5b6000918252602090912001546004860180546001600160a01b0390921691869081106123ae57fe5b90600052602060002001548660050186815481106123c857fe5b906000526020600020018760060187815481106123e157fe5b9060005260206000200188600a01548960070189815481106123ff57fe5b90600052602060002090602091828204019190069054906101000a900460ff166040518863ffffffff1660e01b815260040161244096959493929190613962565b6000604051808303818588803b15801561245957600080fd5b505af115801561246d573d6000803e3d6000fd5b50505050506040513d6000823e601f3d908101601f19168201604052612496919081019061350e565b50600101612338565b506124a86124ec565b6001600160a01b03167f9c85b616f29fca57a17eafe71cf9ff82ffef41766e2cf01ea7f8f7878dd3ec24836040516124e091906139a6565b60405180910390a25050565b3390565b6001600160a01b0381166000908152603c602052604090819020805460ff19169055517f5e8105a2af24345971359d2289f43efa80d093f4a7123561b8d63836b98724f490612540908390613881565b60405180910390a150565b600061255683611238565b9050600281600781111561256657fe5b146125835760405162461bcd60e51b815260040161074990613d6e565b6000838152603b602090815260408083206001600160a01b0388168452600f8101909252909120805461010090046001600160f81b0316156125d75760405162461bcd60e51b815260040161074990613b97565b600087116125f75760405162461bcd60e51b815260040161074990613ae6565b6038546001600160a01b038981169116148061262057506039546001600160a01b038981169116145b61263c5760405162461bcd60e51b815260040161074990613dfb565b6038546000906001600160a01b038a81169116141561266957508661266486888b8480612b9b565b612699565b6039546001600160a01b038a8116911614156126995761268a886005612847565b905061269986888b8b85612b9b565b84156126b857600b8301546126ae90826128a7565b600b8401556126cd565b600c8301546126c790826128a7565b600c8401555b815460ff60ff1990911686151517166101006001600160f81b038316021782556040516001600160a01b038816907f0c611e7b6ae0de26f4772260e1bbdb5f58cbb7c275fe2de14671968d29add8d69061272c908990899086906146e4565b60405180910390a2505050505050505050565b6001600160a01b0381166000908152603c602052604090819020805460ff19166001179055517f52762435f58790076157ea2a4914a5a4d0aa0eb421588891377692f7fd3bc08290612540908390613881565b603681905561279f6124ec565b6001600160a01b03167fc46fc23e244f0720a98ddbac6efb5bb40d212cf15e6478fc4b3017648715289d826040516127d791906139a6565b60405180910390a250565b603580546001600160a01b0319166001600160a01b0383161790556128056124ec565b6001600160a01b0316816001600160a01b03167f9e8e9f668db69a2cefb172dabe284d0d3aea2b7ee64212a205bd033bd03a3d5560405160405180910390a350565b60008261285657506000610e66565b8282028284828161286357fe5b04146128a05760405162461bcd60e51b81526004018080602001828103825260218152602001806148046021913960400191505060405180910390fd5b9392505050565b6000828201838110156128a0576040805162461bcd60e51b815260206004820152601b60248201527f536166654d6174683a206164646974696f6e206f766572666c6f770000000000604482015290519081900360640190fd5b866001600160a01b031663b1fc879687878787878760405160200161292b9695949392919061390e565b604051602081830303815290604052805190602001206040518263ffffffff1660e01b815260040161295d91906139a6565b60206040518083038186803b15801561297557600080fd5b505afa158015612989573d6000803e3d6000fd5b505050506040513d601f19601f820116820180604052508101906129ad91906134da565b156129ca5760405162461bcd60e51b815260040161074990613a46565b604051638d8fe2e360e01b81526001600160a01b03881690638d8fe2e390612a009089908990899089908990899060040161390e565b602060405180830381600087803b158015612a1a57600080fd5b505af1158015612a2e573d6000803e3d6000fd5b505050506040513d601f19601f82011682018060405250810190612a5291906134f6565b5050505050505050565b600290565b303b1590565b6001600160a01b038116612a8d5760405162461bcd60e51b815260040161074990613be5565b603780546001600160a01b0319166001600160a01b0383811691909117918290556040517f392aa4d4c6804dae27d6bfa0c6430bba42833bed9c53833e7b7f2b2d7cc13aef92612540921690613881565b6001600160a01b038216612b045760405162461bcd60e51b815260040161074990614013565b6001600160a01b038116612b2a5760405162461bcd60e51b815260040161074990613c83565b603880546001600160a01b038085166001600160a01b0319928316179283905560398054858316931692909217918290556040517fb17851252d29a80a8ace9b26188567af63958a7cb31a5e32a09565d8f355d86f93612b8f93908316921690613895565b60405180910390a15050565b6000858152603b602090815260408083206001600160a01b03808916855260109091019092529182902060375492516323b872dd60e01b815290928216918691908216906323b872dd90612bf7908a9030908a906004016138af565b602060405180830381600087803b158015612c1157600080fd5b505af1158015612c25573d6000803e3d6000fd5b505050506040513d601f19601f82011682018060405250810190612c4991906134da565b1515600114612c6a5760405162461bcd60e51b815260040161074990613e59565b82546001600160a01b0319166001600160a01b03878116919091178455600184018690556040516340c10f1960e01b8152908316906340c10f1990612cb5908a9088906004016138f5565b602060405180830381600087803b158015612ccf57600080fd5b505af1158015612ce3573d6000803e3d6000fd5b505050506040513d601f19601f82011682018060405250810190612d0791906134da565b1515600114612d285760405162461bcd60e51b815260040161074990613a92565b856001600160a01b0316876001600160a01b03167f87f4b5cc1d7b955dd69a5ce366fe29a7a5b9c644c277eeea72cf6659c2590ae8876040516117fd91906139a6565b6040518061022001604052806000815260200160006001600160a01b0316815260200160006001600160a01b031681526020016060815260200160608152602001606081526020016060815260200160608152602001600081526020016000815260200160008152602001600081526020016000815260200160001515815260200160001515815260200160006001600160a01b03168152602001600080191681525090565b604080518082019091526000808252602082015290565b60405180606001604052806000815260200160008152602001600081525090565b828054828255906000526020600020908101928215612e9e579160200282015b82811115612e9e57825182546001600160a01b0319166001600160a01b03909116178255602090920191600190910190612e69565b50612eaa929150613037565b5090565b828054828255906000526020600020908101928215612e9e579160200282015b82811115612e9e578251825591602001919060010190612ece565b828054828255906000526020600020908101928215612f36579160200282015b82811115612f365782518051612f2691849160209091019061304c565b5091602001919060010190612f09565b50612eaa9291506130c7565b828054828255906000526020600020908101928215612f8f579160200282015b82811115612f8f5782518051612f7f91849160209091019061304c565b5091602001919060010190612f62565b50612eaa9291506130e4565b82805482825590600052602060002090601f01602090048101928215612e9e5791602002820160005b8382111561300157835183826101000a81548160ff0219169083151502179055509260200192600101602081600001049283019260010302612fc4565b801561302e5782816101000a81549060ff0219169055600101602081600001049283019260010302613001565b5050612eaa9291505b5b80821115612eaa5760008155600101613038565b828054600181600116156101000203166002900490600052602060002090601f0160209004810192826130825760008555612e9e565b82601f1061309b57805160ff1916838001178555612e9e565b82800160010185558215612e9e5791820182811115612e9e578251825591602001919060010190612ece565b80821115612eaa5760006130db8282613101565b506001016130c7565b80821115612eaa5760006130f88282613101565b506001016130e4565b50805460018160011615610100020316600290046000825580601f10613127575061075b565b601f01602090049060005260206000209081019061075b9190613037565b600082601f830112613155578081fd5b813561316861316382614742565b61471e565b81815291506020808301908481018184028601820187101561318957600080fd5b60005b848110156131b157813561319f816147ba565b8452928201929082019060010161318c565b505050505092915050565b600082601f8301126131cc578081fd5b81356131da61316382614742565b8181529150602080830190848101818402860182018710156131fb57600080fd5b60005b848110156131b1578135613211816147cf565b845292820192908201906001016131fe565b600082601f830112613233578081fd5b813561324161316382614742565b818152915060208083019084810160005b848110156131b1578135870188603f82011261326d57600080fd5b8381013561327d61316382614760565b81815260408b8184860101111561329357600080fd5b82818501888401375060009181018601919091528552509282019290820190600101613252565b600082601f8301126132ca578081fd5b81356132d861316382614742565b8181529150602080830190848101818402860182018710156132f957600080fd5b60005b848110156131b1578135845292820192908201906001016132fc565b8035610b32816147ba565b600060208284031215613334578081fd5b81356128a0816147ba565b600080600080600080600060e0888a031215613359578283fd5b8735613364816147ba565b96506020880135613374816147ba565b95506040880135613384816147ba565b94506060880135613394816147ba565b93506080880135925060a08801356133ab816147ba565b915060c088013567ffffffffffffffff8111156133c6578182fd5b6133d28a828b01613145565b91505092959891949750929550565b600080600080608085870312156133f6578384fd5b8435613401816147ba565b93506020850135925060408501359150606085013561341f816147cf565b939692955090935050565b600080600080600080600060e0888a031215613444578081fd5b873561344f816147ba565b96506020880135955060408801359450606088013561346d816147cf565b9350608088013560ff81168114613482578182fd5b9699959850939692959460a0840135945060c09093013592915050565b6000602082840312156134b0578081fd5b813567ffffffffffffffff8111156134c6578182fd5b6134d284828501613145565b949350505050565b6000602082840312156134eb578081fd5b81516128a0816147cf565b600060208284031215613507578081fd5b5051919050565b60006020828403121561351f578081fd5b815167ffffffffffffffff811115613535578182fd5b8201601f81018413613545578182fd5b805161355361316382614760565b818152856020838501011115613567578384fd5b61357882602083016020860161478e565b95945050505050565b600080600080600080600060e0888a03121561359b578081fd5b6135a488613318565b9650602088013567ffffffffffffffff808211156135c0578283fd5b6135cc8b838c01613145565b975060408a01359150808211156135e1578283fd5b6135ed8b838c016132ba565b965060608a0135915080821115613602578283fd5b61360e8b838c01613223565b955060808a0135915080821115613623578283fd5b61362f8b838c01613223565b945060a08a0135915080821115613644578283fd5b506136518a828b016131bc565b92505060c0880135905092959891949750929550565b600060208284031215613678578081fd5b5035919050565b60008060408385031215613691578182fd5b8235915060208301356136a3816147ba565b809150509250929050565b6001600160a01b03169052565b6000815180845260208085019450808401835b838110156136f35781516001600160a01b0316875295820195908201906001016136ce565b509495945050505050565b6000815180845260208085019450808401835b838110156136f3578151151587529582019590820190600101613711565b6000815180845260208085018081965082840281019150828601855b858110156137755782840389526137638483516137b7565b9885019893509084019060010161374b565b5091979650505050505050565b6000815180845260208085019450808401835b838110156136f357815187529582019590820190600101613795565b15159052565b600081518084526137cf81602086016020860161478e565b601f01601f19169290920160200192915050565b60008154600180821660008114613801576001811461381f5761385d565b60028304607f16865260ff198316602087015260408601935061385d565b6002830480875261382f86614782565b60005b828110156138535781546020828b0101528482019150602081019050613832565b8801602001955050505b50505092915050565b61190160f01b81526002810192909252602282015260420190565b6001600160a01b0391909116815260200190565b6001600160a01b0392831681529116602082015260400190565b6001600160a01b039384168152919092166020820152604081019190915260600190565b6001600160a01b039290921682526001600160f81b0316602082015260400190565b6001600160a01b03929092168252602082015260400190565b600060018060a01b038816825286602083015260c0604083015261393560c08301876137b7565b828103606084015261394781876137b7565b6080840195909552505090151560a090910152949350505050565b600060018060a01b038816825286602083015260c0604083015261398960c08301876137e3565b828103606084015261394781876137e3565b901515815260200190565b90815260200190565b9485526001600160a01b03939093166020850152604084019190915260608301521515608082015260a00190565b938452602084019290925260408301526001600160a01b0316606082015260800190565b93845260ff9290921660208401526040830152606082015260800190565b6020810160088310613a2d57fe5b91905290565b6000602082526128a060208301846137b7565b6020808252602c908201527f476f7665726e616e63653a2071756575654f725265766572743a204455504c4960408201526b21a0aa22a22fa0a1aa24a7a760a11b606082015260800190565b60208082526034908201527f476f7665726e616e63653a20746f6b656e53776170416e644c6f636b3a20564f6040820152731511481513d2d15394c81393d50813525395115160621b606082015260800190565b6020808252603c908201527f476f7665726e616e63653a207375626d6974566f74653a20544f4b454e20414d60408201527f4f554e5420544f2053574150204d5553542042452041424f5645203000000000606082015260800190565b60208082526034908201527f476f7665726e616e63653a2063616e63656c3a2050524f504f534954494f4e5f60408201527310d05390d1531310551253d397d253959053125160621b606082015260800190565b6020808252602e908201527f476f7665726e616e63653a207375626d6974566f74653a20564f54455f414c5260408201526d1150511657d4d55093525515115160921b606082015260800190565b60208082526030908201527f476f7665726e616e63653a20736574566f74696e67746f6b656e3a20564f544960408201526f1391d7d513d2d153881253959053125160821b606082015260800190565b6020808252602e908201527f476f7665726e616e63653a206372656174653a20494e434f4e53495354454e5460408201526d0bea082a4829aa6be988a9c8ea8960931b606082015260800190565b60208082526038908201527f476f7665726e616e63653a205f73657455736572546f6b656e733a20505854206040820152771513d2d15388105111149154d4c81254c81253959053125160421b606082015260800190565b6020808252602a908201527f476f7665726e616e63653a20657865637574653a204f4e4c595f5155455545446040820152695f50524f504f53414c5360b01b606082015260800190565b60208082526029908201527f476f7665726e616e63653a20676574566f74696e674f7574636f6d653a20564f6040820152682a24a723afa7a822a760b91b606082015260800190565b60208082526025908201527f476f7665726e616e63653a207375626d6974566f74653a20564f54494e475f436040820152641313d4d15160da1b606082015260800190565b60208082526028908201527f476f7665726e616e63653a2063616e63656c3a204f4e4c595f4245464f52455f60408201526711561150d555115160c21b606082015260800190565b602080825260409082018190527f476f7665726e616e63653a207375626d6974566f74653a20544f4b454e5f4144908201527f4452455353204d55535420424520505054204f522050585420544f20564f5445606082015260800190565b60208082526053908201527f476f7665726e616e63653a20746f6b656e53776170416e644c6f636b3a20544f60408201527f4b454e205452414e534645525f46524f4d204641494c45442c20434845434b20606082015272109053105390d14813d4881054141493d59053606a1b608082015260a00190565b6020808252603d908201527f476f7665726e616e63653a20706179546f52656465656d4c6f636b6564546f6b60408201527f656e733a206d73672e76616c7565206973206e6f742061626f76652030000000606082015260800190565b60208082526029908201527f476f7665726e616e63653a206372656174653a20494e56414c49445f454d5054604082015268595f5441524745545360b81b606082015260800190565b60208082526031908201527f476f7665726e616e63653a2067657450726f706f73616c53746174653a20494e604082015270159053125117d41493d413d4d05317d251607a1b606082015260800190565b6020808252602a908201527f476f7665726e616e63653a206f6e6c79477561726469616e3a204f4e4c595f426040820152692cafa3aaa0a92224a0a760b11b606082015260800190565b60208082526038908201527f476f7665726e616e63653a205f73657455736572546f6b656e733a20505054206040820152771513d2d15388105111149154d4c81254c81253959053125160421b606082015260800190565b60208082526034908201527f476f7665726e616e63653a207375626d6974566f746542795369676e61747572604082015273653a20494e56414c49445f5349474e415455524560601b606082015260800190565b6020808252602a908201527f476f7665726e616e63653a2071756575653a20494e56414c49445f53544154456040820152695f464f525f515545554560b01b606082015260800190565b60208082526042908201527f476f7665726e616e63653a20676574566f74696e674f7574636f6d653a20544f60408201527f4b454e20414d4f554e5420544f2053574150204d5553542042452041424f5645606082015261020360f41b608082015260a00190565b60208082526057908201527f476f7665726e616e63653a2072656465656d4c6f636b6564546f6b656e733a2060408201527f564f54494e4720504f574552204d5553542042452041424f5645206f7220455160608201527f55414c20544f20564f5445204f4e2050524f504f53414c000000000000000000608082015260a00190565b6020808252603e908201527f476f7665726e616e63653a2072656465656d4c6f636b6564546f6b656e733a2060408201527f4c4f434b454420544f4b454e53204e4f542053454e5420544f20555345520000606082015260800190565b60208082526030908201527f476f7665726e616e63653a206372656174653a2050524f504f534954494f4e5f60408201526f10d49150551253d397d253959053125160821b606082015260800190565b60208082526046908201527f476f7665726e616e63653a20676574566f74696e674f7574636f6d653a20544f60408201527f4b454e5f41444452455353204d55535420424520505054204f522050585420546060820152654f20564f544560d01b608082015260a00190565b60208082526038908201527f476f7665726e616e63653a72656465656d4c6f636b6564546f6b656e733a207560408201527f73657220686173206e6f206c6f636b656420746f6b656e730000000000000000606082015260800190565b60208082526035908201527f476f7665726e616e63653a2072656465656d4c6f636b6564546f6b656e733a206040820152741593d511481513d2d15394c81393d5081095549395605a1b606082015260800190565b60208082526034908201527f476f7665726e616e63653a20676574566f74696e674f7574636f6d653a20564f604082015273151157d053149150511657d4d55093525515115160621b606082015260800190565b6020808252602b908201527f476f7665726e616e63653a206372656174653a204558454355544f525f4e4f5460408201526a17d055551213d49256915160aa1b606082015260800190565b6020808252602b908201527f476f7665726e616e63653a20676574566f74696e674f7574636f6d653a20564f60408201526a15125391d7d0d313d4d15160aa1b606082015260800190565b81516001600160a01b031681526020918201519181019190915260400190565b6000602082528251602083015260208301516144e860408401826136ae565b5060408301516144fb60608401826136ae565b5060608301516102208060808501526145186102408501836136bb565b91506080850151601f19808685030160a08701526145368483613782565b935060a08701519150808685030160c0870152614553848361372f565b935060c08701519150808685030160e0870152614570848361372f565b935060e0870151915061010081878603018188015261458f85846136fe565b90880151610120888101919091528801516101408089019190915288015161016080890191909152880151610180808901919091528801516101a08089019190915288015190945091506101c090506145ea818701836137b1565b86015190506101e06145fe868201836137b1565b8601519050610200614612868201836136ae565b959095015193019290925250919050565b8151151581526020918201516001600160f81b03169181019190915260400190565b60006101408c835280602084015261465f8184018d6136bb565b90508281036040840152614673818c613782565b90508281036060840152614687818b61372f565b9050828103608084015261469b818a61372f565b905082810360a08401526146af81896136fe565b60c0840197909752505060e08101939093526001600160a01b0391909116610100830152610120909101529695505050505050565b9283529015156020830152604082015260600190565b918252602082015260400190565b9283526020830191909152604082015260600190565b60405181810167ffffffffffffffff8111828210171561473a57fe5b604052919050565b600067ffffffffffffffff82111561475657fe5b5060209081020190565b600067ffffffffffffffff82111561477457fe5b50601f01601f191660200190565b60009081526020902090565b60005b838110156147a9578181015183820152602001614791565b83811115610e805750506000910152565b6001600160a01b038116811461075b57600080fd5b801515811461075b57600080fdfe4f776e61626c653a206e6577206f776e657220697320746865207a65726f2061646472657373536166654d6174683a206d756c7469706c69636174696f6e206f766572666c6f774f776e61626c653a2063616c6c6572206973206e6f7420746865206f776e6572436f6e747261637420696e7374616e63652068617320616c7265616479206265656e20696e697469616c697a6564a26469706673582212204604a3fdcde4bec4cf7b0b980cdba9a1d802c042519502eb1f969ddc5f6f4d0464736f6c63430007050033",
  "immutableReferences": {},
  "source": "// SPDX-License-Identifier: agpl-3.0\npragma solidity 0.7.5;\npragma abicoder v2;\n\nimport {IVotingStrategy} from '../interfaces/IVotingStrategy.sol';\nimport {IExecutorWithTimelock} from '../interfaces/IExecutorWithTimelock.sol';\nimport {IProposalValidator} from '../interfaces/IProposalValidator.sol';\nimport {IGovernanceStrategy} from '../interfaces/IGovernanceStrategy.sol';\nimport {IPopulousGovernanceV2} from '../interfaces/IPopulousGovernanceV2.sol';\nimport {Owned} from '../dependencies/open-zeppelin/Owned.sol';\nimport {SafeMath} from '../dependencies/open-zeppelin/SafeMath.sol';\nimport {MockVotingToken} from '../MockVotingToken.sol';\nimport {IERC20Detailed} from '../interfaces/IERC20Detailed.sol';\nimport \"../dependencies/open-zeppelin/VersionedInitializable.sol\";\n\n/**\n * @title Governance V2 contract\n * @dev Main point of interaction with Populous protocol's governance\n * - Create a Proposal\n * - Cancel a Proposal\n * - Queue a Proposal\n * - Execute a Proposal\n * - Submit Vote to a Proposal\n * Proposal States : Pending => Active => Succeeded(/Failed) => Queued => Executed(/Expired)\n *                   The transition to \"Canceled\" can appear in multiple states\n * @author Populous\n **/\ncontract PopulousGovernanceV3 is VersionedInitializable, Owned, IPopulousGovernanceV2 {\n  using SafeMath for uint256;\n\n  address private _governanceStrategy;\n  uint256 private _votingDelay;\n\n  address public _votingToken;\n  address public _PPT;\n  address public _PXT;\n\n  uint256 private _proposalsCount;\n  mapping(uint256 => Proposal) private _proposals;\n  mapping(address => bool) private _authorizedExecutors;\n\n  address private _guardian;\n\n  bytes32 public constant DOMAIN_TYPEHASH = keccak256(\n    'EIP712Domain(string name,uint256 chainId,address verifyingContract)'\n  );\n  bytes32 public constant VOTE_EMITTED_TYPEHASH = keccak256('VoteEmitted(uint256 id,bool support)');\n  string public constant NAME = 'Populous Governance v2';\n\n  modifier onlyGuardian() {\n    require(_msgSender() == _guardian, 'Governance: onlyGuardian: ONLY_BY_GUARDIAN');\n    _;\n  }\n\n  uint256 public constant GOVERNANCE_REVISION = 0x2;\n\n  function getRevision() internal pure override returns (uint256) {\n      return GOVERNANCE_REVISION;\n  }\n\n  function initialize (\n    address votingToken,\n    address ppt,\n    address pxt,\n    address governanceStrategy,\n    uint256 votingDelay,\n    address guardian,\n    address[] memory executors\n  ) initializer public {\n    address msgSender = _msgSender();\n    _owner = msgSender;\n    emit OwnershipTransferred(address(0), msgSender);\n    _setGovernanceStrategy(governanceStrategy);\n    _setVotingDelay(votingDelay);\n    _setVotingToken(votingToken);\n    _setUserTokens(ppt, pxt);\n    _guardian = guardian;\n    \n    authorizeExecutors(executors);\n  }\n\n  struct CreateVars {\n    uint256 startBlock;\n    uint256 endBlock;\n    uint256 previousProposalsCount;\n  }\n\n  /**\n   * @dev Creates a Proposal (needs to be validated by the Proposal Validator)\n   * @param executor The ExecutorWithTimelock contract that will execute the proposal\n   * @param targets list of contracts called by proposal's associated transactions\n   * @param values list of value in wei for each propoposal's associated transaction\n   * @param signatures list of function signatures (can be empty) to be used when created the callData\n   * @param calldatas list of calldatas: if associated signature empty, calldata ready, else calldata is arguments\n   * @param withDelegatecalls boolean, true = transaction delegatecalls the taget, else calls the target\n   * @param ipfsHash IPFS hash of the proposal\n   **/\n  function create(\n    IExecutorWithTimelock executor,\n    address[] memory targets,\n    uint256[] memory values,\n    string[] memory signatures,\n    bytes[] memory calldatas,\n    bool[] memory withDelegatecalls,\n    bytes32 ipfsHash\n  ) external override returns (uint256) {\n    require(targets.length != 0, 'Governance: create: INVALID_EMPTY_TARGETS');\n    require(\n      targets.length == values.length &&\n        targets.length == signatures.length &&\n        targets.length == calldatas.length &&\n        targets.length == withDelegatecalls.length,\n      'Governance: create: INCONSISTENT_PARAMS_LENGTH'\n    );\n\n    require(isExecutorAuthorized(address(executor)), 'Governance: create: EXECUTOR_NOT_AUTHORIZED');\n\n    require(\n      // proposition token is based on pxt and proposition token\n      // and does not need locking or swap with voting tokens\n      IProposalValidator(address(executor)).validateCreatorOfProposal(\n        this,\n        _msgSender()\n      ),\n      'Governance: create: PROPOSITION_CREATION_INVALID'\n    );\n\n    CreateVars memory vars;\n\n    vars.startBlock = block.number.add(_votingDelay);\n    vars.endBlock = vars.startBlock.add(IProposalValidator(address(executor)).VOTING_DURATION());\n\n    vars.previousProposalsCount = _proposalsCount;\n\n    Proposal storage newProposal = _proposals[vars.previousProposalsCount];\n    newProposal.id = vars.previousProposalsCount;\n    newProposal.creator = _msgSender();\n    newProposal.executor = executor;\n    newProposal.targets = targets;\n    newProposal.values = values;\n    newProposal.signatures = signatures;\n    newProposal.calldatas = calldatas;\n    newProposal.withDelegatecalls = withDelegatecalls;\n    newProposal.startBlock = vars.startBlock;\n    newProposal.endBlock = vars.endBlock;\n    newProposal.strategy = _governanceStrategy;\n    newProposal.ipfsHash = ipfsHash;\n    _proposalsCount++;\n\n    emit ProposalCreated(\n      vars.previousProposalsCount,\n      _msgSender(),\n      executor,\n      targets,\n      values,\n      signatures,\n      calldatas,\n      withDelegatecalls,\n      vars.startBlock,\n      vars.endBlock,\n      _governanceStrategy,\n      ipfsHash\n    );\n\n    return newProposal.id;\n  }\n\n  /**\n   * @dev Cancels a Proposal.\n   * - Callable by the _guardian with relaxed conditions, or by anybody if the conditions of\n   *   cancellation on the executor are fulfilled\n   * @param proposalId id of the proposal\n   **/\n  function cancel(uint256 proposalId) external override {\n    ProposalState state = getProposalState(proposalId);\n    require(\n      state != ProposalState.Executed &&\n        state != ProposalState.Canceled &&\n        state != ProposalState.Expired,\n      'Governance: cancel: ONLY_BEFORE_EXECUTED'\n    );\n\n    Proposal storage proposal = _proposals[proposalId];\n    require(\n      _msgSender() == _guardian ||\n        IProposalValidator(address(proposal.executor)).validateProposalCancellation(\n          this,\n          proposal.creator\n        ),\n      'Governance: cancel: PROPOSITION_CANCELLATION_INVALID'\n    );\n    proposal.canceled = true;\n    for (uint256 i = 0; i < proposal.targets.length; i++) {\n      proposal.executor.cancelTransaction(\n        proposal.targets[i],\n        proposal.values[i],\n        proposal.signatures[i],\n        proposal.calldatas[i],\n        proposal.executionTime,\n        proposal.withDelegatecalls[i]\n      );\n    }\n\n    emit ProposalCanceled(proposalId);\n  }\n\n  /**\n   * @dev Queue the proposal (If Proposal Succeeded)\n   * @param proposalId id of the proposal to queue\n   **/\n  function queue(uint256 proposalId) external override {\n    require(getProposalState(proposalId) == ProposalState.Succeeded, 'Governance: queue: INVALID_STATE_FOR_QUEUE');\n    Proposal storage proposal = _proposals[proposalId];\n    uint256 executionTime = block.timestamp.add(proposal.executor.getDelay());\n    for (uint256 i = 0; i < proposal.targets.length; i++) {\n      _queueOrRevert(\n        proposal.executor,\n        proposal.targets[i],\n        proposal.values[i],\n        proposal.signatures[i],\n        proposal.calldatas[i],\n        executionTime,\n        proposal.withDelegatecalls[i]\n      );\n    }\n    proposal.executionTime = executionTime;\n\n    emit ProposalQueued(proposalId, executionTime, _msgSender());\n  }\n\n  /**\n   * @dev Execute the proposal (If Proposal Queued)\n   * @param proposalId id of the proposal to execute\n   **/\n  function execute(uint256 proposalId) external payable override {\n    require(getProposalState(proposalId) == ProposalState.Queued, 'Governance: execute: ONLY_QUEUED_PROPOSALS');\n    Proposal storage proposal = _proposals[proposalId];\n    proposal.executed = true;\n    for (uint256 i = 0; i < proposal.targets.length; i++) {\n      proposal.executor.executeTransaction{value: proposal.values[i]}(\n        proposal.targets[i],\n        proposal.values[i],\n        proposal.signatures[i],\n        proposal.calldatas[i],\n        proposal.executionTime,\n        proposal.withDelegatecalls[i]\n      );\n    }\n    emit ProposalExecuted(proposalId, _msgSender());\n  }\n\n  /**\n   * @dev Function allowing msg.sender to vote for/against a proposal\n   * @param tokenAddress the address of the token to use to vote\n   * tokenAddress must be PPT or PXT and user balance of tokenAddress\n   * must be greater than zero\n   * @param tokenAmount the amount of tokens to use as voting power\n   * @param proposalId id of the proposal\n   * @param support boolean, true = vote for, false = vote against\n   **/\n  function submitVote(\n    address tokenAddress, \n    uint256 tokenAmount,\n    uint256 proposalId, \n    bool support\n    ) external override {\n    return \n    _submitVote(\n      tokenAddress, tokenAmount, _msgSender(), proposalId, support\n    );\n  }\n\n  /**\n   * @dev Function to register the vote of user that has voted offchain via signature\n   * @param tokenAddress the address of the token to use to vote\n   * tokenAddress must be PPT or PXT and user balance of tokenAddress\n   * must be greater than zero\n   * @param tokenAmount the amount of tokens to use as voting power\n   * @param proposalId id of the proposal\n   * @param support boolean, true = vote for, false = vote against\n   * @param v v part of the voter signature\n   * @param r r part of the voter signature\n   * @param s s part of the voter signature\n   **/\n  function submitVoteBySignature(\n    address tokenAddress, \n    uint256 tokenAmount,\n    uint256 proposalId,\n    bool support,\n    uint8 v,\n    bytes32 r,\n    bytes32 s\n  ) external override {\n    bytes32 digest = keccak256(\n      abi.encodePacked(\n        '\\x19\\x01',\n        keccak256(abi.encode(DOMAIN_TYPEHASH, keccak256(bytes(NAME)), getChainId(), address(this))),\n        keccak256(abi.encode(VOTE_EMITTED_TYPEHASH, tokenAddress, tokenAmount, proposalId, support))\n      )\n    );\n    address signer = ecrecover(digest, v, r, s);\n    require(signer != address(0), 'Governance: submitVoteBySignature: INVALID_SIGNATURE');\n    _submitVote(\n      tokenAddress, tokenAmount, signer, proposalId, support\n    );\n  }\n\n  /**\n   * @dev Set new GovernanceStrategy\n   * Note: owner should be a timelocked executor, so needs to make a proposal\n   * @param governanceStrategy new Address of the GovernanceStrategy contract\n   **/\n  function setGovernanceStrategy(address governanceStrategy) external override onlyOwner {\n    _setGovernanceStrategy(governanceStrategy);\n  }\n\n  /**\n   * @dev Set new Voting Delay (delay before a newly created proposal can be voted on)\n   * Note: owner should be a timelocked executor, so needs to make a proposal\n   * @param votingDelay new voting delay in terms of blocks\n   **/\n  function setVotingDelay(uint256 votingDelay) external override onlyOwner {\n    _setVotingDelay(votingDelay);\n  }\n\n  /**\n   * @dev Add new addresses to the list of authorized executors\n   * @param executors list of new addresses to be authorized executors\n   **/\n  function authorizeExecutors(address[] memory executors) public override onlyOwner {\n    for (uint256 i = 0; i < executors.length; i++) {\n      _authorizeExecutor(executors[i]);\n    }\n  }\n\n  /**\n   * @dev Remove addresses to the list of authorized executors\n   * @param executors list of addresses to be removed as authorized executors\n   **/\n  function unauthorizeExecutors(address[] memory executors) public override onlyOwner {\n    for (uint256 i = 0; i < executors.length; i++) {\n      _unauthorizeExecutor(executors[i]);\n    }\n  }\n\n  /**\n   * @dev Let the guardian abdicate from its priviledged rights\n   **/\n  function __abdicate() external override onlyGuardian {\n    _guardian = address(0);\n  }\n\n  /**\n   * @dev Getter of the current GovernanceStrategy address\n   * @return The address of the current GovernanceStrategy contracts\n   **/\n  function getGovernanceStrategy() external view override returns (address) {\n    return _governanceStrategy;\n  }\n\n  /**\n   * @dev Getter of the current Voting Delay (delay before a created proposal can be voted on)\n   * Different from the voting duration\n   * @return The voting delay in number of blocks\n   **/\n  function getVotingDelay() external view override returns (uint256) {\n    return _votingDelay;\n  }\n\n  /**\n   * @dev Returns whether an address is an authorized executor\n   * @param executor address to evaluate as authorized executor\n   * @return true if authorized\n   **/\n  function isExecutorAuthorized(address executor) public view override returns (bool) {\n    return _authorizedExecutors[executor];\n  }\n\n  /**\n   * @dev Getter the address of the guardian, that can mainly cancel proposals\n   * @return The address of the guardian\n   **/\n  function getGuardian() external view override returns (address) {\n    return _guardian;\n  }\n\n  /**\n   * @dev Getter of the proposal count (the current number of proposals ever created)\n   * @return the proposal count\n   **/\n  function getProposalsCount() external view override returns (uint256) {\n    return _proposalsCount;\n  }\n\n  /**\n   * @dev Getter of a proposal by id\n   * @param proposalId id of the proposal to get\n   * @return the proposal as ProposalWithoutVotes memory object\n   **/\n  function getProposalById(uint256 proposalId)\n    public\n    view\n    override\n    returns (ProposalWithoutVotes memory)\n  {\n    Proposal storage proposal = _proposals[proposalId];\n    ProposalWithoutVotes memory proposalWithoutVotes = ProposalWithoutVotes({\n      id: proposal.id,\n      creator: proposal.creator,\n      executor: proposal.executor,\n      targets: proposal.targets,\n      values: proposal.values,\n      signatures: proposal.signatures,\n      calldatas: proposal.calldatas,\n      withDelegatecalls: proposal.withDelegatecalls,\n      startBlock: proposal.startBlock,\n      endBlock: proposal.endBlock,\n      executionTime: proposal.executionTime,\n      forVotes: proposal.forVotes,\n      againstVotes: proposal.againstVotes,\n      executed: proposal.executed,\n      canceled: proposal.canceled,\n      strategy: proposal.strategy,\n      ipfsHash: proposal.ipfsHash\n    });\n\n    return proposalWithoutVotes;\n  }\n\n  /**\n   * @dev Getter of the Vote of a voter about a proposal\n   * Note: Vote is a struct: ({bool support, uint248 votingPower})\n   * @param proposalId id of the proposal\n   * @param voter address of the voter\n   * @return The associated Vote memory object\n   **/\n  function getVoteOnProposal(uint256 proposalId, address voter)\n    public\n    view\n    override\n    returns (Vote memory)\n  {\n    return _proposals[proposalId].votes[voter];\n  }\n\n  /**\n   * @dev Get the current state of a proposal\n   * @param proposalId id of the proposal\n   * @return The current state of the proposal\n   **/\n  function getProposalState(uint256 proposalId) public view override returns (ProposalState) {\n    require(_proposalsCount >= proposalId, 'Governance: getProposalState: INVALID_PROPOSAL_ID');\n    Proposal storage proposal = _proposals[proposalId];\n    if (proposal.canceled) {\n      return ProposalState.Canceled;\n    } else if (block.number <= proposal.startBlock) {\n      return ProposalState.Pending;\n    } else if (block.number <= proposal.endBlock) {\n      return ProposalState.Active;\n    } else if (!IProposalValidator(address(proposal.executor)).isProposalPassed(this, proposalId)) {\n      return ProposalState.Failed;\n    } else if (proposal.executionTime == 0) {\n      return ProposalState.Succeeded;\n    } else if (proposal.executed) {\n      return ProposalState.Executed;\n    } else if (proposal.executor.isProposalOverGracePeriod(this, proposalId)) {\n      return ProposalState.Expired;\n    } else {\n      return ProposalState.Queued;\n    }\n  }\n\n  function _queueOrRevert(\n    IExecutorWithTimelock executor,\n    address target,\n    uint256 value,\n    string memory signature,\n    bytes memory callData,\n    uint256 executionTime,\n    bool withDelegatecall\n  ) internal {\n    require(\n      !executor.isActionQueued(\n        keccak256(abi.encode(target, value, signature, callData, executionTime, withDelegatecall))\n      ),\n      'Governance: queueOrRevert: DUPLICATED_ACTION'\n    );\n    executor.queueTransaction(target, value, signature, callData, executionTime, withDelegatecall);\n  }\n\n  function _submitVote(\n    address tokenAddress,\n    uint256 tokenAmount,\n    address voter,\n    uint256 proposalId,\n    bool support\n  ) internal {\n    ProposalState state = getProposalState(proposalId);\n    require(state == ProposalState.Active, 'Governance: submitVote: VOTING_CLOSED');\n    Proposal storage proposal = _proposals[proposalId];\n    Vote storage vote = proposal.votes[voter];\n    \n    require(vote.votingPower == 0, 'Governance: submitVote: VOTE_ALREADY_SUBMITTED');\n    \n    require(tokenAmount > 0, 'Governance: submitVote: TOKEN AMOUNT TO SWAP MUST BE ABOVE 0');\n    require(\n      (tokenAddress == _PPT) || \n      (tokenAddress == _PXT),\n      'Governance: submitVote: TOKEN_ADDRESS MUST BE PPT OR PXT TO VOTE'\n    );\n\n    uint256 votingPower = 0;\n\n    if (tokenAddress == _PPT) {\n      votingPower = tokenAmount; // to issue 1-1 for PPT\n      _tokenSwapAndLock(\n        proposalId, voter, \n        tokenAddress, tokenAmount, \n        votingPower\n      );\n    } else if (tokenAddress == _PXT) {\n      votingPower = tokenAmount.mul(5);\n      _tokenSwapAndLock(\n        proposalId, voter, \n        tokenAddress, tokenAmount, \n        votingPower // to issue x5 for PXT\n      ); \n    }\n\n    if (support) {\n      proposal.forVotes = proposal.forVotes.add(votingPower);\n    } else {\n      proposal.againstVotes = proposal.againstVotes.add(votingPower);\n    }\n\n    vote.support = support;\n    vote.votingPower = uint248(votingPower);\n\n    emit VoteEmitted(proposalId, voter, support, votingPower);\n  }\n\n  function _tokenSwapAndLock(\n    uint256 proposalId,\n    address voter,\n    address tokenAddress, \n    uint256 tokenAmount, \n    uint256 votingPower\n    ) internal {\n    LockedTokens storage lockedTokens = _proposals[proposalId].lockedTokens[voter];\n    MockVotingToken voteToken = MockVotingToken(_votingToken);\n    IERC20Detailed userToken = IERC20Detailed(tokenAddress);\n    require(\n        userToken.transferFrom(voter, address(this), tokenAmount) == true,\n        'Governance: tokenSwapAndLock: TOKEN TRANSFER_FROM FAILED, CHECK BALANCE OR APPROVAL'\n    );\n    lockedTokens.tokenAddress =  tokenAddress;\n    lockedTokens.amount = tokenAmount;\n    require(\n      voteToken.mint(voter, votingPower) == true,\n      'Governance: tokenSwapAndLock: VOTE TOKENS NOT MINTED'\n    );\n\n    emit TokensLockedForVoting(voter, tokenAddress, tokenAmount);\n  }\n\n  function _setGovernanceStrategy(address governanceStrategy) internal {\n    _governanceStrategy = governanceStrategy;\n\n    emit GovernanceStrategyChanged(governanceStrategy, _msgSender());\n  }\n\n  function _setVotingDelay(uint256 votingDelay) internal {\n    _votingDelay = votingDelay;\n\n    emit VotingDelayChanged(votingDelay, _msgSender());\n  }\n\n  function _setVotingToken(address votingToken) internal {\n    require(votingToken != address(0), \"Governance: setVotingtoken: VOTING_TOKEN INVALID\");\n    _votingToken = votingToken;\n    emit VotingTokenSet(_votingToken);\n  }\n\n  function _authorizeExecutor(address executor) internal {\n    _authorizedExecutors[executor] = true;\n    emit ExecutorAuthorized(executor);\n  }\n\n  function _unauthorizeExecutor(address executor) internal {\n    _authorizedExecutors[executor] = false;\n    emit ExecutorUnauthorized(executor);\n  }\n\n  function _setUserTokens(address ppt, address pxt) internal {\n    require(\n      (ppt != address(0)),\n      //&& (IERC20Detailed(ppt).totalSupply() > 0), \n      'Governance: _setUserTokens: PPT TOKEN ADDRESS IS INVALID'\n    );\n\n    require(\n      (pxt != address(0)),\n      //&& (IERC20Detailed(pxt).totalSupply() > 0), \n      'Governance: _setUserTokens: PXT TOKEN ADDRESS IS INVALID'\n    );\n    \n    _PPT = ppt;\n    _PXT = pxt;\n\n    emit UserTokensSet(_PPT, _PXT);\n  }\n\n  /**\n   * @dev View function allowing msg.sender to view how their voting power\n   * could change the outcome of the proposal. \n   * The proposal must be pending or active\n   * @param tokenAddress the address of the token to use to vote\n   * tokenAddress must be PPT or PXT and user balance of tokenAddress\n   * must be greater than zero\n   * @param tokenAmount the amount of tokens to use as voting power\n   * @param proposalId id of the proposal\n   * @param support boolean, true = vote for, false = vote against\n   * @return votingPower, for votes and against votes\n   **/\n  function getVotingOutcome(\n    address tokenAddress, \n    uint256 tokenAmount,\n    uint256 proposalId, \n    bool support\n  ) external view override returns (uint256, uint256, uint256) {\n    require(getProposalState(proposalId) == ProposalState.Active, 'Governance: getVotingOutcome: VOTING_CLOSED');\n    ProposalWithoutVotes memory proposal = getProposalById(proposalId);\n    address voter = _msgSender();\n    Vote memory vote = _proposals[proposalId].votes[voter];\n\n    require(vote.votingPower == 0, 'Governance: getVotingOutcome: VOTE_ALREADY_SUBMITTED');\n    require(tokenAmount > 0, 'Governance: getVotingOutcome: TOKEN AMOUNT TO SWAP MUST BE ABOVE 0');\n    require(\n      (tokenAddress == _PPT) || \n      (tokenAddress == _PXT),\n      'Governance: getVotingOutcome: TOKEN_ADDRESS MUST BE PPT OR PXT TO VOTE'\n    );\n\n    uint256 votingPower = 0;\n\n    if (tokenAddress == _PPT) {\n      votingPower = tokenAmount;\n    } else if (tokenAddress == _PXT) {\n      votingPower = tokenAmount.mul(5);\n    }\n    \n    if (support) {\n      proposal.forVotes = proposal.forVotes.add(votingPower);\n    } else {\n      proposal.againstVotes = proposal.againstVotes.add(votingPower);\n    }\n\n    return (votingPower, proposal.forVotes, proposal.againstVotes);\n  }\n\n  /**\n   * @dev Getter function to get tokens locked in proposal for user\n   * by proposal id\n   * @param proposalId id of the proposal to get\n   * @param voter address of the voter\n   * @return the amount of tokens locked and token address\n   **/\n  function getLockedTokens(uint256 proposalId, address voter) \n  public \n  view \n  override \n  returns(LockedTokens memory) {\n    return _proposals[proposalId].lockedTokens[voter];\n  }\n\n  /**\n   * @dev Function to redeem tokens locked in proposal for user\n   * by proposal id\n   * @param proposalId id of the proposal to get\n   **/\n  function redeemLockedTokens(\n    uint256 proposalId\n  ) public override {\n    require(\n      getProposalState(proposalId) != ProposalState.Pending &&\n      getProposalState(proposalId) != ProposalState.Active, \n      'Governance: getVotingOutcome: VOTING_OPEN'\n    );\n\n    address voter = _msgSender();\n    uint256 votingPower = IVotingStrategy(_proposals[proposalId].strategy).getVotingPower(\n      voter    \n    );\n    \n    LockedTokens memory lockTokens = getLockedTokens(proposalId, voter);\n    require(lockTokens.amount > 0, \"Governance:redeemLockedTokens: user has no locked tokens\");\n    \n    Proposal storage proposal = _proposals[proposalId];\n    proposal.lockedTokens[voter].amount = 0;\n\n    MockVotingToken voteToken = MockVotingToken(_votingToken);\n    uint248 voteOnProposal = getVoteOnProposal(proposalId, voter).votingPower;\n    require(votingPower >= voteOnProposal, 'Governance: redeemLockedTokens: VOTING POWER MUST BE ABOVE or EQUAL TO VOTE ON PROPOSAL');\n    \n    IERC20Detailed userToken = IERC20Detailed(lockTokens.tokenAddress);\n  \n    require(\n      voteToken.burn(voter, voteOnProposal) == true,\n      'Governance: redeemLockedTokens: VOTE TOKENS NOT BURNT'\n    );\n\n    require(\n      userToken.transfer(voter, lockTokens.amount) == true,\n      'Governance: redeemLockedTokens: LOCKED TOKENS NOT SENT TO USER'\n    );\n    \n    emit LockedTokensRedeemed(voter, lockTokens.tokenAddress, lockTokens.amount);\n  }\n\n  function payToRedeemLockedTokens(\n    uint256 proposalId\n  ) external payable {\n    require(msg.value > 0, \"Governance: payToRedeemLockedTokens: msg.value is not above 0\");\n    redeemLockedTokens(proposalId);\n  }\n\n  function getChainId() public pure returns (uint256) {\n    uint256 chainId;\n    assembly {\n      chainId := chainid()\n    }\n    return chainId;\n  }\n\n}\n",
  "sourcePath": "/Users/nemitariajienka/Desktop/projects/populous/Populous-DeFi-governance/contracts/mocks/PopulousGovernanceV3.sol",
  "compiler": {
    "name": "solc",
    "version": "0.7.5+commit.eb77ed08.Emscripten.clang"
  },
  "schemaVersion": "3.3.3",
  "updatedAt": "2021-06-10T15:01:14.138Z",
  "networkType": "ethereum",
  "devdoc": {
    "author": "Populous*",
    "details": "Main point of interaction with Populous protocol's governance - Create a Proposal - Cancel a Proposal - Queue a Proposal - Execute a Proposal - Submit Vote to a Proposal Proposal States : Pending => Active => Succeeded(/Failed) => Queued => Executed(/Expired)                   The transition to \"Canceled\" can appear in multiple states",
    "kind": "dev",
    "methods": {
      "__abdicate()": {
        "details": "Let the guardian abdicate from its priviledged rights*"
      },
      "authorizeExecutors(address[])": {
        "details": "Add new addresses to the list of authorized executors",
        "params": {
          "executors": "list of new addresses to be authorized executors*"
        }
      },
      "cancel(uint256)": {
        "details": "Cancels a Proposal. - Callable by the _guardian with relaxed conditions, or by anybody if the conditions of   cancellation on the executor are fulfilled",
        "params": {
          "proposalId": "id of the proposal*"
        }
      },
      "create(address,address[],uint256[],string[],bytes[],bool[],bytes32)": {
        "details": "Creates a Proposal (needs to be validated by the Proposal Validator)",
        "params": {
          "calldatas": "list of calldatas: if associated signature empty, calldata ready, else calldata is arguments",
          "executor": "The ExecutorWithTimelock contract that will execute the proposal",
          "ipfsHash": "IPFS hash of the proposal*",
          "signatures": "list of function signatures (can be empty) to be used when created the callData",
          "targets": "list of contracts called by proposal's associated transactions",
          "values": "list of value in wei for each propoposal's associated transaction",
          "withDelegatecalls": "boolean, true = transaction delegatecalls the taget, else calls the target"
        }
      },
      "execute(uint256)": {
        "details": "Execute the proposal (If Proposal Queued)",
        "params": {
          "proposalId": "id of the proposal to execute*"
        }
      },
      "getGovernanceStrategy()": {
        "details": "Getter of the current GovernanceStrategy address",
        "returns": {
          "_0": "The address of the current GovernanceStrategy contracts*"
        }
      },
      "getGuardian()": {
        "details": "Getter the address of the guardian, that can mainly cancel proposals",
        "returns": {
          "_0": "The address of the guardian*"
        }
      },
      "getLockedTokens(uint256,address)": {
        "details": "Getter function to get tokens locked in proposal for user by proposal id",
        "params": {
          "proposalId": "id of the proposal to get",
          "voter": "address of the voter"
        },
        "returns": {
          "_0": "the amount of tokens locked and token address*"
        }
      },
      "getProposalById(uint256)": {
        "details": "Getter of a proposal by id",
        "params": {
          "proposalId": "id of the proposal to get"
        },
        "returns": {
          "_0": "the proposal as ProposalWithoutVotes memory object*"
        }
      },
      "getProposalState(uint256)": {
        "details": "Get the current state of a proposal",
        "params": {
          "proposalId": "id of the proposal"
        },
        "returns": {
          "_0": "The current state of the proposal*"
        }
      },
      "getProposalsCount()": {
        "details": "Getter of the proposal count (the current number of proposals ever created)",
        "returns": {
          "_0": "the proposal count*"
        }
      },
      "getVoteOnProposal(uint256,address)": {
        "details": "Getter of the Vote of a voter about a proposal Note: Vote is a struct: ({bool support, uint248 votingPower})",
        "params": {
          "proposalId": "id of the proposal",
          "voter": "address of the voter"
        },
        "returns": {
          "_0": "The associated Vote memory object*"
        }
      },
      "getVotingDelay()": {
        "details": "Getter of the current Voting Delay (delay before a created proposal can be voted on) Different from the voting duration",
        "returns": {
          "_0": "The voting delay in number of blocks*"
        }
      },
      "getVotingOutcome(address,uint256,uint256,bool)": {
        "details": "View function allowing msg.sender to view how their voting power could change the outcome of the proposal.  The proposal must be pending or active",
        "params": {
          "proposalId": "id of the proposal",
          "support": "boolean, true = vote for, false = vote against",
          "tokenAddress": "the address of the token to use to vote tokenAddress must be PPT or PXT and user balance of tokenAddress must be greater than zero",
          "tokenAmount": "the amount of tokens to use as voting power"
        },
        "returns": {
          "_0": "votingPower, for votes and against votes*"
        }
      },
      "isExecutorAuthorized(address)": {
        "details": "Returns whether an address is an authorized executor",
        "params": {
          "executor": "address to evaluate as authorized executor"
        },
        "returns": {
          "_0": "true if authorized*"
        }
      },
      "owner()": {
        "details": "Returns the address of the current owner."
      },
      "queue(uint256)": {
        "details": "Queue the proposal (If Proposal Succeeded)",
        "params": {
          "proposalId": "id of the proposal to queue*"
        }
      },
      "redeemLockedTokens(uint256)": {
        "details": "Function to redeem tokens locked in proposal for user by proposal id",
        "params": {
          "proposalId": "id of the proposal to get*"
        }
      },
      "renounceOwnership()": {
        "details": "Leaves the contract without owner. It will not be possible to call `onlyOwner` functions anymore. Can only be called by the current owner. NOTE: Renouncing ownership will leave the contract without an owner, thereby removing any functionality that is only available to the owner."
      },
      "setGovernanceStrategy(address)": {
        "details": "Set new GovernanceStrategy Note: owner should be a timelocked executor, so needs to make a proposal",
        "params": {
          "governanceStrategy": "new Address of the GovernanceStrategy contract*"
        }
      },
      "setVotingDelay(uint256)": {
        "details": "Set new Voting Delay (delay before a newly created proposal can be voted on) Note: owner should be a timelocked executor, so needs to make a proposal",
        "params": {
          "votingDelay": "new voting delay in terms of blocks*"
        }
      },
      "submitVote(address,uint256,uint256,bool)": {
        "details": "Function allowing msg.sender to vote for/against a proposal",
        "params": {
          "proposalId": "id of the proposal",
          "support": "boolean, true = vote for, false = vote against*",
          "tokenAddress": "the address of the token to use to vote tokenAddress must be PPT or PXT and user balance of tokenAddress must be greater than zero",
          "tokenAmount": "the amount of tokens to use as voting power"
        }
      },
      "submitVoteBySignature(address,uint256,uint256,bool,uint8,bytes32,bytes32)": {
        "details": "Function to register the vote of user that has voted offchain via signature",
        "params": {
          "proposalId": "id of the proposal",
          "r": "r part of the voter signature",
          "s": "s part of the voter signature*",
          "support": "boolean, true = vote for, false = vote against",
          "tokenAddress": "the address of the token to use to vote tokenAddress must be PPT or PXT and user balance of tokenAddress must be greater than zero",
          "tokenAmount": "the amount of tokens to use as voting power",
          "v": "v part of the voter signature"
        }
      },
      "transferOwnership(address)": {
        "details": "Transfers ownership of the contract to a new account (`newOwner`). Can only be called by the current owner."
      },
      "unauthorizeExecutors(address[])": {
        "details": "Remove addresses to the list of authorized executors",
        "params": {
          "executors": "list of addresses to be removed as authorized executors*"
        }
      }
    },
    "title": "Governance V2 contract",
    "version": 1
  },
  "userdoc": {
    "kind": "user",
    "methods": {},
    "version": 1
  }
}