{
  "contractName": "PopulousGovernanceV2",
  "abi": [
    {
      "anonymous": false,
      "inputs": [
        {
          "indexed": false,
          "internalType": "address",
          "name": "executor",
          "type": "address"
        }
      ],
      "name": "ExecutorAuthorized",
      "type": "event"
    },
    {
      "anonymous": false,
      "inputs": [
        {
          "indexed": false,
          "internalType": "address",
          "name": "executor",
          "type": "address"
        }
      ],
      "name": "ExecutorUnauthorized",
      "type": "event"
    },
    {
      "anonymous": false,
      "inputs": [
        {
          "indexed": true,
          "internalType": "address",
          "name": "newStrategy",
          "type": "address"
        },
        {
          "indexed": true,
          "internalType": "address",
          "name": "initiatorChange",
          "type": "address"
        }
      ],
      "name": "GovernanceStrategyChanged",
      "type": "event"
    },
    {
      "anonymous": false,
      "inputs": [
        {
          "indexed": true,
          "internalType": "address",
          "name": "voter",
          "type": "address"
        },
        {
          "indexed": true,
          "internalType": "address",
          "name": "tokenAddress",
          "type": "address"
        },
        {
          "indexed": false,
          "internalType": "uint256",
          "name": "tokenAmount",
          "type": "uint256"
        }
      ],
      "name": "LockedTokensRedeemed",
      "type": "event"
    },
    {
      "anonymous": false,
      "inputs": [
        {
          "indexed": true,
          "internalType": "address",
          "name": "previousOwner",
          "type": "address"
        },
        {
          "indexed": true,
          "internalType": "address",
          "name": "newOwner",
          "type": "address"
        }
      ],
      "name": "OwnershipTransferred",
      "type": "event"
    },
    {
      "anonymous": false,
      "inputs": [
        {
          "indexed": false,
          "internalType": "uint256",
          "name": "id",
          "type": "uint256"
        }
      ],
      "name": "ProposalCanceled",
      "type": "event"
    },
    {
      "anonymous": false,
      "inputs": [
        {
          "indexed": false,
          "internalType": "uint256",
          "name": "id",
          "type": "uint256"
        },
        {
          "indexed": true,
          "internalType": "address",
          "name": "creator",
          "type": "address"
        },
        {
          "indexed": true,
          "internalType": "contract IExecutorWithTimelock",
          "name": "executor",
          "type": "address"
        },
        {
          "indexed": false,
          "internalType": "address[]",
          "name": "targets",
          "type": "address[]"
        },
        {
          "indexed": false,
          "internalType": "uint256[]",
          "name": "values",
          "type": "uint256[]"
        },
        {
          "indexed": false,
          "internalType": "string[]",
          "name": "signatures",
          "type": "string[]"
        },
        {
          "indexed": false,
          "internalType": "bytes[]",
          "name": "calldatas",
          "type": "bytes[]"
        },
        {
          "indexed": false,
          "internalType": "bool[]",
          "name": "withDelegatecalls",
          "type": "bool[]"
        },
        {
          "indexed": false,
          "internalType": "uint256",
          "name": "startBlock",
          "type": "uint256"
        },
        {
          "indexed": false,
          "internalType": "uint256",
          "name": "endBlock",
          "type": "uint256"
        },
        {
          "indexed": false,
          "internalType": "address",
          "name": "strategy",
          "type": "address"
        },
        {
          "indexed": false,
          "internalType": "bytes32",
          "name": "ipfsHash",
          "type": "bytes32"
        }
      ],
      "name": "ProposalCreated",
      "type": "event"
    },
    {
      "anonymous": false,
      "inputs": [
        {
          "indexed": false,
          "internalType": "uint256",
          "name": "id",
          "type": "uint256"
        },
        {
          "indexed": true,
          "internalType": "address",
          "name": "initiatorExecution",
          "type": "address"
        }
      ],
      "name": "ProposalExecuted",
      "type": "event"
    },
    {
      "anonymous": false,
      "inputs": [
        {
          "indexed": false,
          "internalType": "uint256",
          "name": "id",
          "type": "uint256"
        },
        {
          "indexed": false,
          "internalType": "uint256",
          "name": "executionTime",
          "type": "uint256"
        },
        {
          "indexed": true,
          "internalType": "address",
          "name": "initiatorQueueing",
          "type": "address"
        }
      ],
      "name": "ProposalQueued",
      "type": "event"
    },
    {
      "anonymous": false,
      "inputs": [
        {
          "indexed": true,
          "internalType": "address",
          "name": "voter",
          "type": "address"
        },
        {
          "indexed": true,
          "internalType": "address",
          "name": "tokenAddress",
          "type": "address"
        },
        {
          "indexed": false,
          "internalType": "uint256",
          "name": "tokenAmount",
          "type": "uint256"
        }
      ],
      "name": "TokensLockedForVoting",
      "type": "event"
    },
    {
      "anonymous": false,
      "inputs": [
        {
          "indexed": false,
          "internalType": "address",
          "name": "PPT",
          "type": "address"
        },
        {
          "indexed": false,
          "internalType": "address",
          "name": "PXT",
          "type": "address"
        }
      ],
      "name": "UserTokensSet",
      "type": "event"
    },
    {
      "anonymous": false,
      "inputs": [
        {
          "indexed": false,
          "internalType": "uint256",
          "name": "id",
          "type": "uint256"
        },
        {
          "indexed": true,
          "internalType": "address",
          "name": "voter",
          "type": "address"
        },
        {
          "indexed": false,
          "internalType": "bool",
          "name": "support",
          "type": "bool"
        },
        {
          "indexed": false,
          "internalType": "uint256",
          "name": "votingPower",
          "type": "uint256"
        }
      ],
      "name": "VoteEmitted",
      "type": "event"
    },
    {
      "anonymous": false,
      "inputs": [
        {
          "indexed": false,
          "internalType": "uint256",
          "name": "newVotingDelay",
          "type": "uint256"
        },
        {
          "indexed": true,
          "internalType": "address",
          "name": "initiatorChange",
          "type": "address"
        }
      ],
      "name": "VotingDelayChanged",
      "type": "event"
    },
    {
      "anonymous": false,
      "inputs": [
        {
          "indexed": false,
          "internalType": "address",
          "name": "token",
          "type": "address"
        }
      ],
      "name": "VotingTokenSet",
      "type": "event"
    },
    {
      "inputs": [],
      "name": "DOMAIN_TYPEHASH",
      "outputs": [
        {
          "internalType": "bytes32",
          "name": "",
          "type": "bytes32"
        }
      ],
      "stateMutability": "view",
      "type": "function",
      "constant": true
    },
    {
      "inputs": [],
      "name": "GOVERNANCE_REVISION",
      "outputs": [
        {
          "internalType": "uint256",
          "name": "",
          "type": "uint256"
        }
      ],
      "stateMutability": "view",
      "type": "function",
      "constant": true
    },
    {
      "inputs": [],
      "name": "NAME",
      "outputs": [
        {
          "internalType": "string",
          "name": "",
          "type": "string"
        }
      ],
      "stateMutability": "view",
      "type": "function",
      "constant": true
    },
    {
      "inputs": [],
      "name": "VOTE_EMITTED_TYPEHASH",
      "outputs": [
        {
          "internalType": "bytes32",
          "name": "",
          "type": "bytes32"
        }
      ],
      "stateMutability": "view",
      "type": "function",
      "constant": true
    },
    {
      "inputs": [],
      "name": "_PPT",
      "outputs": [
        {
          "internalType": "address",
          "name": "",
          "type": "address"
        }
      ],
      "stateMutability": "view",
      "type": "function",
      "constant": true
    },
    {
      "inputs": [],
      "name": "_PXT",
      "outputs": [
        {
          "internalType": "address",
          "name": "",
          "type": "address"
        }
      ],
      "stateMutability": "view",
      "type": "function",
      "constant": true
    },
    {
      "inputs": [],
      "name": "_owner",
      "outputs": [
        {
          "internalType": "address",
          "name": "",
          "type": "address"
        }
      ],
      "stateMutability": "view",
      "type": "function",
      "constant": true
    },
    {
      "inputs": [],
      "name": "_votingToken",
      "outputs": [
        {
          "internalType": "address",
          "name": "",
          "type": "address"
        }
      ],
      "stateMutability": "view",
      "type": "function",
      "constant": true
    },
    {
      "inputs": [],
      "name": "owner",
      "outputs": [
        {
          "internalType": "address",
          "name": "",
          "type": "address"
        }
      ],
      "stateMutability": "view",
      "type": "function",
      "constant": true
    },
    {
      "inputs": [],
      "name": "renounceOwnership",
      "outputs": [],
      "stateMutability": "nonpayable",
      "type": "function"
    },
    {
      "inputs": [
        {
          "internalType": "address",
          "name": "newOwner",
          "type": "address"
        }
      ],
      "name": "transferOwnership",
      "outputs": [],
      "stateMutability": "nonpayable",
      "type": "function"
    },
    {
      "inputs": [
        {
          "internalType": "address",
          "name": "votingToken",
          "type": "address"
        },
        {
          "internalType": "address",
          "name": "ppt",
          "type": "address"
        },
        {
          "internalType": "address",
          "name": "pxt",
          "type": "address"
        },
        {
          "internalType": "address",
          "name": "governanceStrategy",
          "type": "address"
        },
        {
          "internalType": "uint256",
          "name": "votingDelay",
          "type": "uint256"
        },
        {
          "internalType": "address",
          "name": "guardian",
          "type": "address"
        },
        {
          "internalType": "address[]",
          "name": "executors",
          "type": "address[]"
        }
      ],
      "name": "initialize",
      "outputs": [],
      "stateMutability": "nonpayable",
      "type": "function"
    },
    {
      "inputs": [
        {
          "internalType": "contract IExecutorWithTimelock",
          "name": "executor",
          "type": "address"
        },
        {
          "internalType": "address[]",
          "name": "targets",
          "type": "address[]"
        },
        {
          "internalType": "uint256[]",
          "name": "values",
          "type": "uint256[]"
        },
        {
          "internalType": "string[]",
          "name": "signatures",
          "type": "string[]"
        },
        {
          "internalType": "bytes[]",
          "name": "calldatas",
          "type": "bytes[]"
        },
        {
          "internalType": "bool[]",
          "name": "withDelegatecalls",
          "type": "bool[]"
        },
        {
          "internalType": "bytes32",
          "name": "ipfsHash",
          "type": "bytes32"
        }
      ],
      "name": "create",
      "outputs": [
        {
          "internalType": "uint256",
          "name": "",
          "type": "uint256"
        }
      ],
      "stateMutability": "nonpayable",
      "type": "function"
    },
    {
      "inputs": [
        {
          "internalType": "uint256",
          "name": "proposalId",
          "type": "uint256"
        }
      ],
      "name": "cancel",
      "outputs": [],
      "stateMutability": "nonpayable",
      "type": "function"
    },
    {
      "inputs": [
        {
          "internalType": "uint256",
          "name": "proposalId",
          "type": "uint256"
        }
      ],
      "name": "queue",
      "outputs": [],
      "stateMutability": "nonpayable",
      "type": "function"
    },
    {
      "inputs": [
        {
          "internalType": "uint256",
          "name": "proposalId",
          "type": "uint256"
        }
      ],
      "name": "execute",
      "outputs": [],
      "stateMutability": "payable",
      "type": "function",
      "payable": true
    },
    {
      "inputs": [
        {
          "internalType": "address",
          "name": "tokenAddress",
          "type": "address"
        },
        {
          "internalType": "uint256",
          "name": "tokenAmount",
          "type": "uint256"
        },
        {
          "internalType": "uint256",
          "name": "proposalId",
          "type": "uint256"
        },
        {
          "internalType": "bool",
          "name": "support",
          "type": "bool"
        }
      ],
      "name": "submitVote",
      "outputs": [],
      "stateMutability": "nonpayable",
      "type": "function"
    },
    {
      "inputs": [
        {
          "internalType": "address",
          "name": "tokenAddress",
          "type": "address"
        },
        {
          "internalType": "uint256",
          "name": "tokenAmount",
          "type": "uint256"
        },
        {
          "internalType": "uint256",
          "name": "proposalId",
          "type": "uint256"
        },
        {
          "internalType": "bool",
          "name": "support",
          "type": "bool"
        },
        {
          "internalType": "uint8",
          "name": "v",
          "type": "uint8"
        },
        {
          "internalType": "bytes32",
          "name": "r",
          "type": "bytes32"
        },
        {
          "internalType": "bytes32",
          "name": "s",
          "type": "bytes32"
        }
      ],
      "name": "submitVoteBySignature",
      "outputs": [],
      "stateMutability": "nonpayable",
      "type": "function"
    },
    {
      "inputs": [
        {
          "internalType": "address",
          "name": "governanceStrategy",
          "type": "address"
        }
      ],
      "name": "setGovernanceStrategy",
      "outputs": [],
      "stateMutability": "nonpayable",
      "type": "function"
    },
    {
      "inputs": [
        {
          "internalType": "uint256",
          "name": "votingDelay",
          "type": "uint256"
        }
      ],
      "name": "setVotingDelay",
      "outputs": [],
      "stateMutability": "nonpayable",
      "type": "function"
    },
    {
      "inputs": [
        {
          "internalType": "address[]",
          "name": "executors",
          "type": "address[]"
        }
      ],
      "name": "authorizeExecutors",
      "outputs": [],
      "stateMutability": "nonpayable",
      "type": "function"
    },
    {
      "inputs": [
        {
          "internalType": "address[]",
          "name": "executors",
          "type": "address[]"
        }
      ],
      "name": "unauthorizeExecutors",
      "outputs": [],
      "stateMutability": "nonpayable",
      "type": "function"
    },
    {
      "inputs": [],
      "name": "__abdicate",
      "outputs": [],
      "stateMutability": "nonpayable",
      "type": "function"
    },
    {
      "inputs": [],
      "name": "getGovernanceStrategy",
      "outputs": [
        {
          "internalType": "address",
          "name": "",
          "type": "address"
        }
      ],
      "stateMutability": "view",
      "type": "function",
      "constant": true
    },
    {
      "inputs": [],
      "name": "getVotingDelay",
      "outputs": [
        {
          "internalType": "uint256",
          "name": "",
          "type": "uint256"
        }
      ],
      "stateMutability": "view",
      "type": "function",
      "constant": true
    },
    {
      "inputs": [
        {
          "internalType": "address",
          "name": "executor",
          "type": "address"
        }
      ],
      "name": "isExecutorAuthorized",
      "outputs": [
        {
          "internalType": "bool",
          "name": "",
          "type": "bool"
        }
      ],
      "stateMutability": "view",
      "type": "function",
      "constant": true
    },
    {
      "inputs": [],
      "name": "getGuardian",
      "outputs": [
        {
          "internalType": "address",
          "name": "",
          "type": "address"
        }
      ],
      "stateMutability": "view",
      "type": "function",
      "constant": true
    },
    {
      "inputs": [],
      "name": "getProposalsCount",
      "outputs": [
        {
          "internalType": "uint256",
          "name": "",
          "type": "uint256"
        }
      ],
      "stateMutability": "view",
      "type": "function",
      "constant": true
    },
    {
      "inputs": [
        {
          "internalType": "uint256",
          "name": "proposalId",
          "type": "uint256"
        }
      ],
      "name": "getProposalById",
      "outputs": [
        {
          "components": [
            {
              "internalType": "uint256",
              "name": "id",
              "type": "uint256"
            },
            {
              "internalType": "address",
              "name": "creator",
              "type": "address"
            },
            {
              "internalType": "contract IExecutorWithTimelock",
              "name": "executor",
              "type": "address"
            },
            {
              "internalType": "address[]",
              "name": "targets",
              "type": "address[]"
            },
            {
              "internalType": "uint256[]",
              "name": "values",
              "type": "uint256[]"
            },
            {
              "internalType": "string[]",
              "name": "signatures",
              "type": "string[]"
            },
            {
              "internalType": "bytes[]",
              "name": "calldatas",
              "type": "bytes[]"
            },
            {
              "internalType": "bool[]",
              "name": "withDelegatecalls",
              "type": "bool[]"
            },
            {
              "internalType": "uint256",
              "name": "startBlock",
              "type": "uint256"
            },
            {
              "internalType": "uint256",
              "name": "endBlock",
              "type": "uint256"
            },
            {
              "internalType": "uint256",
              "name": "executionTime",
              "type": "uint256"
            },
            {
              "internalType": "uint256",
              "name": "forVotes",
              "type": "uint256"
            },
            {
              "internalType": "uint256",
              "name": "againstVotes",
              "type": "uint256"
            },
            {
              "internalType": "bool",
              "name": "executed",
              "type": "bool"
            },
            {
              "internalType": "bool",
              "name": "canceled",
              "type": "bool"
            },
            {
              "internalType": "address",
              "name": "strategy",
              "type": "address"
            },
            {
              "internalType": "bytes32",
              "name": "ipfsHash",
              "type": "bytes32"
            }
          ],
          "internalType": "struct IPopulousGovernanceV2.ProposalWithoutVotes",
          "name": "",
          "type": "tuple"
        }
      ],
      "stateMutability": "view",
      "type": "function",
      "constant": true
    },
    {
      "inputs": [
        {
          "internalType": "uint256",
          "name": "proposalId",
          "type": "uint256"
        },
        {
          "internalType": "address",
          "name": "voter",
          "type": "address"
        }
      ],
      "name": "getVoteOnProposal",
      "outputs": [
        {
          "components": [
            {
              "internalType": "bool",
              "name": "support",
              "type": "bool"
            },
            {
              "internalType": "uint248",
              "name": "votingPower",
              "type": "uint248"
            }
          ],
          "internalType": "struct IPopulousGovernanceV2.Vote",
          "name": "",
          "type": "tuple"
        }
      ],
      "stateMutability": "view",
      "type": "function",
      "constant": true
    },
    {
      "inputs": [
        {
          "internalType": "uint256",
          "name": "proposalId",
          "type": "uint256"
        }
      ],
      "name": "getProposalState",
      "outputs": [
        {
          "internalType": "enum IPopulousGovernanceV2.ProposalState",
          "name": "",
          "type": "uint8"
        }
      ],
      "stateMutability": "view",
      "type": "function",
      "constant": true
    },
    {
      "inputs": [
        {
          "internalType": "address",
          "name": "tokenAddress",
          "type": "address"
        },
        {
          "internalType": "uint256",
          "name": "tokenAmount",
          "type": "uint256"
        },
        {
          "internalType": "uint256",
          "name": "proposalId",
          "type": "uint256"
        },
        {
          "internalType": "bool",
          "name": "support",
          "type": "bool"
        }
      ],
      "name": "getVotingOutcome",
      "outputs": [
        {
          "internalType": "uint256",
          "name": "",
          "type": "uint256"
        },
        {
          "internalType": "uint256",
          "name": "",
          "type": "uint256"
        },
        {
          "internalType": "uint256",
          "name": "",
          "type": "uint256"
        }
      ],
      "stateMutability": "view",
      "type": "function",
      "constant": true
    },
    {
      "inputs": [
        {
          "internalType": "uint256",
          "name": "proposalId",
          "type": "uint256"
        },
        {
          "internalType": "address",
          "name": "voter",
          "type": "address"
        }
      ],
      "name": "getLockedTokens",
      "outputs": [
        {
          "components": [
            {
              "internalType": "address",
              "name": "tokenAddress",
              "type": "address"
            },
            {
              "internalType": "uint256",
              "name": "amount",
              "type": "uint256"
            }
          ],
          "internalType": "struct IPopulousGovernanceV2.LockedTokens",
          "name": "",
          "type": "tuple"
        }
      ],
      "stateMutability": "view",
      "type": "function",
      "constant": true
    },
    {
      "inputs": [],
      "name": "getChainId",
      "outputs": [
        {
          "internalType": "uint256",
          "name": "",
          "type": "uint256"
        }
      ],
      "stateMutability": "pure",
      "type": "function",
      "constant": true
    }
  ],
  "bytecode": "0x608060405234801561001057600080fd5b506142aa806100206000396000f3fe6080604052600436106101f95760003560e01c80638da5cb5b1161010d578063a75b87d2116100a0578063ddf0b0091161006f578063ddf0b00914610570578063f27ae0f914610590578063f2fde38b146105b0578063f8741a9c146105d0578063fe0d94c1146105f0576101f9565b8063a75b87d2146104ea578063b2bdfa7b146104ff578063bd969ba314610514578063cdc35ef914610541576101f9565b80639ec07089116100dc5780639ec0708914610489578063a2b170b01461049e578063a3f4df7e146104b3578063a4d82225146104d5576101f9565b80638da5cb5b146104125780639080936f1461042757806398e527d3146104545780639aad6f6a14610469576101f9565b806340e58ee5116101905780635877da451161015f5780635877da451461038857806364c786d9146103a857806370b0f660146103c8578063715018a6146103e8578063760fbc13146103fd576101f9565b806340e58ee5146102ee5780634185ff831461030e5780634ef8cc171461033b578063548b514e1461035b576101f9565b806320606b70116101cc57806320606b70146102755780633408e4701461029757806334b18c26146102ac5780633656de21146102c1576101f9565b806306be3e8e146101fe57806307c25b7d1461022957806307e8aaef1461023e5780631a1caf7f14610253575b600080fd5b34801561020a57600080fd5b50610213610603565b60405161022091906134dd565b60405180910390f35b34801561023557600080fd5b50610213610612565b34801561024a57600080fd5b50610213610621565b34801561025f57600080fd5b5061027361026e3660046130fb565b610630565b005b34801561028157600080fd5b5061028a6106bc565b60405161022091906135e0565b3480156102a357600080fd5b5061028a6106e0565b3480156102b857600080fd5b5061028a6106e4565b3480156102cd57600080fd5b506102e16102dc3660046132c3565b610708565b6040516102209190613ecb565b3480156102fa57600080fd5b506102736103093660046132c3565b610ab9565b34801561031a57600080fd5b5061032e6103293660046132db565b610d9e565b6040516102209190614025565b34801561034757600080fd5b5061027361035636600461303d565b610df7565b34801561036757600080fd5b5061037b610376366004612f7f565b610e11565b60405161022091906135d5565b34801561039457600080fd5b506102736103a3366004613086565b610e2f565b3480156103b457600080fd5b506102736103c33660046130fb565b610fdd565b3480156103d457600080fd5b506102736103e33660046132c3565b611065565b3480156103f457600080fd5b506102736110c9565b34801561040957600080fd5b5061027361116b565b34801561041e57600080fd5b506102136111b7565b34801561043357600080fd5b506104476104423660046132c3565b6111c6565b6040516102209190613659565b34801561046057600080fd5b5061028a611397565b34801561047557600080fd5b50610273610484366004612f7f565b61139d565b34801561049557600080fd5b5061028a6113fe565b3480156104aa57600080fd5b5061028a611403565b3480156104bf57600080fd5b506104c8611409565b604051610220919061366d565b3480156104e157600080fd5b5061021361143b565b3480156104f657600080fd5b5061021361144a565b34801561050b57600080fd5b50610213611459565b34801561052057600080fd5b5061053461052f3660046132db565b611468565b6040516102209190613eab565b34801561054d57600080fd5b5061056161055c36600461303d565b6114b4565b6040516102209392919061410a565b34801561057c57600080fd5b5061027361058b3660046132c3565b61167b565b34801561059c57600080fd5b506102736105ab366004612f9b565b611986565b3480156105bc57600080fd5b506102736105cb366004612f7f565b611ac9565b3480156105dc57600080fd5b5061028a6105eb3660046131dd565b611bc2565b6102736105fe3660046132c3565b611f30565b6035546001600160a01b031690565b6039546001600160a01b031681565b6038546001600160a01b031681565b610638612136565b6034546001600160a01b03908116911614610688576040805162461bcd60e51b81526020600482018190526024820152600080516020614227833981519152604482015290519081900360640190fd5b60005b81518110156106b8576106b08282815181106106a357fe5b602002602001015161213a565b60010161068b565b5050565b7f8cad95687ba82c2ce50e74f7b754645e5117c3a5bec8151c0726d5857980a86681565b4690565b7f4e031542a9553ed1c4e810c54674ab4b984243e335b246aa3de73663bf4c11ee81565b6107106129c7565b6000828152603b602052604090206107266129c7565b60408051610220810182528354815260018401546001600160a01b039081166020808401919091526002860154909116828401526003850180548451818402810184019095528085529293606085019390928301828280156107b157602002820191906000526020600020905b81546001600160a01b03168152600190910190602001808311610793575b505050505081526020018360040180548060200260200160405190810160405280929190818152602001828054801561080957602002820191906000526020600020905b8154815260200190600101908083116107f5575b5050505050815260200183600501805480602002602001604051908101604052809291908181526020016000905b828210156108e25760008481526020908190208301805460408051601f60026000196101006001871615020190941693909304928301859004850281018501909152818152928301828280156108ce5780601f106108a3576101008083540402835291602001916108ce565b820191906000526020600020905b8154815290600101906020018083116108b157829003601f168201915b505050505081526020019060010190610837565b50505050815260200183600601805480602002602001604051908101604052809291908181526020016000905b828210156109ba5760008481526020908190208301805460408051601f60026000196101006001871615020190941693909304928301859004850281018501909152818152928301828280156109a65780601f1061097b576101008083540402835291602001916109a6565b820191906000526020600020905b81548152906001019060200180831161098957829003601f168201915b50505050508152602001906001019061090f565b50505050815260200183600701805480602002602001604051908101604052809291908181526020018280548015610a3157602002820191906000526020600020906000905b825461010083900a900460ff161515815260206001928301818104948501949093039092029101808411610a005790505b50505091835250506008840154602082015260098401546040820152600a8401546060820152600b8401546080820152600c84015460a0820152600d84015460ff808216151560c0840152610100808304909116151560e0840152620100009091046001600160a01b031690820152600e90930154610120909301929092525090505b919050565b6000610ac4826111c6565b90506007816007811115610ad457fe5b14158015610aee57506001816007811115610aeb57fe5b14155b8015610b0657506006816007811115610b0357fe5b14155b610b2b5760405162461bcd60e51b8152600401610b22906139a4565b60405180910390fd5b6000828152603b60205260409020603d546001600160a01b0316610b4d612136565b6001600160a01b03161480610be85750600281015460018201546040516347293e6560e01b81526001600160a01b03928316926347293e6592610b98923092909116906004016134f1565b60206040518083038186803b158015610bb057600080fd5b505afa158015610bc4573d6000803e3d6000fd5b505050506040513d601f19601f82011682018060405250810190610be89190613136565b610c045760405162461bcd60e51b8152600401610b229061377d565b600d8101805461ff00191661010017905560005b6003820154811015610d615760028201546003830180546001600160a01b0390921691631dc40b51919084908110610c4c57fe5b6000918252602090912001546004850180546001600160a01b039092169185908110610c7457fe5b9060005260206000200154856005018581548110610c8e57fe5b90600052602060002001866006018681548110610ca757fe5b9060005260206000200187600a0154886007018881548110610cc557fe5b90600052602060002090602091828204019190069054906101000a900460ff166040518763ffffffff1660e01b8152600401610d069695949392919061359c565b602060405180830381600087803b158015610d2057600080fd5b505af1158015610d34573d6000803e3d6000fd5b505050506040513d601f19601f82011682018060405250810190610d589190613152565b50600101610c18565b507f789cf55be980739dad1d0699b93b58e806b51c9d96619bfa8fe0a28abaa7b30c83604051610d9191906135e0565b60405180910390a1505050565b610da6612a6d565b506000828152603b602090815260408083206001600160a01b0385168452600f0182529182902082518084019093525460ff81161515835261010090046001600160f81b0316908201525b92915050565b610e0b8484610e04612136565b8585612195565b50505050565b6001600160a01b03166000908152603c602052604090205460ff1690565b6040805180820190915260168152752837b83ab637bab99023b7bb32b93730b731b2903b1960511b60209091015260007f8cad95687ba82c2ce50e74f7b754645e5117c3a5bec8151c0726d5857980a8667f90d0e97d0675583859de66b0b508c48eebcdbecf06886b4366f8b83acdaff70b610ea96106e0565b30604051602001610ebd9493929190613617565b604051602081830303815290604052805190602001207f4e031542a9553ed1c4e810c54674ab4b984243e335b246aa3de73663bf4c11ee89898989604051602001610f0c9594939291906135e9565b60405160208183030381529060405280519060200120604051602001610f339291906134c2565b604051602081830303815290604052805190602001209050600060018286868660405160008152602001604052604051610f70949392919061363b565b6020604051602081039080840390855afa158015610f92573d6000803e3d6000fd5b5050604051601f1901519150506001600160a01b038116610fc55760405162461bcd60e51b8152600401610b2290613bff565b610fd28989838a8a612195565b505050505050505050565b610fe5612136565b6034546001600160a01b03908116911614611035576040805162461bcd60e51b81526020600482018190526024820152600080516020614227833981519152604482015290519081900360640190fd5b60005b81518110156106b85761105d82828151811061105057fe5b6020026020010151612389565b600101611038565b61106d612136565b6034546001600160a01b039081169116146110bd576040805162461bcd60e51b81526020600482018190526024820152600080516020614227833981519152604482015290519081900360640190fd5b6110c6816123dc565b50565b6110d1612136565b6034546001600160a01b03908116911614611121576040805162461bcd60e51b81526020600482018190526024820152600080516020614227833981519152604482015290519081900360640190fd5b6034546040516000916001600160a01b0316907f8be0079c531659141344cd1fd0a4f28419497f9722a3daafe3b4186f6b6457e0908390a3603480546001600160a01b0319169055565b603d546001600160a01b031661117f612136565b6001600160a01b0316146111a55760405162461bcd60e51b8152600401610b2290613b5d565b603d80546001600160a01b0319169055565b6034546001600160a01b031690565b600081603a5410156111ea5760405162461bcd60e51b8152600401610b2290613b0c565b6000828152603b60205260409020600d810154610100900460ff1615611214576001915050610ab4565b80600801544311611229576000915050610ab4565b8060090154431161123e576002915050610ab4565b60028101546040516306fbb3ab60e01b81526001600160a01b03909116906306fbb3ab90611272903090879060040161352f565b60206040518083038186803b15801561128a57600080fd5b505afa15801561129e573d6000803e3d6000fd5b505050506040513d601f19601f820116820180604052508101906112c29190613136565b6112d0576003915050610ab4565b600a8101546112e3576004915050610ab4565b600d81015460ff16156112fa576007915050610ab4565b600281015460405163f670a5f960e01b81526001600160a01b039091169063f670a5f99061132e903090879060040161352f565b60206040518083038186803b15801561134657600080fd5b505afa15801561135a573d6000803e3d6000fd5b505050506040513d601f19601f8201168201806040525081019061137e9190613136565b1561138d576006915050610ab4565b6005915050610ab4565b603a5490565b6113a5612136565b6034546001600160a01b039081169116146113f5576040805162461bcd60e51b81526020600482018190526024820152600080516020614227833981519152604482015290519081900360640190fd5b6110c68161242c565b600181565b60365490565b604051806040016040528060168152602001752837b83ab637bab99023b7bb32b93730b731b2903b1960511b81525081565b6037546001600160a01b031681565b603d546001600160a01b031690565b6034546001600160a01b031681565b611470612a6d565b506000918252603b602090815260408084206001600160a01b0393841685526010018252928390208351808501909452805490921683526001909101549082015290565b6000808060026114c3866111c6565b60078111156114ce57fe5b146114eb5760405162461bcd60e51b8152600401610b2290613e60565b6114f36129c7565b6114fc86610708565b90506000611508612136565b9050611512612a6d565b506000878152603b602090815260408083206001600160a01b0385168452600f0182529182902082518084019093525460ff81161515835261010090046001600160f81b03169082018190521561157b5760405162461bcd60e51b8152600401610b2290613dc1565b6000891161159b5760405162461bcd60e51b8152600401610b2290613c9d565b6038546001600160a01b038b8116911614806115c457506039546001600160a01b038b81169116145b6115e05760405162461bcd60e51b8152600401610b2290613d55565b6038546000906001600160a01b038c811691161415611600575088611624565b6039546001600160a01b038c811691161415611624576116218a6005612491565b90505b87156116455761016084015161163a90826124f1565b61016085015261165c565b61018084015161165590826124f1565b6101808501525b61016084015161018090940151909b939a509850919650505050505050565b6004611686826111c6565b600781111561169157fe5b146116ae5760405162461bcd60e51b8152600401610b2290613c53565b6000818152603b602090815260408083206002810154825163675e4d4160e11b81529251919493611746936001600160a01b039092169263cebc9a82926004808201939291829003018186803b15801561170757600080fd5b505afa15801561171b573d6000803e3d6000fd5b505050506040513d601f19601f8201168201806040525081019061173f9190613152565b42906124f1565b905060005b600383015481101561192f576002830154600384018054611927926001600160a01b031691908490811061177b57fe5b6000918252602090912001546004860180546001600160a01b0390921691859081106117a357fe5b90600052602060002001548660050185815481106117bd57fe5b600091825260209182902001805460408051601f600260001961010060018716150201909416939093049283018590048502810185019091528181529283018282801561184b5780601f106118205761010080835404028352916020019161184b565b820191906000526020600020905b81548152906001019060200180831161182e57829003601f168201915b505050505087600601868154811061185f57fe5b600091825260209182902001805460408051601f60026000196101006001871615020190941693909304928301859004850281018501909152818152928301828280156118ed5780601f106118c2576101008083540402835291602001916118ed565b820191906000526020600020905b8154815290600101906020018083116118d057829003601f168201915b50505050508789600701888154811061190257fe5b90600052602060002090602091828204019190069054906101000a900460ff1661254b565b60010161174b565b50600a820181905561193f612136565b6001600160a01b03167f11a0b38e70585e4b09b794bd1d9f9b1a51a802eb8ee2101eeee178d0349e73fe84836040516119799291906140fc565b60405180910390a2505050565b60006119906126a6565b60015490915060ff16806119a757506119a76126ab565b806119b3575060005481115b6119ee5760405162461bcd60e51b815260040180806020018281038252602e815260200180614247602e913960400191505060405180910390fd5b60015460ff16158015611a0d576001805460ff19168117905560008290555b6000611a17612136565b603480546001600160a01b0319166001600160a01b038316908117909155604051919250906000907f8be0079c531659141344cd1fd0a4f28419497f9722a3daafe3b4186f6b6457e0908290a3611a6d8761242c565b611a76866123dc565b611a7f8a6126b1565b611a898989612728565b603d80546001600160a01b0319166001600160a01b038716179055611aad84610fdd565b508015610fd2576001805460ff19169055505050505050505050565b611ad1612136565b6034546001600160a01b03908116911614611b21576040805162461bcd60e51b81526020600482018190526024820152600080516020614227833981519152604482015290519081900360640190fd5b6001600160a01b038116611b665760405162461bcd60e51b81526004018080602001828103825260268152602001806141e06026913960400191505060405180910390fd5b6034546040516001600160a01b038084169216907f8be0079c531659141344cd1fd0a4f28419497f9722a3daafe3b4186f6b6457e090600090a3603480546001600160a01b0319166001600160a01b0392909216919091179055565b6000865160001415611be65760405162461bcd60e51b8152600401610b2290613ac3565b85518751148015611bf8575084518751145b8015611c05575083518751145b8015611c12575082518751145b611c2e5760405162461bcd60e51b8152600401610b229061386f565b611c3788610e11565b611c535760405162461bcd60e51b8152600401610b2290613e15565b876001600160a01b0316630332f02530611c6b612136565b6040518363ffffffff1660e01b8152600401611c889291906134f1565b60206040518083038186803b158015611ca057600080fd5b505afa158015611cb4573d6000803e3d6000fd5b505050506040513d601f19601f82011682018060405250810190611cd89190613136565b611cf45760405162461bcd60e51b8152600401610b2290613d05565b611cfc612a84565b603654611d0a9043906124f1565b816000018181525050611d8f896001600160a01b031663a438d2086040518163ffffffff1660e01b815260040160206040518083038186803b158015611d4f57600080fd5b505afa158015611d63573d6000803e3d6000fd5b505050506040513d601f19601f82011682018060405250810190611d879190613152565b8251906124f1565b602080830191909152603a5460408084018281526000928352603b909352902090518155611dbb612136565b6001820180546001600160a01b03199081166001600160a01b0393841617909155600283018054909116918c169190911790558851611e0390600383019060208c0190612aa5565b508751611e1990600483019060208b0190612b0a565b508651611e2f90600583019060208a0190612b45565b508551611e459060068301906020890190612b9e565b508451611e5b9060078301906020880190612bf7565b508151600882015560208201516009820155603554600d8201805462010000600160b01b0319166001600160a01b039283166201000002179055600e8201859055603a805460010190558a16611eaf612136565b6001600160a01b03167fd272d67d2c8c66de43c1d2515abb064978a5020c173e15903b6a2ab3bf7440ec84604001518c8c8c8c8c8a600001518b60200151603560009054906101000a90046001600160a01b03168f604051611f1a9a99989796959493929190614047565b60405180910390a3549998505050505050505050565b6005611f3b826111c6565b6007811115611f4657fe5b14611f635760405162461bcd60e51b8152600401610b2290613915565b6000818152603b60205260408120600d8101805460ff19166001179055905b60038201548110156120e95760028201546004830180546001600160a01b0390921691638902ab65919084908110611fb657fe5b9060005260206000200154846003018481548110611fd057fe5b6000918252602090912001546004860180546001600160a01b039092169186908110611ff857fe5b906000526020600020015486600501868154811061201257fe5b9060005260206000200187600601878154811061202b57fe5b9060005260206000200188600a015489600701898154811061204957fe5b90600052602060002090602091828204019190069054906101000a900460ff166040518863ffffffff1660e01b815260040161208a9695949392919061359c565b6000604051808303818588803b1580156120a357600080fd5b505af11580156120b7573d6000803e3d6000fd5b50505050506040513d6000823e601f3d908101601f191682016040526120e0919081019061316a565b50600101611f82565b506120f2612136565b6001600160a01b03167f9c85b616f29fca57a17eafe71cf9ff82ffef41766e2cf01ea7f8f7878dd3ec248360405161212a91906135e0565b60405180910390a25050565b3390565b6001600160a01b0381166000908152603c602052604090819020805460ff19169055517f5e8105a2af24345971359d2289f43efa80d093f4a7123561b8d63836b98724f49061218a9083906134dd565b60405180910390a150565b60006121a0836111c6565b905060028160078111156121b057fe5b146121cd5760405162461bcd60e51b8152600401610b229061395f565b6000838152603b602090815260408083206001600160a01b0388168452600f8101909252909120805461010090046001600160f81b0316156122215760405162461bcd60e51b8152600401610b22906137d1565b600087116122415760405162461bcd60e51b8152600401610b2290613720565b6038546001600160a01b038981169116148061226a57506039546001600160a01b038981169116145b6122865760405162461bcd60e51b8152600401610b22906139ec565b6038546000906001600160a01b038a8116911614156122b35750866122ae86888b84806127e5565b6122e3565b6039546001600160a01b038a8116911614156122e3576122d4886005612491565b90506122e386888b8b856127e5565b841561230257600b8301546122f890826124f1565b600b840155612317565b600c83015461231190826124f1565b600c8401555b815460ff60ff1990911686151517166101006001600160f81b038316021782556040516001600160a01b038816907f0c611e7b6ae0de26f4772260e1bbdb5f58cbb7c275fe2de14671968d29add8d690612376908990899086906140e6565b60405180910390a2505050505050505050565b6001600160a01b0381166000908152603c602052604090819020805460ff19166001179055517f52762435f58790076157ea2a4914a5a4d0aa0eb421588891377692f7fd3bc0829061218a9083906134dd565b60368190556123e9612136565b6001600160a01b03167fc46fc23e244f0720a98ddbac6efb5bb40d212cf15e6478fc4b3017648715289d8260405161242191906135e0565b60405180910390a250565b603580546001600160a01b0319166001600160a01b03831617905561244f612136565b6001600160a01b0316816001600160a01b03167f9e8e9f668db69a2cefb172dabe284d0d3aea2b7ee64212a205bd033bd03a3d5560405160405180910390a350565b6000826124a057506000610df1565b828202828482816124ad57fe5b04146124ea5760405162461bcd60e51b81526004018080602001828103825260218152602001806142066021913960400191505060405180910390fd5b9392505050565b6000828201838110156124ea576040805162461bcd60e51b815260206004820152601b60248201527f536166654d6174683a206164646974696f6e206f766572666c6f770000000000604482015290519081900360640190fd5b866001600160a01b031663b1fc879687878787878760405160200161257596959493929190613548565b604051602081830303815290604052805190602001206040518263ffffffff1660e01b81526004016125a791906135e0565b60206040518083038186803b1580156125bf57600080fd5b505afa1580156125d3573d6000803e3d6000fd5b505050506040513d601f19601f820116820180604052508101906125f79190613136565b156126145760405162461bcd60e51b8152600401610b2290613680565b604051638d8fe2e360e01b81526001600160a01b03881690638d8fe2e39061264a90899089908990899089908990600401613548565b602060405180830381600087803b15801561266457600080fd5b505af1158015612678573d6000803e3d6000fd5b505050506040513d601f19601f8201168201806040525081019061269c9190613152565b5050505050505050565b600190565b303b1590565b6001600160a01b0381166126d75760405162461bcd60e51b8152600401610b229061381f565b603780546001600160a01b0319166001600160a01b0383811691909117918290556040517f392aa4d4c6804dae27d6bfa0c6430bba42833bed9c53833e7b7f2b2d7cc13aef9261218a9216906134dd565b6001600160a01b03821661274e5760405162461bcd60e51b8152600401610b2290613ba7565b6001600160a01b0381166127745760405162461bcd60e51b8152600401610b22906138bd565b603880546001600160a01b038085166001600160a01b0319928316179283905560398054858316931692909217918290556040517fb17851252d29a80a8ace9b26188567af63958a7cb31a5e32a09565d8f355d86f936127d9939083169216906134f1565b60405180910390a15050565b6000858152603b602090815260408083206001600160a01b03808916855260109091019092529182902060375492516323b872dd60e01b815290928216918691908216906323b872dd90612841908a9030908a9060040161350b565b602060405180830381600087803b15801561285b57600080fd5b505af115801561286f573d6000803e3d6000fd5b505050506040513d601f19601f820116820180604052508101906128939190613136565b15156001146128b45760405162461bcd60e51b8152600401610b2290613a4a565b82546001600160a01b0319166001600160a01b03878116919091178455600184018690556040516340c10f1960e01b8152908316906340c10f19906128ff908a90889060040161352f565b602060405180830381600087803b15801561291957600080fd5b505af115801561292d573d6000803e3d6000fd5b505050506040513d601f19601f820116820180604052508101906129519190613136565b15156001146129725760405162461bcd60e51b8152600401610b22906136cc565b856001600160a01b0316876001600160a01b03167f87f4b5cc1d7b955dd69a5ce366fe29a7a5b9c644c277eeea72cf6659c2590ae8876040516129b591906135e0565b60405180910390a35050505050505050565b6040518061022001604052806000815260200160006001600160a01b0316815260200160006001600160a01b031681526020016060815260200160608152602001606081526020016060815260200160608152602001600081526020016000815260200160008152602001600081526020016000815260200160001515815260200160001515815260200160006001600160a01b03168152602001600080191681525090565b604080518082019091526000808252602082015290565b60405180606001604052806000815260200160008152602001600081525090565b828054828255906000526020600020908101928215612afa579160200282015b82811115612afa57825182546001600160a01b0319166001600160a01b03909116178255602090920191600190910190612ac5565b50612b06929150612c93565b5090565b828054828255906000526020600020908101928215612afa579160200282015b82811115612afa578251825591602001919060010190612b2a565b828054828255906000526020600020908101928215612b92579160200282015b82811115612b925782518051612b82918491602090910190612ca8565b5091602001919060010190612b65565b50612b06929150612d23565b828054828255906000526020600020908101928215612beb579160200282015b82811115612beb5782518051612bdb918491602090910190612ca8565b5091602001919060010190612bbe565b50612b06929150612d40565b82805482825590600052602060002090601f01602090048101928215612afa5791602002820160005b83821115612c5d57835183826101000a81548160ff0219169083151502179055509260200192600101602081600001049283019260010302612c20565b8015612c8a5782816101000a81549060ff0219169055600101602081600001049283019260010302612c5d565b5050612b069291505b5b80821115612b065760008155600101612c94565b828054600181600116156101000203166002900490600052602060002090601f016020900481019282612cde5760008555612afa565b82601f10612cf757805160ff1916838001178555612afa565b82800160010185558215612afa5791820182811115612afa578251825591602001919060010190612b2a565b80821115612b06576000612d378282612d5d565b50600101612d23565b80821115612b06576000612d548282612d5d565b50600101612d40565b50805460018160011615610100020316600290046000825580601f10612d8357506110c6565b601f0160209004906000526020600020908101906110c69190612c93565b600082601f830112612db1578081fd5b8135612dc4612dbf82614144565b614120565b818152915060208083019084810181840286018201871015612de557600080fd5b60005b84811015612e0d578135612dfb816141bc565b84529282019290820190600101612de8565b505050505092915050565b600082601f830112612e28578081fd5b8135612e36612dbf82614144565b818152915060208083019084810181840286018201871015612e5757600080fd5b60005b84811015612e0d578135612e6d816141d1565b84529282019290820190600101612e5a565b600082601f830112612e8f578081fd5b8135612e9d612dbf82614144565b818152915060208083019084810160005b84811015612e0d578135870188603f820112612ec957600080fd5b83810135612ed9612dbf82614162565b81815260408b81848601011115612eef57600080fd5b82818501888401375060009181018601919091528552509282019290820190600101612eae565b600082601f830112612f26578081fd5b8135612f34612dbf82614144565b818152915060208083019084810181840286018201871015612f5557600080fd5b60005b84811015612e0d57813584529282019290820190600101612f58565b8035610ab4816141bc565b600060208284031215612f90578081fd5b81356124ea816141bc565b600080600080600080600060e0888a031215612fb5578283fd5b8735612fc0816141bc565b96506020880135612fd0816141bc565b95506040880135612fe0816141bc565b94506060880135612ff0816141bc565b93506080880135925060a0880135613007816141bc565b915060c088013567ffffffffffffffff811115613022578182fd5b61302e8a828b01612da1565b91505092959891949750929550565b60008060008060808587031215613052578384fd5b843561305d816141bc565b93506020850135925060408501359150606085013561307b816141d1565b939692955090935050565b600080600080600080600060e0888a0312156130a0578081fd5b87356130ab816141bc565b9650602088013595506040880135945060608801356130c9816141d1565b9350608088013560ff811681146130de578182fd5b9699959850939692959460a0840135945060c09093013592915050565b60006020828403121561310c578081fd5b813567ffffffffffffffff811115613122578182fd5b61312e84828501612da1565b949350505050565b600060208284031215613147578081fd5b81516124ea816141d1565b600060208284031215613163578081fd5b5051919050565b60006020828403121561317b578081fd5b815167ffffffffffffffff811115613191578182fd5b8201601f810184136131a1578182fd5b80516131af612dbf82614162565b8181528560208385010111156131c3578384fd5b6131d4826020830160208601614190565b95945050505050565b600080600080600080600060e0888a0312156131f7578081fd5b61320088612f74565b9650602088013567ffffffffffffffff8082111561321c578283fd5b6132288b838c01612da1565b975060408a013591508082111561323d578283fd5b6132498b838c01612f16565b965060608a013591508082111561325e578283fd5b61326a8b838c01612e7f565b955060808a013591508082111561327f578283fd5b61328b8b838c01612e7f565b945060a08a01359150808211156132a0578283fd5b506132ad8a828b01612e18565b92505060c0880135905092959891949750929550565b6000602082840312156132d4578081fd5b5035919050565b600080604083850312156132ed578182fd5b8235915060208301356132ff816141bc565b809150509250929050565b6001600160a01b03169052565b6000815180845260208085019450808401835b8381101561334f5781516001600160a01b03168752958201959082019060010161332a565b509495945050505050565b6000815180845260208085019450808401835b8381101561334f57815115158752958201959082019060010161336d565b6000815180845260208085018081965082840281019150828601855b858110156133d15782840389526133bf848351613413565b988501989350908401906001016133a7565b5091979650505050505050565b6000815180845260208085019450808401835b8381101561334f578151875295820195908201906001016133f1565b15159052565b6000815180845261342b816020860160208601614190565b601f01601f19169290920160200192915050565b6000815460018082166000811461345d576001811461347b576134b9565b60028304607f16865260ff19831660208701526040860193506134b9565b6002830480875261348b86614184565b60005b828110156134af5781546020828b010152848201915060208101905061348e565b8801602001955050505b50505092915050565b61190160f01b81526002810192909252602282015260420190565b6001600160a01b0391909116815260200190565b6001600160a01b0392831681529116602082015260400190565b6001600160a01b039384168152919092166020820152604081019190915260600190565b6001600160a01b03929092168252602082015260400190565b600060018060a01b038816825286602083015260c0604083015261356f60c0830187613413565b82810360608401526135818187613413565b6080840195909552505090151560a090910152949350505050565b600060018060a01b038816825286602083015260c060408301526135c360c083018761343f565b8281036060840152613581818761343f565b901515815260200190565b90815260200190565b9485526001600160a01b03939093166020850152604084019190915260608301521515608082015260a00190565b938452602084019290925260408301526001600160a01b0316606082015260800190565b93845260ff9290921660208401526040830152606082015260800190565b602081016008831061366757fe5b91905290565b6000602082526124ea6020830184613413565b6020808252602c908201527f476f7665726e616e63653a2071756575654f725265766572743a204455504c4960408201526b21a0aa22a22fa0a1aa24a7a760a11b606082015260800190565b60208082526034908201527f476f7665726e616e63653a20746f6b656e53776170416e644c6f636b3a20564f6040820152731511481513d2d15394c81393d50813525395115160621b606082015260800190565b6020808252603c908201527f476f7665726e616e63653a207375626d6974566f74653a20544f4b454e20414d60408201527f4f554e5420544f2053574150204d5553542042452041424f5645203000000000606082015260800190565b60208082526034908201527f476f7665726e616e63653a2063616e63656c3a2050524f504f534954494f4e5f60408201527310d05390d1531310551253d397d253959053125160621b606082015260800190565b6020808252602e908201527f476f7665726e616e63653a207375626d6974566f74653a20564f54455f414c5260408201526d1150511657d4d55093525515115160921b606082015260800190565b60208082526030908201527f476f7665726e616e63653a20736574566f74696e67746f6b656e3a20564f544960408201526f1391d7d513d2d153881253959053125160821b606082015260800190565b6020808252602e908201527f476f7665726e616e63653a206372656174653a20494e434f4e53495354454e5460408201526d0bea082a4829aa6be988a9c8ea8960931b606082015260800190565b60208082526038908201527f476f7665726e616e63653a205f73657455736572546f6b656e733a20505854206040820152771513d2d15388105111149154d4c81254c81253959053125160421b606082015260800190565b6020808252602a908201527f476f7665726e616e63653a20657865637574653a204f4e4c595f5155455545446040820152695f50524f504f53414c5360b01b606082015260800190565b60208082526025908201527f476f7665726e616e63653a207375626d6974566f74653a20564f54494e475f436040820152641313d4d15160da1b606082015260800190565b60208082526028908201527f476f7665726e616e63653a2063616e63656c3a204f4e4c595f4245464f52455f60408201526711561150d555115160c21b606082015260800190565b602080825260409082018190527f476f7665726e616e63653a207375626d6974566f74653a20544f4b454e5f4144908201527f4452455353204d55535420424520505054204f522050585420544f20564f5445606082015260800190565b60208082526053908201527f476f7665726e616e63653a20746f6b656e53776170416e644c6f636b3a20544f60408201527f4b454e205452414e534645525f46524f4d204641494c45442c20434845434b20606082015272109053105390d14813d4881054141493d59053606a1b608082015260a00190565b60208082526029908201527f476f7665726e616e63653a206372656174653a20494e56414c49445f454d5054604082015268595f5441524745545360b81b606082015260800190565b60208082526031908201527f476f7665726e616e63653a2067657450726f706f73616c53746174653a20494e604082015270159053125117d41493d413d4d05317d251607a1b606082015260800190565b6020808252602a908201527f476f7665726e616e63653a206f6e6c79477561726469616e3a204f4e4c595f426040820152692cafa3aaa0a92224a0a760b11b606082015260800190565b60208082526038908201527f476f7665726e616e63653a205f73657455736572546f6b656e733a20505054206040820152771513d2d15388105111149154d4c81254c81253959053125160421b606082015260800190565b60208082526034908201527f476f7665726e616e63653a207375626d6974566f746542795369676e61747572604082015273653a20494e56414c49445f5349474e415455524560601b606082015260800190565b6020808252602a908201527f476f7665726e616e63653a2071756575653a20494e56414c49445f53544154456040820152695f464f525f515545554560b01b606082015260800190565b60208082526042908201527f476f7665726e616e63653a20676574566f74696e674f7574636f6d653a20544f60408201527f4b454e20414d4f554e5420544f2053574150204d5553542042452041424f5645606082015261020360f41b608082015260a00190565b60208082526030908201527f476f7665726e616e63653a206372656174653a2050524f504f534954494f4e5f60408201526f10d49150551253d397d253959053125160821b606082015260800190565b60208082526046908201527f476f7665726e616e63653a20676574566f74696e674f7574636f6d653a20544f60408201527f4b454e5f41444452455353204d55535420424520505054204f522050585420546060820152654f20564f544560d01b608082015260a00190565b60208082526034908201527f476f7665726e616e63653a20676574566f74696e674f7574636f6d653a20564f604082015273151157d053149150511657d4d55093525515115160621b606082015260800190565b6020808252602b908201527f476f7665726e616e63653a206372656174653a204558454355544f525f4e4f5460408201526a17d055551213d49256915160aa1b606082015260800190565b6020808252602b908201527f476f7665726e616e63653a20676574566f74696e674f7574636f6d653a20564f60408201526a15125391d7d0d313d4d15160aa1b606082015260800190565b81516001600160a01b031681526020918201519181019190915260400190565b600060208252825160208301526020830151613eea604084018261330a565b506040830151613efd606084018261330a565b506060830151610220806080850152613f1a610240850183613317565b91506080850151601f19808685030160a0870152613f3884836133de565b935060a08701519150808685030160c0870152613f55848361338b565b935060c08701519150808685030160e0870152613f72848361338b565b935060e08701519150610100818786030181880152613f91858461335a565b90880151610120888101919091528801516101408089019190915288015161016080890191909152880151610180808901919091528801516101a08089019190915288015190945091506101c09050613fec8187018361340d565b86015190506101e06140008682018361340d565b86015190506102006140148682018361330a565b959095015193019290925250919050565b8151151581526020918201516001600160f81b03169181019190915260400190565b60006101408c83528060208401526140618184018d613317565b90508281036040840152614075818c6133de565b90508281036060840152614089818b61338b565b9050828103608084015261409d818a61338b565b905082810360a08401526140b1818961335a565b60c0840197909752505060e08101939093526001600160a01b0391909116610100830152610120909101529695505050505050565b9283529015156020830152604082015260600190565b918252602082015260400190565b9283526020830191909152604082015260600190565b60405181810167ffffffffffffffff8111828210171561413c57fe5b604052919050565b600067ffffffffffffffff82111561415857fe5b5060209081020190565b600067ffffffffffffffff82111561417657fe5b50601f01601f191660200190565b60009081526020902090565b60005b838110156141ab578181015183820152602001614193565b83811115610e0b5750506000910152565b6001600160a01b03811681146110c657600080fd5b80151581146110c657600080fdfe4f776e61626c653a206e6577206f776e657220697320746865207a65726f2061646472657373536166654d6174683a206d756c7469706c69636174696f6e206f766572666c6f774f776e61626c653a2063616c6c6572206973206e6f7420746865206f776e6572436f6e747261637420696e7374616e63652068617320616c7265616479206265656e20696e697469616c697a6564a2646970667358221220f9a221353b007c60dedc3bab202e8158b39ec8bbd8219b87033ee192c1a122c164736f6c63430007050033",
  "immutableReferences": {},
  "source": "// SPDX-License-Identifier: agpl-3.0\npragma solidity 0.7.5;\npragma abicoder v2;\n\nimport {IVotingStrategy} from '../interfaces/IVotingStrategy.sol';\nimport {IExecutorWithTimelock} from '../interfaces/IExecutorWithTimelock.sol';\nimport {IProposalValidator} from '../interfaces/IProposalValidator.sol';\nimport {IGovernanceStrategy} from '../interfaces/IGovernanceStrategy.sol';\nimport {IPopulousGovernanceV2} from '../interfaces/IPopulousGovernanceV2.sol';\nimport {Owned} from '../dependencies/open-zeppelin/Owned.sol';\nimport {SafeMath} from '../dependencies/open-zeppelin/SafeMath.sol';\nimport {MockVotingToken} from '../MockVotingToken.sol';\nimport {IERC20Detailed} from '../interfaces/IERC20Detailed.sol';\nimport \"../dependencies/open-zeppelin/VersionedInitializable.sol\";\n\n/**\n * @title Governance V2 contract\n * @dev Main point of interaction with Populous protocol's governance\n * - Create a Proposal\n * - Cancel a Proposal\n * - Queue a Proposal\n * - Execute a Proposal\n * - Submit Vote to a Proposal\n * Proposal States : Pending => Active => Succeeded(/Failed) => Queued => Executed(/Expired)\n *                   The transition to \"Canceled\" can appear in multiple states\n * @author Populous\n **/\ncontract PopulousGovernanceV2 is VersionedInitializable, Owned, IPopulousGovernanceV2 {\n  using SafeMath for uint256;\n\n  address private _governanceStrategy;\n  uint256 private _votingDelay;\n\n  address public _votingToken;\n  address public _PPT;\n  address public _PXT;\n\n  uint256 private _proposalsCount;\n  mapping(uint256 => Proposal) private _proposals;\n  mapping(address => bool) private _authorizedExecutors;\n\n  address private _guardian;\n\n  bytes32 public constant DOMAIN_TYPEHASH = keccak256(\n    'EIP712Domain(string name,uint256 chainId,address verifyingContract)'\n  );\n  bytes32 public constant VOTE_EMITTED_TYPEHASH = keccak256('VoteEmitted(uint256 id,bool support)');\n  string public constant NAME = 'Populous Governance v2';\n\n  modifier onlyGuardian() {\n    require(_msgSender() == _guardian, 'Governance: onlyGuardian: ONLY_BY_GUARDIAN');\n    _;\n  }\n\n  uint256 public constant GOVERNANCE_REVISION = 0x1;\n\n  function getRevision() internal pure override returns (uint256) {\n      return GOVERNANCE_REVISION;\n  }\n\n  function initialize (\n    address votingToken,\n    address ppt,\n    address pxt,\n    address governanceStrategy,\n    uint256 votingDelay,\n    address guardian,\n    address[] memory executors\n  ) initializer public {\n    address msgSender = _msgSender();\n    \n    _owner = msgSender;\n    emit OwnershipTransferred(address(0), msgSender);\n    _setGovernanceStrategy(governanceStrategy);\n    _setVotingDelay(votingDelay);\n    _setVotingToken(votingToken);\n    _setUserTokens(ppt, pxt);\n    _guardian = guardian;\n    \n    authorizeExecutors(executors);\n  }\n\n  struct CreateVars {\n    uint256 startBlock;\n    uint256 endBlock;\n    uint256 previousProposalsCount;\n  }\n\n  /**\n   * @dev Creates a Proposal (needs to be validated by the Proposal Validator)\n   * @param executor The ExecutorWithTimelock contract that will execute the proposal\n   * @param targets list of contracts called by proposal's associated transactions\n   * @param values list of value in wei for each propoposal's associated transaction\n   * @param signatures list of function signatures (can be empty) to be used when created the callData\n   * @param calldatas list of calldatas: if associated signature empty, calldata ready, else calldata is arguments\n   * @param withDelegatecalls boolean, true = transaction delegatecalls the taget, else calls the target\n   * @param ipfsHash IPFS hash of the proposal\n   **/\n  function create(\n    IExecutorWithTimelock executor,\n    address[] memory targets,\n    uint256[] memory values,\n    string[] memory signatures,\n    bytes[] memory calldatas,\n    bool[] memory withDelegatecalls,\n    bytes32 ipfsHash\n  ) external override returns (uint256) {\n    require(targets.length != 0, 'Governance: create: INVALID_EMPTY_TARGETS');\n    require(\n      targets.length == values.length &&\n        targets.length == signatures.length &&\n        targets.length == calldatas.length &&\n        targets.length == withDelegatecalls.length,\n      'Governance: create: INCONSISTENT_PARAMS_LENGTH'\n    );\n\n    require(isExecutorAuthorized(address(executor)), 'Governance: create: EXECUTOR_NOT_AUTHORIZED');\n\n    require(\n      // proposition token is based on pxt and proposition token\n      // and does not need locking or swap with voting tokens\n      IProposalValidator(address(executor)).validateCreatorOfProposal(\n        this,\n        _msgSender()\n      ),\n      'Governance: create: PROPOSITION_CREATION_INVALID'\n    );\n\n    CreateVars memory vars;\n\n    vars.startBlock = block.number.add(_votingDelay);\n    vars.endBlock = vars.startBlock.add(IProposalValidator(address(executor)).VOTING_DURATION());\n\n    vars.previousProposalsCount = _proposalsCount;\n\n    Proposal storage newProposal = _proposals[vars.previousProposalsCount];\n    newProposal.id = vars.previousProposalsCount;\n    newProposal.creator = _msgSender();\n    newProposal.executor = executor;\n    newProposal.targets = targets;\n    newProposal.values = values;\n    newProposal.signatures = signatures;\n    newProposal.calldatas = calldatas;\n    newProposal.withDelegatecalls = withDelegatecalls;\n    newProposal.startBlock = vars.startBlock;\n    newProposal.endBlock = vars.endBlock;\n    newProposal.strategy = _governanceStrategy;\n    newProposal.ipfsHash = ipfsHash;\n    _proposalsCount++;\n\n    emit ProposalCreated(\n      vars.previousProposalsCount,\n      _msgSender(),\n      executor,\n      targets,\n      values,\n      signatures,\n      calldatas,\n      withDelegatecalls,\n      vars.startBlock,\n      vars.endBlock,\n      _governanceStrategy,\n      ipfsHash\n    );\n\n    return newProposal.id;\n  }\n\n  /**\n   * @dev Cancels a Proposal.\n   * - Callable by the _guardian with relaxed conditions, or by anybody if the conditions of\n   *   cancellation on the executor are fulfilled\n   * @param proposalId id of the proposal\n   **/\n  function cancel(uint256 proposalId) external override {\n    ProposalState state = getProposalState(proposalId);\n    require(\n      state != ProposalState.Executed &&\n        state != ProposalState.Canceled &&\n        state != ProposalState.Expired,\n      'Governance: cancel: ONLY_BEFORE_EXECUTED'\n    );\n\n    Proposal storage proposal = _proposals[proposalId];\n    require(\n      _msgSender() == _guardian ||\n        IProposalValidator(address(proposal.executor)).validateProposalCancellation(\n          this,\n          proposal.creator\n        ),\n      'Governance: cancel: PROPOSITION_CANCELLATION_INVALID'\n    );\n    proposal.canceled = true;\n    for (uint256 i = 0; i < proposal.targets.length; i++) {\n      proposal.executor.cancelTransaction(\n        proposal.targets[i],\n        proposal.values[i],\n        proposal.signatures[i],\n        proposal.calldatas[i],\n        proposal.executionTime,\n        proposal.withDelegatecalls[i]\n      );\n    }\n\n    emit ProposalCanceled(proposalId);\n  }\n\n  /**\n   * @dev Queue the proposal (If Proposal Succeeded)\n   * @param proposalId id of the proposal to queue\n   **/\n  function queue(uint256 proposalId) external override {\n    require(getProposalState(proposalId) == ProposalState.Succeeded, 'Governance: queue: INVALID_STATE_FOR_QUEUE');\n    Proposal storage proposal = _proposals[proposalId];\n    uint256 executionTime = block.timestamp.add(proposal.executor.getDelay());\n    for (uint256 i = 0; i < proposal.targets.length; i++) {\n      _queueOrRevert(\n        proposal.executor,\n        proposal.targets[i],\n        proposal.values[i],\n        proposal.signatures[i],\n        proposal.calldatas[i],\n        executionTime,\n        proposal.withDelegatecalls[i]\n      );\n    }\n    proposal.executionTime = executionTime;\n\n    emit ProposalQueued(proposalId, executionTime, _msgSender());\n  }\n\n  /**\n   * @dev Execute the proposal (If Proposal Queued)\n   * @param proposalId id of the proposal to execute\n   **/\n  function execute(uint256 proposalId) external payable override {\n    require(getProposalState(proposalId) == ProposalState.Queued, 'Governance: execute: ONLY_QUEUED_PROPOSALS');\n    Proposal storage proposal = _proposals[proposalId];\n    proposal.executed = true;\n    for (uint256 i = 0; i < proposal.targets.length; i++) {\n      proposal.executor.executeTransaction{value: proposal.values[i]}(\n        proposal.targets[i],\n        proposal.values[i],\n        proposal.signatures[i],\n        proposal.calldatas[i],\n        proposal.executionTime,\n        proposal.withDelegatecalls[i]\n      );\n    }\n    emit ProposalExecuted(proposalId, _msgSender());\n  }\n\n  /**\n   * @dev Function allowing msg.sender to vote for/against a proposal\n   * @param tokenAddress the address of the token to use to vote\n   * tokenAddress must be PPT or PXT and user balance of tokenAddress\n   * must be greater than zero\n   * @param tokenAmount the amount of tokens to use as voting power\n   * @param proposalId id of the proposal\n   * @param support boolean, true = vote for, false = vote against\n   **/\n  function submitVote(\n    address tokenAddress, \n    uint256 tokenAmount,\n    uint256 proposalId, \n    bool support\n    ) external override {\n    return \n    _submitVote(\n      tokenAddress, tokenAmount, _msgSender(), proposalId, support\n    );\n  }\n\n  /**\n   * @dev Function to register the vote of user that has voted offchain via signature\n   * @param tokenAddress the address of the token to use to vote\n   * tokenAddress must be PPT or PXT and user balance of tokenAddress\n   * must be greater than zero\n   * @param tokenAmount the amount of tokens to use as voting power\n   * @param proposalId id of the proposal\n   * @param support boolean, true = vote for, false = vote against\n   * @param v v part of the voter signature\n   * @param r r part of the voter signature\n   * @param s s part of the voter signature\n   **/\n  function submitVoteBySignature(\n    address tokenAddress, \n    uint256 tokenAmount,\n    uint256 proposalId,\n    bool support,\n    uint8 v,\n    bytes32 r,\n    bytes32 s\n  ) external override {\n    bytes32 digest = keccak256(\n      abi.encodePacked(\n        '\\x19\\x01',\n        keccak256(abi.encode(DOMAIN_TYPEHASH, keccak256(bytes(NAME)), getChainId(), address(this))),\n        keccak256(abi.encode(VOTE_EMITTED_TYPEHASH, tokenAddress, tokenAmount, proposalId, support))\n      )\n    );\n    address signer = ecrecover(digest, v, r, s);\n    require(signer != address(0), 'Governance: submitVoteBySignature: INVALID_SIGNATURE');\n    _submitVote(\n      tokenAddress, tokenAmount, signer, proposalId, support\n    );\n  }\n\n  /**\n   * @dev Set new GovernanceStrategy\n   * Note: owner should be a timelocked executor, so needs to make a proposal\n   * @param governanceStrategy new Address of the GovernanceStrategy contract\n   **/\n  function setGovernanceStrategy(address governanceStrategy) external override onlyOwner {\n    _setGovernanceStrategy(governanceStrategy);\n  }\n\n  /**\n   * @dev Set new Voting Delay (delay before a newly created proposal can be voted on)\n   * Note: owner should be a timelocked executor, so needs to make a proposal\n   * @param votingDelay new voting delay in terms of blocks\n   **/\n  function setVotingDelay(uint256 votingDelay) external override onlyOwner {\n    _setVotingDelay(votingDelay);\n  }\n\n  /**\n   * @dev Add new addresses to the list of authorized executors\n   * @param executors list of new addresses to be authorized executors\n   **/\n  function authorizeExecutors(address[] memory executors) public override onlyOwner {\n    for (uint256 i = 0; i < executors.length; i++) {\n      _authorizeExecutor(executors[i]);\n    }\n  }\n\n  /**\n   * @dev Remove addresses to the list of authorized executors\n   * @param executors list of addresses to be removed as authorized executors\n   **/\n  function unauthorizeExecutors(address[] memory executors) public override onlyOwner {\n    for (uint256 i = 0; i < executors.length; i++) {\n      _unauthorizeExecutor(executors[i]);\n    }\n  }\n\n  /**\n   * @dev Let the guardian abdicate from its priviledged rights\n   **/\n  function __abdicate() external override onlyGuardian {\n    _guardian = address(0);\n  }\n\n  /**\n   * @dev Getter of the current GovernanceStrategy address\n   * @return The address of the current GovernanceStrategy contracts\n   **/\n  function getGovernanceStrategy() external view override returns (address) {\n    return _governanceStrategy;\n  }\n\n  /**\n   * @dev Getter of the current Voting Delay (delay before a created proposal can be voted on)\n   * Different from the voting duration\n   * @return The voting delay in number of blocks\n   **/\n  function getVotingDelay() external view override returns (uint256) {\n    return _votingDelay;\n  }\n\n  /**\n   * @dev Returns whether an address is an authorized executor\n   * @param executor address to evaluate as authorized executor\n   * @return true if authorized\n   **/\n  function isExecutorAuthorized(address executor) public view override returns (bool) {\n    return _authorizedExecutors[executor];\n  }\n\n  /**\n   * @dev Getter the address of the guardian, that can mainly cancel proposals\n   * @return The address of the guardian\n   **/\n  function getGuardian() external view override returns (address) {\n    return _guardian;\n  }\n\n  /**\n   * @dev Getter of the proposal count (the current number of proposals ever created)\n   * @return the proposal count\n   **/\n  function getProposalsCount() external view override returns (uint256) {\n    return _proposalsCount;\n  }\n\n  /**\n   * @dev Getter of a proposal by id\n   * @param proposalId id of the proposal to get\n   * @return the proposal as ProposalWithoutVotes memory object\n   **/\n  function getProposalById(uint256 proposalId)\n    public\n    view\n    override\n    returns (ProposalWithoutVotes memory)\n  {\n    Proposal storage proposal = _proposals[proposalId];\n    ProposalWithoutVotes memory proposalWithoutVotes = ProposalWithoutVotes({\n      id: proposal.id,\n      creator: proposal.creator,\n      executor: proposal.executor,\n      targets: proposal.targets,\n      values: proposal.values,\n      signatures: proposal.signatures,\n      calldatas: proposal.calldatas,\n      withDelegatecalls: proposal.withDelegatecalls,\n      startBlock: proposal.startBlock,\n      endBlock: proposal.endBlock,\n      executionTime: proposal.executionTime,\n      forVotes: proposal.forVotes,\n      againstVotes: proposal.againstVotes,\n      executed: proposal.executed,\n      canceled: proposal.canceled,\n      strategy: proposal.strategy,\n      ipfsHash: proposal.ipfsHash\n    });\n\n    return proposalWithoutVotes;\n  }\n\n  /**\n   * @dev Getter of the Vote of a voter about a proposal\n   * Note: Vote is a struct: ({bool support, uint248 votingPower})\n   * @param proposalId id of the proposal\n   * @param voter address of the voter\n   * @return The associated Vote memory object\n   **/\n  function getVoteOnProposal(uint256 proposalId, address voter)\n    public\n    view\n    override\n    returns (Vote memory)\n  {\n    return _proposals[proposalId].votes[voter];\n  }\n\n  /**\n   * @dev Get the current state of a proposal\n   * @param proposalId id of the proposal\n   * @return The current state of the proposal\n   **/\n  function getProposalState(uint256 proposalId) public view override returns (ProposalState) {\n    require(_proposalsCount >= proposalId, 'Governance: getProposalState: INVALID_PROPOSAL_ID');\n    Proposal storage proposal = _proposals[proposalId];\n    if (proposal.canceled) {\n      return ProposalState.Canceled;\n    } else if (block.number <= proposal.startBlock) {\n      return ProposalState.Pending;\n    } else if (block.number <= proposal.endBlock) {\n      return ProposalState.Active;\n    } else if (!IProposalValidator(address(proposal.executor)).isProposalPassed(this, proposalId)) {\n      return ProposalState.Failed;\n    } else if (proposal.executionTime == 0) {\n      return ProposalState.Succeeded;\n    } else if (proposal.executed) {\n      return ProposalState.Executed;\n    } else if (proposal.executor.isProposalOverGracePeriod(this, proposalId)) {\n      return ProposalState.Expired;\n    } else {\n      return ProposalState.Queued;\n    }\n  }\n\n  function _queueOrRevert(\n    IExecutorWithTimelock executor,\n    address target,\n    uint256 value,\n    string memory signature,\n    bytes memory callData,\n    uint256 executionTime,\n    bool withDelegatecall\n  ) internal {\n    require(\n      !executor.isActionQueued(\n        keccak256(abi.encode(target, value, signature, callData, executionTime, withDelegatecall))\n      ),\n      'Governance: queueOrRevert: DUPLICATED_ACTION'\n    );\n    executor.queueTransaction(target, value, signature, callData, executionTime, withDelegatecall);\n  }\n\n  function _submitVote(\n    address tokenAddress,\n    uint256 tokenAmount,\n    address voter,\n    uint256 proposalId,\n    bool support\n  ) internal {\n    ProposalState state = getProposalState(proposalId);\n    require(state == ProposalState.Active, 'Governance: submitVote: VOTING_CLOSED');\n    Proposal storage proposal = _proposals[proposalId];\n    Vote storage vote = proposal.votes[voter];\n    \n    require(vote.votingPower == 0, 'Governance: submitVote: VOTE_ALREADY_SUBMITTED');\n    \n    require(tokenAmount > 0, 'Governance: submitVote: TOKEN AMOUNT TO SWAP MUST BE ABOVE 0');\n    require(\n      (tokenAddress == _PPT) || \n      (tokenAddress == _PXT),\n      'Governance: submitVote: TOKEN_ADDRESS MUST BE PPT OR PXT TO VOTE'\n    );\n\n    uint256 votingPower = 0;\n\n    if (tokenAddress == _PPT) {\n      votingPower = tokenAmount; // to issue 1-1 for PPT\n      _tokenSwapAndLock(\n        proposalId, voter, \n        tokenAddress, tokenAmount, \n        votingPower\n      );\n    } else if (tokenAddress == _PXT) {\n      votingPower = tokenAmount.mul(5);\n      _tokenSwapAndLock(\n        proposalId, voter, \n        tokenAddress, tokenAmount, \n        votingPower // to issue x5 for PXT\n      ); \n    }\n\n    if (support) {\n      proposal.forVotes = proposal.forVotes.add(votingPower);\n    } else {\n      proposal.againstVotes = proposal.againstVotes.add(votingPower);\n    }\n\n    vote.support = support;\n    vote.votingPower = uint248(votingPower);\n\n    emit VoteEmitted(proposalId, voter, support, votingPower);\n  }\n\n  function _tokenSwapAndLock(\n    uint256 proposalId,\n    address voter,\n    address tokenAddress, \n    uint256 tokenAmount, \n    uint256 votingPower\n    ) internal {\n    LockedTokens storage lockedTokens = _proposals[proposalId].lockedTokens[voter];\n    MockVotingToken voteToken = MockVotingToken(_votingToken);\n    IERC20Detailed userToken = IERC20Detailed(tokenAddress);\n    require(\n        userToken.transferFrom(voter, address(this), tokenAmount) == true,\n        'Governance: tokenSwapAndLock: TOKEN TRANSFER_FROM FAILED, CHECK BALANCE OR APPROVAL'\n    );\n    lockedTokens.tokenAddress =  tokenAddress;\n    lockedTokens.amount = tokenAmount;\n    require(\n      voteToken.mint(voter, votingPower) == true,\n      'Governance: tokenSwapAndLock: VOTE TOKENS NOT MINTED'\n    );\n\n    emit TokensLockedForVoting(voter, tokenAddress, tokenAmount);\n  }\n\n  function _setGovernanceStrategy(address governanceStrategy) internal {\n    _governanceStrategy = governanceStrategy;\n\n    emit GovernanceStrategyChanged(governanceStrategy, _msgSender());\n  }\n\n  function _setVotingDelay(uint256 votingDelay) internal {\n    _votingDelay = votingDelay;\n\n    emit VotingDelayChanged(votingDelay, _msgSender());\n  }\n\n  function _setVotingToken(address votingToken) internal {\n    require(votingToken != address(0), \"Governance: setVotingtoken: VOTING_TOKEN INVALID\");\n    _votingToken = votingToken;\n    emit VotingTokenSet(_votingToken);\n  }\n\n  function _authorizeExecutor(address executor) internal {\n    _authorizedExecutors[executor] = true;\n    emit ExecutorAuthorized(executor);\n  }\n\n  function _unauthorizeExecutor(address executor) internal {\n    _authorizedExecutors[executor] = false;\n    emit ExecutorUnauthorized(executor);\n  }\n\n  function _setUserTokens(address ppt, address pxt) internal {\n    require(\n      (ppt != address(0)),\n      //&& (IERC20Detailed(ppt).totalSupply() > 0), \n      'Governance: _setUserTokens: PPT TOKEN ADDRESS IS INVALID'\n    );\n\n    require(\n      (pxt != address(0)),\n      //&& (IERC20Detailed(pxt).totalSupply() > 0), \n      'Governance: _setUserTokens: PXT TOKEN ADDRESS IS INVALID'\n    );\n    \n    _PPT = ppt;\n    _PXT = pxt;\n\n    emit UserTokensSet(_PPT, _PXT);\n  }\n\n  /**\n   * @dev View function allowing msg.sender to view how their voting power\n   * could change the outcome of the proposal. \n   * The proposal must be pending or active\n   * @param tokenAddress the address of the token to use to vote\n   * tokenAddress must be PPT or PXT and user balance of tokenAddress\n   * must be greater than zero\n   * @param tokenAmount the amount of tokens to use as voting power\n   * @param proposalId id of the proposal\n   * @param support boolean, true = vote for, false = vote against\n   * @return votingPower, for votes and against votes\n   **/\n  function getVotingOutcome(\n    address tokenAddress, \n    uint256 tokenAmount,\n    uint256 proposalId, \n    bool support\n  ) external view override returns (uint256, uint256, uint256) {\n    require(getProposalState(proposalId) == ProposalState.Active, 'Governance: getVotingOutcome: VOTING_CLOSED');\n    ProposalWithoutVotes memory proposal = getProposalById(proposalId);\n    address voter = _msgSender();\n    Vote memory vote = _proposals[proposalId].votes[voter];\n\n    require(vote.votingPower == 0, 'Governance: getVotingOutcome: VOTE_ALREADY_SUBMITTED');\n    require(tokenAmount > 0, 'Governance: getVotingOutcome: TOKEN AMOUNT TO SWAP MUST BE ABOVE 0');\n    require(\n      (tokenAddress == _PPT) || \n      (tokenAddress == _PXT),\n      'Governance: getVotingOutcome: TOKEN_ADDRESS MUST BE PPT OR PXT TO VOTE'\n    );\n\n    uint256 votingPower = 0;\n\n    if (tokenAddress == _PPT) {\n      votingPower = tokenAmount;\n    } else if (tokenAddress == _PXT) {\n      votingPower = tokenAmount.mul(5);\n    }\n    \n    if (support) {\n      proposal.forVotes = proposal.forVotes.add(votingPower);\n    } else {\n      proposal.againstVotes = proposal.againstVotes.add(votingPower);\n    }\n\n    return (votingPower, proposal.forVotes, proposal.againstVotes);\n  }\n\n  /**\n   * @dev Getter function to get tokens locked in proposal for user\n   * by proposal id\n   * @param proposalId id of the proposal to get\n   * @param voter address of the voter\n   * @return the amount of tokens locked and token address\n   **/\n  function getLockedTokens(uint256 proposalId, address voter) \n  public \n  view \n  override \n  returns(LockedTokens memory) {\n    return _proposals[proposalId].lockedTokens[voter];\n  }\n\n  /**\n   * dev Function to redeem tokens locked in proposal for user\n   * by proposal id\n   * param proposalId id of the proposal to get\n   **\n  function redeemLockedTokens(\n    uint256 proposalId\n  ) external override {\n    require(\n      getProposalState(proposalId) != ProposalState.Pending &&\n      getProposalState(proposalId) != ProposalState.Active, \n      'Governance: getVotingOutcome: VOTING_OPEN'\n    );\n\n    address voter = _msgSender();\n    uint256 votingPower = IVotingStrategy(_proposals[proposalId].strategy).getVotingPower(\n      voter    \n    );\n    \n    LockedTokens memory lockTokens = getLockedTokens(proposalId, voter);\n    require(lockTokens.amount > 0, \"Governance:redeemLockedTokens: user has no locked tokens\");\n    \n    Proposal storage proposal = _proposals[proposalId];\n    proposal.lockedTokens[voter].amount = 0;\n\n    MockVotingToken voteToken = MockVotingToken(_votingToken);\n    uint248 voteOnProposal = getVoteOnProposal(proposalId, voter).votingPower;\n    require(votingPower >= voteOnProposal, 'Governance: redeemLockedTokens: VOTING POWER MUST BE ABOVE or EQUAL TO VOTE ON PROPOSAL');\n    \n    IERC20Detailed userToken = IERC20Detailed(lockTokens.tokenAddress);\n  \n    require(\n      voteToken.burn(voter, voteOnProposal) == true,\n      'Governance: redeemLockedTokens: VOTE TOKENS NOT BURNT'\n    );\n\n    require(\n      userToken.transfer(voter, lockTokens.amount) == true,\n      'Governance: redeemLockedTokens: LOCKED TOKENS NOT SENT TO USER'\n    );\n    \n    emit LockedTokensRedeemed(voter, lockTokens.tokenAddress, lockTokens.amount);\n  }\n  */\n\n  function getChainId() public pure returns (uint256) {\n    uint256 chainId;\n    assembly {\n      chainId := chainid()\n    }\n    return chainId;\n  }\n\n}\n",
  "sourcePath": "/Users/nemitariajienka/Desktop/projects/populous/Populous-DeFi-governance/contracts/governance/PopulousGovernanceV2.sol",
  "compiler": {
    "name": "solc",
    "version": "0.7.5+commit.eb77ed08.Emscripten.clang"
  },
  "schemaVersion": "3.3.3",
  "updatedAt": "2021-06-04T11:56:26.097Z",
  "networkType": "ethereum",
  "devdoc": {
    "author": "Populous*",
    "details": "Main point of interaction with Populous protocol's governance - Create a Proposal - Cancel a Proposal - Queue a Proposal - Execute a Proposal - Submit Vote to a Proposal Proposal States : Pending => Active => Succeeded(/Failed) => Queued => Executed(/Expired)                   The transition to \"Canceled\" can appear in multiple states",
    "kind": "dev",
    "methods": {
      "__abdicate()": {
        "details": "Let the guardian abdicate from its priviledged rights*"
      },
      "authorizeExecutors(address[])": {
        "details": "Add new addresses to the list of authorized executors",
        "params": {
          "executors": "list of new addresses to be authorized executors*"
        }
      },
      "cancel(uint256)": {
        "details": "Cancels a Proposal. - Callable by the _guardian with relaxed conditions, or by anybody if the conditions of   cancellation on the executor are fulfilled",
        "params": {
          "proposalId": "id of the proposal*"
        }
      },
      "create(address,address[],uint256[],string[],bytes[],bool[],bytes32)": {
        "details": "Creates a Proposal (needs to be validated by the Proposal Validator)",
        "params": {
          "calldatas": "list of calldatas: if associated signature empty, calldata ready, else calldata is arguments",
          "executor": "The ExecutorWithTimelock contract that will execute the proposal",
          "ipfsHash": "IPFS hash of the proposal*",
          "signatures": "list of function signatures (can be empty) to be used when created the callData",
          "targets": "list of contracts called by proposal's associated transactions",
          "values": "list of value in wei for each propoposal's associated transaction",
          "withDelegatecalls": "boolean, true = transaction delegatecalls the taget, else calls the target"
        }
      },
      "execute(uint256)": {
        "details": "Execute the proposal (If Proposal Queued)",
        "params": {
          "proposalId": "id of the proposal to execute*"
        }
      },
      "getGovernanceStrategy()": {
        "details": "Getter of the current GovernanceStrategy address",
        "returns": {
          "_0": "The address of the current GovernanceStrategy contracts*"
        }
      },
      "getGuardian()": {
        "details": "Getter the address of the guardian, that can mainly cancel proposals",
        "returns": {
          "_0": "The address of the guardian*"
        }
      },
      "getLockedTokens(uint256,address)": {
        "details": "Getter function to get tokens locked in proposal for user by proposal id",
        "params": {
          "proposalId": "id of the proposal to get",
          "voter": "address of the voter"
        },
        "returns": {
          "_0": "the amount of tokens locked and token address*"
        }
      },
      "getProposalById(uint256)": {
        "details": "Getter of a proposal by id",
        "params": {
          "proposalId": "id of the proposal to get"
        },
        "returns": {
          "_0": "the proposal as ProposalWithoutVotes memory object*"
        }
      },
      "getProposalState(uint256)": {
        "details": "Get the current state of a proposal",
        "params": {
          "proposalId": "id of the proposal"
        },
        "returns": {
          "_0": "The current state of the proposal*"
        }
      },
      "getProposalsCount()": {
        "details": "Getter of the proposal count (the current number of proposals ever created)",
        "returns": {
          "_0": "the proposal count*"
        }
      },
      "getVoteOnProposal(uint256,address)": {
        "details": "Getter of the Vote of a voter about a proposal Note: Vote is a struct: ({bool support, uint248 votingPower})",
        "params": {
          "proposalId": "id of the proposal",
          "voter": "address of the voter"
        },
        "returns": {
          "_0": "The associated Vote memory object*"
        }
      },
      "getVotingDelay()": {
        "details": "Getter of the current Voting Delay (delay before a created proposal can be voted on) Different from the voting duration",
        "returns": {
          "_0": "The voting delay in number of blocks*"
        }
      },
      "getVotingOutcome(address,uint256,uint256,bool)": {
        "details": "View function allowing msg.sender to view how their voting power could change the outcome of the proposal.  The proposal must be pending or active",
        "params": {
          "proposalId": "id of the proposal",
          "support": "boolean, true = vote for, false = vote against",
          "tokenAddress": "the address of the token to use to vote tokenAddress must be PPT or PXT and user balance of tokenAddress must be greater than zero",
          "tokenAmount": "the amount of tokens to use as voting power"
        },
        "returns": {
          "_0": "votingPower, for votes and against votes*"
        }
      },
      "isExecutorAuthorized(address)": {
        "details": "Returns whether an address is an authorized executor",
        "params": {
          "executor": "address to evaluate as authorized executor"
        },
        "returns": {
          "_0": "true if authorized*"
        }
      },
      "owner()": {
        "details": "Returns the address of the current owner."
      },
      "queue(uint256)": {
        "details": "Queue the proposal (If Proposal Succeeded)",
        "params": {
          "proposalId": "id of the proposal to queue*"
        }
      },
      "renounceOwnership()": {
        "details": "Leaves the contract without owner. It will not be possible to call `onlyOwner` functions anymore. Can only be called by the current owner. NOTE: Renouncing ownership will leave the contract without an owner, thereby removing any functionality that is only available to the owner."
      },
      "setGovernanceStrategy(address)": {
        "details": "Set new GovernanceStrategy Note: owner should be a timelocked executor, so needs to make a proposal",
        "params": {
          "governanceStrategy": "new Address of the GovernanceStrategy contract*"
        }
      },
      "setVotingDelay(uint256)": {
        "details": "Set new Voting Delay (delay before a newly created proposal can be voted on) Note: owner should be a timelocked executor, so needs to make a proposal",
        "params": {
          "votingDelay": "new voting delay in terms of blocks*"
        }
      },
      "submitVote(address,uint256,uint256,bool)": {
        "details": "Function allowing msg.sender to vote for/against a proposal",
        "params": {
          "proposalId": "id of the proposal",
          "support": "boolean, true = vote for, false = vote against*",
          "tokenAddress": "the address of the token to use to vote tokenAddress must be PPT or PXT and user balance of tokenAddress must be greater than zero",
          "tokenAmount": "the amount of tokens to use as voting power"
        }
      },
      "submitVoteBySignature(address,uint256,uint256,bool,uint8,bytes32,bytes32)": {
        "details": "Function to register the vote of user that has voted offchain via signature",
        "params": {
          "proposalId": "id of the proposal",
          "r": "r part of the voter signature",
          "s": "s part of the voter signature*",
          "support": "boolean, true = vote for, false = vote against",
          "tokenAddress": "the address of the token to use to vote tokenAddress must be PPT or PXT and user balance of tokenAddress must be greater than zero",
          "tokenAmount": "the amount of tokens to use as voting power",
          "v": "v part of the voter signature"
        }
      },
      "transferOwnership(address)": {
        "details": "Transfers ownership of the contract to a new account (`newOwner`). Can only be called by the current owner."
      },
      "unauthorizeExecutors(address[])": {
        "details": "Remove addresses to the list of authorized executors",
        "params": {
          "executors": "list of addresses to be removed as authorized executors*"
        }
      }
    },
    "title": "Governance V2 contract",
    "version": 1
  },
  "userdoc": {
    "kind": "user",
    "methods": {
      "getChainId()": {
        "notice": "dev Function to redeem tokens locked in proposal for user by proposal id param proposalId id of the proposal to get** function redeemLockedTokens( uint256 proposalId ) external override { require( getProposalState(proposalId) != ProposalState.Pending && getProposalState(proposalId) != ProposalState.Active,  'Governance: getVotingOutcome: VOTING_OPEN' ); address voter = _msgSender(); uint256 votingPower = IVotingStrategy(_proposals[proposalId].strategy).getVotingPower( voter     ); LockedTokens memory lockTokens = getLockedTokens(proposalId, voter); require(lockTokens.amount > 0, \"Governance:redeemLockedTokens: user has no locked tokens\"); Proposal storage proposal = _proposals[proposalId]; proposal.lockedTokens[voter].amount = 0; MockVotingToken voteToken = MockVotingToken(_votingToken); uint248 voteOnProposal = getVoteOnProposal(proposalId, voter).votingPower; require(votingPower >= voteOnProposal, 'Governance: redeemLockedTokens: VOTING POWER MUST BE ABOVE or EQUAL TO VOTE ON PROPOSAL'); IERC20Detailed userToken = IERC20Detailed(lockTokens.tokenAddress); require( voteToken.burn(voter, voteOnProposal) == true, 'Governance: redeemLockedTokens: VOTE TOKENS NOT BURNT' ); require( userToken.transfer(voter, lockTokens.amount) == true, 'Governance: redeemLockedTokens: LOCKED TOKENS NOT SENT TO USER' ); emit LockedTokensRedeemed(voter, lockTokens.tokenAddress, lockTokens.amount); }"
      }
    },
    "version": 1
  }
}