{
  "contractName": "PopulousGovernanceV2",
  "abi": [
    {
      "inputs": [
        {
          "internalType": "address",
          "name": "governanceStrategy",
          "type": "address"
        },
        {
          "internalType": "uint256",
          "name": "votingDelay",
          "type": "uint256"
        },
        {
          "internalType": "address",
          "name": "guardian",
          "type": "address"
        },
        {
          "internalType": "address[]",
          "name": "executors",
          "type": "address[]"
        }
      ],
      "stateMutability": "nonpayable",
      "type": "constructor"
    },
    {
      "anonymous": false,
      "inputs": [
        {
          "indexed": false,
          "internalType": "address",
          "name": "executor",
          "type": "address"
        }
      ],
      "name": "ExecutorAuthorized",
      "type": "event"
    },
    {
      "anonymous": false,
      "inputs": [
        {
          "indexed": false,
          "internalType": "address",
          "name": "executor",
          "type": "address"
        }
      ],
      "name": "ExecutorUnauthorized",
      "type": "event"
    },
    {
      "anonymous": false,
      "inputs": [
        {
          "indexed": true,
          "internalType": "address",
          "name": "newStrategy",
          "type": "address"
        },
        {
          "indexed": true,
          "internalType": "address",
          "name": "initiatorChange",
          "type": "address"
        }
      ],
      "name": "GovernanceStrategyChanged",
      "type": "event"
    },
    {
      "anonymous": false,
      "inputs": [
        {
          "indexed": true,
          "internalType": "address",
          "name": "previousOwner",
          "type": "address"
        },
        {
          "indexed": true,
          "internalType": "address",
          "name": "newOwner",
          "type": "address"
        }
      ],
      "name": "OwnershipTransferred",
      "type": "event"
    },
    {
      "anonymous": false,
      "inputs": [
        {
          "indexed": false,
          "internalType": "uint256",
          "name": "id",
          "type": "uint256"
        }
      ],
      "name": "ProposalCanceled",
      "type": "event"
    },
    {
      "anonymous": false,
      "inputs": [
        {
          "indexed": false,
          "internalType": "uint256",
          "name": "id",
          "type": "uint256"
        },
        {
          "indexed": true,
          "internalType": "address",
          "name": "creator",
          "type": "address"
        },
        {
          "indexed": true,
          "internalType": "contract IExecutorWithTimelock",
          "name": "executor",
          "type": "address"
        },
        {
          "indexed": false,
          "internalType": "address[]",
          "name": "targets",
          "type": "address[]"
        },
        {
          "indexed": false,
          "internalType": "uint256[]",
          "name": "values",
          "type": "uint256[]"
        },
        {
          "indexed": false,
          "internalType": "string[]",
          "name": "signatures",
          "type": "string[]"
        },
        {
          "indexed": false,
          "internalType": "bytes[]",
          "name": "calldatas",
          "type": "bytes[]"
        },
        {
          "indexed": false,
          "internalType": "bool[]",
          "name": "withDelegatecalls",
          "type": "bool[]"
        },
        {
          "indexed": false,
          "internalType": "uint256",
          "name": "startBlock",
          "type": "uint256"
        },
        {
          "indexed": false,
          "internalType": "uint256",
          "name": "endBlock",
          "type": "uint256"
        },
        {
          "indexed": false,
          "internalType": "address",
          "name": "strategy",
          "type": "address"
        },
        {
          "indexed": false,
          "internalType": "bytes32",
          "name": "ipfsHash",
          "type": "bytes32"
        }
      ],
      "name": "ProposalCreated",
      "type": "event"
    },
    {
      "anonymous": false,
      "inputs": [
        {
          "indexed": false,
          "internalType": "uint256",
          "name": "id",
          "type": "uint256"
        },
        {
          "indexed": true,
          "internalType": "address",
          "name": "initiatorExecution",
          "type": "address"
        }
      ],
      "name": "ProposalExecuted",
      "type": "event"
    },
    {
      "anonymous": false,
      "inputs": [
        {
          "indexed": false,
          "internalType": "uint256",
          "name": "id",
          "type": "uint256"
        },
        {
          "indexed": false,
          "internalType": "uint256",
          "name": "executionTime",
          "type": "uint256"
        },
        {
          "indexed": true,
          "internalType": "address",
          "name": "initiatorQueueing",
          "type": "address"
        }
      ],
      "name": "ProposalQueued",
      "type": "event"
    },
    {
      "anonymous": false,
      "inputs": [
        {
          "indexed": false,
          "internalType": "uint256",
          "name": "id",
          "type": "uint256"
        },
        {
          "indexed": true,
          "internalType": "address",
          "name": "voter",
          "type": "address"
        },
        {
          "indexed": false,
          "internalType": "bool",
          "name": "support",
          "type": "bool"
        },
        {
          "indexed": false,
          "internalType": "uint256",
          "name": "votingPower",
          "type": "uint256"
        }
      ],
      "name": "VoteEmitted",
      "type": "event"
    },
    {
      "anonymous": false,
      "inputs": [
        {
          "indexed": false,
          "internalType": "uint256",
          "name": "newVotingDelay",
          "type": "uint256"
        },
        {
          "indexed": true,
          "internalType": "address",
          "name": "initiatorChange",
          "type": "address"
        }
      ],
      "name": "VotingDelayChanged",
      "type": "event"
    },
    {
      "inputs": [],
      "name": "DOMAIN_TYPEHASH",
      "outputs": [
        {
          "internalType": "bytes32",
          "name": "",
          "type": "bytes32"
        }
      ],
      "stateMutability": "view",
      "type": "function",
      "constant": true
    },
    {
      "inputs": [],
      "name": "NAME",
      "outputs": [
        {
          "internalType": "string",
          "name": "",
          "type": "string"
        }
      ],
      "stateMutability": "view",
      "type": "function",
      "constant": true
    },
    {
      "inputs": [],
      "name": "VOTE_EMITTED_TYPEHASH",
      "outputs": [
        {
          "internalType": "bytes32",
          "name": "",
          "type": "bytes32"
        }
      ],
      "stateMutability": "view",
      "type": "function",
      "constant": true
    },
    {
      "inputs": [],
      "name": "owner",
      "outputs": [
        {
          "internalType": "address",
          "name": "",
          "type": "address"
        }
      ],
      "stateMutability": "view",
      "type": "function",
      "constant": true
    },
    {
      "inputs": [],
      "name": "renounceOwnership",
      "outputs": [],
      "stateMutability": "nonpayable",
      "type": "function"
    },
    {
      "inputs": [
        {
          "internalType": "address",
          "name": "newOwner",
          "type": "address"
        }
      ],
      "name": "transferOwnership",
      "outputs": [],
      "stateMutability": "nonpayable",
      "type": "function"
    },
    {
      "inputs": [
        {
          "internalType": "contract IExecutorWithTimelock",
          "name": "executor",
          "type": "address"
        },
        {
          "internalType": "address[]",
          "name": "targets",
          "type": "address[]"
        },
        {
          "internalType": "uint256[]",
          "name": "values",
          "type": "uint256[]"
        },
        {
          "internalType": "string[]",
          "name": "signatures",
          "type": "string[]"
        },
        {
          "internalType": "bytes[]",
          "name": "calldatas",
          "type": "bytes[]"
        },
        {
          "internalType": "bool[]",
          "name": "withDelegatecalls",
          "type": "bool[]"
        },
        {
          "internalType": "bytes32",
          "name": "ipfsHash",
          "type": "bytes32"
        }
      ],
      "name": "create",
      "outputs": [
        {
          "internalType": "uint256",
          "name": "",
          "type": "uint256"
        }
      ],
      "stateMutability": "nonpayable",
      "type": "function"
    },
    {
      "inputs": [
        {
          "internalType": "uint256",
          "name": "proposalId",
          "type": "uint256"
        }
      ],
      "name": "cancel",
      "outputs": [],
      "stateMutability": "nonpayable",
      "type": "function"
    },
    {
      "inputs": [
        {
          "internalType": "uint256",
          "name": "proposalId",
          "type": "uint256"
        }
      ],
      "name": "queue",
      "outputs": [],
      "stateMutability": "nonpayable",
      "type": "function"
    },
    {
      "inputs": [
        {
          "internalType": "uint256",
          "name": "proposalId",
          "type": "uint256"
        }
      ],
      "name": "execute",
      "outputs": [],
      "stateMutability": "payable",
      "type": "function",
      "payable": true
    },
    {
      "inputs": [
        {
          "internalType": "uint256",
          "name": "proposalId",
          "type": "uint256"
        },
        {
          "internalType": "bool",
          "name": "support",
          "type": "bool"
        }
      ],
      "name": "submitVote",
      "outputs": [],
      "stateMutability": "nonpayable",
      "type": "function"
    },
    {
      "inputs": [
        {
          "internalType": "uint256",
          "name": "proposalId",
          "type": "uint256"
        },
        {
          "internalType": "bool",
          "name": "support",
          "type": "bool"
        },
        {
          "internalType": "uint8",
          "name": "v",
          "type": "uint8"
        },
        {
          "internalType": "bytes32",
          "name": "r",
          "type": "bytes32"
        },
        {
          "internalType": "bytes32",
          "name": "s",
          "type": "bytes32"
        }
      ],
      "name": "submitVoteBySignature",
      "outputs": [],
      "stateMutability": "nonpayable",
      "type": "function"
    },
    {
      "inputs": [
        {
          "internalType": "address",
          "name": "governanceStrategy",
          "type": "address"
        }
      ],
      "name": "setGovernanceStrategy",
      "outputs": [],
      "stateMutability": "nonpayable",
      "type": "function"
    },
    {
      "inputs": [
        {
          "internalType": "uint256",
          "name": "votingDelay",
          "type": "uint256"
        }
      ],
      "name": "setVotingDelay",
      "outputs": [],
      "stateMutability": "nonpayable",
      "type": "function"
    },
    {
      "inputs": [
        {
          "internalType": "address[]",
          "name": "executors",
          "type": "address[]"
        }
      ],
      "name": "authorizeExecutors",
      "outputs": [],
      "stateMutability": "nonpayable",
      "type": "function"
    },
    {
      "inputs": [
        {
          "internalType": "address[]",
          "name": "executors",
          "type": "address[]"
        }
      ],
      "name": "unauthorizeExecutors",
      "outputs": [],
      "stateMutability": "nonpayable",
      "type": "function"
    },
    {
      "inputs": [],
      "name": "__abdicate",
      "outputs": [],
      "stateMutability": "nonpayable",
      "type": "function"
    },
    {
      "inputs": [],
      "name": "getGovernanceStrategy",
      "outputs": [
        {
          "internalType": "address",
          "name": "",
          "type": "address"
        }
      ],
      "stateMutability": "view",
      "type": "function",
      "constant": true
    },
    {
      "inputs": [],
      "name": "getVotingDelay",
      "outputs": [
        {
          "internalType": "uint256",
          "name": "",
          "type": "uint256"
        }
      ],
      "stateMutability": "view",
      "type": "function",
      "constant": true
    },
    {
      "inputs": [
        {
          "internalType": "address",
          "name": "executor",
          "type": "address"
        }
      ],
      "name": "isExecutorAuthorized",
      "outputs": [
        {
          "internalType": "bool",
          "name": "",
          "type": "bool"
        }
      ],
      "stateMutability": "view",
      "type": "function",
      "constant": true
    },
    {
      "inputs": [],
      "name": "getGuardian",
      "outputs": [
        {
          "internalType": "address",
          "name": "",
          "type": "address"
        }
      ],
      "stateMutability": "view",
      "type": "function",
      "constant": true
    },
    {
      "inputs": [],
      "name": "getProposalsCount",
      "outputs": [
        {
          "internalType": "uint256",
          "name": "",
          "type": "uint256"
        }
      ],
      "stateMutability": "view",
      "type": "function",
      "constant": true
    },
    {
      "inputs": [
        {
          "internalType": "uint256",
          "name": "proposalId",
          "type": "uint256"
        }
      ],
      "name": "getProposalById",
      "outputs": [
        {
          "components": [
            {
              "internalType": "uint256",
              "name": "id",
              "type": "uint256"
            },
            {
              "internalType": "address",
              "name": "creator",
              "type": "address"
            },
            {
              "internalType": "contract IExecutorWithTimelock",
              "name": "executor",
              "type": "address"
            },
            {
              "internalType": "address[]",
              "name": "targets",
              "type": "address[]"
            },
            {
              "internalType": "uint256[]",
              "name": "values",
              "type": "uint256[]"
            },
            {
              "internalType": "string[]",
              "name": "signatures",
              "type": "string[]"
            },
            {
              "internalType": "bytes[]",
              "name": "calldatas",
              "type": "bytes[]"
            },
            {
              "internalType": "bool[]",
              "name": "withDelegatecalls",
              "type": "bool[]"
            },
            {
              "internalType": "uint256",
              "name": "startBlock",
              "type": "uint256"
            },
            {
              "internalType": "uint256",
              "name": "endBlock",
              "type": "uint256"
            },
            {
              "internalType": "uint256",
              "name": "executionTime",
              "type": "uint256"
            },
            {
              "internalType": "uint256",
              "name": "forVotes",
              "type": "uint256"
            },
            {
              "internalType": "uint256",
              "name": "againstVotes",
              "type": "uint256"
            },
            {
              "internalType": "bool",
              "name": "executed",
              "type": "bool"
            },
            {
              "internalType": "bool",
              "name": "canceled",
              "type": "bool"
            },
            {
              "internalType": "address",
              "name": "strategy",
              "type": "address"
            },
            {
              "internalType": "bytes32",
              "name": "ipfsHash",
              "type": "bytes32"
            }
          ],
          "internalType": "struct IPopulousGovernanceV2.ProposalWithoutVotes",
          "name": "",
          "type": "tuple"
        }
      ],
      "stateMutability": "view",
      "type": "function",
      "constant": true
    },
    {
      "inputs": [
        {
          "internalType": "uint256",
          "name": "proposalId",
          "type": "uint256"
        },
        {
          "internalType": "address",
          "name": "voter",
          "type": "address"
        }
      ],
      "name": "getVoteOnProposal",
      "outputs": [
        {
          "components": [
            {
              "internalType": "bool",
              "name": "support",
              "type": "bool"
            },
            {
              "internalType": "uint248",
              "name": "votingPower",
              "type": "uint248"
            }
          ],
          "internalType": "struct IPopulousGovernanceV2.Vote",
          "name": "",
          "type": "tuple"
        }
      ],
      "stateMutability": "view",
      "type": "function",
      "constant": true
    },
    {
      "inputs": [
        {
          "internalType": "uint256",
          "name": "proposalId",
          "type": "uint256"
        }
      ],
      "name": "getProposalState",
      "outputs": [
        {
          "internalType": "enum IPopulousGovernanceV2.ProposalState",
          "name": "",
          "type": "uint8"
        }
      ],
      "stateMutability": "view",
      "type": "function",
      "constant": true
    }
  ],
  "bytecode": "0x60806040523480156200001157600080fd5b506040516200361f3803806200361f83398101604081905262000034916200028e565b600062000040620000d0565b600080546001600160a01b0319166001600160a01b0383169081178255604051929350917f8be0079c531659141344cd1fd0a4f28419497f9722a3daafe3b4186f6b6457e0908290a3506200009584620000d4565b620000a08362000121565b600680546001600160a01b0319166001600160a01b038416179055620000c68162000165565b50505050620003b1565b3390565b600180546001600160a01b0319166001600160a01b0383169081179091556040513391907f9e8e9f668db69a2cefb172dabe284d0d3aea2b7ee64212a205bd033bd03a3d5590600090a350565b600281905560405133907fc46fc23e244f0720a98ddbac6efb5bb40d212cf15e6478fc4b3017648715289d906200015a90849062000384565b60405180910390a250565b6200016f620000d0565b6000546001600160a01b03908116911614620001d2576040805162461bcd60e51b815260206004820181905260248201527f4f776e61626c653a2063616c6c6572206973206e6f7420746865206f776e6572604482015290519081900360640190fd5b60005b81518110156200020d5762000204828281518110620001f057fe5b60200260200101516200021160201b60201c565b600101620001d5565b5050565b6001600160a01b03811660009081526005602052604090819020805460ff19166001179055517f52762435f58790076157ea2a4914a5a4d0aa0eb421588891377692f7fd3bc082906200026690839062000370565b60405180910390a150565b80516001600160a01b03811681146200028957600080fd5b919050565b60008060008060808587031215620002a4578384fd5b620002af8562000271565b93506020808601519350620002c76040870162000271565b60608701519093506001600160401b0380821115620002e4578384fd5b818801915088601f830112620002f8578384fd5b8151818111156200030557fe5b8381029150620003178483016200038d565b8181528481019084860184860187018d101562000332578788fd5b8795505b838610156200035f576200034a8162000271565b83526001959095019491860191860162000336565b50989b979a50959850505050505050565b6001600160a01b0391909116815260200190565b90815260200190565b6040518181016001600160401b0381118282101715620003a957fe5b604052919050565b61325e80620003c16000396000f3fe6080604052600436106101665760003560e01c8063760fbc13116100d1578063a3f4df7e1161008a578063ddf0b00911610064578063ddf0b00914610403578063f2fde38b14610423578063f8741a9c14610443578063fe0d94c11461046357610166565b8063a3f4df7e146103ac578063a75b87d2146103ce578063af1e0bd3146103e357610166565b8063760fbc131461030b5780638da5cb5b146103205780639080936f1461033557806398e527d3146103625780639aad6f6a14610377578063a2b170b01461039757610166565b80634185ff83116101235780634185ff831461023c578063548b514e14610269578063612c56fa1461029657806364c786d9146102b657806370b0f660146102d6578063715018a6146102f657610166565b806306be3e8e1461016b5780631a1caf7f1461019657806320606b70146101b857806334b18c26146101da5780633656de21146101ef57806340e58ee51461021c575b600080fd5b34801561017757600080fd5b50610180610476565b60405161018d9190612acc565b60405180910390f35b3480156101a257600080fd5b506101b66101b1366004612670565b610485565b005b3480156101c457600080fd5b506101cd610511565b60405161018d9190612b91565b3480156101e657600080fd5b506101cd610535565b3480156101fb57600080fd5b5061020f61020a366004612838565b610559565b60405161018d9190612ee0565b34801561022857600080fd5b506101b6610237366004612838565b61090a565b34801561024857600080fd5b5061025c610257366004612850565b610be5565b60405161018d919061303a565b34801561027557600080fd5b50610289610284366004612654565b610c3e565b60405161018d9190612b86565b3480156102a257600080fd5b506101b66102b136600461287f565b610c5c565b3480156102c257600080fd5b506101b66102d1366004612670565b610c67565b3480156102e257600080fd5b506101b66102f1366004612838565b610cef565b34801561030257600080fd5b506101b6610d53565b34801561031757600080fd5b506101b6610df5565b34801561032c57600080fd5b50610180610e31565b34801561034157600080fd5b50610355610350366004612838565b610e40565b60405161018d9190612c18565b34801561036e57600080fd5b506101cd611011565b34801561038357600080fd5b506101b6610392366004612654565b611017565b3480156103a357600080fd5b506101cd611078565b3480156103b857600080fd5b506103c161107e565b60405161018d9190612c2c565b3480156103da57600080fd5b506101806110b0565b3480156103ef57600080fd5b506101b66103fe3660046128a3565b6110bf565b34801561040f57600080fd5b506101b661041e366004612838565b611265565b34801561042f57600080fd5b506101b661043e366004612654565b611561565b34801561044f57600080fd5b506101cd61045e366004612752565b611659565b6101b6610471366004612838565b6119e2565b6001546001600160a01b031690565b61048d611be1565b6000546001600160a01b039081169116146104dd576040805162461bcd60e51b81526020600482018190526024820152600080516020613209833981519152604482015290519081900360640190fd5b60005b815181101561050d576105058282815181106104f857fe5b6020026020010151611be5565b6001016104e0565b5050565b7f8cad95687ba82c2ce50e74f7b754645e5117c3a5bec8151c0726d5857980a86681565b7f4e031542a9553ed1c4e810c54674ab4b984243e335b246aa3de73663bf4c11ee81565b61056161209c565b600082815260046020526040902061057761209c565b60408051610220810182528354815260018401546001600160a01b0390811660208084019190915260028601549091168284015260038501805484518184028101840190955280855292936060850193909283018282801561060257602002820191906000526020600020905b81546001600160a01b031681526001909101906020018083116105e4575b505050505081526020018360040180548060200260200160405190810160405280929190818152602001828054801561065a57602002820191906000526020600020905b815481526020019060010190808311610646575b5050505050815260200183600501805480602002602001604051908101604052809291908181526020016000905b828210156107335760008481526020908190208301805460408051601f600260001961010060018716150201909416939093049283018590048502810185019091528181529283018282801561071f5780601f106106f45761010080835404028352916020019161071f565b820191906000526020600020905b81548152906001019060200180831161070257829003601f168201915b505050505081526020019060010190610688565b50505050815260200183600601805480602002602001604051908101604052809291908181526020016000905b8282101561080b5760008481526020908190208301805460408051601f60026000196101006001871615020190941693909304928301859004850281018501909152818152928301828280156107f75780601f106107cc576101008083540402835291602001916107f7565b820191906000526020600020905b8154815290600101906020018083116107da57829003601f168201915b505050505081526020019060010190610760565b5050505081526020018360070180548060200260200160405190810160405280929190818152602001828054801561088257602002820191906000526020600020906000905b825461010083900a900460ff1615158152602060019283018181049485019490930390920291018084116108515790505b50505091835250506008840154602082015260098401546040820152600a8401546060820152600b8401546080820152600c84015460a0820152600d84015460ff808216151560c0840152610100808304909116151560e0840152620100009091046001600160a01b031690820152600e90930154610120909301929092525090505b919050565b600061091582610e40565b9050600781600781111561092557fe5b1415801561093f5750600181600781111561093c57fe5b14155b80156109575750600681600781111561095457fe5b14155b61097c5760405162461bcd60e51b815260040161097390612e56565b60405180910390fd5b60008281526004602052604090206006546001600160a01b0316331480610a2f5750600281015460018201546040516331a7bc4160e01b81526001600160a01b03928316926331a7bc41926109df92309290911690436000190190600401612bf4565b60206040518083038186803b1580156109f757600080fd5b505afa158015610a0b573d6000803e3d6000fd5b505050506040513d601f19601f82011682018060405250810190610a2f91906126ab565b610a4b5760405162461bcd60e51b815260040161097390612e21565b600d8101805461ff00191661010017905560005b6003820154811015610ba85760028201546003830180546001600160a01b0390921691631dc40b51919084908110610a9357fe5b6000918252602090912001546004850180546001600160a01b039092169185908110610abb57fe5b9060005260206000200154856005018581548110610ad557fe5b90600052602060002001866006018681548110610aee57fe5b9060005260206000200187600a0154886007018881548110610b0c57fe5b90600052602060002090602091828204019190069054906101000a900460ff166040518763ffffffff1660e01b8152600401610b4d96959493929190612b4d565b602060405180830381600087803b158015610b6757600080fd5b505af1158015610b7b573d6000803e3d6000fd5b505050506040513d601f19601f82011682018060405250810190610b9f91906126c7565b50600101610a5f565b507f789cf55be980739dad1d0699b93b58e806b51c9d96619bfa8fe0a28abaa7b30c83604051610bd89190612b91565b60405180910390a1505050565b610bed612142565b5060008281526004602090815260408083206001600160a01b0385168452600f0182529182902082518084019093525460ff8116151583526001600160f81b03610100909104169082015292915050565b6001600160a01b031660009081526005602052604090205460ff1690565b61050d338383611c40565b610c6f611be1565b6000546001600160a01b03908116911614610cbf576040805162461bcd60e51b81526020600482018190526024820152600080516020613209833981519152604482015290519081900360640190fd5b60005b815181101561050d57610ce7828281518110610cda57fe5b6020026020010151611dfa565b600101610cc2565b610cf7611be1565b6000546001600160a01b03908116911614610d47576040805162461bcd60e51b81526020600482018190526024820152600080516020613209833981519152604482015290519081900360640190fd5b610d5081611e4d565b50565b610d5b611be1565b6000546001600160a01b03908116911614610dab576040805162461bcd60e51b81526020600482018190526024820152600080516020613209833981519152604482015290519081900360640190fd5b600080546040516001600160a01b03909116907f8be0079c531659141344cd1fd0a4f28419497f9722a3daafe3b4186f6b6457e0908390a3600080546001600160a01b0319169055565b6006546001600160a01b03163314610e1f5760405162461bcd60e51b815260040161097390612dc0565b600680546001600160a01b0319169055565b6000546001600160a01b031690565b6000816003541015610e645760405162461bcd60e51b815260040161097390612e84565b6000828152600460205260409020600d810154610100900460ff1615610e8e576001915050610905565b80600801544311610ea3576000915050610905565b80600901544311610eb8576002915050610905565b60028101546040516306fbb3ab60e01b81526001600160a01b03909116906306fbb3ab90610eec9030908790600401612ae0565b60206040518083038186803b158015610f0457600080fd5b505afa158015610f18573d6000803e3d6000fd5b505050506040513d601f19601f82011682018060405250810190610f3c91906126ab565b610f4a576003915050610905565b600a810154610f5d576004915050610905565b600d81015460ff1615610f74576007915050610905565b600281015460405163f670a5f960e01b81526001600160a01b039091169063f670a5f990610fa89030908790600401612ae0565b60206040518083038186803b158015610fc057600080fd5b505afa158015610fd4573d6000803e3d6000fd5b505050506040513d601f19601f82011682018060405250810190610ff891906126ab565b15611007576006915050610905565b6005915050610905565b60035490565b61101f611be1565b6000546001600160a01b0390811691161461106f576040805162461bcd60e51b81526020600482018190526024820152600080516020613209833981519152604482015290519081900360640190fd5b610d5081611e8f565b60025490565b604051806040016040528060168152602001752837b83ab637bab99023b7bb32b93730b731b2903b1960511b81525081565b6006546001600160a01b031690565b6040805180820190915260168152752837b83ab637bab99023b7bb32b93730b731b2903b1960511b60209091015260007f8cad95687ba82c2ce50e74f7b754645e5117c3a5bec8151c0726d5857980a8667f90d0e97d0675583859de66b0b508c48eebcdbecf06886b4366f8b83acdaff70b611139611edc565b3060405160200161114d9493929190612b9a565b604051602081830303815290604052805190602001207f4e031542a9553ed1c4e810c54674ab4b984243e335b246aa3de73663bf4c11ee878760405160200161119893929190612bbe565b604051602081830303815290604052805190602001206040516020016111bf929190612ab1565b6040516020818303038152906040528051906020012090506000600182868686604051600081526020016040526040516111fc9493929190612bd6565b6020604051602081039080840390855afa15801561121e573d6000803e3d6000fd5b5050604051601f1901519150506001600160a01b0381166112515760405162461bcd60e51b815260040161097390612d2e565b61125c818888611c40565b50505050505050565b600461127082610e40565b600781111561127b57fe5b146112985760405162461bcd60e51b815260040161097390612c9d565b60008181526004602081815260408084206002810154825163675e4d4160e11b8152925191959461132f946001600160a01b039092169363cebc9a829381830193929091829003018186803b1580156112f057600080fd5b505afa158015611304573d6000803e3d6000fd5b505050506040513d601f19601f8201168201806040525081019061132891906126c7565b4290611ee0565b905060005b6003830154811015611518576002830154600384018054611510926001600160a01b031691908490811061136457fe5b6000918252602090912001546004860180546001600160a01b03909216918590811061138c57fe5b90600052602060002001548660050185815481106113a657fe5b600091825260209182902001805460408051601f60026000196101006001871615020190941693909304928301859004850281018501909152818152928301828280156114345780601f1061140957610100808354040283529160200191611434565b820191906000526020600020905b81548152906001019060200180831161141757829003601f168201915b505050505087600601868154811061144857fe5b600091825260209182902001805460408051601f60026000196101006001871615020190941693909304928301859004850281018501909152818152928301828280156114d65780601f106114ab576101008083540402835291602001916114d6565b820191906000526020600020905b8154815290600101906020018083116114b957829003601f168201915b5050505050878960070188815481106114eb57fe5b90600052602060002090602091828204019190069054906101000a900460ff16611f41565b600101611334565b50600a820181905560405133907f11a0b38e70585e4b09b794bd1d9f9b1a51a802eb8ee2101eeee178d0349e73fe906115549086908590613111565b60405180910390a2505050565b611569611be1565b6000546001600160a01b039081169116146115b9576040805162461bcd60e51b81526020600482018190526024820152600080516020613209833981519152604482015290519081900360640190fd5b6001600160a01b0381166115fe5760405162461bcd60e51b81526004018080602001828103825260268152602001806131e36026913960400191505060405180910390fd5b600080546040516001600160a01b03808516939216917f8be0079c531659141344cd1fd0a4f28419497f9722a3daafe3b4186f6b6457e091a3600080546001600160a01b0319166001600160a01b0392909216919091179055565b600086516000141561167d5760405162461bcd60e51b815260040161097390612cff565b8551875114801561168f575084518751145b801561169c575083518751145b80156116a9575082518751145b6116c55760405162461bcd60e51b815260040161097390612dea565b6116ce88610c3e565b6116ea5760405162461bcd60e51b815260040161097390612d89565b604051631a1b205360e31b81526001600160a01b0389169063d0d902989061171e9030903390600019430190600401612bf4565b60206040518083038186803b15801561173657600080fd5b505afa15801561174a573d6000803e3d6000fd5b505050506040513d601f19601f8201168201806040525081019061176e91906126ab565b61178a5760405162461bcd60e51b815260040161097390612c3f565b611792612159565b6002546117a0904390611ee0565b816000018181525050611825896001600160a01b031663a438d2086040518163ffffffff1660e01b815260040160206040518083038186803b1580156117e557600080fd5b505afa1580156117f9573d6000803e3d6000fd5b505050506040513d601f19601f8201168201806040525081019061181d91906126c7565b825190611ee0565b602082810191909152600380546040808501828152600092835260048552912090518155600181018054336001600160a01b0319918216179091556002820180549091166001600160a01b038e161790558a51909261188a92840191908c019061217a565b5087516118a090600483019060208b01906121df565b5086516118b690600583019060208a019061221a565b5085516118cc9060068301906020890190612273565b5084516118e290600783019060208801906122cc565b508160000151816008018190555081602001518160090181905550600160009054906101000a90046001600160a01b031681600d0160026101000a8154816001600160a01b0302191690836001600160a01b031602179055508381600e0181905550600360008154809291906001019190505550896001600160a01b0316336001600160a01b03167fd272d67d2c8c66de43c1d2515abb064978a5020c173e15903b6a2ab3bf7440ec84604001518c8c8c8c8c8a600001518b60200151600160009054906101000a90046001600160a01b03168f6040516119cc9a9998979695949392919061305c565b60405180910390a3549998505050505050505050565b60056119ed82610e40565b60078111156119f857fe5b14611a155760405162461bcd60e51b815260040161097390612eb1565b6000818152600460205260408120600d8101805460ff19166001179055905b6003820154811015611b9b5760028201546004830180546001600160a01b0390921691638902ab65919084908110611a6857fe5b9060005260206000200154846003018481548110611a8257fe5b6000918252602090912001546004860180546001600160a01b039092169186908110611aaa57fe5b9060005260206000200154866005018681548110611ac457fe5b90600052602060002001876006018781548110611add57fe5b9060005260206000200188600a0154896007018981548110611afb57fe5b90600052602060002090602091828204019190069054906101000a900460ff166040518863ffffffff1660e01b8152600401611b3c96959493929190612b4d565b6000604051808303818588803b158015611b5557600080fd5b505af1158015611b69573d6000803e3d6000fd5b50505050506040513d6000823e601f3d908101601f19168201604052611b9291908101906126df565b50600101611a34565b50336001600160a01b03167f9c85b616f29fca57a17eafe71cf9ff82ffef41766e2cf01ea7f8f7878dd3ec2483604051611bd59190612b91565b60405180910390a25050565b3390565b6001600160a01b03811660009081526005602052604090819020805460ff19169055517f5e8105a2af24345971359d2289f43efa80d093f4a7123561b8d63836b98724f490611c35908390612acc565b60405180910390a150565b6002611c4b83610e40565b6007811115611c5657fe5b14611c735760405162461bcd60e51b815260040161097390612c76565b60008281526004602090815260408083206001600160a01b0387168452600f8101909252909120805461010090046001600160f81b031615611cc75760405162461bcd60e51b815260040161097390612d59565b600d820154600883015460405163eaeded5f60e01b81526000926201000090046001600160a01b03169163eaeded5f91611d05918a91600401612ae0565b60206040518083038186803b158015611d1d57600080fd5b505afa158015611d31573d6000803e3d6000fd5b505050506040513d601f19601f82011682018060405250810190611d5591906126c7565b90508315611d7657600b830154611d6c9082611ee0565b600b840155611d8b565b600c830154611d859082611ee0565b600c8401555b815460ff60ff1990911685151517166101006001600160f81b038316021782556040516001600160a01b038716907f0c611e7b6ae0de26f4772260e1bbdb5f58cbb7c275fe2de14671968d29add8d690611dea908890889086906130fb565b60405180910390a2505050505050565b6001600160a01b03811660009081526005602052604090819020805460ff19166001179055517f52762435f58790076157ea2a4914a5a4d0aa0eb421588891377692f7fd3bc08290611c35908390612acc565b600281905560405133907fc46fc23e244f0720a98ddbac6efb5bb40d212cf15e6478fc4b3017648715289d90611e84908490612b91565b60405180910390a250565b600180546001600160a01b0319166001600160a01b0383169081179091556040513391907f9e8e9f668db69a2cefb172dabe284d0d3aea2b7ee64212a205bd033bd03a3d5590600090a350565b4690565b600082820183811015611f3a576040805162461bcd60e51b815260206004820152601b60248201527f536166654d6174683a206164646974696f6e206f766572666c6f770000000000604482015290519081900360640190fd5b9392505050565b866001600160a01b031663b1fc8796878787878787604051602001611f6b96959493929190612af9565b604051602081830303815290604052805190602001206040518263ffffffff1660e01b8152600401611f9d9190612b91565b60206040518083038186803b158015611fb557600080fd5b505afa158015611fc9573d6000803e3d6000fd5b505050506040513d601f19601f82011682018060405250810190611fed91906126ab565b1561200a5760405162461bcd60e51b815260040161097390612cd4565b604051638d8fe2e360e01b81526001600160a01b03881690638d8fe2e39061204090899089908990899089908990600401612af9565b602060405180830381600087803b15801561205a57600080fd5b505af115801561206e573d6000803e3d6000fd5b505050506040513d601f19601f8201168201806040525081019061209291906126c7565b5050505050505050565b6040518061022001604052806000815260200160006001600160a01b0316815260200160006001600160a01b031681526020016060815260200160608152602001606081526020016060815260200160608152602001600081526020016000815260200160008152602001600081526020016000815260200160001515815260200160001515815260200160006001600160a01b03168152602001600080191681525090565b604080518082019091526000808252602082015290565b60405180606001604052806000815260200160008152602001600081525090565b8280548282559060005260206000209081019282156121cf579160200282015b828111156121cf57825182546001600160a01b0319166001600160a01b0390911617825560209092019160019091019061219a565b506121db929150612368565b5090565b8280548282559060005260206000209081019282156121cf579160200282015b828111156121cf5782518255916020019190600101906121ff565b828054828255906000526020600020908101928215612267579160200282015b82811115612267578251805161225791849160209091019061237d565b509160200191906001019061223a565b506121db9291506123f8565b8280548282559060005260206000209081019282156122c0579160200282015b828111156122c057825180516122b091849160209091019061237d565b5091602001919060010190612293565b506121db929150612415565b82805482825590600052602060002090601f016020900481019282156121cf5791602002820160005b8382111561233257835183826101000a81548160ff02191690831515021790555092602001926001016020816000010492830192600103026122f5565b801561235f5782816101000a81549060ff0219169055600101602081600001049283019260010302612332565b50506121db9291505b5b808211156121db5760008155600101612369565b828054600181600116156101000203166002900490600052602060002090601f0160209004810192826123b357600085556121cf565b82601f106123cc57805160ff19168380011785556121cf565b828001600101855582156121cf57918201828111156121cf5782518255916020019190600101906121ff565b808211156121db57600061240c8282612432565b506001016123f8565b808211156121db5760006124298282612432565b50600101612415565b50805460018160011615610100020316600290046000825580601f106124585750610d50565b601f016020900490600052602060002090810190610d509190612368565b600082601f830112612486578081fd5b813561249961249482613143565b61311f565b8181529150602080830190848101818402860182018710156124ba57600080fd5b60005b848110156124e25781356124d0816131bf565b845292820192908201906001016124bd565b505050505092915050565b600082601f8301126124fd578081fd5b813561250b61249482613143565b81815291506020808301908481018184028601820187101561252c57600080fd5b60005b848110156124e2578135612542816131d4565b8452928201929082019060010161252f565b600082601f830112612564578081fd5b813561257261249482613143565b818152915060208083019084810160005b848110156124e2578135870188603f82011261259e57600080fd5b838101356125ae61249482613161565b81815260408b818486010111156125c457600080fd5b82818501888401375060009181018601919091528552509282019290820190600101612583565b600082601f8301126125fb578081fd5b813561260961249482613143565b81815291506020808301908481018184028601820187101561262a57600080fd5b60005b848110156124e25781358452928201929082019060010161262d565b8035610905816131bf565b600060208284031215612665578081fd5b8135611f3a816131bf565b600060208284031215612681578081fd5b813567ffffffffffffffff811115612697578182fd5b6126a384828501612476565b949350505050565b6000602082840312156126bc578081fd5b8151611f3a816131d4565b6000602082840312156126d8578081fd5b5051919050565b6000602082840312156126f0578081fd5b815167ffffffffffffffff811115612706578182fd5b8201601f81018413612716578182fd5b805161272461249482613161565b818152856020838501011115612738578384fd5b61274982602083016020860161318f565b95945050505050565b600080600080600080600060e0888a03121561276c578283fd5b61277588612649565b9650602088013567ffffffffffffffff80821115612791578485fd5b61279d8b838c01612476565b975060408a01359150808211156127b2578485fd5b6127be8b838c016125eb565b965060608a01359150808211156127d3578485fd5b6127df8b838c01612554565b955060808a01359150808211156127f4578485fd5b6128008b838c01612554565b945060a08a0135915080821115612815578384fd5b506128228a828b016124ed565b92505060c0880135905092959891949750929550565b600060208284031215612849578081fd5b5035919050565b60008060408385031215612862578182fd5b823591506020830135612874816131bf565b809150509250929050565b60008060408385031215612891578182fd5b823591506020830135612874816131d4565b600080600080600060a086880312156128ba578283fd5b8535945060208601356128cc816131d4565b9350604086013560ff811681146128e1578384fd5b94979396509394606081013594506080013592915050565b6001600160a01b03169052565b6000815180845260208085019450808401835b8381101561293e5781516001600160a01b031687529582019590820190600101612919565b509495945050505050565b6000815180845260208085019450808401835b8381101561293e57815115158752958201959082019060010161295c565b6000815180845260208085018081965082840281019150828601855b858110156129c05782840389526129ae848351612a02565b98850198935090840190600101612996565b5091979650505050505050565b6000815180845260208085019450808401835b8381101561293e578151875295820195908201906001016129e0565b15159052565b60008151808452612a1a81602086016020860161318f565b601f01601f19169290920160200192915050565b60008154600180821660008114612a4c5760018114612a6a57612aa8565b60028304607f16865260ff1983166020870152604086019350612aa8565b60028304808752612a7a86613183565b60005b82811015612a9e5781546020828b0101528482019150602081019050612a7d565b8801602001955050505b50505092915050565b61190160f01b81526002810192909252602282015260420190565b6001600160a01b0391909116815260200190565b6001600160a01b03929092168252602082015260400190565b600060018060a01b038816825286602083015260c06040830152612b2060c0830187612a02565b8281036060840152612b328187612a02565b6080840195909552505090151560a090910152949350505050565b600060018060a01b038816825286602083015260c06040830152612b7460c0830187612a2e565b8281036060840152612b328187612a2e565b901515815260200190565b90815260200190565b938452602084019290925260408301526001600160a01b0316606082015260800190565b92835260208301919091521515604082015260600190565b93845260ff9290921660208401526040830152606082015260800190565b6001600160a01b039384168152919092166020820152604081019190915260600190565b6020810160088310612c2657fe5b91905290565b600060208252611f3a6020830184612a02565b6020808252601c908201527f50524f504f534954494f4e5f4352454154494f4e5f494e56414c494400000000604082015260600190565b6020808252600d908201526c1593d5125391d7d0d313d4d151609a1b604082015260600190565b60208082526017908201527f494e56414c49445f53544154455f464f525f5155455545000000000000000000604082015260600190565b602080825260119082015270222aa82624a1a0aa22a22fa0a1aa24a7a760791b604082015260600190565b602080825260159082015274494e56414c49445f454d5054595f5441524745545360581b604082015260600190565b602080825260119082015270494e56414c49445f5349474e415455524560781b604082015260600190565b6020808252601690820152751593d51157d053149150511657d4d55093525515115160521b604082015260600190565b60208082526017908201527f4558454355544f525f4e4f545f415554484f52495a4544000000000000000000604082015260600190565b60208082526010908201526f27a7262cafa12cafa3aaa0a92224a0a760811b604082015260600190565b6020808252601a908201527f494e434f4e53495354454e545f504152414d535f4c454e475448000000000000604082015260600190565b6020808252818101527f50524f504f534954494f4e5f43414e43454c4c4154494f4e5f494e56414c4944604082015260600190565b60208082526014908201527313d3931657d0915193d49157d1561150d555115160621b604082015260600190565b6020808252601390820152721253959053125117d41493d413d4d05317d251606a1b604082015260600190565b6020808252601590820152744f4e4c595f5155455545445f50524f504f53414c5360581b604082015260600190565b600060208252825160208301526020830151612eff60408401826128f9565b506040830151612f1260608401826128f9565b506060830151610220806080850152612f2f610240850183612906565b91506080850151601f19808685030160a0870152612f4d84836129cd565b935060a08701519150808685030160c0870152612f6a848361297a565b935060c08701519150808685030160e0870152612f87848361297a565b935060e08701519150610100818786030181880152612fa68584612949565b90880151610120888101919091528801516101408089019190915288015161016080890191909152880151610180808901919091528801516101a08089019190915288015190945091506101c09050613001818701836129fc565b86015190506101e0613015868201836129fc565b8601519050610200613029868201836128f9565b959095015193019290925250919050565b8151151581526020918201516001600160f81b03169181019190915260400190565b60006101408c83528060208401526130768184018d612906565b9050828103604084015261308a818c6129cd565b9050828103606084015261309e818b61297a565b905082810360808401526130b2818a61297a565b905082810360a08401526130c68189612949565b60c0840197909752505060e08101939093526001600160a01b0391909116610100830152610120909101529695505050505050565b9283529015156020830152604082015260600190565b918252602082015260400190565b60405181810167ffffffffffffffff8111828210171561313b57fe5b604052919050565b600067ffffffffffffffff82111561315757fe5b5060209081020190565b600067ffffffffffffffff82111561317557fe5b50601f01601f191660200190565b60009081526020902090565b60005b838110156131aa578181015183820152602001613192565b838111156131b9576000848401525b50505050565b6001600160a01b0381168114610d5057600080fd5b8015158114610d5057600080fdfe4f776e61626c653a206e6577206f776e657220697320746865207a65726f20616464726573734f776e61626c653a2063616c6c6572206973206e6f7420746865206f776e6572a26469706673582212206fa2c8010796b5bcdfbcd4a02f4a2bcd05231791207ca9d46382b475d7101b6764736f6c63430007050033",
  "immutableReferences": {},
  "source": "// SPDX-License-Identifier: agpl-3.0\npragma solidity 0.7.5;\npragma abicoder v2;\n\nimport {IVotingStrategy} from '../interfaces/IVotingStrategy.sol';\nimport {IExecutorWithTimelock} from '../interfaces/IExecutorWithTimelock.sol';\nimport {IProposalValidator} from '../interfaces/IProposalValidator.sol';\nimport {IGovernanceStrategy} from '../interfaces/IGovernanceStrategy.sol';\nimport {IPopulousGovernanceV2} from '../interfaces/IPopulousGovernanceV2.sol';\nimport {Ownable} from '../dependencies/open-zeppelin/Ownable.sol';\nimport {SafeMath} from '../dependencies/open-zeppelin/SafeMath.sol';\nimport {isContract, getChainId} from '../misc/Helpers.sol';\n\n/**\n * @title Governance V2 contract\n * @dev Main point of interaction with Populous protocol's governance\n * - Create a Proposal\n * - Cancel a Proposal\n * - Queue a Proposal\n * - Execute a Proposal\n * - Submit Vote to a Proposal\n * Proposal States : Pending => Active => Succeeded(/Failed) => Queued => Executed(/Expired)\n *                   The transition to \"Canceled\" can appear in multiple states\n * @author Populous\n **/\ncontract PopulousGovernanceV2 is Ownable, IPopulousGovernanceV2 {\n  using SafeMath for uint256;\n\n  address private _governanceStrategy;\n  uint256 private _votingDelay;\n\n  uint256 private _proposalsCount;\n  mapping(uint256 => Proposal) private _proposals;\n  mapping(address => bool) private _authorizedExecutors;\n\n  address private _guardian;\n\n  bytes32 public constant DOMAIN_TYPEHASH = keccak256(\n    'EIP712Domain(string name,uint256 chainId,address verifyingContract)'\n  );\n  bytes32 public constant VOTE_EMITTED_TYPEHASH = keccak256('VoteEmitted(uint256 id,bool support)');\n  string public constant NAME = 'Populous Governance v2';\n\n  modifier onlyGuardian() {\n    require(msg.sender == _guardian, 'ONLY_BY_GUARDIAN');\n    _;\n  }\n\n  constructor(\n    address governanceStrategy,\n    uint256 votingDelay,\n    address guardian,\n    address[] memory executors\n  ) {\n    _setGovernanceStrategy(governanceStrategy);\n    _setVotingDelay(votingDelay);\n    _guardian = guardian;\n\n    authorizeExecutors(executors);\n  }\n\n  struct CreateVars {\n    uint256 startBlock;\n    uint256 endBlock;\n    uint256 previousProposalsCount;\n  }\n\n  /**\n   * @dev Creates a Proposal (needs to be validated by the Proposal Validator)\n   * @param executor The ExecutorWithTimelock contract that will execute the proposal\n   * @param targets list of contracts called by proposal's associated transactions\n   * @param values list of value in wei for each propoposal's associated transaction\n   * @param signatures list of function signatures (can be empty) to be used when created the callData\n   * @param calldatas list of calldatas: if associated signature empty, calldata ready, else calldata is arguments\n   * @param withDelegatecalls boolean, true = transaction delegatecalls the taget, else calls the target\n   * @param ipfsHash IPFS hash of the proposal\n   **/\n  function create(\n    IExecutorWithTimelock executor,\n    address[] memory targets,\n    uint256[] memory values,\n    string[] memory signatures,\n    bytes[] memory calldatas,\n    bool[] memory withDelegatecalls,\n    bytes32 ipfsHash\n  ) external override returns (uint256) {\n    require(targets.length != 0, 'INVALID_EMPTY_TARGETS');\n    require(\n      targets.length == values.length &&\n        targets.length == signatures.length &&\n        targets.length == calldatas.length &&\n        targets.length == withDelegatecalls.length,\n      'INCONSISTENT_PARAMS_LENGTH'\n    );\n\n    require(isExecutorAuthorized(address(executor)), 'EXECUTOR_NOT_AUTHORIZED');\n\n    require(\n      IProposalValidator(address(executor)).validateCreatorOfProposal(\n        this,\n        msg.sender,\n        block.number - 1\n      ),\n      'PROPOSITION_CREATION_INVALID'\n    );\n\n    CreateVars memory vars;\n\n    vars.startBlock = block.number.add(_votingDelay);\n    vars.endBlock = vars.startBlock.add(IProposalValidator(address(executor)).VOTING_DURATION());\n\n    vars.previousProposalsCount = _proposalsCount;\n\n    Proposal storage newProposal = _proposals[vars.previousProposalsCount];\n    newProposal.id = vars.previousProposalsCount;\n    newProposal.creator = msg.sender;\n    newProposal.executor = executor;\n    newProposal.targets = targets;\n    newProposal.values = values;\n    newProposal.signatures = signatures;\n    newProposal.calldatas = calldatas;\n    newProposal.withDelegatecalls = withDelegatecalls;\n    newProposal.startBlock = vars.startBlock;\n    newProposal.endBlock = vars.endBlock;\n    newProposal.strategy = _governanceStrategy;\n    newProposal.ipfsHash = ipfsHash;\n    _proposalsCount++;\n\n    emit ProposalCreated(\n      vars.previousProposalsCount,\n      msg.sender,\n      executor,\n      targets,\n      values,\n      signatures,\n      calldatas,\n      withDelegatecalls,\n      vars.startBlock,\n      vars.endBlock,\n      _governanceStrategy,\n      ipfsHash\n    );\n\n    return newProposal.id;\n  }\n\n  /**\n   * @dev Cancels a Proposal.\n   * - Callable by the _guardian with relaxed conditions, or by anybody if the conditions of\n   *   cancellation on the executor are fulfilled\n   * @param proposalId id of the proposal\n   **/\n  function cancel(uint256 proposalId) external override {\n    ProposalState state = getProposalState(proposalId);\n    require(\n      state != ProposalState.Executed &&\n        state != ProposalState.Canceled &&\n        state != ProposalState.Expired,\n      'ONLY_BEFORE_EXECUTED'\n    );\n\n    Proposal storage proposal = _proposals[proposalId];\n    require(\n      msg.sender == _guardian ||\n        IProposalValidator(address(proposal.executor)).validateProposalCancellation(\n          this,\n          proposal.creator,\n          block.number - 1\n        ),\n      'PROPOSITION_CANCELLATION_INVALID'\n    );\n    proposal.canceled = true;\n    for (uint256 i = 0; i < proposal.targets.length; i++) {\n      proposal.executor.cancelTransaction(\n        proposal.targets[i],\n        proposal.values[i],\n        proposal.signatures[i],\n        proposal.calldatas[i],\n        proposal.executionTime,\n        proposal.withDelegatecalls[i]\n      );\n    }\n\n    emit ProposalCanceled(proposalId);\n  }\n\n  /**\n   * @dev Queue the proposal (If Proposal Succeeded)\n   * @param proposalId id of the proposal to queue\n   **/\n  function queue(uint256 proposalId) external override {\n    require(getProposalState(proposalId) == ProposalState.Succeeded, 'INVALID_STATE_FOR_QUEUE');\n    Proposal storage proposal = _proposals[proposalId];\n    uint256 executionTime = block.timestamp.add(proposal.executor.getDelay());\n    for (uint256 i = 0; i < proposal.targets.length; i++) {\n      _queueOrRevert(\n        proposal.executor,\n        proposal.targets[i],\n        proposal.values[i],\n        proposal.signatures[i],\n        proposal.calldatas[i],\n        executionTime,\n        proposal.withDelegatecalls[i]\n      );\n    }\n    proposal.executionTime = executionTime;\n\n    emit ProposalQueued(proposalId, executionTime, msg.sender);\n  }\n\n  /**\n   * @dev Execute the proposal (If Proposal Queued)\n   * @param proposalId id of the proposal to execute\n   **/\n  function execute(uint256 proposalId) external payable override {\n    require(getProposalState(proposalId) == ProposalState.Queued, 'ONLY_QUEUED_PROPOSALS');\n    Proposal storage proposal = _proposals[proposalId];\n    proposal.executed = true;\n    for (uint256 i = 0; i < proposal.targets.length; i++) {\n      proposal.executor.executeTransaction{value: proposal.values[i]}(\n        proposal.targets[i],\n        proposal.values[i],\n        proposal.signatures[i],\n        proposal.calldatas[i],\n        proposal.executionTime,\n        proposal.withDelegatecalls[i]\n      );\n    }\n    emit ProposalExecuted(proposalId, msg.sender);\n  }\n\n  /**\n   * @dev Function allowing msg.sender to vote for/against a proposal\n   * @param proposalId id of the proposal\n   * @param support boolean, true = vote for, false = vote against\n   **/\n  function submitVote(uint256 proposalId, bool support) external override {\n    return _submitVote(msg.sender, proposalId, support);\n  }\n\n  /**\n   * @dev Function to register the vote of user that has voted offchain via signature\n   * @param proposalId id of the proposal\n   * @param support boolean, true = vote for, false = vote against\n   * @param v v part of the voter signature\n   * @param r r part of the voter signature\n   * @param s s part of the voter signature\n   **/\n  function submitVoteBySignature(\n    uint256 proposalId,\n    bool support,\n    uint8 v,\n    bytes32 r,\n    bytes32 s\n  ) external override {\n    bytes32 digest = keccak256(\n      abi.encodePacked(\n        '\\x19\\x01',\n        keccak256(abi.encode(DOMAIN_TYPEHASH, keccak256(bytes(NAME)), getChainId(), address(this))),\n        keccak256(abi.encode(VOTE_EMITTED_TYPEHASH, proposalId, support))\n      )\n    );\n    address signer = ecrecover(digest, v, r, s);\n    require(signer != address(0), 'INVALID_SIGNATURE');\n    return _submitVote(signer, proposalId, support);\n  }\n\n  /**\n   * @dev Set new GovernanceStrategy\n   * Note: owner should be a timelocked executor, so needs to make a proposal\n   * @param governanceStrategy new Address of the GovernanceStrategy contract\n   **/\n  function setGovernanceStrategy(address governanceStrategy) external override onlyOwner {\n    _setGovernanceStrategy(governanceStrategy);\n  }\n\n  /**\n   * @dev Set new Voting Delay (delay before a newly created proposal can be voted on)\n   * Note: owner should be a timelocked executor, so needs to make a proposal\n   * @param votingDelay new voting delay in terms of blocks\n   **/\n  function setVotingDelay(uint256 votingDelay) external override onlyOwner {\n    _setVotingDelay(votingDelay);\n  }\n\n  /**\n   * @dev Add new addresses to the list of authorized executors\n   * @param executors list of new addresses to be authorized executors\n   **/\n  function authorizeExecutors(address[] memory executors) public override onlyOwner {\n    for (uint256 i = 0; i < executors.length; i++) {\n      _authorizeExecutor(executors[i]);\n    }\n  }\n\n  /**\n   * @dev Remove addresses to the list of authorized executors\n   * @param executors list of addresses to be removed as authorized executors\n   **/\n  function unauthorizeExecutors(address[] memory executors) public override onlyOwner {\n    for (uint256 i = 0; i < executors.length; i++) {\n      _unauthorizeExecutor(executors[i]);\n    }\n  }\n\n  /**\n   * @dev Let the guardian abdicate from its priviledged rights\n   **/\n  function __abdicate() external override onlyGuardian {\n    _guardian = address(0);\n  }\n\n  /**\n   * @dev Getter of the current GovernanceStrategy address\n   * @return The address of the current GovernanceStrategy contracts\n   **/\n  function getGovernanceStrategy() external view override returns (address) {\n    return _governanceStrategy;\n  }\n\n  /**\n   * @dev Getter of the current Voting Delay (delay before a created proposal can be voted on)\n   * Different from the voting duration\n   * @return The voting delay in number of blocks\n   **/\n  function getVotingDelay() external view override returns (uint256) {\n    return _votingDelay;\n  }\n\n  /**\n   * @dev Returns whether an address is an authorized executor\n   * @param executor address to evaluate as authorized executor\n   * @return true if authorized\n   **/\n  function isExecutorAuthorized(address executor) public view override returns (bool) {\n    return _authorizedExecutors[executor];\n  }\n\n  /**\n   * @dev Getter the address of the guardian, that can mainly cancel proposals\n   * @return The address of the guardian\n   **/\n  function getGuardian() external view override returns (address) {\n    return _guardian;\n  }\n\n  /**\n   * @dev Getter of the proposal count (the current number of proposals ever created)\n   * @return the proposal count\n   **/\n  function getProposalsCount() external view override returns (uint256) {\n    return _proposalsCount;\n  }\n\n  /**\n   * @dev Getter of a proposal by id\n   * @param proposalId id of the proposal to get\n   * @return the proposal as ProposalWithoutVotes memory object\n   **/\n  function getProposalById(uint256 proposalId)\n    external\n    view\n    override\n    returns (ProposalWithoutVotes memory)\n  {\n    Proposal storage proposal = _proposals[proposalId];\n    ProposalWithoutVotes memory proposalWithoutVotes = ProposalWithoutVotes({\n      id: proposal.id,\n      creator: proposal.creator,\n      executor: proposal.executor,\n      targets: proposal.targets,\n      values: proposal.values,\n      signatures: proposal.signatures,\n      calldatas: proposal.calldatas,\n      withDelegatecalls: proposal.withDelegatecalls,\n      startBlock: proposal.startBlock,\n      endBlock: proposal.endBlock,\n      executionTime: proposal.executionTime,\n      forVotes: proposal.forVotes,\n      againstVotes: proposal.againstVotes,\n      executed: proposal.executed,\n      canceled: proposal.canceled,\n      strategy: proposal.strategy,\n      ipfsHash: proposal.ipfsHash\n    });\n\n    return proposalWithoutVotes;\n  }\n\n  /**\n   * @dev Getter of the Vote of a voter about a proposal\n   * Note: Vote is a struct: ({bool support, uint248 votingPower})\n   * @param proposalId id of the proposal\n   * @param voter address of the voter\n   * @return The associated Vote memory object\n   **/\n  function getVoteOnProposal(uint256 proposalId, address voter)\n    external\n    view\n    override\n    returns (Vote memory)\n  {\n    return _proposals[proposalId].votes[voter];\n  }\n\n  /**\n   * @dev Get the current state of a proposal\n   * @param proposalId id of the proposal\n   * @return The current state of the proposal\n   **/\n  function getProposalState(uint256 proposalId) public view override returns (ProposalState) {\n    require(_proposalsCount >= proposalId, 'INVALID_PROPOSAL_ID');\n    Proposal storage proposal = _proposals[proposalId];\n    if (proposal.canceled) {\n      return ProposalState.Canceled;\n    } else if (block.number <= proposal.startBlock) {\n      return ProposalState.Pending;\n    } else if (block.number <= proposal.endBlock) {\n      return ProposalState.Active;\n    } else if (!IProposalValidator(address(proposal.executor)).isProposalPassed(this, proposalId)) {\n      return ProposalState.Failed;\n    } else if (proposal.executionTime == 0) {\n      return ProposalState.Succeeded;\n    } else if (proposal.executed) {\n      return ProposalState.Executed;\n    } else if (proposal.executor.isProposalOverGracePeriod(this, proposalId)) {\n      return ProposalState.Expired;\n    } else {\n      return ProposalState.Queued;\n    }\n  }\n\n  function _queueOrRevert(\n    IExecutorWithTimelock executor,\n    address target,\n    uint256 value,\n    string memory signature,\n    bytes memory callData,\n    uint256 executionTime,\n    bool withDelegatecall\n  ) internal {\n    require(\n      !executor.isActionQueued(\n        keccak256(abi.encode(target, value, signature, callData, executionTime, withDelegatecall))\n      ),\n      'DUPLICATED_ACTION'\n    );\n    executor.queueTransaction(target, value, signature, callData, executionTime, withDelegatecall);\n  }\n\n  function _submitVote(\n    address voter,\n    uint256 proposalId,\n    bool support\n  ) internal {\n    require(getProposalState(proposalId) == ProposalState.Active, 'VOTING_CLOSED');\n    Proposal storage proposal = _proposals[proposalId];\n    Vote storage vote = proposal.votes[voter];\n\n    require(vote.votingPower == 0, 'VOTE_ALREADY_SUBMITTED');\n\n    uint256 votingPower = IVotingStrategy(proposal.strategy).getVotingPowerAt(\n      voter,\n      proposal.startBlock\n    ); \n    \n    if (support) {\n      proposal.forVotes = proposal.forVotes.add(votingPower);\n    } else {\n      proposal.againstVotes = proposal.againstVotes.add(votingPower);\n    }\n\n    vote.support = support;\n    vote.votingPower = uint248(votingPower);\n\n    emit VoteEmitted(proposalId, voter, support, votingPower);\n  }\n\n  function _setGovernanceStrategy(address governanceStrategy) internal {\n    _governanceStrategy = governanceStrategy;\n\n    emit GovernanceStrategyChanged(governanceStrategy, msg.sender);\n  }\n\n  function _setVotingDelay(uint256 votingDelay) internal {\n    _votingDelay = votingDelay;\n\n    emit VotingDelayChanged(votingDelay, msg.sender);\n  }\n\n  function _authorizeExecutor(address executor) internal {\n    _authorizedExecutors[executor] = true;\n    emit ExecutorAuthorized(executor);\n  }\n\n  function _unauthorizeExecutor(address executor) internal {\n    _authorizedExecutors[executor] = false;\n    emit ExecutorUnauthorized(executor);\n  }\n}\n",
  "sourcePath": "/Users/nemitariajienka/Desktop/projects/populous/Populous-DeFi-governance/contracts/governance/PopulousGovernanceV2.sol",
  "compiler": {
    "name": "solc",
    "version": "0.7.5+commit.eb77ed08.Emscripten.clang"
  },
  "schemaVersion": "3.3.3",
  "updatedAt": "2021-04-19T19:49:53.735Z",
  "networkType": "ethereum",
  "devdoc": {
    "author": "Populous*",
    "details": "Main point of interaction with Populous protocol's governance - Create a Proposal - Cancel a Proposal - Queue a Proposal - Execute a Proposal - Submit Vote to a Proposal Proposal States : Pending => Active => Succeeded(/Failed) => Queued => Executed(/Expired)                   The transition to \"Canceled\" can appear in multiple states",
    "kind": "dev",
    "methods": {
      "__abdicate()": {
        "details": "Let the guardian abdicate from its priviledged rights*"
      },
      "authorizeExecutors(address[])": {
        "details": "Add new addresses to the list of authorized executors",
        "params": {
          "executors": "list of new addresses to be authorized executors*"
        }
      },
      "cancel(uint256)": {
        "details": "Cancels a Proposal. - Callable by the _guardian with relaxed conditions, or by anybody if the conditions of   cancellation on the executor are fulfilled",
        "params": {
          "proposalId": "id of the proposal*"
        }
      },
      "create(address,address[],uint256[],string[],bytes[],bool[],bytes32)": {
        "details": "Creates a Proposal (needs to be validated by the Proposal Validator)",
        "params": {
          "calldatas": "list of calldatas: if associated signature empty, calldata ready, else calldata is arguments",
          "executor": "The ExecutorWithTimelock contract that will execute the proposal",
          "ipfsHash": "IPFS hash of the proposal*",
          "signatures": "list of function signatures (can be empty) to be used when created the callData",
          "targets": "list of contracts called by proposal's associated transactions",
          "values": "list of value in wei for each propoposal's associated transaction",
          "withDelegatecalls": "boolean, true = transaction delegatecalls the taget, else calls the target"
        }
      },
      "execute(uint256)": {
        "details": "Execute the proposal (If Proposal Queued)",
        "params": {
          "proposalId": "id of the proposal to execute*"
        }
      },
      "getGovernanceStrategy()": {
        "details": "Getter of the current GovernanceStrategy address",
        "returns": {
          "_0": "The address of the current GovernanceStrategy contracts*"
        }
      },
      "getGuardian()": {
        "details": "Getter the address of the guardian, that can mainly cancel proposals",
        "returns": {
          "_0": "The address of the guardian*"
        }
      },
      "getProposalById(uint256)": {
        "details": "Getter of a proposal by id",
        "params": {
          "proposalId": "id of the proposal to get"
        },
        "returns": {
          "_0": "the proposal as ProposalWithoutVotes memory object*"
        }
      },
      "getProposalState(uint256)": {
        "details": "Get the current state of a proposal",
        "params": {
          "proposalId": "id of the proposal"
        },
        "returns": {
          "_0": "The current state of the proposal*"
        }
      },
      "getProposalsCount()": {
        "details": "Getter of the proposal count (the current number of proposals ever created)",
        "returns": {
          "_0": "the proposal count*"
        }
      },
      "getVoteOnProposal(uint256,address)": {
        "details": "Getter of the Vote of a voter about a proposal Note: Vote is a struct: ({bool support, uint248 votingPower})",
        "params": {
          "proposalId": "id of the proposal",
          "voter": "address of the voter"
        },
        "returns": {
          "_0": "The associated Vote memory object*"
        }
      },
      "getVotingDelay()": {
        "details": "Getter of the current Voting Delay (delay before a created proposal can be voted on) Different from the voting duration",
        "returns": {
          "_0": "The voting delay in number of blocks*"
        }
      },
      "isExecutorAuthorized(address)": {
        "details": "Returns whether an address is an authorized executor",
        "params": {
          "executor": "address to evaluate as authorized executor"
        },
        "returns": {
          "_0": "true if authorized*"
        }
      },
      "owner()": {
        "details": "Returns the address of the current owner."
      },
      "queue(uint256)": {
        "details": "Queue the proposal (If Proposal Succeeded)",
        "params": {
          "proposalId": "id of the proposal to queue*"
        }
      },
      "renounceOwnership()": {
        "details": "Leaves the contract without owner. It will not be possible to call `onlyOwner` functions anymore. Can only be called by the current owner. NOTE: Renouncing ownership will leave the contract without an owner, thereby removing any functionality that is only available to the owner."
      },
      "setGovernanceStrategy(address)": {
        "details": "Set new GovernanceStrategy Note: owner should be a timelocked executor, so needs to make a proposal",
        "params": {
          "governanceStrategy": "new Address of the GovernanceStrategy contract*"
        }
      },
      "setVotingDelay(uint256)": {
        "details": "Set new Voting Delay (delay before a newly created proposal can be voted on) Note: owner should be a timelocked executor, so needs to make a proposal",
        "params": {
          "votingDelay": "new voting delay in terms of blocks*"
        }
      },
      "submitVote(uint256,bool)": {
        "details": "Function allowing msg.sender to vote for/against a proposal",
        "params": {
          "proposalId": "id of the proposal",
          "support": "boolean, true = vote for, false = vote against*"
        }
      },
      "submitVoteBySignature(uint256,bool,uint8,bytes32,bytes32)": {
        "details": "Function to register the vote of user that has voted offchain via signature",
        "params": {
          "proposalId": "id of the proposal",
          "r": "r part of the voter signature",
          "s": "s part of the voter signature*",
          "support": "boolean, true = vote for, false = vote against",
          "v": "v part of the voter signature"
        }
      },
      "transferOwnership(address)": {
        "details": "Transfers ownership of the contract to a new account (`newOwner`). Can only be called by the current owner."
      },
      "unauthorizeExecutors(address[])": {
        "details": "Remove addresses to the list of authorized executors",
        "params": {
          "executors": "list of addresses to be removed as authorized executors*"
        }
      }
    },
    "title": "Governance V2 contract",
    "version": 1
  },
  "userdoc": {
    "kind": "user",
    "methods": {},
    "version": 1
  }
}