{
  "contractName": "PPTWrapper",
  "abi": [
    {
      "inputs": [],
      "name": "pptToken",
      "outputs": [
        {
          "internalType": "address",
          "name": "",
          "type": "address"
        }
      ],
      "stateMutability": "view",
      "type": "function"
    },
    {
      "inputs": [
        {
          "internalType": "uint256",
          "name": "value",
          "type": "uint256"
        }
      ],
      "name": "mint",
      "outputs": [
        {
          "internalType": "bool",
          "name": "",
          "type": "bool"
        }
      ],
      "stateMutability": "nonpayable",
      "type": "function"
    },
    {
      "inputs": [
        {
          "internalType": "uint256",
          "name": "blockNumber",
          "type": "uint256"
        }
      ],
      "name": "totalSupplyAt",
      "outputs": [
        {
          "internalType": "uint256",
          "name": "",
          "type": "uint256"
        }
      ],
      "stateMutability": "view",
      "type": "function"
    },
    {
      "inputs": [
        {
          "internalType": "address",
          "name": "user",
          "type": "address"
        },
        {
          "internalType": "uint256",
          "name": "blockNumber",
          "type": "uint256"
        },
        {
          "internalType": "enum PPTWrapper.DelegationType",
          "name": "delegationType",
          "type": "uint8"
        }
      ],
      "name": "getPowerAtBlock",
      "outputs": [
        {
          "internalType": "uint256",
          "name": "",
          "type": "uint256"
        }
      ],
      "stateMutability": "view",
      "type": "function"
    }
  ],
  "bytecode": "0x6080604052600080546001600160a01b03191673350e7a260b584e24c04ac2ba682fa568d59c782917905534801561003657600080fd5b50610355806100466000396000f3fe608060405234801561001057600080fd5b506004361061004c5760003560e01c80637b5b50e714610051578063981b24d014610075578063a0712d68146100a4578063c2ffbb91146100d5575b600080fd5b61005961010a565b604080516001600160a01b039092168252519081900360200190f35b6100926004803603602081101561008b57600080fd5b5035610119565b60408051918252519081900360200190f35b6100c1600480360360208110156100ba57600080fd5b503561019a565b604080519115158252519081900360200190f35b610092600480360360608110156100eb57600080fd5b5080356001600160a01b0316906020810135906040013560ff1661029d565b6000546001600160a01b031681565b60008060009054906101000a90046001600160a01b03166001600160a01b03166318160ddd6040518163ffffffff1660e01b815260040160206040518083038186803b15801561016857600080fd5b505afa15801561017c573d6000803e3d6000fd5b505050506040513d602081101561019257600080fd5b505192915050565b600080546040805163140e25ad60e31b81526004810185905290516001600160a01b039092169163a0712d689160248082019260209290919082900301818787803b1580156101e857600080fd5b505af11580156101fc573d6000803e3d6000fd5b505050506040513d602081101561021257600080fd5b5050600080546040805163a9059cbb60e01b81523360048201526024810186905290516001600160a01b039092169263a9059cbb926044808401936020939083900390910190829087803b15801561026957600080fd5b505af115801561027d573d6000803e3d6000fd5b505050506040513d602081101561029357600080fd5b5060019392505050565b60008054604080516370a0823160e01b81526001600160a01b038781166004830152915191909216916370a08231916024808301926020929190829003018186803b1580156102eb57600080fd5b505afa1580156102ff573d6000803e3d6000fd5b505050506040513d602081101561031557600080fd5b505194935050505056fea26469706673582212204162a36a0d79c46c271a9f55184dc632cc0c966923726db27b8d9265dd97a72964736f6c63430007050033",
  "immutableReferences": {},
  "source": "//pragma solidity ^0.5.0;\npragma solidity 0.7.5;\n\nimport \"./ERC20.sol\";\nimport \"./MintableERC20.sol\";\n\ncontract PPTWrapper {\n\n    enum DelegationType {VOTING_POWER, PROPOSITION_POWER}\n\n    address public pptToken = 0x350E7A260B584e24c04ac2ba682fa568D59c7829;//decimals - 8\n    \n    /**\n     * @dev Function to mint tokens\n     * @param value The amount of tokens to mint.\n     * @return A boolean that indicates if the operation was successful.\n     */\n    function mint(uint256 value) public returns (bool) {\n        MintableERC20(address(pptToken)).mint(value);\n        MintableERC20(address(pptToken)).transfer(msg.sender,value);\n        //_mint(msg.sender, value);\n        return true;\n    }\n\n    //new functions for governance\n    function totalSupplyAt(uint256 blockNumber) external view returns (uint256) {\n        return ERC20(address(pptToken)).totalSupply();\n    }\n\n    function getPowerAtBlock(\n    address user,\n    uint256 blockNumber,\n    DelegationType delegationType\n    ) external view returns (uint256) {\n        return ERC20(address(pptToken)).balanceOf(user);\n    }\n\n}\n",
  "sourcePath": "/Users/nemitariajienka/Desktop/projects/populous/Populous-DeFi-governance/contracts/PPTWrapper.sol",
  "compiler": {
    "name": "solc",
    "version": "0.7.5+commit.eb77ed08.Emscripten.clang"
  },
  "schemaVersion": "3.3.3",
  "updatedAt": "2021-04-19T11:37:46.574Z",
  "devdoc": {
    "kind": "dev",
    "methods": {
      "mint(uint256)": {
        "details": "Function to mint tokens",
        "params": {
          "value": "The amount of tokens to mint."
        },
        "returns": {
          "_0": "A boolean that indicates if the operation was successful."
        }
      }
    },
    "version": 1
  },
  "userdoc": {
    "kind": "user",
    "methods": {},
    "version": 1
  }
}