{
  "contractName": "ProposalValidator",
  "abi": [
    {
      "inputs": [
        {
          "internalType": "uint256",
          "name": "propositionThreshold",
          "type": "uint256"
        },
        {
          "internalType": "uint256",
          "name": "votingDuration",
          "type": "uint256"
        },
        {
          "internalType": "uint256",
          "name": "voteDifferential",
          "type": "uint256"
        },
        {
          "internalType": "uint256",
          "name": "minimumQuorum",
          "type": "uint256"
        }
      ],
      "stateMutability": "nonpayable",
      "type": "constructor"
    },
    {
      "inputs": [],
      "name": "MINIMUM_QUORUM",
      "outputs": [
        {
          "internalType": "uint256",
          "name": "",
          "type": "uint256"
        }
      ],
      "stateMutability": "view",
      "type": "function"
    },
    {
      "inputs": [],
      "name": "ONE_HUNDRED_WITH_PRECISION",
      "outputs": [
        {
          "internalType": "uint256",
          "name": "",
          "type": "uint256"
        }
      ],
      "stateMutability": "view",
      "type": "function"
    },
    {
      "inputs": [],
      "name": "PROPOSITION_THRESHOLD",
      "outputs": [
        {
          "internalType": "uint256",
          "name": "",
          "type": "uint256"
        }
      ],
      "stateMutability": "view",
      "type": "function"
    },
    {
      "inputs": [],
      "name": "VOTE_DIFFERENTIAL",
      "outputs": [
        {
          "internalType": "uint256",
          "name": "",
          "type": "uint256"
        }
      ],
      "stateMutability": "view",
      "type": "function"
    },
    {
      "inputs": [],
      "name": "VOTING_DURATION",
      "outputs": [
        {
          "internalType": "uint256",
          "name": "",
          "type": "uint256"
        }
      ],
      "stateMutability": "view",
      "type": "function"
    },
    {
      "inputs": [
        {
          "internalType": "contract IPopulousGovernanceV2",
          "name": "governance",
          "type": "address"
        },
        {
          "internalType": "address",
          "name": "user",
          "type": "address"
        }
      ],
      "name": "validateCreatorOfProposal",
      "outputs": [
        {
          "internalType": "bool",
          "name": "",
          "type": "bool"
        }
      ],
      "stateMutability": "view",
      "type": "function"
    },
    {
      "inputs": [
        {
          "internalType": "contract IPopulousGovernanceV2",
          "name": "governance",
          "type": "address"
        },
        {
          "internalType": "address",
          "name": "user",
          "type": "address"
        }
      ],
      "name": "validateProposalCancellation",
      "outputs": [
        {
          "internalType": "bool",
          "name": "",
          "type": "bool"
        }
      ],
      "stateMutability": "view",
      "type": "function"
    },
    {
      "inputs": [
        {
          "internalType": "contract IPopulousGovernanceV2",
          "name": "governance",
          "type": "address"
        },
        {
          "internalType": "address",
          "name": "user",
          "type": "address"
        }
      ],
      "name": "isPropositionPowerEnough",
      "outputs": [
        {
          "internalType": "bool",
          "name": "",
          "type": "bool"
        }
      ],
      "stateMutability": "view",
      "type": "function"
    },
    {
      "inputs": [
        {
          "internalType": "contract IPopulousGovernanceV2",
          "name": "governance",
          "type": "address"
        }
      ],
      "name": "getMinimumPropositionPowerNeeded",
      "outputs": [
        {
          "internalType": "uint256",
          "name": "",
          "type": "uint256"
        }
      ],
      "stateMutability": "view",
      "type": "function"
    },
    {
      "inputs": [
        {
          "internalType": "contract IPopulousGovernanceV2",
          "name": "governance",
          "type": "address"
        },
        {
          "internalType": "uint256",
          "name": "proposalId",
          "type": "uint256"
        }
      ],
      "name": "isProposalPassed",
      "outputs": [
        {
          "internalType": "bool",
          "name": "",
          "type": "bool"
        }
      ],
      "stateMutability": "view",
      "type": "function"
    },
    {
      "inputs": [
        {
          "internalType": "uint256",
          "name": "votingSupply",
          "type": "uint256"
        }
      ],
      "name": "getMinimumVotingPowerNeeded",
      "outputs": [
        {
          "internalType": "uint256",
          "name": "",
          "type": "uint256"
        }
      ],
      "stateMutability": "view",
      "type": "function"
    },
    {
      "inputs": [
        {
          "internalType": "contract IPopulousGovernanceV2",
          "name": "governance",
          "type": "address"
        },
        {
          "internalType": "uint256",
          "name": "proposalId",
          "type": "uint256"
        }
      ],
      "name": "isQuorumValid",
      "outputs": [
        {
          "internalType": "bool",
          "name": "",
          "type": "bool"
        }
      ],
      "stateMutability": "view",
      "type": "function"
    },
    {
      "inputs": [
        {
          "internalType": "contract IPopulousGovernanceV2",
          "name": "governance",
          "type": "address"
        },
        {
          "internalType": "uint256",
          "name": "proposalId",
          "type": "uint256"
        }
      ],
      "name": "isVoteDifferentialValid",
      "outputs": [
        {
          "internalType": "bool",
          "name": "",
          "type": "bool"
        }
      ],
      "stateMutability": "view",
      "type": "function"
    }
  ],
  "bytecode": "0x61010060405234801561001157600080fd5b50604051610f23380380610f2383398101604081905261003091610047565b60809390935260a09190915260c05260e05261007c565b6000806000806080858703121561005c578384fd5b505082516020840151604085015160609095015191969095509092509050565b60805160a05160c05160e051610e636100c06000398061040b528061055b5250806102a6528061030e5250806103325250806104ae52806105815250610e636000f3fe608060405234801561001057600080fd5b50600436106100cf5760003560e01c8063a438d2081161008c578063bd953e9011610066578063bd953e9014610176578063e50f840014610189578063fd58afd41461019c578063fe8982e1146101a4576100cf565b8063a438d20814610153578063ace432091461015b578063b159beac1461016e576100cf565b80630332f025146100d457806306fbb3ab146100fd5780631d73fd6d1461011057806347293e65146101255780637aa50080146101385780639125fb581461014b575b600080fd5b6100e76100e2366004610b4e565b6101b7565b6040516100f49190610d9e565b60405180910390f35b6100e761010b366004610b86565b6101cc565b6101186101e9565b6040516100f49190610da9565b6100e7610133366004610b4e565b6101ef565b6100e7610146366004610b86565b610203565b61011861030c565b610118610330565b6100e7610169366004610b86565b610354565b610118610409565b610118610184366004610b32565b61042d565b610118610197366004610d5a565b61054d565b61011861057f565b6100e76101b2366004610b4e565b6105a3565b60006101c383836105a3565b90505b92915050565b60006101d88383610354565b80156101c357506101c38383610203565b61271081565b60006101fb83836105a3565b159392505050565b600061020d610842565b604051633656de2160e01b81526001600160a01b03851690633656de2190610239908690600401610da9565b60006040518083038186803b15801561025157600080fd5b505afa158015610265573d6000803e3d6000fd5b505050506040513d6000823e601f3d908101601f1916820160405261028d9190810190610bb1565b610180810151610160820151919250908101906102e4907f0000000000000000000000000000000000000000000000000000000000000000906102de9084906102d8906127106106ab565b90610704565b90610746565b610302826102d86127108661016001516106ab90919063ffffffff16565b1195945050505050565b7f000000000000000000000000000000000000000000000000000000000000000081565b7f000000000000000000000000000000000000000000000000000000000000000081565b600061035e610842565b604051633656de2160e01b81526001600160a01b03851690633656de219061038a908690600401610da9565b60006040518083038186803b1580156103a257600080fd5b505afa1580156103b6573d6000803e3d6000fd5b505050506040513d6000823e601f3d908101601f191682016040526103de9190810190610bb1565b610180810151610160820151919250016103f78161054d565b82610160015110159250505092915050565b7f000000000000000000000000000000000000000000000000000000000000000081565b600080826001600160a01b03166306be3e8e6040518163ffffffff1660e01b815260040160206040518083038186803b15801561046957600080fd5b505afa15801561047d573d6000803e3d6000fd5b505050506040513d601f19601f820116820180604052508101906104a19190610b16565b90506105446127106102d87f0000000000000000000000000000000000000000000000000000000000000000846001600160a01b0316633bb879ae6040518163ffffffff1660e01b815260040160206040518083038186803b15801561050657600080fd5b505afa15801561051a573d6000803e3d6000fd5b505050506040513d601f19601f8201168201806040525081019061053e9190610d72565b906106ab565b9150505b919050565b60006101c66127106102d8847f00000000000000000000000000000000000000000000000000000000000000006106ab565b7f000000000000000000000000000000000000000000000000000000000000000081565b600080836001600160a01b03166306be3e8e6040518163ffffffff1660e01b815260040160206040518083038186803b1580156105df57600080fd5b505afa1580156105f3573d6000803e3d6000fd5b505050506040513d601f19601f820116820180604052508101906106179190610b16565b90506106228461042d565b6040516001628d668b60e01b031981526001600160a01b0383169063ff72997590610651908790600401610d8a565b60206040518083038186803b15801561066957600080fd5b505afa15801561067d573d6000803e3d6000fd5b505050506040513d601f19601f820116820180604052508101906106a19190610d72565b1015949350505050565b6000826106ba575060006101c6565b828202828482816106c757fe5b04146101c35760405162461bcd60e51b8152600401808060200182810382526021815260200180610e0d6021913960400191505060405180910390fd5b60006101c383836040518060400160405280601a81526020017f536166654d6174683a206469766973696f6e206279207a65726f0000000000008152506107a0565b6000828201838110156101c3576040805162461bcd60e51b815260206004820152601b60248201527f536166654d6174683a206164646974696f6e206f766572666c6f770000000000604482015290519081900360640190fd5b6000818361082c5760405162461bcd60e51b81526004018080602001828103825283818151815260200191508051906020019080838360005b838110156107f15781810151838201526020016107d9565b50505050905090810190601f16801561081e5780820380516001836020036101000a031916815260200191505b509250505060405180910390fd5b50600083858161083857fe5b0495945050505050565b6040518061022001604052806000815260200160006001600160a01b0316815260200160006001600160a01b031681526020016060815260200160608152602001606081526020016060815260200160608152602001600081526020016000815260200160008152602001600081526020016000815260200160001515815260200160001515815260200160006001600160a01b03168152602001600080191681525090565b805161054881610df4565b600082601f830112610903578081fd5b815161091661091182610dd6565b610db2565b81815291506020808301908481018184028601820187101561093757600080fd5b60005b8481101561095f57815161094d81610df4565b8452928201929082019060010161093a565b505050505092915050565b600082601f83011261097a578081fd5b815161098861091182610dd6565b8181529150602080830190848101818402860182018710156109a957600080fd5b60005b8481101561095f576109bd82610b06565b845292820192908201906001016109ac565b6000601f83818401126109e0578182fd5b82516109ee61091182610dd6565b818152925060208084019085810160005b84811015610a9c578151880189603f820112610a1a57600080fd5b8381015167ffffffffffffffff811115610a3057fe5b610a41818901601f19168601610db2565b81815260408c81848601011115610a5757600080fd5b60005b83811015610a75578481018201518382018901528701610a5a565b83811115610a865760008885850101525b50508652505092820192908201906001016109ff565b50505050505092915050565b600082601f830112610ab8578081fd5b8151610ac661091182610dd6565b818152915060208083019084810181840286018201871015610ae757600080fd5b60005b8481101561095f57815184529282019290820190600101610aea565b8051801515811461054857600080fd5b600060208284031215610b27578081fd5b81516101c381610df4565b600060208284031215610b43578081fd5b81356101c381610df4565b60008060408385031215610b60578081fd5b8235610b6b81610df4565b91506020830135610b7b81610df4565b809150509250929050565b60008060408385031215610b98578182fd5b8235610ba381610df4565b946020939093013593505050565b600060208284031215610bc2578081fd5b815167ffffffffffffffff80821115610bd9578283fd5b8184019150610220808387031215610bef578384fd5b610bf881610db2565b905082518152610c0a602084016108e8565b6020820152610c1b604084016108e8565b6040820152606083015182811115610c31578485fd5b610c3d878286016108f3565b606083015250608083015182811115610c54578485fd5b610c6087828601610aa8565b60808301525060a083015182811115610c77578485fd5b610c83878286016109cf565b60a08301525060c083015182811115610c9a578485fd5b610ca6878286016109cf565b60c08301525060e083015182811115610cbd578485fd5b610cc98782860161096a565b60e083015250610100838101519082015261012080840151908201526101408084015190820152610160808401519082015261018080840151908201526101a09150610d16828401610b06565b828201526101c09150610d2a828401610b06565b828201526101e09150610d3e8284016108e8565b9181019190915261020091820151918101919091529392505050565b600060208284031215610d6b578081fd5b5035919050565b600060208284031215610d83578081fd5b5051919050565b6001600160a01b0391909116815260200190565b901515815260200190565b90815260200190565b60405181810167ffffffffffffffff81118282101715610dce57fe5b604052919050565b600067ffffffffffffffff821115610dea57fe5b5060209081020190565b6001600160a01b0381168114610e0957600080fd5b5056fe536166654d6174683a206d756c7469706c69636174696f6e206f766572666c6f77a264697066735822122004ce6c74be70520c2ffd22529eda419a7bca5487c16714f2a81f21e31fb8eb9464736f6c63430007050033",
  "immutableReferences": {
    "7582": [
      {
        "length": 32,
        "start": 1198
      },
      {
        "length": 32,
        "start": 1409
      }
    ],
    "7585": [
      {
        "length": 32,
        "start": 818
      }
    ],
    "7588": [
      {
        "length": 32,
        "start": 678
      },
      {
        "length": 32,
        "start": 782
      }
    ],
    "7591": [
      {
        "length": 32,
        "start": 1035
      },
      {
        "length": 32,
        "start": 1371
      }
    ]
  },
  "source": "// SPDX-License-Identifier: agpl-3.0\npragma solidity 0.7.5;\npragma abicoder v2;\n\nimport {IPopulousGovernanceV2} from '../interfaces/IPopulousGovernanceV2.sol';\nimport {IGovernanceStrategy} from '../interfaces/IGovernanceStrategy.sol';\nimport {IProposalValidator} from '../interfaces/IProposalValidator.sol';\nimport {SafeMath} from '../dependencies/open-zeppelin/SafeMath.sol';\n\n/**\n * @title Proposal Validator Contract, inherited by  Populous Governance Executors\n * @dev Validates/Invalidations propositions state modifications.\n * Proposition Power functions: Validates proposition creations/ cancellation\n * Voting Power functions: Validates success of propositions.\n * @author Populous\n **/\ncontract ProposalValidator is IProposalValidator {\n  using SafeMath for uint256;\n\n  uint256 public immutable override PROPOSITION_THRESHOLD;\n  uint256 public immutable override VOTING_DURATION;\n  uint256 public immutable override VOTE_DIFFERENTIAL;\n  uint256 public immutable override MINIMUM_QUORUM;\n  uint256 public constant override ONE_HUNDRED_WITH_PRECISION = 10000; // Equivalent to 100%, but scaled for precision\n\n  /**\n   * @dev Constructor\n   * @param propositionThreshold minimum percentage of supply needed to submit a proposal\n   * - In ONE_HUNDRED_WITH_PRECISION units\n   * @param votingDuration duration in blocks of the voting period\n   * @param voteDifferential percentage of supply that `for` votes need to be over `against`\n   *   in order for the proposal to pass\n   * - In ONE_HUNDRED_WITH_PRECISION units\n   * @param minimumQuorum minimum percentage of the supply in FOR-voting-power need for a proposal to pass\n   * - In ONE_HUNDRED_WITH_PRECISION units\n   **/\n  constructor(\n    uint256 propositionThreshold,\n    uint256 votingDuration,\n    uint256 voteDifferential,\n    uint256 minimumQuorum\n  ) {\n    PROPOSITION_THRESHOLD = propositionThreshold;\n    VOTING_DURATION = votingDuration;\n    VOTE_DIFFERENTIAL = voteDifferential;\n    MINIMUM_QUORUM = minimumQuorum;\n  }\n\n  /**\n   * @dev Called to validate a proposal (e.g when creating new proposal in Governance)\n   * @param governance Governance Contract\n   * @param user Address of the proposal creator\n   * @return boolean, true if can be created\n   **/\n  function validateCreatorOfProposal(\n    IPopulousGovernanceV2 governance,\n    address user\n  ) external view override returns (bool) {\n    return isPropositionPowerEnough(governance, user);\n  }\n\n  /**\n   * @dev Called to validate the cancellation of a proposal\n   * Needs to creator to have lost proposition power threashold\n   * @param governance Governance Contract\n   * @param user Address of the proposal creator\n   * @return boolean, true if can be cancelled\n   **/\n  function validateProposalCancellation(\n    IPopulousGovernanceV2 governance,\n    address user\n  ) external view override returns (bool) {\n    return !isPropositionPowerEnough(governance, user);\n  }\n\n  /**\n   * @dev Returns whether a user has enough Proposition Power to make a proposal.\n   * @param governance Governance Contract\n   * @param user Address of the user to be challenged.\n   * @return true if user has enough power\n   **/\n  function isPropositionPowerEnough(\n    IPopulousGovernanceV2 governance,\n    address user\n  ) public view override returns (bool) {\n    IGovernanceStrategy currentGovernanceStrategy = IGovernanceStrategy(\n      governance.getGovernanceStrategy()\n    );\n    return\n      currentGovernanceStrategy.getPropositionPower(user) >=\n      getMinimumPropositionPowerNeeded(governance);\n  }\n\n  /**\n   * @dev Returns the minimum Proposition Power needed to create a proposition.\n   * @param governance Governance Contract\n   * @return minimum Proposition Power needed\n   **/\n  function getMinimumPropositionPowerNeeded(IPopulousGovernanceV2 governance)\n    public\n    view\n    override\n    returns (uint256)\n  {\n    IGovernanceStrategy currentGovernanceStrategy = IGovernanceStrategy(\n      governance.getGovernanceStrategy()\n    );\n    return\n      currentGovernanceStrategy\n        .getTotalPropositionSupply()\n        .mul(PROPOSITION_THRESHOLD)\n        .div(ONE_HUNDRED_WITH_PRECISION);\n  }\n\n  /**\n   * @dev Returns whether a proposal passed or not\n   * @param governance Governance Contract\n   * @param proposalId Id of the proposal to set\n   * @return true if proposal passed\n   **/\n  function isProposalPassed(IPopulousGovernanceV2 governance, uint256 proposalId)\n    external\n    view\n    override\n    returns (bool)\n  {\n    return (isQuorumValid(governance, proposalId) &&\n      isVoteDifferentialValid(governance, proposalId));\n  }\n\n  /**\n   * @dev Calculates the minimum amount of Voting Power needed for a proposal to Pass\n   * @param votingSupply Total number of oustanding voting tokens\n   * @return voting power needed for a proposal to pass\n   **/\n  function getMinimumVotingPowerNeeded(uint256 votingSupply)\n    public\n    view\n    override\n    returns (uint256)\n  {\n    return votingSupply.mul(MINIMUM_QUORUM).div(ONE_HUNDRED_WITH_PRECISION);\n  }\n\n  /**\n   * @dev Check whether a proposal has reached quorum, ie has enough FOR-voting-power\n   * Here quorum is not to understand as number of votes reached, but number of for-votes reached\n   * @param governance Governance Contract\n   * @param proposalId Id of the proposal to verify\n   * @return voting power needed for a proposal to pass\n   **/\n  function isQuorumValid(IPopulousGovernanceV2 governance, uint256 proposalId)\n    public\n    view\n    override\n    returns (bool)\n  {\n    IPopulousGovernanceV2.ProposalWithoutVotes memory proposal = governance.getProposalById(proposalId);\n    uint256 votingSupply = proposal.forVotes + proposal.againstVotes; //IGovernanceStrategy(proposal.strategy).getTotalVotingSupply();\n\n    return proposal.forVotes >= getMinimumVotingPowerNeeded(votingSupply);\n  }\n\n  /**\n   * @dev Check whether a proposal has enough extra FOR-votes than AGAINST-votes\n   * FOR VOTES - AGAINST VOTES > VOTE_DIFFERENTIAL * voting supply\n   * @param governance Governance Contract\n   * @param proposalId Id of the proposal to verify\n   * @return true if enough For-Votes\n   **/\n  function isVoteDifferentialValid(IPopulousGovernanceV2 governance, uint256 proposalId)\n    public\n    view\n    override\n    returns (bool)\n  {\n    IPopulousGovernanceV2.ProposalWithoutVotes memory proposal = governance.getProposalById(proposalId);\n    uint256 votingSupply = proposal.forVotes + proposal.againstVotes; //IGovernanceStrategy(proposal.strategy).getTotalVotingSupply();\n\n    return (proposal.forVotes.mul(ONE_HUNDRED_WITH_PRECISION).div(votingSupply) >\n      proposal.againstVotes.mul(ONE_HUNDRED_WITH_PRECISION).div(votingSupply).add(\n        VOTE_DIFFERENTIAL\n      ));\n  }\n}\n",
  "sourcePath": "/Users/nemitariajienka/Desktop/projects/populous/Populous-DeFi-governance/contracts/governance/ProposalValidator.sol",
  "compiler": {
    "name": "solc",
    "version": "0.7.5+commit.eb77ed08.Emscripten.clang"
  },
  "schemaVersion": "3.3.3",
  "updatedAt": "2021-04-26T21:00:29.298Z",
  "devdoc": {
    "author": "Populous*",
    "details": "Validates/Invalidations propositions state modifications. Proposition Power functions: Validates proposition creations/ cancellation Voting Power functions: Validates success of propositions.",
    "kind": "dev",
    "methods": {
      "constructor": {
        "details": "Constructor",
        "params": {
          "minimumQuorum": "minimum percentage of the supply in FOR-voting-power need for a proposal to pass - In ONE_HUNDRED_WITH_PRECISION units*",
          "propositionThreshold": "minimum percentage of supply needed to submit a proposal - In ONE_HUNDRED_WITH_PRECISION units",
          "voteDifferential": "percentage of supply that `for` votes need to be over `against`   in order for the proposal to pass - In ONE_HUNDRED_WITH_PRECISION units",
          "votingDuration": "duration in blocks of the voting period"
        }
      },
      "getMinimumPropositionPowerNeeded(address)": {
        "details": "Returns the minimum Proposition Power needed to create a proposition.",
        "params": {
          "governance": "Governance Contract"
        },
        "returns": {
          "_0": "minimum Proposition Power needed*"
        }
      },
      "getMinimumVotingPowerNeeded(uint256)": {
        "details": "Calculates the minimum amount of Voting Power needed for a proposal to Pass",
        "params": {
          "votingSupply": "Total number of oustanding voting tokens"
        },
        "returns": {
          "_0": "voting power needed for a proposal to pass*"
        }
      },
      "isProposalPassed(address,uint256)": {
        "details": "Returns whether a proposal passed or not",
        "params": {
          "governance": "Governance Contract",
          "proposalId": "Id of the proposal to set"
        },
        "returns": {
          "_0": "true if proposal passed*"
        }
      },
      "isPropositionPowerEnough(address,address)": {
        "details": "Returns whether a user has enough Proposition Power to make a proposal.",
        "params": {
          "governance": "Governance Contract",
          "user": "Address of the user to be challenged."
        },
        "returns": {
          "_0": "true if user has enough power*"
        }
      },
      "isQuorumValid(address,uint256)": {
        "details": "Check whether a proposal has reached quorum, ie has enough FOR-voting-power Here quorum is not to understand as number of votes reached, but number of for-votes reached",
        "params": {
          "governance": "Governance Contract",
          "proposalId": "Id of the proposal to verify"
        },
        "returns": {
          "_0": "voting power needed for a proposal to pass*"
        }
      },
      "isVoteDifferentialValid(address,uint256)": {
        "details": "Check whether a proposal has enough extra FOR-votes than AGAINST-votes FOR VOTES - AGAINST VOTES > VOTE_DIFFERENTIAL * voting supply",
        "params": {
          "governance": "Governance Contract",
          "proposalId": "Id of the proposal to verify"
        },
        "returns": {
          "_0": "true if enough For-Votes*"
        }
      },
      "validateCreatorOfProposal(address,address)": {
        "details": "Called to validate a proposal (e.g when creating new proposal in Governance)",
        "params": {
          "governance": "Governance Contract",
          "user": "Address of the proposal creator"
        },
        "returns": {
          "_0": "boolean, true if can be created*"
        }
      },
      "validateProposalCancellation(address,address)": {
        "details": "Called to validate the cancellation of a proposal Needs to creator to have lost proposition power threashold",
        "params": {
          "governance": "Governance Contract",
          "user": "Address of the proposal creator"
        },
        "returns": {
          "_0": "boolean, true if can be cancelled*"
        }
      }
    },
    "stateVariables": {
      "MINIMUM_QUORUM": {
        "details": "Get quorum threshold constant value to compare with % of for votes/total supply",
        "return": "the quorum threshold value (100 <=> 1%)*"
      },
      "ONE_HUNDRED_WITH_PRECISION": {
        "details": "precision helper: 100% = 10000",
        "return": "one hundred percents with our chosen precision*"
      },
      "PROPOSITION_THRESHOLD": {
        "details": "Get proposition threshold constant value",
        "return": "the proposition threshold value (100 <=> 1%)*"
      },
      "VOTE_DIFFERENTIAL": {
        "details": "Get the vote differential threshold constant value to compare with % of for votes/total supply - % of against votes/total supply",
        "return": "the vote differential threshold value (100 <=> 1%)*"
      },
      "VOTING_DURATION": {
        "details": "Get voting duration constant value",
        "return": "the voting duration value in seconds*"
      }
    },
    "title": "Proposal Validator Contract, inherited by  Populous Governance Executors",
    "version": 1
  },
  "userdoc": {
    "kind": "user",
    "methods": {},
    "version": 1
  }
}