{
  "contractName": "PXTWrapper",
  "abi": [
    {
      "anonymous": false,
      "inputs": [
        {
          "indexed": true,
          "internalType": "address",
          "name": "owner",
          "type": "address"
        },
        {
          "indexed": true,
          "internalType": "address",
          "name": "spender",
          "type": "address"
        },
        {
          "indexed": false,
          "internalType": "uint256",
          "name": "value",
          "type": "uint256"
        }
      ],
      "name": "Approval",
      "type": "event"
    },
    {
      "anonymous": false,
      "inputs": [
        {
          "indexed": true,
          "internalType": "address",
          "name": "from",
          "type": "address"
        },
        {
          "indexed": true,
          "internalType": "address",
          "name": "to",
          "type": "address"
        },
        {
          "indexed": false,
          "internalType": "uint256",
          "name": "value",
          "type": "uint256"
        }
      ],
      "name": "Transfer",
      "type": "event"
    },
    {
      "inputs": [
        {
          "internalType": "address",
          "name": "owner",
          "type": "address"
        },
        {
          "internalType": "address",
          "name": "spender",
          "type": "address"
        }
      ],
      "name": "allowance",
      "outputs": [
        {
          "internalType": "uint256",
          "name": "",
          "type": "uint256"
        }
      ],
      "stateMutability": "view",
      "type": "function",
      "constant": true
    },
    {
      "inputs": [
        {
          "internalType": "address",
          "name": "spender",
          "type": "address"
        },
        {
          "internalType": "uint256",
          "name": "value",
          "type": "uint256"
        }
      ],
      "name": "approve",
      "outputs": [
        {
          "internalType": "bool",
          "name": "",
          "type": "bool"
        }
      ],
      "stateMutability": "nonpayable",
      "type": "function"
    },
    {
      "inputs": [
        {
          "internalType": "address",
          "name": "account",
          "type": "address"
        }
      ],
      "name": "balanceOf",
      "outputs": [
        {
          "internalType": "uint256",
          "name": "",
          "type": "uint256"
        }
      ],
      "stateMutability": "view",
      "type": "function",
      "constant": true
    },
    {
      "inputs": [
        {
          "internalType": "address",
          "name": "spender",
          "type": "address"
        },
        {
          "internalType": "uint256",
          "name": "subtractedValue",
          "type": "uint256"
        }
      ],
      "name": "decreaseAllowance",
      "outputs": [
        {
          "internalType": "bool",
          "name": "",
          "type": "bool"
        }
      ],
      "stateMutability": "nonpayable",
      "type": "function"
    },
    {
      "inputs": [
        {
          "internalType": "address",
          "name": "spender",
          "type": "address"
        },
        {
          "internalType": "uint256",
          "name": "addedValue",
          "type": "uint256"
        }
      ],
      "name": "increaseAllowance",
      "outputs": [
        {
          "internalType": "bool",
          "name": "",
          "type": "bool"
        }
      ],
      "stateMutability": "nonpayable",
      "type": "function"
    },
    {
      "inputs": [],
      "name": "pxtToken",
      "outputs": [
        {
          "internalType": "address",
          "name": "",
          "type": "address"
        }
      ],
      "stateMutability": "view",
      "type": "function",
      "constant": true
    },
    {
      "inputs": [],
      "name": "totalSupply",
      "outputs": [
        {
          "internalType": "uint256",
          "name": "",
          "type": "uint256"
        }
      ],
      "stateMutability": "view",
      "type": "function",
      "constant": true
    },
    {
      "inputs": [
        {
          "internalType": "address",
          "name": "recipient",
          "type": "address"
        },
        {
          "internalType": "uint256",
          "name": "amount",
          "type": "uint256"
        }
      ],
      "name": "transfer",
      "outputs": [
        {
          "internalType": "bool",
          "name": "",
          "type": "bool"
        }
      ],
      "stateMutability": "nonpayable",
      "type": "function"
    },
    {
      "inputs": [
        {
          "internalType": "address",
          "name": "sender",
          "type": "address"
        },
        {
          "internalType": "address",
          "name": "recipient",
          "type": "address"
        },
        {
          "internalType": "uint256",
          "name": "amount",
          "type": "uint256"
        }
      ],
      "name": "transferFrom",
      "outputs": [
        {
          "internalType": "bool",
          "name": "",
          "type": "bool"
        }
      ],
      "stateMutability": "nonpayable",
      "type": "function"
    },
    {
      "inputs": [
        {
          "internalType": "uint256",
          "name": "value",
          "type": "uint256"
        }
      ],
      "name": "mint",
      "outputs": [
        {
          "internalType": "bool",
          "name": "",
          "type": "bool"
        }
      ],
      "stateMutability": "nonpayable",
      "type": "function"
    },
    {
      "inputs": [
        {
          "internalType": "uint256",
          "name": "blockNumber",
          "type": "uint256"
        }
      ],
      "name": "totalSupplyAt",
      "outputs": [
        {
          "internalType": "uint256",
          "name": "",
          "type": "uint256"
        }
      ],
      "stateMutability": "view",
      "type": "function",
      "constant": true
    },
    {
      "inputs": [
        {
          "internalType": "address",
          "name": "user",
          "type": "address"
        },
        {
          "internalType": "uint256",
          "name": "blockNumber",
          "type": "uint256"
        },
        {
          "internalType": "enum PXTWrapper.DelegationType",
          "name": "delegationType",
          "type": "uint8"
        }
      ],
      "name": "getPowerAtBlock",
      "outputs": [
        {
          "internalType": "uint256",
          "name": "",
          "type": "uint256"
        }
      ],
      "stateMutability": "view",
      "type": "function",
      "constant": true
    }
  ],
  "bytecode": "0x6080604052600380546001600160a01b0319167372c770ab6ca28114504255c6b5b2e67f9a4749da17905534801561003657600080fd5b50610986806100466000396000f3fe608060405234801561001057600080fd5b50600436106100b45760003560e01c8063981b24d011610071578063981b24d0146101bf578063a0712d68146101dc578063a457c2d7146101f9578063a9059cbb14610225578063c2ffbb9114610251578063dd62ed3e14610286576100b4565b8063095ea7b3146100b95780630e344376146100f957806318160ddd1461011d57806323b872dd14610137578063395093511461016d57806370a0823114610199575b600080fd5b6100e5600480360360408110156100cf57600080fd5b506001600160a01b0381351690602001356102b4565b604080519115158252519081900360200190f35b6101016102ca565b604080516001600160a01b039092168252519081900360200190f35b6101256102d9565b60408051918252519081900360200190f35b6100e56004803603606081101561014d57600080fd5b506001600160a01b038135811691602081013590911690604001356102df565b6100e56004803603604081101561018357600080fd5b506001600160a01b038135169060200135610330565b610125600480360360208110156101af57600080fd5b50356001600160a01b0316610366565b610125600480360360208110156101d557600080fd5b5035610381565b6100e5600480360360208110156101f257600080fd5b50356103f8565b6100e56004803603604081101561020f57600080fd5b506001600160a01b0381351690602001356104ef565b6100e56004803603604081101561023b57600080fd5b506001600160a01b038135169060200135610525565b6101256004803603606081101561026757600080fd5b5080356001600160a01b0316906020810135906040013560ff16610532565b6101256004803603604081101561029c57600080fd5b506001600160a01b03813581169160200135166105b7565b60006102c13384846105e2565b50600192915050565b6003546001600160a01b031681565b60025490565b60006102ec8484846106ce565b6001600160a01b0384166000908152600160209081526040808320338085529252909120546103269186916103219086610804565b6105e2565b5060019392505050565b3360008181526001602090815260408083206001600160a01b038716845290915281205490916102c19185906103219086610861565b6001600160a01b031660009081526020819052604090205490565b600354604080516318160ddd60e01b815290516000926001600160a01b0316916318160ddd916004808301926020929190829003018186803b1580156103c657600080fd5b505afa1580156103da573d6000803e3d6000fd5b505050506040513d60208110156103f057600080fd5b505192915050565b6003546040805163140e25ad60e31b81526004810184905290516000926001600160a01b03169163a0712d6891602480830192602092919082900301818787803b15801561044557600080fd5b505af1158015610459573d6000803e3d6000fd5b505050506040513d602081101561046f57600080fd5b50506003546040805163a9059cbb60e01b81523360048201526024810185905290516001600160a01b039092169163a9059cbb916044808201926020929091908290030181600087803b1580156104c557600080fd5b505af11580156104d9573d6000803e3d6000fd5b505050506040513d602081101561032657600080fd5b3360008181526001602090815260408083206001600160a01b038716845290915281205490916102c19185906103219086610804565b60006102c13384846106ce565b600354604080516370a0823160e01b81526001600160a01b038681166004830152915160009392909216916370a0823191602480820192602092909190829003018186803b15801561058357600080fd5b505afa158015610597573d6000803e3d6000fd5b505050506040513d60208110156105ad57600080fd5b5051949350505050565b6001600160a01b03918216600090815260016020908152604080832093909416825291909152205490565b6001600160a01b0383166106275760405162461bcd60e51b815260040180806020018281038252602481526020018061092d6024913960400191505060405180910390fd5b6001600160a01b03821661066c5760405162461bcd60e51b81526004018080602001828103825260228152602001806108e66022913960400191505060405180910390fd5b6001600160a01b03808416600081815260016020908152604080832094871680845294825291829020859055815185815291517f8c5be1e5ebec7d5bd14f71427d1e84f3dd0314c0f7b2291e5b200ac8c7c3b9259281900390910190a3505050565b6001600160a01b0383166107135760405162461bcd60e51b81526004018080602001828103825260258152602001806109086025913960400191505060405180910390fd5b6001600160a01b0382166107585760405162461bcd60e51b81526004018080602001828103825260238152602001806108c36023913960400191505060405180910390fd5b6001600160a01b03831660009081526020819052604090205461077b9082610804565b6001600160a01b0380851660009081526020819052604080822093909355908416815220546107aa9082610861565b6001600160a01b038084166000818152602081815260409182902094909455805185815290519193928716927fddf252ad1be2c89b69c2b068fc378daa952ba7f163c4a11628f55a4df523b3ef92918290030190a3505050565b60008282111561085b576040805162461bcd60e51b815260206004820152601e60248201527f536166654d6174683a207375627472616374696f6e206f766572666c6f770000604482015290519081900360640190fd5b50900390565b6000828201838110156108bb576040805162461bcd60e51b815260206004820152601b60248201527f536166654d6174683a206164646974696f6e206f766572666c6f770000000000604482015290519081900360640190fd5b939250505056fe45524332303a207472616e7366657220746f20746865207a65726f206164647265737345524332303a20617070726f766520746f20746865207a65726f206164647265737345524332303a207472616e736665722066726f6d20746865207a65726f206164647265737345524332303a20617070726f76652066726f6d20746865207a65726f2061646472657373a2646970667358221220e879f4e255ebbb928d1d402bf868e9b4a073c7cf95213f439a54205d601a98f664736f6c63430007050033",
  "immutableReferences": {},
  "source": "//pragma solidity ^0.5.0;\npragma solidity 0.7.5;\n\nimport \"./ERC20.sol\";\nimport \"./MintableERC20.sol\";\n\ncontract PXTWrapper is ERC20 {\n\n    enum DelegationType {VOTING_POWER, PROPOSITION_POWER}\n\n    address public pxtToken = 0x72C770aB6CA28114504255C6b5b2e67f9a4749DA;//decimals - 8\n    \n    /**\n     * @dev Function to mint tokens\n     * @param value The amount of tokens to mint.\n     * @return A boolean that indicates if the operation was successful.\n     */\n    function mint(uint256 value) public returns (bool) {\n        MintableERC20(address(pxtToken)).mint(value);\n        MintableERC20(address(pxtToken)).transfer(msg.sender,value);\n        //_mint(msg.sender, value);\n        return true;\n    }\n\n    //new functions for governance\n    function totalSupplyAt(uint256 blockNumber) external view returns (uint256) {\n        return ERC20(address(pxtToken)).totalSupply();\n    }\n\n    function getPowerAtBlock(\n    address user,\n    uint256 blockNumber,\n    DelegationType delegationType\n    ) external view returns (uint256) {\n        return ERC20(address(pxtToken)).balanceOf(user);\n    }\n\n}\n",
  "sourcePath": "/Users/nemitariajienka/Desktop/DeFi_backup/Populous-DeFi-governance/contracts/PXTWrapper.sol",
  "compiler": {
    "name": "solc",
    "version": "0.7.5+commit.eb77ed08.Emscripten.clang"
  },
  "schemaVersion": "3.3.3",
  "updatedAt": "2021-03-25T09:42:59.411Z",
  "networkType": "ethereum",
  "devdoc": {
    "kind": "dev",
    "methods": {
      "allowance(address,address)": {
        "details": "See `IERC20.allowance`."
      },
      "approve(address,uint256)": {
        "details": "See `IERC20.approve`. Requirements: - `spender` cannot be the zero address."
      },
      "balanceOf(address)": {
        "details": "See `IERC20.balanceOf`."
      },
      "decreaseAllowance(address,uint256)": {
        "details": "Atomically decreases the allowance granted to `spender` by the caller. This is an alternative to `approve` that can be used as a mitigation for problems described in `IERC20.approve`. Emits an `Approval` event indicating the updated allowance. Requirements: - `spender` cannot be the zero address. - `spender` must have allowance for the caller of at least `subtractedValue`."
      },
      "increaseAllowance(address,uint256)": {
        "details": "Atomically increases the allowance granted to `spender` by the caller. This is an alternative to `approve` that can be used as a mitigation for problems described in `IERC20.approve`. Emits an `Approval` event indicating the updated allowance. Requirements: - `spender` cannot be the zero address."
      },
      "mint(uint256)": {
        "details": "Function to mint tokens",
        "params": {
          "value": "The amount of tokens to mint."
        },
        "returns": {
          "_0": "A boolean that indicates if the operation was successful."
        }
      },
      "totalSupply()": {
        "details": "See `IERC20.totalSupply`."
      },
      "transfer(address,uint256)": {
        "details": "See `IERC20.transfer`. Requirements: - `recipient` cannot be the zero address. - the caller must have a balance of at least `amount`."
      },
      "transferFrom(address,address,uint256)": {
        "details": "See `IERC20.transferFrom`. Emits an `Approval` event indicating the updated allowance. This is not required by the EIP. See the note at the beginning of `ERC20`; Requirements: - `sender` and `recipient` cannot be the zero address. - `sender` must have a balance of at least `value`. - the caller must have allowance for `sender`'s tokens of at least `amount`."
      }
    },
    "version": 1
  },
  "userdoc": {
    "kind": "user",
    "methods": {},
    "version": 1
  }
}